{
  "_format": "hh-sol-artifact-1",
  "contractName": "MultiVaultFacetDeposit",
  "sourceName": "contracts/multivault/multivault/facets/MultiVaultFacetDeposit.sol",
  "abi": [
    {
      "anonymous": false,
      "inputs": [
        {
          "indexed": false,
          "internalType": "uint256",
          "name": "base_chainId",
          "type": "uint256"
        },
        {
          "indexed": false,
          "internalType": "uint160",
          "name": "base_token",
          "type": "uint160"
        },
        {
          "indexed": false,
          "internalType": "string",
          "name": "name",
          "type": "string"
        },
        {
          "indexed": false,
          "internalType": "string",
          "name": "symbol",
          "type": "string"
        },
        {
          "indexed": false,
          "internalType": "uint8",
          "name": "decimals",
          "type": "uint8"
        },
        {
          "indexed": false,
          "internalType": "uint128",
          "name": "amount",
          "type": "uint128"
        },
        {
          "indexed": false,
          "internalType": "int8",
          "name": "recipient_wid",
          "type": "int8"
        },
        {
          "indexed": false,
          "internalType": "uint256",
          "name": "recipient_addr",
          "type": "uint256"
        },
        {
          "indexed": false,
          "internalType": "uint256",
          "name": "value",
          "type": "uint256"
        },
        {
          "indexed": false,
          "internalType": "uint256",
          "name": "expected_evers",
          "type": "uint256"
        },
        {
          "indexed": false,
          "internalType": "bytes",
          "name": "payload",
          "type": "bytes"
        }
      ],
      "name": "AlienTransfer",
      "type": "event"
    },
    {
      "anonymous": false,
      "inputs": [
        {
          "indexed": false,
          "internalType": "address",
          "name": "token",
          "type": "address"
        }
      ],
      "name": "BlacklistTokenAdded",
      "type": "event"
    },
    {
      "anonymous": false,
      "inputs": [
        {
          "indexed": false,
          "internalType": "address",
          "name": "token",
          "type": "address"
        }
      ],
      "name": "BlacklistTokenRemoved",
      "type": "event"
    },
    {
      "anonymous": false,
      "inputs": [
        {
          "indexed": false,
          "internalType": "address",
          "name": "sender",
          "type": "address"
        },
        {
          "indexed": false,
          "internalType": "address",
          "name": "token",
          "type": "address"
        },
        {
          "indexed": false,
          "internalType": "int8",
          "name": "recipient_wid",
          "type": "int8"
        },
        {
          "indexed": false,
          "internalType": "uint256",
          "name": "recipient_addr",
          "type": "uint256"
        },
        {
          "indexed": false,
          "internalType": "uint256",
          "name": "amount",
          "type": "uint256"
        }
      ],
      "name": "Deposit",
      "type": "event"
    },
    {
      "anonymous": false,
      "inputs": [
        {
          "indexed": false,
          "internalType": "address",
          "name": "token",
          "type": "address"
        },
        {
          "indexed": false,
          "internalType": "uint256",
          "name": "amount",
          "type": "uint256"
        }
      ],
      "name": "EarnTokenCash",
      "type": "event"
    },
    {
      "anonymous": false,
      "inputs": [
        {
          "indexed": false,
          "internalType": "address",
          "name": "token",
          "type": "address"
        },
        {
          "indexed": false,
          "internalType": "uint256",
          "name": "amount",
          "type": "uint256"
        }
      ],
      "name": "EarnTokenFee",
      "type": "event"
    },
    {
      "anonymous": false,
      "inputs": [
        {
          "indexed": false,
          "internalType": "address",
          "name": "sender",
          "type": "address"
        },
        {
          "indexed": false,
          "internalType": "address",
          "name": "token",
          "type": "address"
        },
        {
          "indexed": false,
          "internalType": "uint256",
          "name": "amount",
          "type": "uint256"
        },
        {
          "indexed": false,
          "internalType": "uint256",
          "name": "lp_amount",
          "type": "uint256"
        }
      ],
      "name": "MintLiquidity",
      "type": "event"
    },
    {
      "anonymous": false,
      "inputs": [
        {
          "indexed": false,
          "internalType": "int8",
          "name": "native_wid",
          "type": "int8"
        },
        {
          "indexed": false,
          "internalType": "uint256",
          "name": "native_addr",
          "type": "uint256"
        },
        {
          "indexed": false,
          "internalType": "uint128",
          "name": "amount",
          "type": "uint128"
        },
        {
          "indexed": false,
          "internalType": "int8",
          "name": "recipient_wid",
          "type": "int8"
        },
        {
          "indexed": false,
          "internalType": "uint256",
          "name": "recipient_addr",
          "type": "uint256"
        },
        {
          "indexed": false,
          "internalType": "uint256",
          "name": "value",
          "type": "uint256"
        },
        {
          "indexed": false,
          "internalType": "uint256",
          "name": "expected_evers",
          "type": "uint256"
        },
        {
          "indexed": false,
          "internalType": "bytes",
          "name": "payload",
          "type": "bytes"
        }
      ],
      "name": "NativeTransfer",
      "type": "event"
    },
    {
      "anonymous": false,
      "inputs": [
        {
          "indexed": false,
          "internalType": "address",
          "name": "recipient",
          "type": "address"
        },
        {
          "indexed": false,
          "internalType": "uint256",
          "name": "id",
          "type": "uint256"
        },
        {
          "indexed": false,
          "internalType": "uint256",
          "name": "amount",
          "type": "uint256"
        }
      ],
      "name": "PendingWithdrawalCancel",
      "type": "event"
    },
    {
      "anonymous": false,
      "inputs": [
        {
          "indexed": false,
          "internalType": "address",
          "name": "recipient",
          "type": "address"
        },
        {
          "indexed": false,
          "internalType": "uint256",
          "name": "id",
          "type": "uint256"
        },
        {
          "indexed": false,
          "internalType": "address",
          "name": "token",
          "type": "address"
        },
        {
          "indexed": false,
          "internalType": "uint256",
          "name": "amount",
          "type": "uint256"
        },
        {
          "indexed": false,
          "internalType": "bytes32",
          "name": "payloadId",
          "type": "bytes32"
        }
      ],
      "name": "PendingWithdrawalCreated",
      "type": "event"
    },
    {
      "anonymous": false,
      "inputs": [
        {
          "indexed": false,
          "internalType": "address",
          "name": "recipient",
          "type": "address"
        },
        {
          "indexed": false,
          "internalType": "uint256",
          "name": "id",
          "type": "uint256"
        }
      ],
      "name": "PendingWithdrawalFill",
      "type": "event"
    },
    {
      "anonymous": false,
      "inputs": [
        {
          "indexed": false,
          "internalType": "address",
          "name": "recipient",
          "type": "address"
        },
        {
          "indexed": false,
          "internalType": "uint256",
          "name": "id",
          "type": "uint256"
        }
      ],
      "name": "PendingWithdrawalForce",
      "type": "event"
    },
    {
      "anonymous": false,
      "inputs": [
        {
          "indexed": false,
          "internalType": "address",
          "name": "recipient",
          "type": "address"
        },
        {
          "indexed": false,
          "internalType": "uint256",
          "name": "id",
          "type": "uint256"
        },
        {
          "indexed": false,
          "internalType": "enum IMultiVaultFacetPendingWithdrawals.ApproveStatus",
          "name": "approveStatus",
          "type": "uint8"
        }
      ],
      "name": "PendingWithdrawalUpdateApproveStatus",
      "type": "event"
    },
    {
      "anonymous": false,
      "inputs": [
        {
          "indexed": false,
          "internalType": "address",
          "name": "recipient",
          "type": "address"
        },
        {
          "indexed": false,
          "internalType": "uint256",
          "name": "id",
          "type": "uint256"
        },
        {
          "indexed": false,
          "internalType": "uint256",
          "name": "bounty",
          "type": "uint256"
        }
      ],
      "name": "PendingWithdrawalUpdateBounty",
      "type": "event"
    },
    {
      "anonymous": false,
      "inputs": [
        {
          "indexed": false,
          "internalType": "address",
          "name": "recipient",
          "type": "address"
        },
        {
          "indexed": false,
          "internalType": "uint256",
          "name": "id",
          "type": "uint256"
        },
        {
          "indexed": false,
          "internalType": "uint256",
          "name": "amount",
          "type": "uint256"
        }
      ],
      "name": "PendingWithdrawalWithdraw",
      "type": "event"
    },
    {
      "anonymous": false,
      "inputs": [
        {
          "indexed": false,
          "internalType": "address",
          "name": "sender",
          "type": "address"
        },
        {
          "indexed": false,
          "internalType": "address",
          "name": "token",
          "type": "address"
        },
        {
          "indexed": false,
          "internalType": "uint256",
          "name": "amount",
          "type": "uint256"
        },
        {
          "indexed": false,
          "internalType": "uint256",
          "name": "underlying_amount",
          "type": "uint256"
        }
      ],
      "name": "RedeemLiquidity",
      "type": "event"
    },
    {
      "anonymous": false,
      "inputs": [
        {
          "indexed": false,
          "internalType": "address",
          "name": "token",
          "type": "address"
        },
        {
          "indexed": false,
          "internalType": "bool",
          "name": "skim_to_everscale",
          "type": "bool"
        },
        {
          "indexed": false,
          "internalType": "uint256",
          "name": "amount",
          "type": "uint256"
        }
      ],
      "name": "SkimFee",
      "type": "event"
    },
    {
      "anonymous": false,
      "inputs": [
        {
          "indexed": false,
          "internalType": "address",
          "name": "token",
          "type": "address"
        },
        {
          "indexed": false,
          "internalType": "uint256",
          "name": "activation",
          "type": "uint256"
        },
        {
          "indexed": false,
          "internalType": "bool",
          "name": "isNative",
          "type": "bool"
        },
        {
          "indexed": false,
          "internalType": "uint256",
          "name": "depositFee",
          "type": "uint256"
        },
        {
          "indexed": false,
          "internalType": "uint256",
          "name": "withdrawFee",
          "type": "uint256"
        }
      ],
      "name": "TokenActivated",
      "type": "event"
    },
    {
      "anonymous": false,
      "inputs": [
        {
          "indexed": false,
          "internalType": "address",
          "name": "token",
          "type": "address"
        },
        {
          "indexed": false,
          "internalType": "int8",
          "name": "native_wid",
          "type": "int8"
        },
        {
          "indexed": false,
          "internalType": "uint256",
          "name": "native_addr",
          "type": "uint256"
        },
        {
          "indexed": false,
          "internalType": "string",
          "name": "name_prefix",
          "type": "string"
        },
        {
          "indexed": false,
          "internalType": "string",
          "name": "symbol_prefix",
          "type": "string"
        },
        {
          "indexed": false,
          "internalType": "string",
          "name": "name",
          "type": "string"
        },
        {
          "indexed": false,
          "internalType": "string",
          "name": "symbol",
          "type": "string"
        },
        {
          "indexed": false,
          "internalType": "uint8",
          "name": "decimals",
          "type": "uint8"
        }
      ],
      "name": "TokenCreated",
      "type": "event"
    },
    {
      "anonymous": false,
      "inputs": [
        {
          "indexed": false,
          "internalType": "uint256",
          "name": "fee",
          "type": "uint256"
        }
      ],
      "name": "UpdateDefaultAlienDepositFee",
      "type": "event"
    },
    {
      "anonymous": false,
      "inputs": [
        {
          "indexed": false,
          "internalType": "uint256",
          "name": "fee",
          "type": "uint256"
        }
      ],
      "name": "UpdateDefaultAlienWithdrawFee",
      "type": "event"
    },
    {
      "anonymous": false,
      "inputs": [
        {
          "indexed": false,
          "internalType": "uint256",
          "name": "inetrest",
          "type": "uint256"
        }
      ],
      "name": "UpdateDefaultLiquidityInterest",
      "type": "event"
    },
    {
      "anonymous": false,
      "inputs": [
        {
          "indexed": false,
          "internalType": "uint256",
          "name": "fee",
          "type": "uint256"
        }
      ],
      "name": "UpdateDefaultNativeDepositFee",
      "type": "event"
    },
    {
      "anonymous": false,
      "inputs": [
        {
          "indexed": false,
          "internalType": "uint256",
          "name": "fee",
          "type": "uint256"
        }
      ],
      "name": "UpdateDefaultNativeWithdrawFee",
      "type": "event"
    },
    {
      "anonymous": false,
      "inputs": [
        {
          "indexed": false,
          "internalType": "address",
          "name": "token",
          "type": "address"
        },
        {
          "indexed": false,
          "internalType": "uint256",
          "name": "fee",
          "type": "uint256"
        }
      ],
      "name": "UpdateTokenDepositFee",
      "type": "event"
    },
    {
      "anonymous": false,
      "inputs": [
        {
          "indexed": false,
          "internalType": "address",
          "name": "token",
          "type": "address"
        },
        {
          "indexed": false,
          "internalType": "uint256",
          "name": "interest",
          "type": "uint256"
        }
      ],
      "name": "UpdateTokenLiquidityInterest",
      "type": "event"
    },
    {
      "anonymous": false,
      "inputs": [
        {
          "indexed": false,
          "internalType": "address",
          "name": "token",
          "type": "address"
        },
        {
          "indexed": false,
          "internalType": "uint256",
          "name": "fee",
          "type": "uint256"
        }
      ],
      "name": "UpdateTokenWithdrawFee",
      "type": "event"
    },
    {
      "inputs": [
        {
          "components": [
            {
              "components": [
                {
                  "internalType": "int8",
                  "name": "wid",
                  "type": "int8"
                },
                {
                  "internalType": "uint256",
                  "name": "addr",
                  "type": "uint256"
                }
              ],
              "internalType": "struct IEverscale.EverscaleAddress",
              "name": "recipient",
              "type": "tuple"
            },
            {
              "internalType": "address",
              "name": "token",
              "type": "address"
            },
            {
              "internalType": "uint256",
              "name": "amount",
              "type": "uint256"
            },
            {
              "internalType": "uint256",
              "name": "expected_evers",
              "type": "uint256"
            },
            {
              "internalType": "bytes",
              "name": "payload",
              "type": "bytes"
            }
          ],
          "internalType": "struct IMultiVaultFacetDeposit.DepositParams",
          "name": "d",
          "type": "tuple"
        }
      ],
      "name": "deposit",
      "outputs": [],
      "stateMutability": "payable",
      "type": "function"
    },
    {
      "inputs": [
        {
          "components": [
            {
              "components": [
                {
                  "internalType": "int8",
                  "name": "wid",
                  "type": "int8"
                },
                {
                  "internalType": "uint256",
                  "name": "addr",
                  "type": "uint256"
                }
              ],
              "internalType": "struct IEverscale.EverscaleAddress",
              "name": "recipient",
              "type": "tuple"
            },
            {
              "internalType": "address",
              "name": "token",
              "type": "address"
            },
            {
              "internalType": "uint256",
              "name": "amount",
              "type": "uint256"
            },
            {
              "internalType": "uint256",
              "name": "expected_evers",
              "type": "uint256"
            },
            {
              "internalType": "bytes",
              "name": "payload",
              "type": "bytes"
            }
          ],
          "internalType": "struct IMultiVaultFacetDeposit.DepositParams",
          "name": "d",
          "type": "tuple"
        },
        {
          "internalType": "uint256",
          "name": "expectedMinBounty",
          "type": "uint256"
        },
        {
          "components": [
            {
              "internalType": "address",
              "name": "recipient",
              "type": "address"
            },
            {
              "internalType": "uint256",
              "name": "id",
              "type": "uint256"
            }
          ],
          "internalType": "struct IMultiVaultFacetPendingWithdrawals.PendingWithdrawalId[]",
          "name": "pendingWithdrawalIds",
          "type": "tuple[]"
        }
      ],
      "name": "deposit",
      "outputs": [],
      "stateMutability": "payable",
      "type": "function"
    }
  ],
  "bytecode": "0x608060405234801561001057600080fd5b506118ba806100206000396000f3fe6080604052600436106100295760003560e01c806322a8c2271461002e578063533c28f214610043575b600080fd5b61004161003c366004611303565b610056565b005b610041610051366004611336565b61045b565b61005e610690565b8060200151600061006d6106ce565b6001600160a01b03831660009081526020829052604090206001015490915060ff161561009957600080fd5b826020015160006100a86106ce565b6001600160a01b03831660009081526020829052604090205490915061025b57601260ff16826001600160a01b031663313ce5676040518163ffffffff1660e01b815260040160206040518083038186803b15801561010657600080fd5b505afa15801561011a573d6000803e3d6000fd5b505050506040513d601f19601f8201168201806040525081019061013e9190611444565b60ff16111580156101c557506020826001600160a01b03166395d89b416040518163ffffffff1660e01b815260040160006040518083038186803b15801561018557600080fd5b505afa158015610199573d6000803e3d6000fd5b505050506040513d6000823e601f3d908101601f191682016040526101c19190810190611290565b5111155b801561024757506020826001600160a01b03166306fdde036040518163ffffffff1660e01b815260040160006040518083038186803b15801561020757600080fd5b505afa15801561021b573d6000803e3d6000fd5b505050506040513d6000823e601f3d908101601f191682016040526102439190810190611290565b5111155b61025057600080fd5b61025b8260006106d3565b60006102656106ce565b600681015490915060ff161561027a57600080fd5b60006102846106ce565b9050600061029c886040015189602001516000610848565b6020808a0180516001600160a01b039081166000908152928690526040808420600490810154935183168552908420015493945060ff909116926101009004161561030f576020808b01516001600160a01b03908116600090815291869052604090912060040154610100900416610315565b89602001515b905081156103a4576040808b01519051632770a7eb60e21b81526001600160a01b03831691639dc29fac9161034e913391600401611505565b600060405180830381600087803b15801561036857600080fd5b505af115801561037c573d6000803e3d6000fd5b50505050828a60400181815161039291906117fa565b90525061039f8a3461091e565b6103e0565b60408a01516103c1906001600160a01b03831690339030906109c1565b828a6040018181516103d391906117fa565b9052506103e08a34610a1f565b6103ee8a6020015184610be6565b6103f6610d03565b6020808b01518b5180519201516040808e015190517fe409d1d71ace5ea2fcd25266d376c89f7d7c6a96b5805876a8aff75fde17acae9461043f943394909391929091906114ad565b60405180910390a1505050505050505050610458610d5e565b50565b8260200151600061046a6106ce565b6001600160a01b03831660009081526020829052604090206001015490915060ff161561049657600080fd5b61049e610690565b60006104a86106ce565b604087015160208801519192509081906104cd906001600160a01b03163330846109c1565b60005b86518110156106195760008782815181106104fb57634e487b7160e01b600052603260045260246000fd5b60200260200101519050600061051082610d6f565b9050600081602001511161052357600080fd5b8a602001516001600160a01b031681600001516001600160a01b03161461054957600080fd5b602081015161055890866117fa565b945080604001518461056a91906117a3565b82516001600160a01b031660009081526015880160209081526040808320828701805185529252808320600101929092558451905191519296507fbc5f3ee2546f0e8116c8c69c92f3b9c87ceb55f3f6332a0a4867061309f48ed6926105d09290611505565b60405180910390a181516040820151602083015161060492916105f2916117fa565b83516001600160a01b03169190610e3c565b505080806106119061183d565b9150506104d0565b508688604001518261062b91906117fa565b101561063657600080fd5b600061064c89604001518a602001516000610848565b905061065881836117fa565b60408a01526106678934610a1f565b610675896020015182610be6565b61067d610d03565b50505050610689610d5e565b5050505050565b600061069a610e5b565b8054909150600214156106c85760405162461bcd60e51b81526004016106bf90611680565b60405180910390fd5b60029055565b600290565b60006106dd6106ce565b90506000826106f05781600401546106f6565b81600201545b905060008361070957826005015461070f565b82600301545b90506040518060c00160405280438152602001600015158152602001838152602001828152602001851515815260200160006001600160a01b0316815250836000016000876001600160a01b03166001600160a01b031681526020019081526020016000206000820151816000015560208201518160010160006101000a81548160ff021916908315150217905550604082015181600201556060820151816003015560808201518160040160006101000a81548160ff02191690831515021790555060a08201518160040160016101000a8154816001600160a01b0302191690836001600160a01b031602179055509050507f0c051f0fa97177b7a4bae4cd3f0c633d0813e1da77361496a35b6ff7e117ea31854386858560405161083995949392919061151e565b60405180910390a15050505050565b6000806108536106ce565b6001600160a01b03808616600090815260208381526040808320815160c08101835281548152600182015460ff90811615159482019490945260028201549281019290925260038101546060830152600401549182161515608082015261010090910490921660a083015291925090808560018111156108e357634e487b7160e01b600052602160045260246000fd5b146108f25781606001516108f8565b81604001515b905061271061090788836117db565b61091191906117bb565b93505050505b9392505050565b60006109286106ce565b6020808501516001600160a01b03166000908152600180840183526040808320815180830183528154850b850b90940b808552920154838501819052818901518951805196015160608b015160808c0151945198995095977f7f32057db4309ae7b25ae0bebf8ce22c203bda406aa486f5c01363ec4ad4ff13976109b3979495939490938c9261154c565b60405180910390a150505050565b610a19846323b872dd60e01b8585856040516024016109e2939291906114e1565b60408051601f198184030181529190526020810180516001600160e01b03166001600160e01b031990931692909217909152610e60565b50505050565b7f4a75ed314c66620928056921a6aaaba7ff617e5900f664492cdd34a1e37e0c0846836020015184602001516001600160a01b03166306fdde036040518163ffffffff1660e01b815260040160006040518083038186803b158015610a8357600080fd5b505afa158015610a97573d6000803e3d6000fd5b505050506040513d6000823e601f3d908101601f19168201604052610abf9190810190611290565b85602001516001600160a01b03166395d89b416040518163ffffffff1660e01b815260040160006040518083038186803b158015610afc57600080fd5b505afa158015610b10573d6000803e3d6000fd5b505050506040513d6000823e601f3d908101601f19168201604052610b389190810190611290565b86602001516001600160a01b031663313ce5676040518163ffffffff1660e01b815260040160206040518083038186803b158015610b7557600080fd5b505afa158015610b89573d6000803e3d6000fd5b505050506040513d601f19601f82011682018060405250810190610bad9190611444565b6040808901518951805160209091015160608c015160808d01519451610bda9a99989796958d92916116b7565b60405180910390a15050565b6000610bf06106ce565b905081610bfd5750610cff565b6001600160a01b0383166000818152601a830160208181526040808420815160808101835281548082526001830154828601526002830154938201939093526003909101546060820152948452919052610c58575082610c91565b6000612710836060015186610c6d91906117db565b610c7791906117bb565b9050610c8381866117fa565b9150610c8f8682610eef565b505b80610c9e57505050610cff565b6001600160a01b038516600090815260138401602052604081208054839290610cc89084906117a3565b90915550506040517f08048a94734163493ed404ed3c277587011804858159ded940ef190b79210e40906108399087908490611505565b5050565b6000610d0d6106ce565b601c8101549091506001600160a01b03168015610cff576040516001600160a01b038216904780156108fc02916000818181858888f19350505050158015610d59573d6000803e3d6000fd5b505050565b6000610d68610e5b565b6001905550565b610d776110b8565b6000610d816106ce565b83516001600160a01b0390811660009081526015830160209081526040808320828901518452825291829020825160a081018452815490941684526001810154918401919091526002810154918301919091526003808201546060840152600482015493945091929091608084019160ff1690811115610e1157634e487b7160e01b600052602160045260246000fd5b6003811115610e3057634e487b7160e01b600052602160045260246000fd5b9052509150505b919050565b610d598363a9059cbb60e01b84846040516024016109e2929190611505565b600190565b6000610eb5826040518060400160405280602081526020017f5361666545524332303a206c6f772d6c6576656c2063616c6c206661696c6564815250856001600160a01b0316610f779092919063ffffffff16565b805190915015610d595780806020019051810190610ed39190611270565b610d595760405162461bcd60e51b81526004016106bf90611636565b6000610ef96106ce565b905081610f065750610cff565b6001600160a01b0383166000908152601a8201602052604081206002018054849290610f339084906117a3565b90915550506040517f27f709cebd025c144ca5c2ace6b8b708999e4bd14a82106cfce6c1991cf9f51790610f6a9085908590611505565b60405180910390a1505050565b6060610f868484600085610f8e565b949350505050565b606082471015610fb05760405162461bcd60e51b81526004016106bf906115b9565b610fb98561104e565b610fd55760405162461bcd60e51b81526004016106bf906115ff565b600080866001600160a01b03168587604051610ff19190611491565b60006040518083038185875af1925050503d806000811461102e576040519150601f19603f3d011682016040523d82523d6000602084013e611033565b606091505b509150915061104382828661107f565b979650505050505050565b600080826001600160a01b0316803b806020016040519081016040528181526000908060200190933c511192915050565b6060831561108e575081610917565b82511561109e5782518084602001fd5b8160405162461bcd60e51b81526004016106bf91906115a6565b6040518060a0016040528060006001600160a01b031681526020016000815260200160008152602001600081526020016000600381111561110957634e487b7160e01b600052602160045260246000fd5b905290565b80356001600160a01b0381168114610e3757600080fd5b600082601f830112611135578081fd5b81356111486111438261177b565b611751565b81815284602083860101111561115c578283fd5b816020850160208301379081016020019190915292915050565b600060c08284031215611187578081fd5b60405160a0810167ffffffffffffffff82821081831117156111ab576111ab61186e565b816040528293506111bc8686611211565b83526111ca6040860161110e565b6020840152606085013560408401526080850135606084015260a08501359150808211156111f757600080fd5b5061120485828601611125565b6080830152505092915050565b600060408284031215611222578081fd5b6040516040810181811067ffffffffffffffff821117156112455761124561186e565b6040529050808235600081900b811461125d57600080fd5b8152602092830135920191909152919050565b600060208284031215611281578081fd5b81518015158114610917578182fd5b6000602082840312156112a1578081fd5b815167ffffffffffffffff8111156112b7578182fd5b8201601f810184136112c7578182fd5b80516112d56111438261177b565b8181528560208385010111156112e9578384fd5b6112fa826020830160208601611811565b95945050505050565b600060208284031215611314578081fd5b813567ffffffffffffffff81111561132a578182fd5b610f8684828501611176565b60008060006060848603121561134a578182fd5b833567ffffffffffffffff80821115611361578384fd5b61136d87838801611176565b9450602091508186013593506040808701358281111561138b578485fd5b8701601f8101891361139b578485fd5b8035838111156113ad576113ad61186e565b6113ba8586830201611751565b81815285810190838701858402850188018d10156113d6578889fd5b8894505b838510156114325785818e0312156113f0578889fd5b855186810181811089821117156114095761140961186e565b87526114148261110e565b815281890135898201528352600194909401939187019185016113da565b50809750505050505050509250925092565b600060208284031215611455578081fd5b815160ff81168114610917578182fd5b6000815180845261147d816020860160208601611811565b601f01601f19169290920160200192915050565b600082516114a3818460208701611811565b9190910192915050565b6001600160a01b03958616815293909416602084015260009190910b60408301526060820152608081019190915260a00190565b6001600160a01b039384168152919092166020820152604081019190915260600190565b6001600160a01b03929092168252602082015260400190565b6001600160a01b03959095168552602085019390935290151560408401526060830152608082015260a00190565b60006101008a820b83528960208401526001600160801b038916604084015287820b60608401528660808401528560a08401528460c08401528060e084015261159781840185611465565b9b9a5050505050505050505050565b6000602082526109176020830184611465565b60208082526026908201527f416464726573733a20696e73756666696369656e742062616c616e636520666f6040820152651c8818d85b1b60d21b606082015260800190565b6020808252601d908201527f416464726573733a2063616c6c20746f206e6f6e2d636f6e7472616374000000604082015260600190565b6020808252602a908201527f5361666545524332303a204552433230206f7065726174696f6e20646964206e6040820152691bdd081cdd58d8d9595960b21b606082015260800190565b6020808252601f908201527f5265656e7472616e637947756172643a207265656e7472616e742063616c6c00604082015260600190565b8b81526001600160a01b038b166020820152610160604082018190526000906116e28382018d611465565b905082810360608401526116f6818c611465565b905060ff8a1660808401526001600160801b03891660a084015287820b60c08401528660e0840152856101008401528461012084015282810361014084015261173f8185611465565b9e9d5050505050505050505050505050565b60405181810167ffffffffffffffff811182821017156117735761177361186e565b604052919050565b600067ffffffffffffffff8211156117955761179561186e565b50601f01601f191660200190565b600082198211156117b6576117b6611858565b500190565b6000826117d657634e487b7160e01b81526012600452602481fd5b500490565b60008160001904831182151516156117f5576117f5611858565b500290565b60008282101561180c5761180c611858565b500390565b60005b8381101561182c578181015183820152602001611814565b83811115610a195750506000910152565b600060001982141561185157611851611858565b5060010190565b634e487b7160e01b600052601160045260246000fd5b634e487b7160e01b600052604160045260246000fdfea264697066735822122094b0cfb352394709f838afa8c331c37c4675bb28bfda2caed6fb4cbaf1d1817264736f6c63430008000033",
  "linkReferences": {},
  "deployedLinkReferences": {}
}