{
  "_format": "hh-sol-artifact-1",
  "contractName": "MultiVaultFacetDeposit",
  "sourceName": "contracts/multivault/multivault/facets/MultiVaultFacetDeposit.sol",
  "abi": [
    {
      "anonymous": false,
      "inputs": [
        {
          "indexed": false,
          "internalType": "uint256",
          "name": "base_chainId",
          "type": "uint256"
        },
        {
          "indexed": false,
          "internalType": "uint160",
          "name": "base_token",
          "type": "uint160"
        },
        {
          "indexed": false,
          "internalType": "string",
          "name": "name",
          "type": "string"
        },
        {
          "indexed": false,
          "internalType": "string",
          "name": "symbol",
          "type": "string"
        },
        {
          "indexed": false,
          "internalType": "uint8",
          "name": "decimals",
          "type": "uint8"
        },
        {
          "indexed": false,
          "internalType": "uint128",
          "name": "amount",
          "type": "uint128"
        },
        {
          "indexed": false,
          "internalType": "int8",
          "name": "recipient_wid",
          "type": "int8"
        },
        {
          "indexed": false,
          "internalType": "uint256",
          "name": "recipient_addr",
          "type": "uint256"
        },
        {
          "indexed": false,
          "internalType": "uint256",
          "name": "value",
          "type": "uint256"
        },
        {
          "indexed": false,
          "internalType": "uint256",
          "name": "expected_evers",
          "type": "uint256"
        },
        {
          "indexed": false,
          "internalType": "bytes",
          "name": "payload",
          "type": "bytes"
        }
      ],
      "name": "AlienTransfer",
      "type": "event"
    },
    {
      "anonymous": false,
      "inputs": [
        {
          "indexed": false,
          "internalType": "address",
          "name": "token",
          "type": "address"
        }
      ],
      "name": "BlacklistTokenAdded",
      "type": "event"
    },
    {
      "anonymous": false,
      "inputs": [
        {
          "indexed": false,
          "internalType": "address",
          "name": "token",
          "type": "address"
        }
      ],
      "name": "BlacklistTokenRemoved",
      "type": "event"
    },
    {
      "anonymous": false,
      "inputs": [
        {
          "indexed": false,
          "internalType": "address",
          "name": "sender",
          "type": "address"
        },
        {
          "indexed": false,
          "internalType": "address",
          "name": "token",
          "type": "address"
        },
        {
          "indexed": false,
          "internalType": "int8",
          "name": "recipient_wid",
          "type": "int8"
        },
        {
          "indexed": false,
          "internalType": "uint256",
          "name": "recipient_addr",
          "type": "uint256"
        },
        {
          "indexed": false,
          "internalType": "uint256",
          "name": "amount",
          "type": "uint256"
        }
      ],
      "name": "Deposit",
      "type": "event"
    },
    {
      "anonymous": false,
      "inputs": [
        {
          "indexed": false,
          "internalType": "address",
          "name": "token",
          "type": "address"
        },
        {
          "indexed": false,
          "internalType": "uint256",
          "name": "amount",
          "type": "uint256"
        }
      ],
      "name": "EarnTokenCash",
      "type": "event"
    },
    {
      "anonymous": false,
      "inputs": [
        {
          "indexed": false,
          "internalType": "address",
          "name": "token",
          "type": "address"
        },
        {
          "indexed": false,
          "internalType": "uint256",
          "name": "amount",
          "type": "uint256"
        }
      ],
      "name": "EarnTokenFee",
      "type": "event"
    },
    {
      "anonymous": false,
      "inputs": [
        {
          "indexed": false,
          "internalType": "address",
          "name": "sender",
          "type": "address"
        },
        {
          "indexed": false,
          "internalType": "address",
          "name": "token",
          "type": "address"
        },
        {
          "indexed": false,
          "internalType": "uint256",
          "name": "amount",
          "type": "uint256"
        },
        {
          "indexed": false,
          "internalType": "uint256",
          "name": "lp_amount",
          "type": "uint256"
        }
      ],
      "name": "MintLiquidity",
      "type": "event"
    },
    {
      "anonymous": false,
      "inputs": [
        {
          "indexed": false,
          "internalType": "int8",
          "name": "native_wid",
          "type": "int8"
        },
        {
          "indexed": false,
          "internalType": "uint256",
          "name": "native_addr",
          "type": "uint256"
        },
        {
          "indexed": false,
          "internalType": "uint128",
          "name": "amount",
          "type": "uint128"
        },
        {
          "indexed": false,
          "internalType": "int8",
          "name": "recipient_wid",
          "type": "int8"
        },
        {
          "indexed": false,
          "internalType": "uint256",
          "name": "recipient_addr",
          "type": "uint256"
        },
        {
          "indexed": false,
          "internalType": "uint256",
          "name": "value",
          "type": "uint256"
        },
        {
          "indexed": false,
          "internalType": "uint256",
          "name": "expected_evers",
          "type": "uint256"
        },
        {
          "indexed": false,
          "internalType": "bytes",
          "name": "payload",
          "type": "bytes"
        }
      ],
      "name": "NativeTransfer",
      "type": "event"
    },
    {
      "anonymous": false,
      "inputs": [
        {
          "indexed": false,
          "internalType": "address",
          "name": "recipient",
          "type": "address"
        },
        {
          "indexed": false,
          "internalType": "uint256",
          "name": "id",
          "type": "uint256"
        },
        {
          "indexed": false,
          "internalType": "uint256",
          "name": "amount",
          "type": "uint256"
        }
      ],
      "name": "PendingWithdrawalCancel",
      "type": "event"
    },
    {
      "anonymous": false,
      "inputs": [
        {
          "indexed": false,
          "internalType": "address",
          "name": "recipient",
          "type": "address"
        },
        {
          "indexed": false,
          "internalType": "uint256",
          "name": "id",
          "type": "uint256"
        },
        {
          "indexed": false,
          "internalType": "address",
          "name": "token",
          "type": "address"
        },
        {
          "indexed": false,
          "internalType": "uint256",
          "name": "amount",
          "type": "uint256"
        },
        {
          "indexed": false,
          "internalType": "bytes32",
          "name": "payloadId",
          "type": "bytes32"
        }
      ],
      "name": "PendingWithdrawalCreated",
      "type": "event"
    },
    {
      "anonymous": false,
      "inputs": [
        {
          "indexed": false,
          "internalType": "address",
          "name": "recipient",
          "type": "address"
        },
        {
          "indexed": false,
          "internalType": "uint256",
          "name": "id",
          "type": "uint256"
        }
      ],
      "name": "PendingWithdrawalFill",
      "type": "event"
    },
    {
      "anonymous": false,
      "inputs": [
        {
          "indexed": false,
          "internalType": "address",
          "name": "recipient",
          "type": "address"
        },
        {
          "indexed": false,
          "internalType": "uint256",
          "name": "id",
          "type": "uint256"
        }
      ],
      "name": "PendingWithdrawalForce",
      "type": "event"
    },
    {
      "anonymous": false,
      "inputs": [
        {
          "indexed": false,
          "internalType": "address",
          "name": "recipient",
          "type": "address"
        },
        {
          "indexed": false,
          "internalType": "uint256",
          "name": "id",
          "type": "uint256"
        },
        {
          "indexed": false,
          "internalType": "enum IMultiVaultFacetPendingWithdrawals.ApproveStatus",
          "name": "approveStatus",
          "type": "uint8"
        }
      ],
      "name": "PendingWithdrawalUpdateApproveStatus",
      "type": "event"
    },
    {
      "anonymous": false,
      "inputs": [
        {
          "indexed": false,
          "internalType": "address",
          "name": "recipient",
          "type": "address"
        },
        {
          "indexed": false,
          "internalType": "uint256",
          "name": "id",
          "type": "uint256"
        },
        {
          "indexed": false,
          "internalType": "uint256",
          "name": "bounty",
          "type": "uint256"
        }
      ],
      "name": "PendingWithdrawalUpdateBounty",
      "type": "event"
    },
    {
      "anonymous": false,
      "inputs": [
        {
          "indexed": false,
          "internalType": "address",
          "name": "recipient",
          "type": "address"
        },
        {
          "indexed": false,
          "internalType": "uint256",
          "name": "id",
          "type": "uint256"
        },
        {
          "indexed": false,
          "internalType": "uint256",
          "name": "amount",
          "type": "uint256"
        }
      ],
      "name": "PendingWithdrawalWithdraw",
      "type": "event"
    },
    {
      "anonymous": false,
      "inputs": [
        {
          "indexed": false,
          "internalType": "address",
          "name": "sender",
          "type": "address"
        },
        {
          "indexed": false,
          "internalType": "address",
          "name": "token",
          "type": "address"
        },
        {
          "indexed": false,
          "internalType": "uint256",
          "name": "amount",
          "type": "uint256"
        },
        {
          "indexed": false,
          "internalType": "uint256",
          "name": "underlying_amount",
          "type": "uint256"
        }
      ],
      "name": "RedeemLiquidity",
      "type": "event"
    },
    {
      "anonymous": false,
      "inputs": [
        {
          "indexed": false,
          "internalType": "address",
          "name": "token",
          "type": "address"
        },
        {
          "indexed": false,
          "internalType": "bool",
          "name": "skim_to_everscale",
          "type": "bool"
        },
        {
          "indexed": false,
          "internalType": "uint256",
          "name": "amount",
          "type": "uint256"
        }
      ],
      "name": "SkimFee",
      "type": "event"
    },
    {
      "anonymous": false,
      "inputs": [
        {
          "indexed": false,
          "internalType": "address",
          "name": "token",
          "type": "address"
        },
        {
          "indexed": false,
          "internalType": "uint256",
          "name": "activation",
          "type": "uint256"
        },
        {
          "indexed": false,
          "internalType": "bool",
          "name": "isNative",
          "type": "bool"
        },
        {
          "indexed": false,
          "internalType": "uint256",
          "name": "depositFee",
          "type": "uint256"
        },
        {
          "indexed": false,
          "internalType": "uint256",
          "name": "withdrawFee",
          "type": "uint256"
        }
      ],
      "name": "TokenActivated",
      "type": "event"
    },
    {
      "anonymous": false,
      "inputs": [
        {
          "indexed": false,
          "internalType": "address",
          "name": "token",
          "type": "address"
        },
        {
          "indexed": false,
          "internalType": "int8",
          "name": "native_wid",
          "type": "int8"
        },
        {
          "indexed": false,
          "internalType": "uint256",
          "name": "native_addr",
          "type": "uint256"
        },
        {
          "indexed": false,
          "internalType": "string",
          "name": "name_prefix",
          "type": "string"
        },
        {
          "indexed": false,
          "internalType": "string",
          "name": "symbol_prefix",
          "type": "string"
        },
        {
          "indexed": false,
          "internalType": "string",
          "name": "name",
          "type": "string"
        },
        {
          "indexed": false,
          "internalType": "string",
          "name": "symbol",
          "type": "string"
        },
        {
          "indexed": false,
          "internalType": "uint8",
          "name": "decimals",
          "type": "uint8"
        }
      ],
      "name": "TokenCreated",
      "type": "event"
    },
    {
      "anonymous": false,
      "inputs": [
        {
          "indexed": false,
          "internalType": "uint256",
          "name": "fee",
          "type": "uint256"
        }
      ],
      "name": "UpdateDefaultAlienDepositFee",
      "type": "event"
    },
    {
      "anonymous": false,
      "inputs": [
        {
          "indexed": false,
          "internalType": "uint256",
          "name": "fee",
          "type": "uint256"
        }
      ],
      "name": "UpdateDefaultAlienWithdrawFee",
      "type": "event"
    },
    {
      "anonymous": false,
      "inputs": [
        {
          "indexed": false,
          "internalType": "uint256",
          "name": "inetrest",
          "type": "uint256"
        }
      ],
      "name": "UpdateDefaultLiquidityInterest",
      "type": "event"
    },
    {
      "anonymous": false,
      "inputs": [
        {
          "indexed": false,
          "internalType": "uint256",
          "name": "fee",
          "type": "uint256"
        }
      ],
      "name": "UpdateDefaultNativeDepositFee",
      "type": "event"
    },
    {
      "anonymous": false,
      "inputs": [
        {
          "indexed": false,
          "internalType": "uint256",
          "name": "fee",
          "type": "uint256"
        }
      ],
      "name": "UpdateDefaultNativeWithdrawFee",
      "type": "event"
    },
    {
      "anonymous": false,
      "inputs": [
        {
          "indexed": false,
          "internalType": "address",
          "name": "token",
          "type": "address"
        },
        {
          "indexed": false,
          "internalType": "uint256",
          "name": "fee",
          "type": "uint256"
        }
      ],
      "name": "UpdateTokenDepositFee",
      "type": "event"
    },
    {
      "anonymous": false,
      "inputs": [
        {
          "indexed": false,
          "internalType": "address",
          "name": "token",
          "type": "address"
        },
        {
          "indexed": false,
          "internalType": "uint256",
          "name": "interest",
          "type": "uint256"
        }
      ],
      "name": "UpdateTokenLiquidityInterest",
      "type": "event"
    },
    {
      "anonymous": false,
      "inputs": [
        {
          "indexed": false,
          "internalType": "address",
          "name": "token",
          "type": "address"
        },
        {
          "indexed": false,
          "internalType": "uint256",
          "name": "fee",
          "type": "uint256"
        }
      ],
      "name": "UpdateTokenWithdrawFee",
      "type": "event"
    },
    {
      "inputs": [
        {
          "components": [
            {
              "components": [
                {
                  "internalType": "int8",
                  "name": "wid",
                  "type": "int8"
                },
                {
                  "internalType": "uint256",
                  "name": "addr",
                  "type": "uint256"
                }
              ],
              "internalType": "struct IEverscale.EverscaleAddress",
              "name": "recipient",
              "type": "tuple"
            },
            {
              "internalType": "address",
              "name": "token",
              "type": "address"
            },
            {
              "internalType": "uint256",
              "name": "amount",
              "type": "uint256"
            },
            {
              "internalType": "uint256",
              "name": "expected_evers",
              "type": "uint256"
            },
            {
              "internalType": "bytes",
              "name": "payload",
              "type": "bytes"
            }
          ],
          "internalType": "struct IMultiVaultFacetDeposit.DepositParams",
          "name": "d",
          "type": "tuple"
        }
      ],
      "name": "deposit",
      "outputs": [],
      "stateMutability": "payable",
      "type": "function"
    },
    {
      "inputs": [
        {
          "components": [
            {
              "components": [
                {
                  "internalType": "int8",
                  "name": "wid",
                  "type": "int8"
                },
                {
                  "internalType": "uint256",
                  "name": "addr",
                  "type": "uint256"
                }
              ],
              "internalType": "struct IEverscale.EverscaleAddress",
              "name": "recipient",
              "type": "tuple"
            },
            {
              "internalType": "address",
              "name": "token",
              "type": "address"
            },
            {
              "internalType": "uint256",
              "name": "amount",
              "type": "uint256"
            },
            {
              "internalType": "uint256",
              "name": "expected_evers",
              "type": "uint256"
            },
            {
              "internalType": "bytes",
              "name": "payload",
              "type": "bytes"
            }
          ],
          "internalType": "struct IMultiVaultFacetDeposit.DepositParams",
          "name": "d",
          "type": "tuple"
        },
        {
          "internalType": "uint256",
          "name": "expectedMinBounty",
          "type": "uint256"
        },
        {
          "components": [
            {
              "internalType": "address",
              "name": "recipient",
              "type": "address"
            },
            {
              "internalType": "uint256",
              "name": "id",
              "type": "uint256"
            }
          ],
          "internalType": "struct IMultiVaultFacetPendingWithdrawals.PendingWithdrawalId[]",
          "name": "pendingWithdrawalIds",
          "type": "tuple[]"
        }
      ],
      "name": "deposit",
      "outputs": [],
      "stateMutability": "payable",
      "type": "function"
    }
  ],
  "bytecode": "0x608060405234801561001057600080fd5b50611874806100206000396000f3fe6080604052600436106100295760003560e01c806322a8c2271461002e578063533c28f214610043575b600080fd5b61004161003c3660046112bd565b610056565b005b6100416100513660046112f0565b610415565b61005e61064a565b8060200151600061006d610688565b6001600160a01b03831660009081526020829052604090206001015490915060ff161561009957600080fd5b826020015160006100a8610688565b6001600160a01b03831660009081526020829052604090205490915061025b57601260ff16826001600160a01b031663313ce5676040518163ffffffff1660e01b815260040160206040518083038186803b15801561010657600080fd5b505afa15801561011a573d6000803e3d6000fd5b505050506040513d601f19601f8201168201806040525081019061013e91906113fe565b60ff16111580156101c557506020826001600160a01b03166395d89b416040518163ffffffff1660e01b815260040160006040518083038186803b15801561018557600080fd5b505afa158015610199573d6000803e3d6000fd5b505050506040513d6000823e601f3d908101601f191682016040526101c1919081019061124a565b5111155b801561024757506020826001600160a01b03166306fdde036040518163ffffffff1660e01b815260040160006040518083038186803b15801561020757600080fd5b505afa15801561021b573d6000803e3d6000fd5b505050506040513d6000823e601f3d908101601f19168201604052610243919081019061124a565b5111155b61025057600080fd5b61025b82600061068d565b6000610265610688565b600681015490915060ff161561027a57600080fd5b6000610284610688565b9050600061029c886040015189602001516000610802565b6020808a01516001600160a01b0316600090815290849052604090206004015490915060ff1680156103545788602001516001600160a01b0316639dc29fac338b604001516040518363ffffffff1660e01b81526004016102fe9291906114bf565b600060405180830381600087803b15801561031857600080fd5b505af115801561032c573d6000803e3d6000fd5b50505050818960400181815161034291906117b4565b90525061034f89346108d8565b61039b565b61037c33308b604001518c602001516001600160a01b031661097b909392919063ffffffff16565b818960400181815161038e91906117b4565b90525061039b89346109d9565b6103a9896020015183610ba0565b6103b1610cbd565b6020808a01518a5180519201516040808d015190517fe409d1d71ace5ea2fcd25266d376c89f7d7c6a96b5805876a8aff75fde17acae946103fa94339490939192909190611467565b60405180910390a15050505050505050610412610d18565b50565b82602001516000610424610688565b6001600160a01b03831660009081526020829052604090206001015490915060ff161561045057600080fd5b61045861064a565b6000610462610688565b60408701516020880151919250908190610487906001600160a01b031633308461097b565b60005b86518110156105d35760008782815181106104b557634e487b7160e01b600052603260045260246000fd5b6020026020010151905060006104ca82610d29565b905060008160200151116104dd57600080fd5b8a602001516001600160a01b031681600001516001600160a01b03161461050357600080fd5b602081015161051290866117b4565b9450806040015184610524919061175d565b82516001600160a01b031660009081526015880160209081526040808320828701805185529252808320600101929092558451905191519296507fbc5f3ee2546f0e8116c8c69c92f3b9c87ceb55f3f6332a0a4867061309f48ed69261058a92906114bf565b60405180910390a18151604082015160208301516105be92916105ac916117b4565b83516001600160a01b03169190610df6565b505080806105cb906117f7565b91505061048a565b50868860400151826105e591906117b4565b10156105f057600080fd5b600061060689604001518a602001516000610802565b905061061281836117b4565b60408a015261062189346109d9565b61062f896020015182610ba0565b610637610cbd565b50505050610643610d18565b5050505050565b6000610654610e15565b8054909150600214156106825760405162461bcd60e51b81526004016106799061163a565b60405180910390fd5b60029055565b600290565b6000610697610688565b90506000826106aa5781600401546106b0565b81600201545b90506000836106c35782600501546106c9565b82600301545b90506040518060c00160405280438152602001600015158152602001838152602001828152602001851515815260200160006001600160a01b0316815250836000016000876001600160a01b03166001600160a01b031681526020019081526020016000206000820151816000015560208201518160010160006101000a81548160ff021916908315150217905550604082015181600201556060820151816003015560808201518160040160006101000a81548160ff02191690831515021790555060a08201518160040160016101000a8154816001600160a01b0302191690836001600160a01b031602179055509050507f0c051f0fa97177b7a4bae4cd3f0c633d0813e1da77361496a35b6ff7e117ea3185438685856040516107f39594939291906114d8565b60405180910390a15050505050565b60008061080d610688565b6001600160a01b03808616600090815260208381526040808320815160c08101835281548152600182015460ff90811615159482019490945260028201549281019290925260038101546060830152600401549182161515608082015261010090910490921660a0830152919250908085600181111561089d57634e487b7160e01b600052602160045260246000fd5b146108ac5781606001516108b2565b81604001515b90506127106108c18883611795565b6108cb9190611775565b93505050505b9392505050565b60006108e2610688565b6020808501516001600160a01b03166000908152600180840183526040808320815180830183528154850b850b90940b808552920154838501819052818901518951805196015160608b015160808c0151945198995095977f7f32057db4309ae7b25ae0bebf8ce22c203bda406aa486f5c01363ec4ad4ff139761096d979495939490938c92611506565b60405180910390a150505050565b6109d3846323b872dd60e01b85858560405160240161099c9392919061149b565b60408051601f198184030181529190526020810180516001600160e01b03166001600160e01b031990931692909217909152610e1a565b50505050565b7f4a75ed314c66620928056921a6aaaba7ff617e5900f664492cdd34a1e37e0c0846836020015184602001516001600160a01b03166306fdde036040518163ffffffff1660e01b815260040160006040518083038186803b158015610a3d57600080fd5b505afa158015610a51573d6000803e3d6000fd5b505050506040513d6000823e601f3d908101601f19168201604052610a79919081019061124a565b85602001516001600160a01b03166395d89b416040518163ffffffff1660e01b815260040160006040518083038186803b158015610ab657600080fd5b505afa158015610aca573d6000803e3d6000fd5b505050506040513d6000823e601f3d908101601f19168201604052610af2919081019061124a565b86602001516001600160a01b031663313ce5676040518163ffffffff1660e01b815260040160206040518083038186803b158015610b2f57600080fd5b505afa158015610b43573d6000803e3d6000fd5b505050506040513d601f19601f82011682018060405250810190610b6791906113fe565b6040808901518951805160209091015160608c015160808d01519451610b949a99989796958d9291611671565b60405180910390a15050565b6000610baa610688565b905081610bb75750610cb9565b6001600160a01b0383166000818152601a830160208181526040808420815160808101835281548082526001830154828601526002830154938201939093526003909101546060820152948452919052610c12575082610c4b565b6000612710836060015186610c279190611795565b610c319190611775565b9050610c3d81866117b4565b9150610c498682610ea9565b505b80610c5857505050610cb9565b6001600160a01b038516600090815260138401602052604081208054839290610c8290849061175d565b90915550506040517f08048a94734163493ed404ed3c277587011804858159ded940ef190b79210e40906107f390879084906114bf565b5050565b6000610cc7610688565b601c8101549091506001600160a01b03168015610cb9576040516001600160a01b038216904780156108fc02916000818181858888f19350505050158015610d13573d6000803e3d6000fd5b505050565b6000610d22610e15565b6001905550565b610d31611072565b6000610d3b610688565b83516001600160a01b0390811660009081526015830160209081526040808320828901518452825291829020825160a081018452815490941684526001810154918401919091526002810154918301919091526003808201546060840152600482015493945091929091608084019160ff1690811115610dcb57634e487b7160e01b600052602160045260246000fd5b6003811115610dea57634e487b7160e01b600052602160045260246000fd5b9052509150505b919050565b610d138363a9059cbb60e01b848460405160240161099c9291906114bf565b600190565b6000610e6f826040518060400160405280602081526020017f5361666545524332303a206c6f772d6c6576656c2063616c6c206661696c6564815250856001600160a01b0316610f319092919063ffffffff16565b805190915015610d135780806020019051810190610e8d919061122a565b610d135760405162461bcd60e51b8152600401610679906115f0565b6000610eb3610688565b905081610ec05750610cb9565b6001600160a01b0383166000908152601a8201602052604081206002018054849290610eed90849061175d565b90915550506040517f27f709cebd025c144ca5c2ace6b8b708999e4bd14a82106cfce6c1991cf9f51790610f2490859085906114bf565b60405180910390a1505050565b6060610f408484600085610f48565b949350505050565b606082471015610f6a5760405162461bcd60e51b815260040161067990611573565b610f7385611008565b610f8f5760405162461bcd60e51b8152600401610679906115b9565b600080866001600160a01b03168587604051610fab919061144b565b60006040518083038185875af1925050503d8060008114610fe8576040519150601f19603f3d011682016040523d82523d6000602084013e610fed565b606091505b5091509150610ffd828286611039565b979650505050505050565b600080826001600160a01b0316803b806020016040519081016040528181526000908060200190933c511192915050565b606083156110485750816108d1565b8251156110585782518084602001fd5b8160405162461bcd60e51b81526004016106799190611560565b6040518060a0016040528060006001600160a01b03168152602001600081526020016000815260200160008152602001600060038111156110c357634e487b7160e01b600052602160045260246000fd5b905290565b80356001600160a01b0381168114610df157600080fd5b600082601f8301126110ef578081fd5b81356111026110fd82611735565b61170b565b818152846020838601011115611116578283fd5b816020850160208301379081016020019190915292915050565b600060c08284031215611141578081fd5b60405160a0810167ffffffffffffffff828210818311171561116557611165611828565b8160405282935061117686866111cb565b8352611184604086016110c8565b6020840152606085013560408401526080850135606084015260a08501359150808211156111b157600080fd5b506111be858286016110df565b6080830152505092915050565b6000604082840312156111dc578081fd5b6040516040810181811067ffffffffffffffff821117156111ff576111ff611828565b6040529050808235600081900b811461121757600080fd5b8152602092830135920191909152919050565b60006020828403121561123b578081fd5b815180151581146108d1578182fd5b60006020828403121561125b578081fd5b815167ffffffffffffffff811115611271578182fd5b8201601f81018413611281578182fd5b805161128f6110fd82611735565b8181528560208385010111156112a3578384fd5b6112b48260208301602086016117cb565b95945050505050565b6000602082840312156112ce578081fd5b813567ffffffffffffffff8111156112e4578182fd5b610f4084828501611130565b600080600060608486031215611304578182fd5b833567ffffffffffffffff8082111561131b578384fd5b61132787838801611130565b94506020915081860135935060408087013582811115611345578485fd5b8701601f81018913611355578485fd5b80358381111561136757611367611828565b611374858683020161170b565b81815285810190838701858402850188018d1015611390578889fd5b8894505b838510156113ec5785818e0312156113aa578889fd5b855186810181811089821117156113c3576113c3611828565b87526113ce826110c8565b81528189013589820152835260019490940193918701918501611394565b50809750505050505050509250925092565b60006020828403121561140f578081fd5b815160ff811681146108d1578182fd5b600081518084526114378160208601602086016117cb565b601f01601f19169290920160200192915050565b6000825161145d8184602087016117cb565b9190910192915050565b6001600160a01b03958616815293909416602084015260009190910b60408301526060820152608081019190915260a00190565b6001600160a01b039384168152919092166020820152604081019190915260600190565b6001600160a01b03929092168252602082015260400190565b6001600160a01b03959095168552602085019390935290151560408401526060830152608082015260a00190565b60006101008a820b83528960208401526001600160801b038916604084015287820b60608401528660808401528560a08401528460c08401528060e08401526115518184018561141f565b9b9a5050505050505050505050565b6000602082526108d1602083018461141f565b60208082526026908201527f416464726573733a20696e73756666696369656e742062616c616e636520666f6040820152651c8818d85b1b60d21b606082015260800190565b6020808252601d908201527f416464726573733a2063616c6c20746f206e6f6e2d636f6e7472616374000000604082015260600190565b6020808252602a908201527f5361666545524332303a204552433230206f7065726174696f6e20646964206e6040820152691bdd081cdd58d8d9595960b21b606082015260800190565b6020808252601f908201527f5265656e7472616e637947756172643a207265656e7472616e742063616c6c00604082015260600190565b8b81526001600160a01b038b1660208201526101606040820181905260009061169c8382018d61141f565b905082810360608401526116b0818c61141f565b905060ff8a1660808401526001600160801b03891660a084015287820b60c08401528660e084015285610100840152846101208401528281036101408401526116f9818561141f565b9e9d5050505050505050505050505050565b60405181810167ffffffffffffffff8111828210171561172d5761172d611828565b604052919050565b600067ffffffffffffffff82111561174f5761174f611828565b50601f01601f191660200190565b6000821982111561177057611770611812565b500190565b60008261179057634e487b7160e01b81526012600452602481fd5b500490565b60008160001904831182151516156117af576117af611812565b500290565b6000828210156117c6576117c6611812565b500390565b60005b838110156117e65781810151838201526020016117ce565b838111156109d35750506000910152565b600060001982141561180b5761180b611812565b5060010190565b634e487b7160e01b600052601160045260246000fd5b634e487b7160e01b600052604160045260246000fdfea264697066735822122002dfb9f395e41a846001358bfcc21273bda064a0af45996cd6e2c122d86e275464736f6c63430008000033",
  "linkReferences": {},
  "deployedLinkReferences": {}
}