{
  "_format": "hh-sol-artifact-1",
  "contractName": "MultiVaultFacetLiquidity",
  "sourceName": "contracts/multivault/multivault/facets/MultiVaultFacetLiquidity.sol",
  "abi": [
    {
      "anonymous": false,
      "inputs": [
        {
          "indexed": false,
          "internalType": "address",
          "name": "token",
          "type": "address"
        },
        {
          "indexed": false,
          "internalType": "uint256",
          "name": "amount",
          "type": "uint256"
        }
      ],
      "name": "EarnTokenCash",
      "type": "event"
    },
    {
      "anonymous": false,
      "inputs": [
        {
          "indexed": false,
          "internalType": "address",
          "name": "token",
          "type": "address"
        },
        {
          "indexed": false,
          "internalType": "uint256",
          "name": "amount",
          "type": "uint256"
        }
      ],
      "name": "EarnTokenFee",
      "type": "event"
    },
    {
      "anonymous": false,
      "inputs": [
        {
          "indexed": false,
          "internalType": "address",
          "name": "sender",
          "type": "address"
        },
        {
          "indexed": false,
          "internalType": "address",
          "name": "token",
          "type": "address"
        },
        {
          "indexed": false,
          "internalType": "uint256",
          "name": "amount",
          "type": "uint256"
        },
        {
          "indexed": false,
          "internalType": "uint256",
          "name": "lp_amount",
          "type": "uint256"
        }
      ],
      "name": "MintLiquidity",
      "type": "event"
    },
    {
      "anonymous": false,
      "inputs": [
        {
          "indexed": false,
          "internalType": "address",
          "name": "sender",
          "type": "address"
        },
        {
          "indexed": false,
          "internalType": "address",
          "name": "token",
          "type": "address"
        },
        {
          "indexed": false,
          "internalType": "uint256",
          "name": "amount",
          "type": "uint256"
        },
        {
          "indexed": false,
          "internalType": "uint256",
          "name": "underlying_amount",
          "type": "uint256"
        }
      ],
      "name": "RedeemLiquidity",
      "type": "event"
    },
    {
      "anonymous": false,
      "inputs": [
        {
          "indexed": false,
          "internalType": "address",
          "name": "token",
          "type": "address"
        },
        {
          "indexed": false,
          "internalType": "bool",
          "name": "skim_to_everscale",
          "type": "bool"
        },
        {
          "indexed": false,
          "internalType": "uint256",
          "name": "amount",
          "type": "uint256"
        }
      ],
      "name": "SkimFee",
      "type": "event"
    },
    {
      "anonymous": false,
      "inputs": [
        {
          "indexed": false,
          "internalType": "uint256",
          "name": "fee",
          "type": "uint256"
        }
      ],
      "name": "UpdateDefaultAlienDepositFee",
      "type": "event"
    },
    {
      "anonymous": false,
      "inputs": [
        {
          "indexed": false,
          "internalType": "uint256",
          "name": "fee",
          "type": "uint256"
        }
      ],
      "name": "UpdateDefaultAlienWithdrawFee",
      "type": "event"
    },
    {
      "anonymous": false,
      "inputs": [
        {
          "indexed": false,
          "internalType": "uint256",
          "name": "inetrest",
          "type": "uint256"
        }
      ],
      "name": "UpdateDefaultLiquidityInterest",
      "type": "event"
    },
    {
      "anonymous": false,
      "inputs": [
        {
          "indexed": false,
          "internalType": "uint256",
          "name": "fee",
          "type": "uint256"
        }
      ],
      "name": "UpdateDefaultNativeDepositFee",
      "type": "event"
    },
    {
      "anonymous": false,
      "inputs": [
        {
          "indexed": false,
          "internalType": "uint256",
          "name": "fee",
          "type": "uint256"
        }
      ],
      "name": "UpdateDefaultNativeWithdrawFee",
      "type": "event"
    },
    {
      "anonymous": false,
      "inputs": [
        {
          "indexed": false,
          "internalType": "address",
          "name": "token",
          "type": "address"
        },
        {
          "indexed": false,
          "internalType": "uint256",
          "name": "fee",
          "type": "uint256"
        }
      ],
      "name": "UpdateTokenDepositFee",
      "type": "event"
    },
    {
      "anonymous": false,
      "inputs": [
        {
          "indexed": false,
          "internalType": "address",
          "name": "token",
          "type": "address"
        },
        {
          "indexed": false,
          "internalType": "uint256",
          "name": "interest",
          "type": "uint256"
        }
      ],
      "name": "UpdateTokenLiquidityInterest",
      "type": "event"
    },
    {
      "anonymous": false,
      "inputs": [
        {
          "indexed": false,
          "internalType": "address",
          "name": "token",
          "type": "address"
        },
        {
          "indexed": false,
          "internalType": "uint256",
          "name": "fee",
          "type": "uint256"
        }
      ],
      "name": "UpdateTokenWithdrawFee",
      "type": "event"
    },
    {
      "inputs": [
        {
          "internalType": "address",
          "name": "token",
          "type": "address"
        },
        {
          "internalType": "uint256",
          "name": "amount",
          "type": "uint256"
        }
      ],
      "name": "convertLPToUnderlying",
      "outputs": [
        {
          "internalType": "uint256",
          "name": "",
          "type": "uint256"
        }
      ],
      "stateMutability": "view",
      "type": "function"
    },
    {
      "inputs": [
        {
          "internalType": "address",
          "name": "token",
          "type": "address"
        },
        {
          "internalType": "uint256",
          "name": "amount",
          "type": "uint256"
        }
      ],
      "name": "convertUnderlyingToLP",
      "outputs": [
        {
          "internalType": "uint256",
          "name": "",
          "type": "uint256"
        }
      ],
      "stateMutability": "view",
      "type": "function"
    },
    {
      "inputs": [
        {
          "internalType": "address",
          "name": "token",
          "type": "address"
        }
      ],
      "name": "exchangeRateCurrent",
      "outputs": [
        {
          "internalType": "uint256",
          "name": "",
          "type": "uint256"
        }
      ],
      "stateMutability": "view",
      "type": "function"
    },
    {
      "inputs": [
        {
          "internalType": "address",
          "name": "token",
          "type": "address"
        }
      ],
      "name": "getCash",
      "outputs": [
        {
          "internalType": "uint256",
          "name": "",
          "type": "uint256"
        }
      ],
      "stateMutability": "view",
      "type": "function"
    },
    {
      "inputs": [
        {
          "internalType": "address",
          "name": "token",
          "type": "address"
        }
      ],
      "name": "getLPToken",
      "outputs": [
        {
          "internalType": "address",
          "name": "",
          "type": "address"
        }
      ],
      "stateMutability": "view",
      "type": "function"
    },
    {
      "inputs": [
        {
          "internalType": "address",
          "name": "token",
          "type": "address"
        }
      ],
      "name": "liquidity",
      "outputs": [
        {
          "components": [
            {
              "internalType": "uint256",
              "name": "activation",
              "type": "uint256"
            },
            {
              "internalType": "uint256",
              "name": "supply",
              "type": "uint256"
            },
            {
              "internalType": "uint256",
              "name": "cash",
              "type": "uint256"
            },
            {
              "internalType": "uint256",
              "name": "interest",
              "type": "uint256"
            }
          ],
          "internalType": "struct IMultiVaultFacetLiquidity.Liquidity",
          "name": "",
          "type": "tuple"
        }
      ],
      "stateMutability": "view",
      "type": "function"
    },
    {
      "inputs": [
        {
          "internalType": "address",
          "name": "token",
          "type": "address"
        },
        {
          "internalType": "uint256",
          "name": "amount",
          "type": "uint256"
        },
        {
          "internalType": "address",
          "name": "receiver",
          "type": "address"
        }
      ],
      "name": "mint",
      "outputs": [],
      "stateMutability": "nonpayable",
      "type": "function"
    },
    {
      "inputs": [
        {
          "internalType": "address",
          "name": "token",
          "type": "address"
        },
        {
          "internalType": "uint256",
          "name": "amount",
          "type": "uint256"
        },
        {
          "internalType": "address",
          "name": "receiver",
          "type": "address"
        }
      ],
      "name": "redeem",
      "outputs": [],
      "stateMutability": "nonpayable",
      "type": "function"
    },
    {
      "inputs": [
        {
          "internalType": "uint256",
          "name": "interest",
          "type": "uint256"
        }
      ],
      "name": "setDefaultInterest",
      "outputs": [],
      "stateMutability": "nonpayable",
      "type": "function"
    },
    {
      "inputs": [
        {
          "internalType": "address",
          "name": "token",
          "type": "address"
        },
        {
          "internalType": "uint256",
          "name": "interest",
          "type": "uint256"
        }
      ],
      "name": "setTokenInterest",
      "outputs": [],
      "stateMutability": "nonpayable",
      "type": "function"
    }
  ],
  "bytecode": "0x608060405234801561001057600080fd5b506124eb806100206000396000f3fe608060405234801561001057600080fd5b506004361061009e5760003560e01c806368c1b8b71161006657806368c1b8b714610127578063aa6e49421461013a578063b8c876b11461014d578063c21814f21461016d578063e0f339e3146101805761009e565b806302f6d9a3146100a35780630d4d1513146100b85780634fc99ed6146100cb5780635c833bfd146100f4578063607b463a14610107575b600080fd5b6100b66100b1366004610fb5565b610193565b005b6100b66100c6366004610eb7565b61023c565b6100de6100d9366004610e74565b6103e3565b6040516100eb91906110d8565b60405180910390f35b6100b6610102366004610eb7565b6103f6565b61011a610115366004610e74565b61059d565b6040516100eb9190611281565b6100b6610135366004610e8e565b6105a8565b61011a610148366004610e8e565b61066d565b61016061015b366004610e74565b610680565b6040516100eb9190611256565b61011a61017b366004610e8e565b6106e8565b61011a61018e366004610e74565b6106f4565b600061019d6106ff565b600e8101549091506001600160a01b03163314806101c7575060118101546001600160a01b031633145b6101d057600080fd5b816101de60026127106112a2565b8111156101ea57600080fd5b60006101f46106ff565b90508381601b01819055507f25965e8a6b3441df6fe130062082df279c7e5806bbd031a3754e1303b1b184ef8460405161022e9190611281565b60405180910390a150505050565b60006102466106ff565b600681015490915060ff161561025b57600080fd5b610263610704565b600061026d6106ff565b90506102846001600160a01b038616333087610742565b6001600160a01b0385166000908152601a820160205260408120546102b3576102ac8661079a565b90506102bf565b6102bc86610aa6565b90505b60006102cb8787610aff565b6001600160a01b0388166000908152601a850160205260408120600201805492935088929091906102fd90849061128a565b90915550506001600160a01b0387166000908152601a840160205260408120600101805483929061032f90849061128a565b90915550506040517fe6ef9c356111715714c7cb9ad74fb922b071168f07ee54b2175646ada305429a9061036a9033908a908a908690611110565b60405180910390a16040516340c10f1960e01b81526001600160a01b038316906340c10f19906103a09088908a90600401611139565b600060405180830381600087803b1580156103ba57600080fd5b505af11580156103ce573d6000803e3d6000fd5b505050505050506103dd610b24565b50505050565b60006103ee82610aa6565b90505b919050565b60006104006106ff565b600681015490915060ff161561041557600080fd5b61041d610704565b8360006104286106ff565b6001600160a01b0383166000908152601a8201602052604090205490915061044f57600080fd5b60006104596106ff565b9050600061046688610aa6565b604051632770a7eb60e21b81529091506001600160a01b03821690639dc29fac906104979033908b90600401611139565b600060405180830381600087803b1580156104b157600080fd5b505af11580156104c5573d6000803e3d6000fd5b5050505060006104d58989610b35565b6001600160a01b038a166000908152601a850160205260408120600201805492935083929091906105079084906112e1565b90915550506001600160a01b0389166000908152601a84016020526040812060010180548a92906105399084906112e1565b90915550506040517fdee0ce84f7131323a758cb544a1cb100f8cd05ad1493d37cdafa1bd34d9462a7906105749033908c908c908690611110565b60405180910390a16105906001600160a01b038a168883610b5b565b50505050506103dd610b24565b60006103ee82610b7f565b60006105b26106ff565b600e8101549091506001600160a01b03163314806105dc575060118101546001600160a01b031633145b6105e557600080fd5b816105f360026127106112a2565b8111156105ff57600080fd5b60006106096106ff565b6001600160a01b0386166000908152601a8201602052604090819020600301869055519091507f693de801d9009c814c30aec5368b598bfe3877275d67ff603ea64d25a55b16a99061065e9087908790611139565b60405180910390a15050505050565b60006106798383610b35565b9392505050565b610688610e28565b60006106926106ff565b6001600160a01b0384166000908152601a90910160209081526040918290208251608081018452815481526001820154928101929092526002810154928201929092526003909101546060820152915050919050565b60006106798383610aff565b60006103ee82610bde565b600290565b600061070e610c81565b80549091506002141561073c5760405162461bcd60e51b81526004016107339061121f565b60405180910390fd5b60029055565b6103dd846323b872dd60e01b858585604051602401610763939291906110ec565b60408051601f198184030181529190526020810180516001600160e01b03166001600160e01b031990931692909217909152610c86565b6000806107a56106ff565b6001600160a01b0384166000908152601a82016020526040902054909150156107cd57600080fd5b6001600160a01b0383166000908152601a820160209081526040808320438155601b8501546003909101555190610805908201610e50565b6020820181038252601f19601f82011660405250905060008460405160200161082e919061101a565b604051602081830303815290604052805190602001209050808251602084016000f593506000856001600160a01b03166306fdde036040518163ffffffff1660e01b815260040160006040518083038186803b15801561088d57600080fd5b505afa1580156108a1573d6000803e3d6000fd5b505050506040513d6000823e601f3d908101601f191682016040526108c99190810190610f12565b90506000866001600160a01b03166395d89b416040518163ffffffff1660e01b815260040160006040518083038186803b15801561090657600080fd5b505afa15801561091a573d6000803e3d6000fd5b505050506040513d6000823e601f3d908101601f191682016040526109429190810190610f12565b90506000876001600160a01b031663313ce5676040518163ffffffff1660e01b815260040160206040518083038186803b15801561097f57600080fd5b505afa158015610993573d6000803e3d6000fd5b505050506040513d601f19601f820116820180604052508101906109b79190610fcd565b9050866001600160a01b0316631624f6c660405180604001604052806009815260200168027b1ba3ab9902628160bd1b815250856040516020016109fc929190611053565b6040516020818303038152906040526040518060400160405280600581526020016406f63744c560dc1b81525085604051602001610a3b929190611053565b604051602081830303815290604052846040518463ffffffff1660e01b8152600401610a6993929190611165565b600060405180830381600087803b158015610a8357600080fd5b505af1158015610a97573d6000803e3d6000fd5b50505050505050505050919050565b60003082604051602001610aba919061101a565b60405160208183030381529060405280519060200120604051602001610ae1929190611082565b60408051601f19818403018152919052805160209091012092915050565b600081610b0b84610bde565b610b1a906402540be4006112a2565b61067991906112c2565b6000610b2e610c81565b6001905550565b60006402540be40082610b4785610bde565b610b5191906112c2565b61067991906112a2565b610b7a8363a9059cbb60e01b8484604051602401610763929190611139565b505050565b600080610b8a6106ff565b6001600160a01b0384166000908152601a9091016020908152604091829020825160808101845281548152600182015492810192909252600281015492820183905260030154606090910152915050919050565b600080610be96106ff565b6001600160a01b0384166000908152601a820160209081526040918290208251608081018452815481526001820154928101839052600282015493810193909352600301546060830152919250901580610c4257508051155b15610c56576402540be400925050506103f1565b60208101516040820151610c6f906402540be4006112c2565b610c7991906112a2565b949350505050565b600190565b6000610cdb826040518060400160405280602081526020017f5361666545524332303a206c6f772d6c6576656c2063616c6c206661696c6564815250856001600160a01b0316610d159092919063ffffffff16565b805190915015610b7a5780806020019051810190610cf99190610ef2565b610b7a5760405162461bcd60e51b8152600401610733906111d5565b6060610c79848460008585610d2985610dbe565b610d455760405162461bcd60e51b81526004016107339061119e565b600080866001600160a01b03168587604051610d619190611037565b60006040518083038185875af1925050503d8060008114610d9e576040519150601f19603f3d011682016040523d82523d6000602084013e610da3565b606091505b5091509150610db3828286610def565b979650505050505050565b600080826001600160a01b0316803b806020016040519081016040528181526000908060200190933c511192915050565b60608315610dfe575081610679565b825115610e0e5782518084602001fd5b8160405162461bcd60e51b81526004016107339190611152565b6040518060800160405280600081526020016000815260200160008152602001600081525090565b6111658061135183390190565b80356001600160a01b03811681146103f157600080fd5b600060208284031215610e85578081fd5b61067982610e5d565b60008060408385031215610ea0578081fd5b610ea983610e5d565b946020939093013593505050565b600080600060608486031215610ecb578081fd5b610ed484610e5d565b925060208401359150610ee960408501610e5d565b90509250925092565b600060208284031215610f03578081fd5b81518015158114610679578182fd5b600060208284031215610f23578081fd5b815167ffffffffffffffff80821115610f3a578283fd5b818401915084601f830112610f4d578283fd5b815181811115610f5f57610f5f61133a565b604051601f8201601f191681016020018381118282101715610f8357610f8361133a565b604052818152838201602001871015610f9a578485fd5b610fab8260208301602087016112f8565b9695505050505050565b600060208284031215610fc6578081fd5b5035919050565b600060208284031215610fde578081fd5b815160ff81168114610679578182fd5b600081518084526110068160208601602086016112f8565b601f01601f19169290920160200192915050565b60609190911b6bffffffffffffffffffffffff1916815260140190565b600082516110498184602087016112f8565b9190910192915050565b600083516110658184602088016112f8565b8351908301906110798183602088016112f8565b01949350505050565b6001600160f81b0319815260609290921b6bffffffffffffffffffffffff1916600183015260158201527f192c19818bebb5c6c95f5dcb3c3257379fc46fb654780cb06f3211ee77e1a360603582015260550190565b6001600160a01b0391909116815260200190565b6001600160a01b039384168152919092166020820152604081019190915260600190565b6001600160a01b0394851681529290931660208301526040820152606081019190915260800190565b6001600160a01b03929092168252602082015260400190565b6000602082526106796020830184610fee565b6000606082526111786060830186610fee565b828103602084015261118a8186610fee565b91505060ff83166040830152949350505050565b6020808252601d908201527f416464726573733a2063616c6c20746f206e6f6e2d636f6e7472616374000000604082015260600190565b6020808252602a908201527f5361666545524332303a204552433230206f7065726174696f6e20646964206e6040820152691bdd081cdd58d8d9595960b21b606082015260800190565b6020808252601f908201527f5265656e7472616e637947756172643a207265656e7472616e742063616c6c00604082015260600190565b8151815260208083015190820152604080830151908201526060918201519181019190915260800190565b90815260200190565b6000821982111561129d5761129d611324565b500190565b6000826112bd57634e487b7160e01b81526012600452602481fd5b500490565b60008160001904831182151516156112dc576112dc611324565b500290565b6000828210156112f3576112f3611324565b500390565b60005b838110156113135781810151838201526020016112fb565b838111156103dd5750506000910152565b634e487b7160e01b600052601160045260246000fd5b634e487b7160e01b600052604160045260246000fdfe608060405234801561001057600080fd5b50610019610028565b6100228161002c565b5061007c565b3390565b600080546001600160a01b038381166001600160a01b0319831681178455604051919092169283917f8be0079c531659141344cd1fd0a4f28419497f9722a3daafe3b4186f6b6457e09190a35050565b6110da8061008b6000396000f3fe608060405234801561001057600080fd5b506004361061010b5760003560e01c806370a08231116100a25780639dc29fac116100715780639dc29fac146101fe578063a457c2d714610211578063a9059cbb14610224578063dd62ed3e14610237578063f2fde38b1461024a5761010b565b806370a08231146101c6578063715018a6146101d95780638da5cb5b146101e157806395d89b41146101f65761010b565b806323b872dd116100de57806323b872dd14610178578063313ce5671461018b57806339509351146101a057806340c10f19146101b35761010b565b806306fdde0314610110578063095ea7b31461012e5780631624f6c61461014e57806318160ddd14610163575b600080fd5b61011861025d565b6040516101259190610c9f565b60405180910390f35b61014161013c366004610bdd565b6102ef565b6040516101259190610c94565b61016161015c366004610c06565b610311565b005b61016b610362565b6040516101259190610ff7565b610141610186366004610ba2565b610368565b610193610396565b6040516101259190611000565b6101416101ae366004610bdd565b61039f565b6101616101c1366004610bdd565b6103cb565b61016b6101d4366004610b4f565b610421565b610161610440565b6101e961048b565b6040516101259190610c80565b61011861049a565b61016161020c366004610bdd565b6104a9565b61014161021f366004610bdd565b6104f2565b610141610232366004610bdd565b61053a565b61016b610245366004610b70565b610552565b610161610258366004610b4f565b61057d565b60606005805461026c9061103d565b80601f01602080910402602001604051908101604052809291908181526020018280546102989061103d565b80156102e55780601f106102ba576101008083540402835291602001916102e5565b820191906000526020600020905b8154815290600101906020018083116102c857829003601f168201915b5050505050905090565b6000806102fa6105ee565b90506103078185856105f2565b5060019392505050565b6001541561031e57600080fd5b8251610331906005906020860190610a1e565b508151610345906006906020850190610a1e565b506007805460ff191660ff92909216919091179055505043600155565b60045490565b6000806103736105ee565b90506103808582856106a6565b61038b8585856106f0565b506001949350505050565b60075460ff1690565b6000806103aa6105ee565b90506103078185856103bc8589610552565b6103c6919061100e565b6105f2565b6103d36105ee565b6001600160a01b03166103e461048b565b6001600160a01b0316146104135760405162461bcd60e51b815260040161040a90610e7c565b60405180910390fd5b61041d8282610814565b5050565b6001600160a01b0381166000908152600260205260409020545b919050565b6104486105ee565b6001600160a01b031661045961048b565b6001600160a01b03161461047f5760405162461bcd60e51b815260040161040a90610e7c565b61048960006108dc565b565b6000546001600160a01b031690565b60606006805461026c9061103d565b6104b16105ee565b6001600160a01b03166104c261048b565b6001600160a01b0316146104e85760405162461bcd60e51b815260040161040a90610e7c565b61041d828261092c565b6000806104fd6105ee565b9050600061050b8286610552565b90508381101561052d5760405162461bcd60e51b815260040161040a90610f7b565b61038b82868684036105f2565b6000806105456105ee565b90506103078185856106f0565b6001600160a01b03918216600090815260036020908152604080832093909416825291909152205490565b6105856105ee565b6001600160a01b031661059661048b565b6001600160a01b0316146105bc5760405162461bcd60e51b815260040161040a90610e7c565b6001600160a01b0381166105e25760405162461bcd60e51b815260040161040a90610d77565b6105eb816108dc565b50565b3390565b6001600160a01b0383166106185760405162461bcd60e51b815260040161040a90610f37565b6001600160a01b03821661063e5760405162461bcd60e51b815260040161040a90610dbd565b6001600160a01b0380841660008181526003602090815260408083209487168084529490915290819020849055517f8c5be1e5ebec7d5bd14f71427d1e84f3dd0314c0f7b2291e5b200ac8c7c3b92590610699908590610ff7565b60405180910390a3505050565b60006106b28484610552565b905060001981146106ea57818110156106dd5760405162461bcd60e51b815260040161040a90610dff565b6106ea84848484036105f2565b50505050565b6001600160a01b0383166107165760405162461bcd60e51b815260040161040a90610ef2565b6001600160a01b03821661073c5760405162461bcd60e51b815260040161040a90610cf2565b610747838383610a19565b6001600160a01b038316600090815260026020526040902054818110156107805760405162461bcd60e51b815260040161040a90610e36565b6001600160a01b038085166000908152600260205260408082208585039055918516815290812080548492906107b790849061100e565b92505081905550826001600160a01b0316846001600160a01b03167fddf252ad1be2c89b69c2b068fc378daa952ba7f163c4a11628f55a4df523b3ef846040516108019190610ff7565b60405180910390a36106ea848484610a19565b6001600160a01b03821661083a5760405162461bcd60e51b815260040161040a90610fc0565b61084660008383610a19565b8060046000828254610858919061100e565b90915550506001600160a01b0382166000908152600260205260408120805483929061088590849061100e565b90915550506040516001600160a01b038316906000907fddf252ad1be2c89b69c2b068fc378daa952ba7f163c4a11628f55a4df523b3ef906108c8908590610ff7565b60405180910390a361041d60008383610a19565b600080546001600160a01b038381166001600160a01b0319831681178455604051919092169283917f8be0079c531659141344cd1fd0a4f28419497f9722a3daafe3b4186f6b6457e09190a35050565b6001600160a01b0382166109525760405162461bcd60e51b815260040161040a90610eb1565b61095e82600083610a19565b6001600160a01b038216600090815260026020526040902054818110156109975760405162461bcd60e51b815260040161040a90610d35565b6001600160a01b03831660009081526002602052604081208383039055600480548492906109c6908490611026565b90915550506040516000906001600160a01b038516907fddf252ad1be2c89b69c2b068fc378daa952ba7f163c4a11628f55a4df523b3ef90610a09908690610ff7565b60405180910390a3610a19836000845b505050565b828054610a2a9061103d565b90600052602060002090601f016020900481019282610a4c5760008555610a92565b82601f10610a6557805160ff1916838001178555610a92565b82800160010185558215610a92579182015b82811115610a92578251825591602001919060010190610a77565b50610a9e929150610aa2565b5090565b5b80821115610a9e5760008155600101610aa3565b80356001600160a01b038116811461043b57600080fd5b600082601f830112610ade578081fd5b813567ffffffffffffffff80821115610af957610af961108e565b604051601f8301601f191681016020018281118282101715610b1d57610b1d61108e565b604052828152848301602001861015610b34578384fd5b82602086016020830137918201602001929092529392505050565b600060208284031215610b60578081fd5b610b6982610ab7565b9392505050565b60008060408385031215610b82578081fd5b610b8b83610ab7565b9150610b9960208401610ab7565b90509250929050565b600080600060608486031215610bb6578081fd5b610bbf84610ab7565b9250610bcd60208501610ab7565b9150604084013590509250925092565b60008060408385031215610bef578182fd5b610bf883610ab7565b946020939093013593505050565b600080600060608486031215610c1a578283fd5b833567ffffffffffffffff80821115610c31578485fd5b610c3d87838801610ace565b94506020860135915080821115610c52578384fd5b50610c5f86828701610ace565b925050604084013560ff81168114610c75578182fd5b809150509250925092565b6001600160a01b0391909116815260200190565b901515815260200190565b6000602080835283518082850152825b81811015610ccb57858101830151858201604001528201610caf565b81811115610cdc5783604083870101525b50601f01601f1916929092016040019392505050565b60208082526023908201527f45524332303a207472616e7366657220746f20746865207a65726f206164647260408201526265737360e81b606082015260800190565b60208082526022908201527f45524332303a206275726e20616d6f756e7420657863656564732062616c616e604082015261636560f01b606082015260800190565b60208082526026908201527f4f776e61626c653a206e6577206f776e657220697320746865207a65726f206160408201526564647265737360d01b606082015260800190565b60208082526022908201527f45524332303a20617070726f766520746f20746865207a65726f206164647265604082015261737360f01b606082015260800190565b6020808252601d908201527f45524332303a20696e73756666696369656e7420616c6c6f77616e6365000000604082015260600190565b60208082526026908201527f45524332303a207472616e7366657220616d6f756e7420657863656564732062604082015265616c616e636560d01b606082015260800190565b6020808252818101527f4f776e61626c653a2063616c6c6572206973206e6f7420746865206f776e6572604082015260600190565b60208082526021908201527f45524332303a206275726e2066726f6d20746865207a65726f206164647265736040820152607360f81b606082015260800190565b60208082526025908201527f45524332303a207472616e736665722066726f6d20746865207a65726f206164604082015264647265737360d81b606082015260800190565b60208082526024908201527f45524332303a20617070726f76652066726f6d20746865207a65726f206164646040820152637265737360e01b606082015260800190565b60208082526025908201527f45524332303a2064656372656173656420616c6c6f77616e63652062656c6f77604082015264207a65726f60d81b606082015260800190565b6020808252601f908201527f45524332303a206d696e7420746f20746865207a65726f206164647265737300604082015260600190565b90815260200190565b60ff91909116815260200190565b6000821982111561102157611021611078565b500190565b60008282101561103857611038611078565b500390565b60028104600182168061105157607f821691505b6020821081141561107257634e487b7160e01b600052602260045260246000fd5b50919050565b634e487b7160e01b600052601160045260246000fd5b634e487b7160e01b600052604160045260246000fdfea2646970667358221220f18026eb95ae5bbcf4ea7ea2edc428bd95ed8a4f562ba16ae901cac10b082dc664736f6c63430008000033a2646970667358221220872804d80150017ba124d0359a787254f0941e0262b4f4fcfe8c0f734bebfcd164736f6c63430008000033",
  "linkReferences": {},
  "deployedLinkReferences": {}
}