{
  "contractName": "Bridge",
  "abi": [
    {
      "inputs": [
        {
          "internalType": "address[]",
          "name": "owners",
          "type": "address[]"
        },
        {
          "internalType": "address",
          "name": "admin",
          "type": "address"
        }
      ],
      "stateMutability": "nonpayable",
      "type": "constructor"
    },
    {
      "anonymous": false,
      "inputs": [
        {
          "indexed": false,
          "internalType": "uint16",
          "name": "_nonce",
          "type": "uint16"
        }
      ],
      "name": "NonceUsed",
      "type": "event"
    },
    {
      "anonymous": false,
      "inputs": [
        {
          "indexed": true,
          "internalType": "address",
          "name": "newOwner",
          "type": "address"
        }
      ],
      "name": "OwnershipGranted",
      "type": "event"
    },
    {
      "anonymous": false,
      "inputs": [
        {
          "indexed": true,
          "internalType": "address",
          "name": "removedOwner",
          "type": "address"
        }
      ],
      "name": "OwnershipRemoved",
      "type": "event"
    },
    {
      "inputs": [],
      "name": "admin",
      "outputs": [
        {
          "internalType": "address",
          "name": "",
          "type": "address"
        }
      ],
      "stateMutability": "view",
      "type": "function"
    },
    {
      "inputs": [
        {
          "internalType": "address payable[]",
          "name": "_to",
          "type": "address[]"
        },
        {
          "internalType": "bytes[]",
          "name": "_data",
          "type": "bytes[]"
        },
        {
          "internalType": "uint256[]",
          "name": "weiAmount",
          "type": "uint256[]"
        }
      ],
      "name": "externalCallEth",
      "outputs": [],
      "stateMutability": "payable",
      "type": "function"
    },
    {
      "inputs": [],
      "name": "getOwners",
      "outputs": [
        {
          "internalType": "address[]",
          "name": "",
          "type": "address[]"
        }
      ],
      "stateMutability": "view",
      "type": "function"
    },
    {
      "inputs": [
        {
          "internalType": "address",
          "name": "checkAddr",
          "type": "address"
        }
      ],
      "name": "isOwner",
      "outputs": [
        {
          "internalType": "bool",
          "name": "",
          "type": "bool"
        }
      ],
      "stateMutability": "view",
      "type": "function"
    },
    {
      "inputs": [
        {
          "internalType": "uint16",
          "name": "",
          "type": "uint16"
        }
      ],
      "name": "nonce",
      "outputs": [
        {
          "internalType": "bool",
          "name": "",
          "type": "bool"
        }
      ],
      "stateMutability": "view",
      "type": "function"
    },
    {
      "inputs": [
        {
          "internalType": "uint16",
          "name": "_nonce",
          "type": "uint16"
        }
      ],
      "name": "nonceNotUsed",
      "outputs": [
        {
          "internalType": "bool",
          "name": "",
          "type": "bool"
        }
      ],
      "stateMutability": "view",
      "type": "function"
    },
    {
      "inputs": [
        {
          "internalType": "bytes",
          "name": "payload",
          "type": "bytes"
        },
        {
          "internalType": "bytes",
          "name": "signature",
          "type": "bytes"
        }
      ],
      "name": "recoverSignature",
      "outputs": [
        {
          "internalType": "address",
          "name": "",
          "type": "address"
        }
      ],
      "stateMutability": "pure",
      "type": "function"
    },
    {
      "inputs": [
        {
          "internalType": "address",
          "name": "_newAdmin",
          "type": "address"
        }
      ],
      "name": "transferAdmin",
      "outputs": [],
      "stateMutability": "nonpayable",
      "type": "function"
    },
    {
      "inputs": [
        {
          "internalType": "address",
          "name": "candidate",
          "type": "address"
        }
      ],
      "name": "isRelay",
      "outputs": [
        {
          "internalType": "bool",
          "name": "",
          "type": "bool"
        }
      ],
      "stateMutability": "view",
      "type": "function"
    },
    {
      "inputs": [
        {
          "internalType": "bytes",
          "name": "payload",
          "type": "bytes"
        },
        {
          "internalType": "bytes[]",
          "name": "signatures",
          "type": "bytes[]"
        }
      ],
      "name": "countRelaysSignatures",
      "outputs": [
        {
          "internalType": "uint256",
          "name": "",
          "type": "uint256"
        }
      ],
      "stateMutability": "view",
      "type": "function"
    },
    {
      "inputs": [
        {
          "internalType": "bytes",
          "name": "payload",
          "type": "bytes"
        },
        {
          "internalType": "bytes[]",
          "name": "signatures",
          "type": "bytes[]"
        }
      ],
      "name": "updateBridgeConfiguration",
      "outputs": [],
      "stateMutability": "nonpayable",
      "type": "function"
    },
    {
      "inputs": [
        {
          "internalType": "bytes",
          "name": "payload",
          "type": "bytes"
        },
        {
          "internalType": "bytes[]",
          "name": "signatures",
          "type": "bytes[]"
        }
      ],
      "name": "updateBridgeRelay",
      "outputs": [],
      "stateMutability": "nonpayable",
      "type": "function"
    },
    {
      "inputs": [],
      "name": "getConfiguration",
      "outputs": [
        {
          "components": [
            {
              "internalType": "uint16",
              "name": "nonce",
              "type": "uint16"
            },
            {
              "internalType": "uint16",
              "name": "bridgeUpdateRequiredConfirmations",
              "type": "uint16"
            }
          ],
          "internalType": "struct IBridge.BridgeConfiguration",
          "name": "",
          "type": "tuple"
        }
      ],
      "stateMutability": "view",
      "type": "function"
    }
  ],
  "bytecode": "0x60806040523480156200001157600080fd5b50604051620022c0380380620022c083398181016040526200003791908101906200030d565b8160008090505b81518110156200007b576200006d8282815181106200005957fe5b60200260200101516200009660201b60201c565b80806001019150506200003e565b50506200008e816200022560201b60201c565b505062000481565b6000808273ffffffffffffffffffffffffffffffffffffffff1673ffffffffffffffffffffffffffffffffffffffff16815260200190815260200160002060009054906101000a900460ff161562000125576040517f08c379a00000000000000000000000000000000000000000000000000000000081526004016200011c90620003a9565b60405180910390fd5b60016000808373ffffffffffffffffffffffffffffffffffffffff1673ffffffffffffffffffffffffffffffffffffffff16815260200190815260200160002060006101000a81548160ff0219169083151502179055506001819080600181540180825580915050600190039060005260206000200160009091909190916101000a81548173ffffffffffffffffffffffffffffffffffffffff021916908373ffffffffffffffffffffffffffffffffffffffff1602179055508073ffffffffffffffffffffffffffffffffffffffff167f24fef68333a009942a0d4864d8fdf2266e208a96399f135b05c1dc92c3c31f9260405160405180910390a250565b80600260006101000a81548173ffffffffffffffffffffffffffffffffffffffff021916908373ffffffffffffffffffffffffffffffffffffffff16021790555050565b6000815190506200027a8162000467565b92915050565b600082601f8301126200029257600080fd5b8151620002a9620002a382620003f9565b620003cb565b91508181835260208401935060208101905083856020840282011115620002cf57600080fd5b60005b83811015620003035781620002e8888262000269565b845260208401935060208301925050600181019050620002d2565b5050505092915050565b600080604083850312156200032157600080fd5b600083015167ffffffffffffffff8111156200033c57600080fd5b6200034a8582860162000280565b92505060206200035d8582860162000269565b9150509250929050565b600062000376600d8362000422565b91507f416c7265616479206f776e6572000000000000000000000000000000000000006000830152602082019050919050565b60006020820190508181036000830152620003c48162000367565b9050919050565b6000604051905081810181811067ffffffffffffffff82111715620003ef57600080fd5b8060405250919050565b600067ffffffffffffffff8211156200041157600080fd5b602082029050602081019050919050565b600082825260208201905092915050565b6000620004408262000447565b9050919050565b600073ffffffffffffffffffffffffffffffffffffffff82169050919050565b620004728162000433565b81146200047e57600080fd5b50565b611e2f80620004916000396000f3fe6080604052600436106100c25760003560e01c8063752170701161007f57806384d063841161005957806384d063841461029e578063a0e67e2b146102db578063cb9d122314610306578063f851a44014610322576100c2565b8063752170701461020f57806375829def1461024c5780637ba30c0014610275576100c2565b806326cb32b7146100c75780632bf966b1146101045780632f54bf6e146101415780634d6e855e1461017e578063687144bb146101bb5780636bd50cef146101e4575b600080fd5b3480156100d357600080fd5b506100ee60048036036100e9919081019061143b565b61034d565b6040516100fb9190611a0b565b60405180910390f35b34801561011057600080fd5b5061012b60048036036101269190810190611625565b61035f565b6040516101389190611a0b565b60405180910390f35b34801561014d57600080fd5b506101686004803603610163919081019061143b565b61037f565b6040516101759190611a0b565b60405180910390f35b34801561018a57600080fd5b506101a560048036036101a09190810190611567565b6103d4565b6040516101b291906119ce565b60405180910390f35b3480156101c757600080fd5b506101e260048036036101dd91908101906114fb565b610400565b005b3480156101f057600080fd5b506101f9610509565b6040516102069190611b4b565b60405180910390f35b34801561021b57600080fd5b50610236600480360361023191908101906114fb565b610563565b6040516102439190611b81565b60405180910390f35b34801561025857600080fd5b50610273600480360361026e919081019061143b565b6105ca565b005b34801561028157600080fd5b5061029c600480360361029791908101906114fb565b6106d6565b005b3480156102aa57600080fd5b506102c560048036036102c09190810190611625565b610801565b6040516102d29190611a0b565b60405180910390f35b3480156102e757600080fd5b506102f0610834565b6040516102fd91906119e9565b60405180910390f35b610320600480360361031b9190810190611464565b6108c2565b005b34801561032e57600080fd5b50610337610a19565b60405161034491906119ce565b60405180910390f35b60006103588261037f565b9050919050565b60036020528060005260406000206000915054906101000a900460ff1681565b60008060008373ffffffffffffffffffffffffffffffffffffffff1673ffffffffffffffffffffffffffffffffffffffff16815260200190815260200160002060009054906101000a900460ff169050919050565b60006103f8826103ea8580519060200120610a3f565b610a6f90919063ffffffff16565b905092915050565b600460000160029054906101000a900461ffff1661ffff166104228383610563565b1015610463576040517f08c379a000000000000000000000000000000000000000000000000000000000815260040161045a90611b0b565b60405180910390fd5b61046b61107b565b8280602001905161047f91908101906115fc565b905061048e8160000151610801565b6104cd576040517f08c379a00000000000000000000000000000000000000000000000000000000081526004016104c490611acb565b60405180910390fd5b8060400151156104e9576104e48160200151610b39565b6104f7565b6104f68160200151610cc5565b5b6105048160000151610e01565b505050565b6105116110b8565b60046040518060400160405290816000820160009054906101000a900461ffff1661ffff1661ffff1681526020016000820160029054906101000a900461ffff1661ffff1661ffff1681525050905090565b6000806000905060008090505b83518110156105bf5760006105988686848151811061058b57fe5b60200260200101516103d4565b90506105a38161037f565b156105b15782806001019350505b508080600101915050610570565b508091505092915050565b600260009054906101000a900473ffffffffffffffffffffffffffffffffffffffff1673ffffffffffffffffffffffffffffffffffffffff163373ffffffffffffffffffffffffffffffffffffffff161461065a576040517f08c379a000000000000000000000000000000000000000000000000000000000815260040161065190611aab565b60405180910390fd5b600073ffffffffffffffffffffffffffffffffffffffff168173ffffffffffffffffffffffffffffffffffffffff1614156106ca576040517f08c379a00000000000000000000000000000000000000000000000000000000081526004016106c190611a8b565b60405180910390fd5b6106d381610e6f565b50565b600460000160029054906101000a900461ffff1661ffff166106f88383610563565b1015610739576040517f08c379a000000000000000000000000000000000000000000000000000000000815260040161073090611b0b565b60405180910390fd5b6107416110b8565b8280602001905161075591908101906115d3565b90506107648160000151610801565b6107a3576040517f08c379a000000000000000000000000000000000000000000000000000000000815260040161079a90611acb565b60405180910390fd5b80600460008201518160000160006101000a81548161ffff021916908361ffff16021790555060208201518160000160026101000a81548161ffff021916908361ffff1602179055509050506107fc8160000151610e01565b505050565b6000600360008361ffff1661ffff16815260200190815260200160002060009054906101000a900460ff16159050919050565b606060018054806020026020016040519081016040528092919081815260200182805480156108b857602002820191906000526020600020905b8160009054906101000a900473ffffffffffffffffffffffffffffffffffffffff1673ffffffffffffffffffffffffffffffffffffffff168152602001906001019080831161086e575b5050505050905090565b600260009054906101000a900473ffffffffffffffffffffffffffffffffffffffff1673ffffffffffffffffffffffffffffffffffffffff163373ffffffffffffffffffffffffffffffffffffffff1614610952576040517f08c379a000000000000000000000000000000000000000000000000000000000815260040161094990611aab565b60405180910390fd5b81518351148015610964575080518251145b6109a3576040517f08c379a000000000000000000000000000000000000000000000000000000000815260040161099a90611b2b565b60405180910390fd5b60008090505b83518161ffff161015610a1357610a06848261ffff16815181106109c957fe5b6020026020010151848361ffff16815181106109e157fe5b6020026020010151848461ffff16815181106109f957fe5b6020026020010151610eb3565b80806001019150506109a9565b50505050565b600260009054906101000a900473ffffffffffffffffffffffffffffffffffffffff1681565b600081604051602001610a5291906119a8565b604051602081830303815290604052805190602001209050919050565b6000806000806041855114610a8a5760009350505050610b33565b6020850151925060408501519150606085015160001a9050601b8160ff161015610ab557601b810190505b601b8160ff1614158015610acd5750601c8160ff1614155b15610ade5760009350505050610b33565b60018682858560405160008152602001604052604051610b019493929190611a26565b6020604051602081039080840390855afa158015610b23573d6000803e3d6000fd5b5050506020604051035193505050505b92915050565b6000808273ffffffffffffffffffffffffffffffffffffffff1673ffffffffffffffffffffffffffffffffffffffff16815260200190815260200160002060009054906101000a900460ff1615610bc5576040517f08c379a0000000000000000000000000000000000000000000000000000000008152600401610bbc90611aeb565b60405180910390fd5b60016000808373ffffffffffffffffffffffffffffffffffffffff1673ffffffffffffffffffffffffffffffffffffffff16815260200190815260200160002060006101000a81548160ff0219169083151502179055506001819080600181540180825580915050600190039060005260206000200160009091909190916101000a81548173ffffffffffffffffffffffffffffffffffffffff021916908373ffffffffffffffffffffffffffffffffffffffff1602179055508073ffffffffffffffffffffffffffffffffffffffff167f24fef68333a009942a0d4864d8fdf2266e208a96399f135b05c1dc92c3c31f9260405160405180910390a250565b6000808273ffffffffffffffffffffffffffffffffffffffff1673ffffffffffffffffffffffffffffffffffffffff16815260200190815260200160002060009054906101000a900460ff16610d50576040517f08c379a0000000000000000000000000000000000000000000000000000000008152600401610d4790611a6b565b60405180910390fd5b60008060008373ffffffffffffffffffffffffffffffffffffffff1673ffffffffffffffffffffffffffffffffffffffff16815260200190815260200160002060006101000a81548160ff021916908315150217905550610dbb816001610ee890919063ffffffff16565b8073ffffffffffffffffffffffffffffffffffffffff167f86d076ecf250a6d90a67a7c75317f44709d5001395ecf1df6d9dad5278f1e68160405160405180910390a250565b6001600360008361ffff1661ffff16815260200190815260200160002060006101000a81548160ff0219169083151502179055507f98a474d3776f6e0466f08f412cfa46211f5950d185a646f886f5f302763aef5581604051610e649190611b66565b60405180910390a150565b80600260006101000a81548173ffffffffffffffffffffffffffffffffffffffff021916908373ffffffffffffffffffffffffffffffffffffffff16021790555050565b60006020600084516020860185886113885a03f16000519150801560018114610edb57610ee0565b600080fd5b505050505050565b6000610ef48383610f05565b9050610f008382610f8d565b505050565b600080600090505b8273ffffffffffffffffffffffffffffffffffffffff16848281548110610f3057fe5b9060005260206000200160009054906101000a900473ffffffffffffffffffffffffffffffffffffffff1673ffffffffffffffffffffffffffffffffffffffff1614610f83578080600101915050610f0d565b8091505092915050565b5b600182805490500381101561103857816001820181548110610fac57fe5b9060005260206000200160009054906101000a900473ffffffffffffffffffffffffffffffffffffffff16828281548110610fe357fe5b9060005260206000200160006101000a81548173ffffffffffffffffffffffffffffffffffffffff021916908373ffffffffffffffffffffffffffffffffffffffff1602179055508080600101915050610f8e565b8180548061104257fe5b6001900381819060005260206000200160006101000a81549073ffffffffffffffffffffffffffffffffffffffff021916905590555050565b6040518060600160405280600061ffff168152602001600073ffffffffffffffffffffffffffffffffffffffff1681526020016000151581525090565b6040518060400160405280600061ffff168152602001600061ffff1681525090565b6000813590506110e981611d86565b92915050565b6000815190506110fe81611d86565b92915050565b60008135905061111381611d9d565b92915050565b600082601f83011261112a57600080fd5b813561113d61113882611bc9565b611b9c565b9150818183526020840193506020810190508385602084028201111561116257600080fd5b60005b8381101561119257816111788882611104565b845260208401935060208301925050600181019050611165565b5050505092915050565b600082601f8301126111ad57600080fd5b81356111c06111bb82611bf1565b611b9c565b9150818183526020840193506020810190508360005b8381101561120657813586016111ec88826112a8565b8452602084019350602083019250506001810190506111d6565b5050505092915050565b600082601f83011261122157600080fd5b813561123461122f82611c19565b611b9c565b9150818183526020840193506020810190508385602084028201111561125957600080fd5b60005b83811015611289578161126f8882611426565b84526020840193506020830192505060018101905061125c565b5050505092915050565b6000815190506112a281611db4565b92915050565b600082601f8301126112b957600080fd5b81356112cc6112c782611c41565b611b9c565b915080825260208301602083018583830111156112e857600080fd5b6112f3838284611d6d565b50505092915050565b600082601f83011261130d57600080fd5b813561132061131b82611c6d565b611b9c565b9150808252602083016020830185838301111561133c57600080fd5b611347838284611d6d565b50505092915050565b60006040828403121561136257600080fd5b61136c6040611b9c565b9050600061137c84828501611411565b600083015250602061139084828501611411565b60208301525092915050565b6000606082840312156113ae57600080fd5b6113b86060611b9c565b905060006113c884828501611411565b60008301525060206113dc848285016110ef565b60208301525060406113f084828501611293565b60408301525092915050565b60008135905061140b81611dcb565b92915050565b60008151905061142081611dcb565b92915050565b60008135905061143581611de2565b92915050565b60006020828403121561144d57600080fd5b600061145b848285016110da565b91505092915050565b60008060006060848603121561147957600080fd5b600084013567ffffffffffffffff81111561149357600080fd5b61149f86828701611119565b935050602084013567ffffffffffffffff8111156114bc57600080fd5b6114c88682870161119c565b925050604084013567ffffffffffffffff8111156114e557600080fd5b6114f186828701611210565b9150509250925092565b6000806040838503121561150e57600080fd5b600083013567ffffffffffffffff81111561152857600080fd5b611534858286016112fc565b925050602083013567ffffffffffffffff81111561155157600080fd5b61155d8582860161119c565b9150509250929050565b6000806040838503121561157a57600080fd5b600083013567ffffffffffffffff81111561159457600080fd5b6115a0858286016112fc565b925050602083013567ffffffffffffffff8111156115bd57600080fd5b6115c9858286016112fc565b9150509250929050565b6000604082840312156115e557600080fd5b60006115f384828501611350565b91505092915050565b60006060828403121561160e57600080fd5b600061161c8482850161139c565b91505092915050565b60006020828403121561163757600080fd5b6000611645848285016113fc565b91505092915050565b600061165a8383611666565b60208301905092915050565b61166f81611cee565b82525050565b61167e81611cee565b82525050565b600061168f82611ca9565b6116998185611cc1565b93506116a483611c99565b8060005b838110156116d55781516116bc888261164e565b97506116c783611cb4565b9250506001810190506116a8565b5085935050505092915050565b6116eb81611d12565b82525050565b6116fa81611d1e565b82525050565b61171161170c82611d1e565b611d7c565b82525050565b6000611724601c83611ce3565b91507f19457468657265756d205369676e6564204d6573736167653a0a3332000000006000830152601c82019050919050565b6000611764600c83611cd2565b91507f4e6f7420616e206f776e657200000000000000000000000000000000000000006000830152602082019050919050565b60006117a4601e83611cd2565b91507f43616e74207365742061646d696e20746f207a65726f206164647265737300006000830152602082019050919050565b60006117e4601083611cd2565b91507f53656e646572206e6f742061646d696e000000000000000000000000000000006000830152602082019050919050565b6000611824601283611cd2565b91507f4e6f6e636520616c7265616479207573656400000000000000000000000000006000830152602082019050919050565b6000611864600d83611cd2565b91507f416c7265616479206f776e6572000000000000000000000000000000000000006000830152602082019050919050565b60006118a4601883611cd2565b91507f4e6f7420656e6f75676820636f6e6669726d6174696f6e7300000000000000006000830152602082019050919050565b60006118e4602183611cd2565b91507f506172616d65746572732073686f756c6420626520657175616c206c656e677460008301527f68000000000000000000000000000000000000000000000000000000000000006020830152604082019050919050565b604082016000820151611953600085018261196c565b506020820151611966602085018261196c565b50505050565b61197581611d28565b82525050565b61198481611d28565b82525050565b61199381611d56565b82525050565b6119a281611d60565b82525050565b60006119b382611717565b91506119bf8284611700565b60208201915081905092915050565b60006020820190506119e36000830184611675565b92915050565b60006020820190508181036000830152611a038184611684565b905092915050565b6000602082019050611a2060008301846116e2565b92915050565b6000608082019050611a3b60008301876116f1565b611a486020830186611999565b611a5560408301856116f1565b611a6260608301846116f1565b95945050505050565b60006020820190508181036000830152611a8481611757565b9050919050565b60006020820190508181036000830152611aa481611797565b9050919050565b60006020820190508181036000830152611ac4816117d7565b9050919050565b60006020820190508181036000830152611ae481611817565b9050919050565b60006020820190508181036000830152611b0481611857565b9050919050565b60006020820190508181036000830152611b2481611897565b9050919050565b60006020820190508181036000830152611b44816118d7565b9050919050565b6000604082019050611b60600083018461193d565b92915050565b6000602082019050611b7b600083018461197b565b92915050565b6000602082019050611b96600083018461198a565b92915050565b6000604051905081810181811067ffffffffffffffff82111715611bbf57600080fd5b8060405250919050565b600067ffffffffffffffff821115611be057600080fd5b602082029050602081019050919050565b600067ffffffffffffffff821115611c0857600080fd5b602082029050602081019050919050565b600067ffffffffffffffff821115611c3057600080fd5b602082029050602081019050919050565b600067ffffffffffffffff821115611c5857600080fd5b601f19601f8301169050602081019050919050565b600067ffffffffffffffff821115611c8457600080fd5b601f19601f8301169050602081019050919050565b6000819050602082019050919050565b600081519050919050565b6000602082019050919050565b600082825260208201905092915050565b600082825260208201905092915050565b600081905092915050565b6000611cf982611d36565b9050919050565b6000611d0b82611d36565b9050919050565b60008115159050919050565b6000819050919050565b600061ffff82169050919050565b600073ffffffffffffffffffffffffffffffffffffffff82169050919050565b6000819050919050565b600060ff82169050919050565b82818337600083830152505050565b6000819050919050565b611d8f81611cee565b8114611d9a57600080fd5b50565b611da681611d00565b8114611db157600080fd5b50565b611dbd81611d12565b8114611dc857600080fd5b50565b611dd481611d28565b8114611ddf57600080fd5b50565b611deb81611d56565b8114611df657600080fd5b5056fea2646970667358221220c0ef48584f8b0a1118440ba37767ffc744aa832b044408dea98d3397e1a7f49164736f6c63430006020033",
  "source": "// SPDX-License-Identifier: MIT\npragma solidity ^0.6.2;\npragma experimental ABIEncoderV2;\n\n\nimport \"@openzeppelin/contracts/math/SafeMath.sol\";\nimport \"./utils/DistributedOwnable.sol\";\nimport \"./interfaces/IBridge.sol\";\nimport \"./utils/Nonce.sol\";\nimport \"./utils/RedButton.sol\";\n\n/**\n    @title Basic smart contract for implementing Bridge logic.\n    @dev Uses DistributedOwnable contract as identity and access management solution\n**/\ncontract Bridge is DistributedOwnable, RedButton, Nonce, IBridge {\n    using SafeMath for uint;\n\n    BridgeConfiguration bridgeConfiguration;\n\n    /**\n        @notice Bridge constructor\n        @param owners Initial list of owners addresses\n        @param admin Red button caller, probably multisig\n    **/\n    constructor(\n        address[] memory owners,\n        address admin\n    ) DistributedOwnable(owners) public {\n        setAdmin(admin);\n    }\n\n    /*\n        Is address relay or not.\n        Handy wrapper around ownership functionality + Bridge specific names.\n        @param candidate Address\n        @returns Boolean is relay or not\n    */\n    function isRelay(address candidate) override public view returns(bool) {\n        return isOwner(candidate);\n    }\n\n    /**\n     * @notice Count how much signatures are made by owners.\n     * @param payload Bytes payload, which was signed\n     * @param signatures Bytes array with payload signatures\n    */\n    function countRelaysSignatures(\n        bytes memory payload,\n        bytes[] memory signatures\n    ) public override view returns(uint) {\n        uint ownersConfirmations = 0;\n\n        for (uint i=0; i<signatures.length; i++) {\n            address signer = recoverSignature(payload, signatures[i]);\n\n            if (isOwner(signer)) ownersConfirmations++;\n        }\n\n        return ownersConfirmations;\n    }\n\n    /*\n        Update Bridge configuration\n        @dev Check enough owners signed and apply update\n        @param payload Bytes encoded BridgeConfiguration structure\n    */\n    function updateBridgeConfiguration(\n        bytes memory payload,\n        bytes[] memory signatures\n    ) public {\n        require(\n            countRelaysSignatures(\n                payload,\n                signatures\n            ) >= bridgeConfiguration.bridgeUpdateRequiredConfirmations,\n            'Not enough confirmations'\n        );\n\n        (BridgeConfiguration memory _bridgeConfiguration) = abi.decode(payload, (BridgeConfiguration));\n\n        require(nonceNotUsed(_bridgeConfiguration.nonce), 'Nonce already used');\n\n        bridgeConfiguration = _bridgeConfiguration;\n\n        rememberNonce(_bridgeConfiguration.nonce);\n    }\n\n    /*\n        Update Bridge relay\n        @dev Check enough owners signed and apply update\n        @param payload Bytes encoded BridgeRelay structure\n    */\n    function updateBridgeRelay(\n        bytes memory payload,\n        bytes[] memory signatures\n    ) public {\n        require(\n            countRelaysSignatures(\n                payload,\n                signatures\n            ) >= bridgeConfiguration.bridgeUpdateRequiredConfirmations,\n            'Not enough confirmations'\n        );\n\n        (BridgeRelay memory bridgeRelay) = abi.decode(payload, (BridgeRelay));\n\n        require(nonceNotUsed(bridgeRelay.nonce), 'Nonce already used');\n\n        if (bridgeRelay.action) {\n            grantOwnership(bridgeRelay.account);\n        } else {\n            removeOwnership(bridgeRelay.account);\n        }\n\n        rememberNonce(bridgeRelay.nonce);\n    }\n\n    /*\n        Get current bridge configuration\n        @return Bridge configuration structure\n    */\n    function getConfiguration() public view override returns (BridgeConfiguration memory) {\n        return bridgeConfiguration;\n    }\n}\n",
  "sourcePath": "/home/pavlovdog/Work/ethereum-freeton-bridge-contracts/ethereum/contracts/Bridge.sol",
  "compiler": {
    "name": "solc",
    "version": "0.6.2+commit.bacdbe57.Emscripten.clang"
  },
  "schemaVersion": "3.3.1",
  "updatedAt": "2021-01-28T05:42:58.400Z",
  "devdoc": {
    "details": "Uses DistributedOwnable contract as identity and access management solution*",
    "methods": {
      "constructor": {
        "params": {
          "admin": "Red button caller, probably multisig*",
          "owners": "Initial list of owners addresses"
        }
      },
      "countRelaysSignatures(bytes,bytes[])": {
        "params": {
          "payload": "Bytes payload, which was signed",
          "signatures": "Bytes array with payload signatures"
        }
      },
      "isOwner(address)": {
        "params": {
          "checkAddr": "Address to be checked"
        },
        "returns": {
          "_0": "Boolean status of the address"
        }
      },
      "recoverSignature(bytes,bytes)": {
        "details": "Handy wrapper for Solidity recover function. Returns signature author address.",
        "params": {
          "payload": "- payload which was signed",
          "signature": "- payload signature"
        }
      }
    },
    "title": "Basic smart contract for implementing Bridge logic."
  },
  "userdoc": {
    "methods": {
      "constructor": "Bridge constructor",
      "countRelaysSignatures(bytes,bytes[])": {
        "notice": "Count how much signatures are made by owners."
      },
      "getOwners()": {
        "notice": "Get the list of owners"
      },
      "isOwner(address)": {
        "notice": "Check if account has ownership"
      }
    }
  }
}