{
  "_format": "hh-sol-artifact-1",
  "contractName": "DiamondCutFacet",
  "sourceName": "contracts/multivault/multivault/facets/DiamondCutFacet.sol",
  "abi": [
    {
      "anonymous": false,
      "inputs": [
        {
          "components": [
            {
              "internalType": "address",
              "name": "facetAddress",
              "type": "address"
            },
            {
              "internalType": "enum IDiamondCut.FacetCutAction",
              "name": "action",
              "type": "uint8"
            },
            {
              "internalType": "bytes4[]",
              "name": "functionSelectors",
              "type": "bytes4[]"
            }
          ],
          "indexed": false,
          "internalType": "struct IDiamondCut.FacetCut[]",
          "name": "_diamondCut",
          "type": "tuple[]"
        },
        {
          "indexed": false,
          "internalType": "address",
          "name": "_init",
          "type": "address"
        },
        {
          "indexed": false,
          "internalType": "bytes",
          "name": "_calldata",
          "type": "bytes"
        }
      ],
      "name": "DiamondCut",
      "type": "event"
    },
    {
      "inputs": [
        {
          "components": [
            {
              "internalType": "address",
              "name": "facetAddress",
              "type": "address"
            },
            {
              "internalType": "enum IDiamondCut.FacetCutAction",
              "name": "action",
              "type": "uint8"
            },
            {
              "internalType": "bytes4[]",
              "name": "functionSelectors",
              "type": "bytes4[]"
            }
          ],
          "internalType": "struct IDiamondCut.FacetCut[]",
          "name": "_diamondCut",
          "type": "tuple[]"
        },
        {
          "internalType": "address",
          "name": "_init",
          "type": "address"
        },
        {
          "internalType": "bytes",
          "name": "_calldata",
          "type": "bytes"
        }
      ],
      "name": "diamondCut",
      "outputs": [],
      "stateMutability": "nonpayable",
      "type": "function"
    }
  ],
  "bytecode": "0x608060405234801561001057600080fd5b506116d3806100206000396000f3fe608060405234801561001057600080fd5b506004361061002b5760003560e01c80631f931c1c14610030575b600080fd5b61004361003e366004610e17565b610045565b005b61004d61009e565b61009761005a858761149d565b8484848080601f0160208091040260200160405190810160405280939291908181526020018383808284376000920191909152506100ec92505050565b5050505050565b6100a661035a565b600401546001600160a01b03166100bb61037e565b6001600160a01b0316146100ea5760405162461bcd60e51b81526004016100e190611051565b60405180910390fd5b565b60005b835181101561030f57600084828151811061011a57634e487b7160e01b600052603260045260246000fd5b60200260200101516020015190506000600281111561014957634e487b7160e01b600052602160045260246000fd5b81600281111561016957634e487b7160e01b600052602160045260246000fd5b14156101d4576101cf85838151811061019257634e487b7160e01b600052603260045260246000fd5b6020026020010151600001518684815181106101be57634e487b7160e01b600052603260045260246000fd5b6020026020010151604001516103db565b6102fc565b60018160028111156101f657634e487b7160e01b600052602160045260246000fd5b141561025c576101cf85838151811061021f57634e487b7160e01b600052603260045260246000fd5b60200260200101516000015186848151811061024b57634e487b7160e01b600052603260045260246000fd5b6020026020010151604001516105fe565b600281600281111561027e57634e487b7160e01b600052602160045260246000fd5b14156102e4576101cf8583815181106102a757634e487b7160e01b600052603260045260246000fd5b6020026020010151600001518684815181106102d357634e487b7160e01b600052603260045260246000fd5b60200260200101516040015161083b565b60405162461bcd60e51b81526004016100e190611146565b508061030781611608565b9150506100ef565b507f8faa70878671ccd212d20771b795c50af8fd3ff6cf27f4bde57e5d4de0aeb67383838360405161034393929190610f3e565b60405180910390a16103558282610914565b505050565b7fc8fcad8db84d3cc18b4c41d551ea0ee66dd599cde068d998e57d5e09332c131c90565b6000333014156103d557600080368080601f0160208091040260200160405190810160405280939291908181526020018383808284376000920191909152505050503601516001600160a01b031691506103d89050565b50335b90565b60008151116103fc5760405162461bcd60e51b81526004016100e190611339565b600061040661035a565b90506001600160a01b03831661042e5760405162461bcd60e51b81526004016100e1906111d5565b6001600160a01b038316600090815260018201602052604090205461ffff81166104d0576104748460405180606001604052806025815260200161167960259139610a3c565b6002820180546001600160a01b038616600081815260018087016020908152604083208201805461ffff191661ffff90961695909517909455845490810185559381529190912090910180546001600160a01b03191690911790555b60005b83518110156100975760008482815181106104fe57634e487b7160e01b600052603260045260246000fd5b6020908102919091018101516001600160e01b031981166000908152918690526040909120549091506001600160a01b0316801561054e5760405162461bcd60e51b81526004016100e190611093565b6001600160a01b03871660008181526001878101602090815260408084208054938401815584528184206008840401805463ffffffff60079095166004026101000a948502191660e089901c94909402939093179092556001600160e01b031986168352889052902080546001600160a01b03191690911761ffff60a01b1916600160a01b61ffff871602179055836105e6816115e6565b945050505080806105f690611608565b9150506104d3565b600081511161061f5760405162461bcd60e51b81526004016100e190611339565b600061062961035a565b90506001600160a01b0383166106515760405162461bcd60e51b81526004016100e1906111d5565b6001600160a01b038316600090815260018201602052604090205461ffff81166106f3576106978460405180606001604052806025815260200161167960259139610a3c565b6002820180546001600160a01b038616600081815260018087016020908152604083208201805461ffff191661ffff90961695909517909455845490810185559381529190912090910180546001600160a01b03191690911790555b60005b835181101561009757600084828151811061072157634e487b7160e01b600052603260045260246000fd5b6020908102919091018101516001600160e01b031981166000908152918690526040909120549091506001600160a01b039081169087168114156107775760405162461bcd60e51b81526004016100e1906112dc565b6107818183610a5d565b6001600160e01b03198216600081815260208781526040808320805461ffff60a01b1916600160a01b61ffff8b16021781556001600160a01b038c168085526001808c0185529285208054938401815585528385206008840401805463ffffffff60079095166004026101000a948502191660e08a901c94909402939093179092559390925287905281546001600160a01b03191617905583610823816115e6565b9450505050808061083390611608565b9150506106f6565b600081511161085c5760405162461bcd60e51b81526004016100e190611339565b600061086661035a565b90506001600160a01b0383161561088f5760405162461bcd60e51b81526004016100e19061127f565b60005b825181101561090e5760008382815181106108bd57634e487b7160e01b600052603260045260246000fd5b6020908102919091018101516001600160e01b031981166000908152918590526040909120549091506001600160a01b03166108f98183610a5d565b5050808061090690611608565b915050610892565b50505050565b6001600160a01b038216610946578051156109415760405162461bcd60e51b81526004016100e1906110e9565b610a38565b60008151116109675760405162461bcd60e51b81526004016100e190611222565b6001600160a01b0382163014610999576109998260405180606001604052806029815260200161165060299139610a3c565b600080836001600160a01b0316836040516109b49190610f22565b600060405180830381855af49150503d80600081146109ef576040519150601f19603f3d011682016040523d82523d6000602084013e6109f4565b606091505b5090925090508161090e57805115610a20578060405162461bcd60e51b81526004016100e19190611037565b60405162461bcd60e51b81526004016100e19061118e565b5050565b813b818161090e5760405162461bcd60e51b81526004016100e19190611037565b6000610a6761035a565b90506001600160a01b038316610a8f5760405162461bcd60e51b81526004016100e1906113d4565b6001600160a01b038316301415610ab85760405162461bcd60e51b81526004016100e190611385565b6001600160e01b03198216600090815260208281526040808320546001600160a01b0387168452600180860190935290832054600160a01b90910461ffff169291610b0291611486565b9050808214610c0a576001600160a01b03851660009081526001840160205260408120805483908110610b4557634e487b7160e01b600052603260045260246000fd5b600091825260208083206008830401546001600160a01b038a168452600188019091526040909220805460079092166004026101000a90920460e01b925082919085908110610ba457634e487b7160e01b600052603260045260246000fd5b600091825260208083206008830401805463ffffffff60079094166004026101000a938402191660e09590951c929092029390931790556001600160e01b031992909216825284905260409020805461ffff60a01b1916600160a01b61ffff8516021790555b6001600160a01b03851660009081526001840160205260409020805480610c4157634e487b7160e01b600052603160045260246000fd5b60008281526020808220600860001990940193840401805463ffffffff600460078716026101000a0219169055919092556001600160e01b0319861682528490526040902080546001600160b01b031916905580610097576002830154600090610cad90600190611486565b6001600160a01b038716600090815260018087016020526040909120015490915061ffff16808214610d88576000856002018381548110610cfe57634e487b7160e01b600052603260045260246000fd5b6000918252602090912001546002870180546001600160a01b039092169250829184908110610d3d57634e487b7160e01b600052603260045260246000fd5b600091825260208083209190910180546001600160a01b0319166001600160a01b0394851617905592909116815260018781019092526040902001805461ffff191661ffff83161790555b84600201805480610da957634e487b7160e01b600052603160045260246000fd5b60008281526020808220830160001990810180546001600160a01b03191690559092019092556001600160a01b03891682526001878101909152604090912001805461ffff1916905550505050505050565b80356001600160a01b0381168114610e1257600080fd5b919050565b600080600080600060608688031215610e2e578081fd5b853567ffffffffffffffff80821115610e45578283fd5b818801915088601f830112610e58578283fd5b813581811115610e66578384fd5b60208a818284028601011115610e7a578485fd5b8084019850819750610e8d818b01610dfb565b965060408a0135935082841115610ea2578485fd5b838a0193508a601f850112610eb5578485fd5b8335915082821115610ec5578485fd5b8a81838601011115610ed5578485fd5b979a96995094975050909401935090919050565b6001600160a01b03169052565b60008151808452610f0e8160208601602086016115ba565b601f01601f19169290920160200192915050565b60008251610f348184602087016115ba565b9190910192915050565b606080825284518282018190526000919060809081850190602080820287018401818b01875b8481101561100857898303607f19018652815180516001600160a01b03168452848101518985019060038110610fa857634e487b7160e01b8c52602160045260248cfd5b858701526040918201519185018a9052815190819052908501908a90898601905b80831015610ff35783516001600160e01b0319168252928701926001929092019190870190610fc9565b50978601979450505090830190600101610f64565b50506110168289018b610ee9565b8781036040890152611028818a610ef6565b9b9a5050505050505050505050565b60006020825261104a6020830184610ef6565b9392505050565b60208082526022908201527f4c69624469616d6f6e643a204d75737420626520636f6e7472616374206f776e60408201526132b960f11b606082015260800190565b60208082526036908201527f4469616d6f6e6453746f726167653a2043616e2774206164642066756e6374696040820152756f6e207468617420616c72656164792065786973747360501b606082015260800190565b6020808252603d908201527f4469616d6f6e6453746f726167653a205f696e6974206973206164647265737360408201527f283029206275745f63616c6c64617461206973206e6f7420656d707479000000606082015260800190565b60208082526028908201527f4469616d6f6e6453746f726167653a20496e636f7272656374204661636574436040820152673aba20b1ba34b7b760c11b606082015260800190565b60208082526027908201527f4469616d6f6e6453746f726167653a205f696e69742066756e6374696f6e2072604082015266195d995c9d195960ca1b606082015260800190565b6020808252602d908201527f4469616d6f6e6453746f726167653a204164642066616365742063616e27742060408201526c6265206164647265737328302960981b606082015260800190565b6020808252603e908201527f4469616d6f6e6453746f726167653a205f63616c6c6461746120697320656d7060408201527f747920627574205f696e6974206973206e6f7420616464726573732830290000606082015260800190565b60208082526037908201527f4469616d6f6e6453746f726167653a2052656d6f76652066616365742061646460408201527f72657373206d7573742062652061646472657373283029000000000000000000606082015260800190565b60208082526039908201527f4469616d6f6e6453746f726167653a2043616e2774207265706c61636520667560408201527f6e6374696f6e20776974682073616d652066756e6374696f6e00000000000000606082015260800190565b6020808252602c908201527f4469616d6f6e6453746f726167653a204e6f2073656c6563746f727320696e2060408201526b199858d95d081d1bc818dd5d60a21b606082015260800190565b6020808252602f908201527f4469616d6f6e6453746f726167653a2043616e27742072656d6f766520696d6d60408201526e3aba30b1363290333ab731ba34b7b760891b606082015260800190565b60208082526038908201527f4469616d6f6e6453746f726167653a2043616e27742072656d6f76652066756e60408201527f6374696f6e207468617420646f65736e27742065786973740000000000000000606082015260800190565b604051601f8201601f1916810167ffffffffffffffff8111828210171561145a5761145a611639565b604052919050565b600067ffffffffffffffff82111561147c5761147c611639565b5060209081020190565b60008282101561149857611498611623565b500390565b60006114b06114ab84611462565b611431565b8381526020808201919084845b878110156115ae578135870160608082360312156114d9578788fd5b6114e281611431565b90506114ed82610dfb565b815284820135600381106114ff578889fd5b8186015260408281013567ffffffffffffffff81111561151d57898afd5b929092019136601f840112611530578889fd5b823561153e6114ab82611462565b81815287810190858901368a850288018b01111561155a578c8dfd5b8c96505b838710156115915780356001600160e01b03198116811461157d578d8efd5b83526001969096019591890191890161155e565b5092840192909252505086525093820193908201906001016114bd565b50919695505050505050565b60005b838110156115d55781810151838201526020016115bd565b8381111561090e5750506000910152565b600061ffff808316818114156115fe576115fe611623565b6001019392505050565b600060001982141561161c5761161c611623565b5060010190565b634e487b7160e01b600052601160045260246000fd5b634e487b7160e01b600052604160045260246000fdfe4469616d6f6e6453746f726167653a205f696e6974206164647265737320686173206e6f20636f64654469616d6f6e6453746f726167653a204e657720666163657420686173206e6f20636f6465a2646970667358221220e208f31dc3b1e45e1a3797671df0b0c27b68e3a07cabf744face0a32217dec8864736f6c63430008010033",
  "linkReferences": {},
  "deployedLinkReferences": {}
}