{
  "_format": "hh-sol-artifact-1",
  "contractName": "DAO",
  "sourceName": "contracts/DAO.sol",
  "abi": [
    {
      "anonymous": false,
      "inputs": [
        {
          "indexed": true,
          "internalType": "address",
          "name": "previousOwner",
          "type": "address"
        },
        {
          "indexed": true,
          "internalType": "address",
          "name": "newOwner",
          "type": "address"
        }
      ],
      "name": "OwnershipTransferred",
      "type": "event"
    },
    {
      "anonymous": false,
      "inputs": [
        {
          "indexed": true,
          "internalType": "address",
          "name": "bridge",
          "type": "address"
        }
      ],
      "name": "UpdateBridge",
      "type": "event"
    },
    {
      "anonymous": false,
      "inputs": [
        {
          "components": [
            {
              "internalType": "int128",
              "name": "wid",
              "type": "int128"
            },
            {
              "internalType": "uint256",
              "name": "addr",
              "type": "uint256"
            }
          ],
          "indexed": false,
          "internalType": "struct IEverscale.EverscaleAddress",
          "name": "configuration",
          "type": "tuple"
        }
      ],
      "name": "UpdateConfiguration",
      "type": "event"
    },
    {
      "inputs": [],
      "name": "bridge",
      "outputs": [
        {
          "internalType": "address",
          "name": "",
          "type": "address"
        }
      ],
      "stateMutability": "view",
      "type": "function"
    },
    {
      "inputs": [
        {
          "internalType": "bytes32",
          "name": "",
          "type": "bytes32"
        }
      ],
      "name": "cache",
      "outputs": [
        {
          "internalType": "bool",
          "name": "",
          "type": "bool"
        }
      ],
      "stateMutability": "view",
      "type": "function"
    },
    {
      "inputs": [],
      "name": "configuration",
      "outputs": [
        {
          "internalType": "int128",
          "name": "wid",
          "type": "int128"
        },
        {
          "internalType": "uint256",
          "name": "addr",
          "type": "uint256"
        }
      ],
      "stateMutability": "view",
      "type": "function"
    },
    {
      "inputs": [
        {
          "internalType": "bytes",
          "name": "payload",
          "type": "bytes"
        }
      ],
      "name": "decodeEthActionsEventData",
      "outputs": [
        {
          "internalType": "int8",
          "name": "_wid",
          "type": "int8"
        },
        {
          "internalType": "uint256",
          "name": "_addr",
          "type": "uint256"
        },
        {
          "internalType": "uint32",
          "name": "chainId",
          "type": "uint32"
        },
        {
          "components": [
            {
              "internalType": "uint256",
              "name": "value",
              "type": "uint256"
            },
            {
              "internalType": "uint160",
              "name": "target",
              "type": "uint160"
            },
            {
              "internalType": "string",
              "name": "signature",
              "type": "string"
            },
            {
              "internalType": "bytes",
              "name": "data",
              "type": "bytes"
            }
          ],
          "internalType": "struct IDAO.EthAction[]",
          "name": "actions",
          "type": "tuple[]"
        }
      ],
      "stateMutability": "pure",
      "type": "function"
    },
    {
      "inputs": [
        {
          "internalType": "bytes",
          "name": "payload",
          "type": "bytes"
        },
        {
          "internalType": "bytes[]",
          "name": "signatures",
          "type": "bytes[]"
        }
      ],
      "name": "execute",
      "outputs": [
        {
          "internalType": "bytes[]",
          "name": "responses",
          "type": "bytes[]"
        }
      ],
      "stateMutability": "nonpayable",
      "type": "function"
    },
    {
      "inputs": [],
      "name": "getChainID",
      "outputs": [
        {
          "internalType": "uint256",
          "name": "",
          "type": "uint256"
        }
      ],
      "stateMutability": "view",
      "type": "function"
    },
    {
      "inputs": [
        {
          "internalType": "address",
          "name": "_owner",
          "type": "address"
        },
        {
          "internalType": "address",
          "name": "_bridge",
          "type": "address"
        }
      ],
      "name": "initialize",
      "outputs": [],
      "stateMutability": "nonpayable",
      "type": "function"
    },
    {
      "inputs": [],
      "name": "owner",
      "outputs": [
        {
          "internalType": "address",
          "name": "",
          "type": "address"
        }
      ],
      "stateMutability": "view",
      "type": "function"
    },
    {
      "inputs": [],
      "name": "renounceOwnership",
      "outputs": [],
      "stateMutability": "nonpayable",
      "type": "function"
    },
    {
      "inputs": [
        {
          "internalType": "address",
          "name": "_bridge",
          "type": "address"
        }
      ],
      "name": "setBridge",
      "outputs": [],
      "stateMutability": "nonpayable",
      "type": "function"
    },
    {
      "inputs": [
        {
          "components": [
            {
              "internalType": "int128",
              "name": "wid",
              "type": "int128"
            },
            {
              "internalType": "uint256",
              "name": "addr",
              "type": "uint256"
            }
          ],
          "internalType": "struct IEverscale.EverscaleAddress",
          "name": "_configuration",
          "type": "tuple"
        }
      ],
      "name": "setConfiguration",
      "outputs": [],
      "stateMutability": "nonpayable",
      "type": "function"
    },
    {
      "inputs": [
        {
          "internalType": "address",
          "name": "newOwner",
          "type": "address"
        }
      ],
      "name": "transferOwnership",
      "outputs": [],
      "stateMutability": "nonpayable",
      "type": "function"
    }
  ],
  "bytecode": "0x608060405234801561001057600080fd5b5060016000556114ea806100256000396000f3fe608060405234801561001057600080fd5b50600436106100a45760003560e01c806308d44dac146100a957806324856bc3146100d5578063485cc955146100f5578063564b81ef1461010a5780636c70bee914610118578063715018a6146101435780638c40a3131461014b5780638da5cb5b1461015e5780638dd148021461017e57806399eb59b914610191578063e78cea92146101c4578063f2fde38b146101d7575b600080fd5b6100bc6100b7366004610cb6565b6101ea565b6040516100cc9493929190611229565b60405180910390f35b6100e86100e3366004610bf8565b610231565b6040516100cc919061110b565b610108610103366004610ba8565b61074e565b005b6040514681526020016100cc565b60685460695461012991600f0b9082565b60408051600f9390930b83526020830191909152016100cc565b610108610841565b610108610159366004610e6a565b61087c565b6101666108b8565b6040516001600160a01b0390911681526020016100cc565b61010861018c366004610b8c565b6108c7565b6101b461019f366004610be0565b60666020526000908152604090205460ff1681565b60405190151581526020016100cc565b606754610166906001600160a01b031681565b6101086101e5366004610b8c565b610918565b600080600060606000858060200190518101906102079190610f6e565b905080604001518060200190518101906102219190610cf0565b9450945094509450509193509193565b60606002600054141561028b5760405162461bcd60e51b815260206004820152601f60248201527f5265656e7472616e637947756172643a207265656e7472616e742063616c6c0060448201526064015b60405180910390fd5b6002600055604080516020601f870181900481028201810190925285815290869086908190840183828082843760009201829052506040519093506102d69250849150602001611216565b60408051601f1981840301815291815281516020928301206000818152606690935291205490915060ff161561034c5760405162461bcd60e51b815260206004820152601b60248201527a21b0b1b4329d103830bcb637b0b21030b63932b0b23c9039b2b2b760291b6044820152606401610282565b60675460405163dccb359960e01b81526001600160a01b039091169063dccb359990610382908a908a908a908a9060040161116b565b60206040518083038186803b15801561039a57600080fd5b505afa1580156103ae573d6000803e3d6000fd5b505050506040513d601f19601f820116820180604052508101906103d2919061104c565b63ffffffff16156104315760405162461bcd60e51b815260206004820152602360248201527f44414f3a207369676e61747572657320766572696669636174696f6e206661696044820152621b195960ea1b6064820152608401610282565b600061043f87890189610e81565b6068546060820151919250600f90810b900b60009190910b14801561046957506069546080820151145b6104b55760405162461bcd60e51b815260206004820152601e60248201527f44414f3a2077726f6e67206576656e7420636f6e66696775726174696f6e00006044820152606401610282565b6000806104f78a8a8080601f0160208091040260200160405190810160405280939291908181526020018383808284376000920191909152506101ea92505050565b9350935050506105044690565b8263ffffffff161461054e5760405162461bcd60e51b8152602060048201526013602482015272111053ce881ddc9bdb99c818da185a5b881a59606a1b6044820152606401610282565b80516001600160401b0381111561057557634e487b7160e01b600052604160045260246000fd5b6040519080825280602002602001820160405280156105a857816020015b60608152602001906001900390816105935790505b50955060005b81518110156107235760008282815181106105d957634e487b7160e01b600052603260045260246000fd5b602002602001015190506060816040015151600014156105fe57506060810151610632565b81604001518051906020012082606001516040516020016106209291906110be565b60405160208183030381529060405290505b60008083602001516001600160a01b031684600001518460405161065691906110ef565b60006040518083038185875af1925050503d8060008114610693576040519150601f19603f3d011682016040523d82523d6000602084013e610698565b606091505b5091509150816106e05760405162461bcd60e51b8152602060048201526013602482015272111053ce88195e1958dd5d1a5bdb8819985a5b606a1b6044820152606401610282565b808b868151811061070157634e487b7160e01b600052603260045260246000fd5b602002602001018190525050505050808061071b906113ef565b9150506105ae565b505050600091825250606660205260408120805460ff19166001908117909155905550949350505050565b600154610100900460ff166107695760015460ff1615610771565b6107716109b8565b6107d45760405162461bcd60e51b815260206004820152602e60248201527f496e697469616c697a61626c653a20636f6e747261637420697320616c72656160448201526d191e481a5b9a5d1a585b1a5e995960921b6064820152608401610282565b600154610100900460ff161580156107fe576001805460ff1961ff00199091166101001716811790555b606780546001600160a01b0319166001600160a01b0384161790556108216109c9565b61082a83610918565b801561083c576001805461ff00191690555b505050565b3361084a6108b8565b6001600160a01b0316146108705760405162461bcd60e51b8152600401610282906112e8565b61087a60006109f8565b565b336108856108b8565b6001600160a01b0316146108ab5760405162461bcd60e51b8152600401610282906112e8565b80606861083c828261142c565b6034546001600160a01b031690565b336108d06108b8565b6001600160a01b0316146108f65760405162461bcd60e51b8152600401610282906112e8565b606780546001600160a01b0319166001600160a01b0392909216919091179055565b336109216108b8565b6001600160a01b0316146109475760405162461bcd60e51b8152600401610282906112e8565b6001600160a01b0381166109ac5760405162461bcd60e51b815260206004820152602660248201527f4f776e61626c653a206e6577206f776e657220697320746865207a65726f206160448201526564647265737360d01b6064820152608401610282565b6109b5816109f8565b50565b60006109c330610a4a565b15905090565b600154610100900460ff166109f05760405162461bcd60e51b81526004016102829061131d565b61087a610a5d565b603480546001600160a01b038381166001600160a01b0319831681179093556040519116919082907f8be0079c531659141344cd1fd0a4f28419497f9722a3daafe3b4186f6b6457e090600090a35050565b6001600160a01b0381163b15155b919050565b600154610100900460ff16610a845760405162461bcd60e51b81526004016102829061131d565b61087a336109f8565b6000610aa0610a9b84611398565b611368565b9050828152838383011115610ab457600080fd5b610ac28360208301846113bf565b9392505050565b8035610a5881611469565b8051610a5881611469565b600082601f830112610aef578081fd5b8135610afd610a9b82611398565b818152846020838601011115610b11578283fd5b816020850160208301379081016020019190915292915050565b600082601f830112610b3b578081fd5b610ac283835160208501610a8d565b8035610a588161147e565b8051610a588161147e565b8035610a588161148d565b8051610a588161148d565b8035610a588161149f565b8051610a588161149f565b600060208284031215610b9d578081fd5b8135610ac281611469565b60008060408385031215610bba578081fd5b8235610bc581611469565b91506020830135610bd581611469565b809150509250929050565b600060208284031215610bf1578081fd5b5035919050565b60008060008060408587031215610c0d578182fd5b84356001600160401b0380821115610c23578384fd5b818701915087601f830112610c36578384fd5b813581811115610c44578485fd5b60208981838601011115610c56578586fd5b808401975081965080890135935082841115610c70578586fd5b838901935089601f850112610c83578586fd5b8335915082821115610c93578586fd5b89818284028601011115610ca5578586fd5b969995985091909501955093505050565b600060208284031215610cc7578081fd5b81356001600160401b03811115610cdc578182fd5b610ce884828501610adf565b949350505050565b60008060008060808587031215610d05578182fd5b8451610d108161147e565b602086015160408701519195509350610d288161148d565b60608601519092506001600160401b03811115610d43578182fd5b86601f8288010112610d53578182fd5b858101516001600160401b03811115610d6e57610d6e611416565b610d7c602080830201611368565b8181526020808201919089850101855b84811015610e585781518b8701016080818e03601f19011215610dad578788fd5b610db76080611368565b602082015181526040820151610dcc81611469565b602082015260608201516001600160401b03811115610de957898afd5b8e603f8285010112610df957898afd5b610e0f8f60208386010151604084870101610a8d565b60408301525060808201516001600160401b03811115610e2d57898afd5b610e3c8f602083860101610b2b565b6060830152508552506020938401939190910190600101610d8c565b50508094505050505092959194509250565b600060408284031215610e7b578081fd5b50919050565b600060208284031215610e92578081fd5b81356001600160401b0380821115610ea8578283fd5b8184019150610120808387031215610ebe578384fd5b610ec781611368565b9050610ed283610b76565b8152610ee060208401610b60565b6020820152604083013582811115610ef6578485fd5b610f0287828601610adf565b604083015250610f1460608401610b4a565b606082015260808301356080820152610f2f60a08401610b4a565b60a082015260c083013560c0820152610f4a60e08401610ac9565b60e08201526101009150610f5f828401610b60565b91810191909152949350505050565b600060208284031215610f7f578081fd5b81516001600160401b0380821115610f95578283fd5b8184019150610120808387031215610fab578384fd5b610fb481611368565b9050610fbf83610b81565b8152610fcd60208401610b6b565b6020820152604083015182811115610fe3578485fd5b610fef87828601610b2b565b60408301525061100160608401610b55565b60608201526080830151608082015261101c60a08401610b55565b60a082015260c083015160c082015261103760e08401610ad4565b60e08201526101009150610f5f828401610b6b565b60006020828403121561105d578081fd5b8151610ac28161148d565b60008284528282602086013780602084860101526020601f19601f85011685010190509392505050565b600081518084526110aa8160208601602086016113bf565b601f01601f19169290920160200192915050565b6001600160e01b03198316815281516000906110e18160048501602087016113bf565b919091016004019392505050565b600082516111018184602087016113bf565b9190910192915050565b6000602080830181845280855180835260408601915060408482028701019250838701855b8281101561115e57603f1988860301845261114c858351611092565b94509285019290850190600101611130565b5092979650505050505050565b60006040825261117f604083018688611068565b6020838203818501528185835281830190508182870284010187855b8881101561120657858303601f190184528135368b9003601e190181126111c0578788fd5b8a0180356001600160401b038111156111d7578889fd5b8036038c13156111e5578889fd5b6111f28582898501611068565b95870195945050509084019060010161119b565b50909a9950505050505050505050565b600060208252610ac26020830184611092565b6000608080830187830b845260208781860152604063ffffffff8816818701526060848188015283885180865260a08901915060a08582028a01019550848a01885b828110156112d5578a8803609f19018452815180518952878101516001600160a01b0316888a015286810151878a018b90526112a98b8b0182611092565b918701518a83038b8901529190506112c18183611092565b99505050928601929086019060010161126b565b50959d9c50505050505050505050505050565b6020808252818101527f4f776e61626c653a2063616c6c6572206973206e6f7420746865206f776e6572604082015260600190565b6020808252602b908201527f496e697469616c697a61626c653a20636f6e7472616374206973206e6f74206960408201526a6e697469616c697a696e6760a81b606082015260800190565b604051601f8201601f191681016001600160401b038111828210171561139057611390611416565b604052919050565b60006001600160401b038211156113b1576113b1611416565b50601f01601f191660200190565b60005b838110156113da5781810151838201526020016113c2565b838111156113e9576000848401525b50505050565b600060001982141561140f57634e487b7160e01b81526011600452602481fd5b5060010190565b634e487b7160e01b600052604160045260246000fd5b813580600f0b80821461143e57600080fd5b82546001600160801b0319166001600160801b03919091161782555060209190910135600190910155565b6001600160a01b03811681146109b557600080fd5b8060000b81146109b557600080fd5b63ffffffff811681146109b557600080fd5b6001600160401b03811681146109b557600080fdfea2646970667358221220bb8fec22b9c9e166769785e3959e06ab0e61811638af1ff7f4cc5bcb6d34183964736f6c63430008020033",
  "linkReferences": {},
  "deployedLinkReferences": {}
}