{
  "contracts/bridge/BridgeMockup.sol": {
    "BridgeMockup": {
      "abi": [
        {
          "inputs": [
            {
              "internalType": "bytes",
              "name": "",
              "type": "bytes"
            },
            {
              "internalType": "bytes[]",
              "name": "",
              "type": "bytes[]"
            }
          ],
          "name": "verifySignedEverscaleEvent",
          "outputs": [
            {
              "internalType": "uint32",
              "name": "",
              "type": "uint32"
            }
          ],
          "stateMutability": "pure",
          "type": "function"
        }
      ],
      "devdoc": {
        "kind": "dev",
        "methods": {},
        "version": 1
      },
      "evm": {
        "bytecode": {
          "linkReferences": {},
          "object": "608060405234801561001057600080fd5b50610204806100206000396000f3fe608060405234801561001057600080fd5b506004361061002b5760003560e01c8063dccb359914610030575b600080fd5b61004661003e3660046100c9565b600092915050565b60405163ffffffff909116815260200160405180910390f35b600082601f83011261006f578081fd5b81356001600160401b03811115610088576100886101b8565b61009b601f8201601f1916602001610188565b8181528460208386010111156100af578283fd5b816020850160208301379081016020019190915292915050565b600080604083850312156100db578182fd5b82356001600160401b03808211156100f1578384fd5b6100fd8683870161005f565b9350602091508185013581811115610113578384fd5b8501601f81018713610123578384fd5b803582811115610135576101356101b8565b6101428485830201610188565b8181528481019350828501865b83811015610178576101668b88843588010161005f565b8652948601949086019060010161014f565b5096999098509650505050505050565b604051601f8201601f191681016001600160401b03811182821017156101b0576101b06101b8565b604052919050565b634e487b7160e01b600052604160045260246000fdfea2646970667358221220a22082b13e2648c6c753cca63d6979ea8043a5784c8db6a83a5933c03e8da21e64736f6c63430008020033",
          "opcodes": "PUSH1 0x80 PUSH1 0x40 MSTORE CALLVALUE DUP1 ISZERO PUSH2 0x10 JUMPI PUSH1 0x0 DUP1 REVERT JUMPDEST POP PUSH2 0x204 DUP1 PUSH2 0x20 PUSH1 0x0 CODECOPY PUSH1 0x0 RETURN INVALID PUSH1 0x80 PUSH1 0x40 MSTORE CALLVALUE DUP1 ISZERO PUSH2 0x10 JUMPI PUSH1 0x0 DUP1 REVERT JUMPDEST POP PUSH1 0x4 CALLDATASIZE LT PUSH2 0x2B JUMPI PUSH1 0x0 CALLDATALOAD PUSH1 0xE0 SHR DUP1 PUSH4 0xDCCB3599 EQ PUSH2 0x30 JUMPI JUMPDEST PUSH1 0x0 DUP1 REVERT JUMPDEST PUSH2 0x46 PUSH2 0x3E CALLDATASIZE PUSH1 0x4 PUSH2 0xC9 JUMP JUMPDEST PUSH1 0x0 SWAP3 SWAP2 POP POP JUMP JUMPDEST PUSH1 0x40 MLOAD PUSH4 0xFFFFFFFF SWAP1 SWAP2 AND DUP2 MSTORE PUSH1 0x20 ADD PUSH1 0x40 MLOAD DUP1 SWAP2 SUB SWAP1 RETURN JUMPDEST PUSH1 0x0 DUP3 PUSH1 0x1F DUP4 ADD SLT PUSH2 0x6F JUMPI DUP1 DUP2 REVERT JUMPDEST DUP2 CALLDATALOAD PUSH1 0x1 PUSH1 0x1 PUSH1 0x40 SHL SUB DUP2 GT ISZERO PUSH2 0x88 JUMPI PUSH2 0x88 PUSH2 0x1B8 JUMP JUMPDEST PUSH2 0x9B PUSH1 0x1F DUP3 ADD PUSH1 0x1F NOT AND PUSH1 0x20 ADD PUSH2 0x188 JUMP JUMPDEST DUP2 DUP2 MSTORE DUP5 PUSH1 0x20 DUP4 DUP7 ADD ADD GT ISZERO PUSH2 0xAF JUMPI DUP3 DUP4 REVERT JUMPDEST DUP2 PUSH1 0x20 DUP6 ADD PUSH1 0x20 DUP4 ADD CALLDATACOPY SWAP1 DUP2 ADD PUSH1 0x20 ADD SWAP2 SWAP1 SWAP2 MSTORE SWAP3 SWAP2 POP POP JUMP JUMPDEST PUSH1 0x0 DUP1 PUSH1 0x40 DUP4 DUP6 SUB SLT ISZERO PUSH2 0xDB JUMPI DUP2 DUP3 REVERT JUMPDEST DUP3 CALLDATALOAD PUSH1 0x1 PUSH1 0x1 PUSH1 0x40 SHL SUB DUP1 DUP3 GT ISZERO PUSH2 0xF1 JUMPI DUP4 DUP5 REVERT JUMPDEST PUSH2 0xFD DUP7 DUP4 DUP8 ADD PUSH2 0x5F JUMP JUMPDEST SWAP4 POP PUSH1 0x20 SWAP2 POP DUP2 DUP6 ADD CALLDATALOAD DUP2 DUP2 GT ISZERO PUSH2 0x113 JUMPI DUP4 DUP5 REVERT JUMPDEST DUP6 ADD PUSH1 0x1F DUP2 ADD DUP8 SGT PUSH2 0x123 JUMPI DUP4 DUP5 REVERT JUMPDEST DUP1 CALLDATALOAD DUP3 DUP2 GT ISZERO PUSH2 0x135 JUMPI PUSH2 0x135 PUSH2 0x1B8 JUMP JUMPDEST PUSH2 0x142 DUP5 DUP6 DUP4 MUL ADD PUSH2 0x188 JUMP JUMPDEST DUP2 DUP2 MSTORE DUP5 DUP2 ADD SWAP4 POP DUP3 DUP6 ADD DUP7 JUMPDEST DUP4 DUP2 LT ISZERO PUSH2 0x178 JUMPI PUSH2 0x166 DUP12 DUP9 DUP5 CALLDATALOAD DUP9 ADD ADD PUSH2 0x5F JUMP JUMPDEST DUP7 MSTORE SWAP5 DUP7 ADD SWAP5 SWAP1 DUP7 ADD SWAP1 PUSH1 0x1 ADD PUSH2 0x14F JUMP JUMPDEST POP SWAP7 SWAP10 SWAP1 SWAP9 POP SWAP7 POP POP POP POP POP POP POP JUMP JUMPDEST PUSH1 0x40 MLOAD PUSH1 0x1F DUP3 ADD PUSH1 0x1F NOT AND DUP2 ADD PUSH1 0x1 PUSH1 0x1 PUSH1 0x40 SHL SUB DUP2 GT DUP3 DUP3 LT OR ISZERO PUSH2 0x1B0 JUMPI PUSH2 0x1B0 PUSH2 0x1B8 JUMP JUMPDEST PUSH1 0x40 MSTORE SWAP2 SWAP1 POP JUMP JUMPDEST PUSH4 0x4E487B71 PUSH1 0xE0 SHL PUSH1 0x0 MSTORE PUSH1 0x41 PUSH1 0x4 MSTORE PUSH1 0x24 PUSH1 0x0 REVERT INVALID LOG2 PUSH5 0x6970667358 0x22 SLT KECCAK256 LOG2 KECCAK256 DUP3 0xB1 RETURNDATACOPY 0x26 0x48 0xC6 0xC7 MSTORE8 0xCC 0xA6 RETURNDATASIZE PUSH10 0x79EA8043A5784C8DB6A8 GASPRICE MSIZE CALLER 0xC0 RETURNDATACOPY DUP14 LOG2 0x1E PUSH5 0x736F6C6343 STOP ADDMOD MUL STOP CALLER "
        },
        "gasEstimates": {
          "creation": {
            "codeDepositCost": "103200",
            "executionCost": "153",
            "totalCost": "103353"
          },
          "external": {
            "verifySignedEverscaleEvent(bytes,bytes[])": "infinite"
          }
        },
        "methodIdentifiers": {
          "verifySignedEverscaleEvent(bytes,bytes[])": "dccb3599"
        }
      },
      "storageLayout": {
        "storage": [],
        "types": null
      },
      "userdoc": {
        "kind": "user",
        "methods": {},
        "version": 1
      }
    }
  }
}