{
  "contracts/bridge/StakingRelayVerifier.sol": {
    "StakingRelayVerifier": {
      "abi": [
        {
          "anonymous": false,
          "inputs": [
            {
              "indexed": false,
              "internalType": "uint160",
              "name": "eth_addr",
              "type": "uint160"
            },
            {
              "indexed": false,
              "internalType": "int8",
              "name": "workchain_id",
              "type": "int8"
            },
            {
              "indexed": false,
              "internalType": "uint256",
              "name": "addr_body",
              "type": "uint256"
            }
          ],
          "name": "RelayAddressVerified",
          "type": "event"
        },
        {
          "inputs": [
            {
              "internalType": "int8",
              "name": "workchain_id",
              "type": "int8"
            },
            {
              "internalType": "uint256",
              "name": "address_body",
              "type": "uint256"
            }
          ],
          "name": "verify_relay_staker_address",
          "outputs": [],
          "stateMutability": "nonpayable",
          "type": "function"
        }
      ],
      "devdoc": {
        "author": "https://github.com/broxus",
        "kind": "dev",
        "methods": {},
        "title": "Staking Relay Verifier",
        "version": 1
      },
      "evm": {
        "bytecode": {
          "linkReferences": {},
          "object": "608060405234801561001057600080fd5b5060e98061001f6000396000f3fe6080604052348015600f57600080fd5b506004361060285760003560e01c80631f4b19a214602d575b600080fd5b603c60383660046086565b603e565b005b60408051338152600084900b60208201529081018290527fe2abe69c5ea3e0944ca0b28566207b4a17d3a01d5efed3ffb378a36e34c322a99060600160405180910390a15050565b600080604083850312156097578182fd5b823580830b811460a5578283fd5b94602093909301359350505056fea2646970667358221220061944cec54b9d49cd6b8954d9663dcabfabc336f689f2d88b539a2d69843c6664736f6c63430008020033",
          "opcodes": "PUSH1 0x80 PUSH1 0x40 MSTORE CALLVALUE DUP1 ISZERO PUSH2 0x10 JUMPI PUSH1 0x0 DUP1 REVERT JUMPDEST POP PUSH1 0xE9 DUP1 PUSH2 0x1F PUSH1 0x0 CODECOPY PUSH1 0x0 RETURN INVALID PUSH1 0x80 PUSH1 0x40 MSTORE CALLVALUE DUP1 ISZERO PUSH1 0xF JUMPI PUSH1 0x0 DUP1 REVERT JUMPDEST POP PUSH1 0x4 CALLDATASIZE LT PUSH1 0x28 JUMPI PUSH1 0x0 CALLDATALOAD PUSH1 0xE0 SHR DUP1 PUSH4 0x1F4B19A2 EQ PUSH1 0x2D JUMPI JUMPDEST PUSH1 0x0 DUP1 REVERT JUMPDEST PUSH1 0x3C PUSH1 0x38 CALLDATASIZE PUSH1 0x4 PUSH1 0x86 JUMP JUMPDEST PUSH1 0x3E JUMP JUMPDEST STOP JUMPDEST PUSH1 0x40 DUP1 MLOAD CALLER DUP2 MSTORE PUSH1 0x0 DUP5 SWAP1 SIGNEXTEND PUSH1 0x20 DUP3 ADD MSTORE SWAP1 DUP2 ADD DUP3 SWAP1 MSTORE PUSH32 0xE2ABE69C5EA3E0944CA0B28566207B4A17D3A01D5EFED3FFB378A36E34C322A9 SWAP1 PUSH1 0x60 ADD PUSH1 0x40 MLOAD DUP1 SWAP2 SUB SWAP1 LOG1 POP POP JUMP JUMPDEST PUSH1 0x0 DUP1 PUSH1 0x40 DUP4 DUP6 SUB SLT ISZERO PUSH1 0x97 JUMPI DUP2 DUP3 REVERT JUMPDEST DUP3 CALLDATALOAD DUP1 DUP4 SIGNEXTEND DUP2 EQ PUSH1 0xA5 JUMPI DUP3 DUP4 REVERT JUMPDEST SWAP5 PUSH1 0x20 SWAP4 SWAP1 SWAP4 ADD CALLDATALOAD SWAP4 POP POP POP JUMP INVALID LOG2 PUSH5 0x6970667358 0x22 SLT KECCAK256 MOD NOT DIFFICULTY 0xCE 0xC5 0x4B SWAP14 0x49 0xCD PUSH12 0x8954D9663DCABFABC336F689 CALLCODE 0xD8 DUP12 MSTORE8 SWAP11 0x2D PUSH10 0x843C6664736F6C634300 ADDMOD MUL STOP CALLER "
        },
        "gasEstimates": {
          "creation": {
            "codeDepositCost": "46600",
            "executionCost": "99",
            "totalCost": "46699"
          },
          "external": {
            "verify_relay_staker_address(int8,uint256)": "1881"
          }
        },
        "methodIdentifiers": {
          "verify_relay_staker_address(int8,uint256)": "1f4b19a2"
        }
      },
      "storageLayout": {
        "storage": [],
        "types": null
      },
      "userdoc": {
        "kind": "user",
        "methods": {},
        "version": 1
      }
    }
  }
}