{
  "_format": "hh-sol-artifact-1",
  "contractName": "MultiVaultToken",
  "sourceName": "contracts/multivault/MultiVaultToken.sol",
  "abi": [
    {
      "inputs": [],
      "stateMutability": "nonpayable",
      "type": "constructor"
    },
    {
      "anonymous": false,
      "inputs": [
        {
          "indexed": true,
          "internalType": "address",
          "name": "owner",
          "type": "address"
        },
        {
          "indexed": true,
          "internalType": "address",
          "name": "spender",
          "type": "address"
        },
        {
          "indexed": false,
          "internalType": "uint256",
          "name": "value",
          "type": "uint256"
        }
      ],
      "name": "Approval",
      "type": "event"
    },
    {
      "anonymous": false,
      "inputs": [
        {
          "indexed": true,
          "internalType": "address",
          "name": "previousOwner",
          "type": "address"
        },
        {
          "indexed": true,
          "internalType": "address",
          "name": "newOwner",
          "type": "address"
        }
      ],
      "name": "OwnershipTransferred",
      "type": "event"
    },
    {
      "anonymous": false,
      "inputs": [
        {
          "indexed": true,
          "internalType": "address",
          "name": "from",
          "type": "address"
        },
        {
          "indexed": true,
          "internalType": "address",
          "name": "to",
          "type": "address"
        },
        {
          "indexed": false,
          "internalType": "uint256",
          "name": "value",
          "type": "uint256"
        }
      ],
      "name": "Transfer",
      "type": "event"
    },
    {
      "inputs": [
        {
          "internalType": "address",
          "name": "owner",
          "type": "address"
        },
        {
          "internalType": "address",
          "name": "spender",
          "type": "address"
        }
      ],
      "name": "allowance",
      "outputs": [
        {
          "internalType": "uint256",
          "name": "",
          "type": "uint256"
        }
      ],
      "stateMutability": "view",
      "type": "function"
    },
    {
      "inputs": [
        {
          "internalType": "address",
          "name": "spender",
          "type": "address"
        },
        {
          "internalType": "uint256",
          "name": "amount",
          "type": "uint256"
        }
      ],
      "name": "approve",
      "outputs": [
        {
          "internalType": "bool",
          "name": "",
          "type": "bool"
        }
      ],
      "stateMutability": "nonpayable",
      "type": "function"
    },
    {
      "inputs": [
        {
          "internalType": "address",
          "name": "account",
          "type": "address"
        }
      ],
      "name": "balanceOf",
      "outputs": [
        {
          "internalType": "uint256",
          "name": "",
          "type": "uint256"
        }
      ],
      "stateMutability": "view",
      "type": "function"
    },
    {
      "inputs": [
        {
          "internalType": "address",
          "name": "account",
          "type": "address"
        },
        {
          "internalType": "uint256",
          "name": "amount",
          "type": "uint256"
        }
      ],
      "name": "burn",
      "outputs": [],
      "stateMutability": "nonpayable",
      "type": "function"
    },
    {
      "inputs": [],
      "name": "decimals",
      "outputs": [
        {
          "internalType": "uint8",
          "name": "",
          "type": "uint8"
        }
      ],
      "stateMutability": "view",
      "type": "function"
    },
    {
      "inputs": [
        {
          "internalType": "address",
          "name": "spender",
          "type": "address"
        },
        {
          "internalType": "uint256",
          "name": "subtractedValue",
          "type": "uint256"
        }
      ],
      "name": "decreaseAllowance",
      "outputs": [
        {
          "internalType": "bool",
          "name": "",
          "type": "bool"
        }
      ],
      "stateMutability": "nonpayable",
      "type": "function"
    },
    {
      "inputs": [
        {
          "internalType": "address",
          "name": "spender",
          "type": "address"
        },
        {
          "internalType": "uint256",
          "name": "addedValue",
          "type": "uint256"
        }
      ],
      "name": "increaseAllowance",
      "outputs": [
        {
          "internalType": "bool",
          "name": "",
          "type": "bool"
        }
      ],
      "stateMutability": "nonpayable",
      "type": "function"
    },
    {
      "inputs": [
        {
          "internalType": "string",
          "name": "name_",
          "type": "string"
        },
        {
          "internalType": "string",
          "name": "symbol_",
          "type": "string"
        },
        {
          "internalType": "uint8",
          "name": "decimals_",
          "type": "uint8"
        }
      ],
      "name": "initialize",
      "outputs": [],
      "stateMutability": "nonpayable",
      "type": "function"
    },
    {
      "inputs": [
        {
          "internalType": "address",
          "name": "account",
          "type": "address"
        },
        {
          "internalType": "uint256",
          "name": "amount",
          "type": "uint256"
        }
      ],
      "name": "mint",
      "outputs": [],
      "stateMutability": "nonpayable",
      "type": "function"
    },
    {
      "inputs": [],
      "name": "name",
      "outputs": [
        {
          "internalType": "string",
          "name": "",
          "type": "string"
        }
      ],
      "stateMutability": "view",
      "type": "function"
    },
    {
      "inputs": [],
      "name": "owner",
      "outputs": [
        {
          "internalType": "address",
          "name": "",
          "type": "address"
        }
      ],
      "stateMutability": "view",
      "type": "function"
    },
    {
      "inputs": [],
      "name": "renounceOwnership",
      "outputs": [],
      "stateMutability": "nonpayable",
      "type": "function"
    },
    {
      "inputs": [],
      "name": "symbol",
      "outputs": [
        {
          "internalType": "string",
          "name": "",
          "type": "string"
        }
      ],
      "stateMutability": "view",
      "type": "function"
    },
    {
      "inputs": [],
      "name": "totalSupply",
      "outputs": [
        {
          "internalType": "uint256",
          "name": "",
          "type": "uint256"
        }
      ],
      "stateMutability": "view",
      "type": "function"
    },
    {
      "inputs": [
        {
          "internalType": "address",
          "name": "to",
          "type": "address"
        },
        {
          "internalType": "uint256",
          "name": "amount",
          "type": "uint256"
        }
      ],
      "name": "transfer",
      "outputs": [
        {
          "internalType": "bool",
          "name": "",
          "type": "bool"
        }
      ],
      "stateMutability": "nonpayable",
      "type": "function"
    },
    {
      "inputs": [
        {
          "internalType": "address",
          "name": "from",
          "type": "address"
        },
        {
          "internalType": "address",
          "name": "to",
          "type": "address"
        },
        {
          "internalType": "uint256",
          "name": "amount",
          "type": "uint256"
        }
      ],
      "name": "transferFrom",
      "outputs": [
        {
          "internalType": "bool",
          "name": "",
          "type": "bool"
        }
      ],
      "stateMutability": "nonpayable",
      "type": "function"
    },
    {
      "inputs": [
        {
          "internalType": "address",
          "name": "newOwner",
          "type": "address"
        }
      ],
      "name": "transferOwnership",
      "outputs": [],
      "stateMutability": "nonpayable",
      "type": "function"
    }
  ],
  "bytecode": "0x608060405234801561001057600080fd5b50610019610028565b6100228161002c565b5061007c565b3390565b600080546001600160a01b038381166001600160a01b0319831681178455604051919092169283917f8be0079c531659141344cd1fd0a4f28419497f9722a3daafe3b4186f6b6457e09190a35050565b6110da8061008b6000396000f3fe608060405234801561001057600080fd5b506004361061010b5760003560e01c806370a08231116100a25780639dc29fac116100715780639dc29fac146101fe578063a457c2d714610211578063a9059cbb14610224578063dd62ed3e14610237578063f2fde38b1461024a5761010b565b806370a08231146101c6578063715018a6146101d95780638da5cb5b146101e157806395d89b41146101f65761010b565b806323b872dd116100de57806323b872dd14610178578063313ce5671461018b57806339509351146101a057806340c10f19146101b35761010b565b806306fdde0314610110578063095ea7b31461012e5780631624f6c61461014e57806318160ddd14610163575b600080fd5b61011861025d565b6040516101259190610c9f565b60405180910390f35b61014161013c366004610bdd565b6102ef565b6040516101259190610c94565b61016161015c366004610c06565b610311565b005b61016b610362565b6040516101259190610ff7565b610141610186366004610ba2565b610368565b610193610396565b6040516101259190611000565b6101416101ae366004610bdd565b61039f565b6101616101c1366004610bdd565b6103cb565b61016b6101d4366004610b4f565b610421565b610161610440565b6101e961048b565b6040516101259190610c80565b61011861049a565b61016161020c366004610bdd565b6104a9565b61014161021f366004610bdd565b6104f2565b610141610232366004610bdd565b61053a565b61016b610245366004610b70565b610552565b610161610258366004610b4f565b61057d565b60606005805461026c9061103d565b80601f01602080910402602001604051908101604052809291908181526020018280546102989061103d565b80156102e55780601f106102ba576101008083540402835291602001916102e5565b820191906000526020600020905b8154815290600101906020018083116102c857829003601f168201915b5050505050905090565b6000806102fa6105ee565b90506103078185856105f2565b5060019392505050565b6001541561031e57600080fd5b8251610331906005906020860190610a1e565b508151610345906006906020850190610a1e565b506007805460ff191660ff92909216919091179055505043600155565b60045490565b6000806103736105ee565b90506103808582856106a6565b61038b8585856106f0565b506001949350505050565b60075460ff1690565b6000806103aa6105ee565b90506103078185856103bc8589610552565b6103c6919061100e565b6105f2565b6103d36105ee565b6001600160a01b03166103e461048b565b6001600160a01b0316146104135760405162461bcd60e51b815260040161040a90610e7c565b60405180910390fd5b61041d8282610814565b5050565b6001600160a01b0381166000908152600260205260409020545b919050565b6104486105ee565b6001600160a01b031661045961048b565b6001600160a01b03161461047f5760405162461bcd60e51b815260040161040a90610e7c565b61048960006108dc565b565b6000546001600160a01b031690565b60606006805461026c9061103d565b6104b16105ee565b6001600160a01b03166104c261048b565b6001600160a01b0316146104e85760405162461bcd60e51b815260040161040a90610e7c565b61041d828261092c565b6000806104fd6105ee565b9050600061050b8286610552565b90508381101561052d5760405162461bcd60e51b815260040161040a90610f7b565b61038b82868684036105f2565b6000806105456105ee565b90506103078185856106f0565b6001600160a01b03918216600090815260036020908152604080832093909416825291909152205490565b6105856105ee565b6001600160a01b031661059661048b565b6001600160a01b0316146105bc5760405162461bcd60e51b815260040161040a90610e7c565b6001600160a01b0381166105e25760405162461bcd60e51b815260040161040a90610d77565b6105eb816108dc565b50565b3390565b6001600160a01b0383166106185760405162461bcd60e51b815260040161040a90610f37565b6001600160a01b03821661063e5760405162461bcd60e51b815260040161040a90610dbd565b6001600160a01b0380841660008181526003602090815260408083209487168084529490915290819020849055517f8c5be1e5ebec7d5bd14f71427d1e84f3dd0314c0f7b2291e5b200ac8c7c3b92590610699908590610ff7565b60405180910390a3505050565b60006106b28484610552565b905060001981146106ea57818110156106dd5760405162461bcd60e51b815260040161040a90610dff565b6106ea84848484036105f2565b50505050565b6001600160a01b0383166107165760405162461bcd60e51b815260040161040a90610ef2565b6001600160a01b03821661073c5760405162461bcd60e51b815260040161040a90610cf2565b610747838383610a19565b6001600160a01b038316600090815260026020526040902054818110156107805760405162461bcd60e51b815260040161040a90610e36565b6001600160a01b038085166000908152600260205260408082208585039055918516815290812080548492906107b790849061100e565b92505081905550826001600160a01b0316846001600160a01b03167fddf252ad1be2c89b69c2b068fc378daa952ba7f163c4a11628f55a4df523b3ef846040516108019190610ff7565b60405180910390a36106ea848484610a19565b6001600160a01b03821661083a5760405162461bcd60e51b815260040161040a90610fc0565b61084660008383610a19565b8060046000828254610858919061100e565b90915550506001600160a01b0382166000908152600260205260408120805483929061088590849061100e565b90915550506040516001600160a01b038316906000907fddf252ad1be2c89b69c2b068fc378daa952ba7f163c4a11628f55a4df523b3ef906108c8908590610ff7565b60405180910390a361041d60008383610a19565b600080546001600160a01b038381166001600160a01b0319831681178455604051919092169283917f8be0079c531659141344cd1fd0a4f28419497f9722a3daafe3b4186f6b6457e09190a35050565b6001600160a01b0382166109525760405162461bcd60e51b815260040161040a90610eb1565b61095e82600083610a19565b6001600160a01b038216600090815260026020526040902054818110156109975760405162461bcd60e51b815260040161040a90610d35565b6001600160a01b03831660009081526002602052604081208383039055600480548492906109c6908490611026565b90915550506040516000906001600160a01b038516907fddf252ad1be2c89b69c2b068fc378daa952ba7f163c4a11628f55a4df523b3ef90610a09908690610ff7565b60405180910390a3610a19836000845b505050565b828054610a2a9061103d565b90600052602060002090601f016020900481019282610a4c5760008555610a92565b82601f10610a6557805160ff1916838001178555610a92565b82800160010185558215610a92579182015b82811115610a92578251825591602001919060010190610a77565b50610a9e929150610aa2565b5090565b5b80821115610a9e5760008155600101610aa3565b80356001600160a01b038116811461043b57600080fd5b600082601f830112610ade578081fd5b813567ffffffffffffffff80821115610af957610af961108e565b604051601f8301601f191681016020018281118282101715610b1d57610b1d61108e565b604052828152848301602001861015610b34578384fd5b82602086016020830137918201602001929092529392505050565b600060208284031215610b60578081fd5b610b6982610ab7565b9392505050565b60008060408385031215610b82578081fd5b610b8b83610ab7565b9150610b9960208401610ab7565b90509250929050565b600080600060608486031215610bb6578081fd5b610bbf84610ab7565b9250610bcd60208501610ab7565b9150604084013590509250925092565b60008060408385031215610bef578182fd5b610bf883610ab7565b946020939093013593505050565b600080600060608486031215610c1a578283fd5b833567ffffffffffffffff80821115610c31578485fd5b610c3d87838801610ace565b94506020860135915080821115610c52578384fd5b50610c5f86828701610ace565b925050604084013560ff81168114610c75578182fd5b809150509250925092565b6001600160a01b0391909116815260200190565b901515815260200190565b6000602080835283518082850152825b81811015610ccb57858101830151858201604001528201610caf565b81811115610cdc5783604083870101525b50601f01601f1916929092016040019392505050565b60208082526023908201527f45524332303a207472616e7366657220746f20746865207a65726f206164647260408201526265737360e81b606082015260800190565b60208082526022908201527f45524332303a206275726e20616d6f756e7420657863656564732062616c616e604082015261636560f01b606082015260800190565b60208082526026908201527f4f776e61626c653a206e6577206f776e657220697320746865207a65726f206160408201526564647265737360d01b606082015260800190565b60208082526022908201527f45524332303a20617070726f766520746f20746865207a65726f206164647265604082015261737360f01b606082015260800190565b6020808252601d908201527f45524332303a20696e73756666696369656e7420616c6c6f77616e6365000000604082015260600190565b60208082526026908201527f45524332303a207472616e7366657220616d6f756e7420657863656564732062604082015265616c616e636560d01b606082015260800190565b6020808252818101527f4f776e61626c653a2063616c6c6572206973206e6f7420746865206f776e6572604082015260600190565b60208082526021908201527f45524332303a206275726e2066726f6d20746865207a65726f206164647265736040820152607360f81b606082015260800190565b60208082526025908201527f45524332303a207472616e736665722066726f6d20746865207a65726f206164604082015264647265737360d81b606082015260800190565b60208082526024908201527f45524332303a20617070726f76652066726f6d20746865207a65726f206164646040820152637265737360e01b606082015260800190565b60208082526025908201527f45524332303a2064656372656173656420616c6c6f77616e63652062656c6f77604082015264207a65726f60d81b606082015260800190565b6020808252601f908201527f45524332303a206d696e7420746f20746865207a65726f206164647265737300604082015260600190565b90815260200190565b60ff91909116815260200190565b6000821982111561102157611021611078565b500190565b60008282101561103857611038611078565b500390565b60028104600182168061105157607f821691505b6020821081141561107257634e487b7160e01b600052602260045260246000fd5b50919050565b634e487b7160e01b600052601160045260246000fd5b634e487b7160e01b600052604160045260246000fdfea2646970667358221220f18026eb95ae5bbcf4ea7ea2edc428bd95ed8a4f562ba16ae901cac10b082dc664736f6c63430008000033",
  "linkReferences": {},
  "deployedLinkReferences": {}
}