{
  "_format": "hh-sol-artifact-1",
  "contractName": "MultiVaultFacetSettings",
  "sourceName": "contracts/multivault/multivault/facets/MultiVaultFacetSettings.sol",
  "abi": [
    {
      "anonymous": false,
      "inputs": [
        {
          "indexed": false,
          "internalType": "address",
          "name": "token",
          "type": "address"
        }
      ],
      "name": "BlacklistTokenAdded",
      "type": "event"
    },
    {
      "anonymous": false,
      "inputs": [
        {
          "indexed": false,
          "internalType": "address",
          "name": "token",
          "type": "address"
        }
      ],
      "name": "BlacklistTokenRemoved",
      "type": "event"
    },
    {
      "anonymous": false,
      "inputs": [
        {
          "indexed": false,
          "internalType": "address",
          "name": "token",
          "type": "address"
        },
        {
          "indexed": false,
          "internalType": "uint256",
          "name": "amount",
          "type": "uint256"
        }
      ],
      "name": "EarnTokenCash",
      "type": "event"
    },
    {
      "anonymous": false,
      "inputs": [
        {
          "indexed": false,
          "internalType": "address",
          "name": "token",
          "type": "address"
        },
        {
          "indexed": false,
          "internalType": "uint256",
          "name": "amount",
          "type": "uint256"
        }
      ],
      "name": "EarnTokenFee",
      "type": "event"
    },
    {
      "anonymous": false,
      "inputs": [
        {
          "indexed": false,
          "internalType": "bool",
          "name": "active",
          "type": "bool"
        }
      ],
      "name": "EmergencyShutdown",
      "type": "event"
    },
    {
      "anonymous": false,
      "inputs": [
        {
          "indexed": false,
          "internalType": "uint8",
          "name": "version",
          "type": "uint8"
        }
      ],
      "name": "Initialized",
      "type": "event"
    },
    {
      "anonymous": false,
      "inputs": [
        {
          "indexed": false,
          "internalType": "address",
          "name": "sender",
          "type": "address"
        },
        {
          "indexed": false,
          "internalType": "address",
          "name": "token",
          "type": "address"
        },
        {
          "indexed": false,
          "internalType": "uint256",
          "name": "amount",
          "type": "uint256"
        },
        {
          "indexed": false,
          "internalType": "uint256",
          "name": "lp_amount",
          "type": "uint256"
        }
      ],
      "name": "MintLiquidity",
      "type": "event"
    },
    {
      "anonymous": false,
      "inputs": [
        {
          "indexed": false,
          "internalType": "address",
          "name": "governance",
          "type": "address"
        }
      ],
      "name": "NewPendingGovernance",
      "type": "event"
    },
    {
      "anonymous": false,
      "inputs": [
        {
          "indexed": false,
          "internalType": "address",
          "name": "sender",
          "type": "address"
        },
        {
          "indexed": false,
          "internalType": "address",
          "name": "token",
          "type": "address"
        },
        {
          "indexed": false,
          "internalType": "uint256",
          "name": "amount",
          "type": "uint256"
        },
        {
          "indexed": false,
          "internalType": "uint256",
          "name": "underlying_amount",
          "type": "uint256"
        }
      ],
      "name": "RedeemLiquidity",
      "type": "event"
    },
    {
      "anonymous": false,
      "inputs": [
        {
          "indexed": false,
          "internalType": "address",
          "name": "token",
          "type": "address"
        },
        {
          "indexed": false,
          "internalType": "bool",
          "name": "skim_to_everscale",
          "type": "bool"
        },
        {
          "indexed": false,
          "internalType": "uint256",
          "name": "amount",
          "type": "uint256"
        }
      ],
      "name": "SkimFee",
      "type": "event"
    },
    {
      "anonymous": false,
      "inputs": [
        {
          "indexed": false,
          "internalType": "address",
          "name": "token",
          "type": "address"
        },
        {
          "indexed": false,
          "internalType": "uint256",
          "name": "activation",
          "type": "uint256"
        },
        {
          "indexed": false,
          "internalType": "bool",
          "name": "isNative",
          "type": "bool"
        },
        {
          "indexed": false,
          "internalType": "uint256",
          "name": "depositFee",
          "type": "uint256"
        },
        {
          "indexed": false,
          "internalType": "uint256",
          "name": "withdrawFee",
          "type": "uint256"
        }
      ],
      "name": "TokenActivated",
      "type": "event"
    },
    {
      "anonymous": false,
      "inputs": [
        {
          "indexed": false,
          "internalType": "address",
          "name": "token",
          "type": "address"
        },
        {
          "indexed": false,
          "internalType": "int8",
          "name": "native_wid",
          "type": "int8"
        },
        {
          "indexed": false,
          "internalType": "uint256",
          "name": "native_addr",
          "type": "uint256"
        },
        {
          "indexed": false,
          "internalType": "string",
          "name": "name_prefix",
          "type": "string"
        },
        {
          "indexed": false,
          "internalType": "string",
          "name": "symbol_prefix",
          "type": "string"
        },
        {
          "indexed": false,
          "internalType": "string",
          "name": "name",
          "type": "string"
        },
        {
          "indexed": false,
          "internalType": "string",
          "name": "symbol",
          "type": "string"
        },
        {
          "indexed": false,
          "internalType": "uint8",
          "name": "decimals",
          "type": "uint8"
        }
      ],
      "name": "TokenCreated",
      "type": "event"
    },
    {
      "anonymous": false,
      "inputs": [
        {
          "indexed": false,
          "internalType": "address",
          "name": "bridge",
          "type": "address"
        }
      ],
      "name": "UpdateBridge",
      "type": "event"
    },
    {
      "anonymous": false,
      "inputs": [
        {
          "indexed": false,
          "internalType": "enum IMultiVaultFacetTokens.TokenType",
          "name": "_type",
          "type": "uint8"
        },
        {
          "indexed": false,
          "internalType": "int128",
          "name": "wid",
          "type": "int128"
        },
        {
          "indexed": false,
          "internalType": "uint256",
          "name": "addr",
          "type": "uint256"
        }
      ],
      "name": "UpdateConfiguration",
      "type": "event"
    },
    {
      "anonymous": false,
      "inputs": [
        {
          "indexed": false,
          "internalType": "uint256",
          "name": "fee",
          "type": "uint256"
        }
      ],
      "name": "UpdateDefaultAlienDepositFee",
      "type": "event"
    },
    {
      "anonymous": false,
      "inputs": [
        {
          "indexed": false,
          "internalType": "uint256",
          "name": "fee",
          "type": "uint256"
        }
      ],
      "name": "UpdateDefaultAlienWithdrawFee",
      "type": "event"
    },
    {
      "anonymous": false,
      "inputs": [
        {
          "indexed": false,
          "internalType": "uint256",
          "name": "inetrest",
          "type": "uint256"
        }
      ],
      "name": "UpdateDefaultLiquidityInterest",
      "type": "event"
    },
    {
      "anonymous": false,
      "inputs": [
        {
          "indexed": false,
          "internalType": "uint256",
          "name": "fee",
          "type": "uint256"
        }
      ],
      "name": "UpdateDefaultNativeDepositFee",
      "type": "event"
    },
    {
      "anonymous": false,
      "inputs": [
        {
          "indexed": false,
          "internalType": "uint256",
          "name": "fee",
          "type": "uint256"
        }
      ],
      "name": "UpdateDefaultNativeWithdrawFee",
      "type": "event"
    },
    {
      "anonymous": false,
      "inputs": [
        {
          "indexed": false,
          "internalType": "address",
          "name": "governance",
          "type": "address"
        }
      ],
      "name": "UpdateGovernance",
      "type": "event"
    },
    {
      "anonymous": false,
      "inputs": [
        {
          "indexed": false,
          "internalType": "address",
          "name": "guardian",
          "type": "address"
        }
      ],
      "name": "UpdateGuardian",
      "type": "event"
    },
    {
      "anonymous": false,
      "inputs": [
        {
          "indexed": false,
          "internalType": "address",
          "name": "management",
          "type": "address"
        }
      ],
      "name": "UpdateManagement",
      "type": "event"
    },
    {
      "anonymous": false,
      "inputs": [
        {
          "indexed": false,
          "internalType": "int128",
          "name": "wid",
          "type": "int128"
        },
        {
          "indexed": false,
          "internalType": "uint256",
          "name": "addr",
          "type": "uint256"
        }
      ],
      "name": "UpdateRewards",
      "type": "event"
    },
    {
      "anonymous": false,
      "inputs": [
        {
          "indexed": false,
          "internalType": "address",
          "name": "token",
          "type": "address"
        },
        {
          "indexed": false,
          "internalType": "uint256",
          "name": "fee",
          "type": "uint256"
        }
      ],
      "name": "UpdateTokenDepositFee",
      "type": "event"
    },
    {
      "anonymous": false,
      "inputs": [
        {
          "indexed": false,
          "internalType": "address",
          "name": "token",
          "type": "address"
        },
        {
          "indexed": false,
          "internalType": "uint256",
          "name": "interest",
          "type": "uint256"
        }
      ],
      "name": "UpdateTokenLiquidityInterest",
      "type": "event"
    },
    {
      "anonymous": false,
      "inputs": [
        {
          "indexed": false,
          "internalType": "address",
          "name": "token",
          "type": "address"
        },
        {
          "indexed": false,
          "internalType": "uint256",
          "name": "fee",
          "type": "uint256"
        }
      ],
      "name": "UpdateTokenWithdrawFee",
      "type": "event"
    },
    {
      "inputs": [],
      "name": "acceptGovernance",
      "outputs": [],
      "stateMutability": "nonpayable",
      "type": "function"
    },
    {
      "inputs": [],
      "name": "bridge",
      "outputs": [
        {
          "internalType": "address",
          "name": "",
          "type": "address"
        }
      ],
      "stateMutability": "view",
      "type": "function"
    },
    {
      "inputs": [],
      "name": "configurationAlien",
      "outputs": [
        {
          "components": [
            {
              "internalType": "int8",
              "name": "wid",
              "type": "int8"
            },
            {
              "internalType": "uint256",
              "name": "addr",
              "type": "uint256"
            }
          ],
          "internalType": "struct IEverscale.EverscaleAddress",
          "name": "",
          "type": "tuple"
        }
      ],
      "stateMutability": "view",
      "type": "function"
    },
    {
      "inputs": [],
      "name": "configurationNative",
      "outputs": [
        {
          "components": [
            {
              "internalType": "int8",
              "name": "wid",
              "type": "int8"
            },
            {
              "internalType": "uint256",
              "name": "addr",
              "type": "uint256"
            }
          ],
          "internalType": "struct IEverscale.EverscaleAddress",
          "name": "",
          "type": "tuple"
        }
      ],
      "stateMutability": "view",
      "type": "function"
    },
    {
      "inputs": [
        {
          "internalType": "address",
          "name": "token",
          "type": "address"
        }
      ],
      "name": "disableWithdrawalLimits",
      "outputs": [],
      "stateMutability": "nonpayable",
      "type": "function"
    },
    {
      "inputs": [],
      "name": "emergencyShutdown",
      "outputs": [
        {
          "internalType": "bool",
          "name": "",
          "type": "bool"
        }
      ],
      "stateMutability": "view",
      "type": "function"
    },
    {
      "inputs": [
        {
          "internalType": "address",
          "name": "token",
          "type": "address"
        }
      ],
      "name": "enableWithdrawalLimits",
      "outputs": [],
      "stateMutability": "nonpayable",
      "type": "function"
    },
    {
      "inputs": [],
      "name": "gasDonor",
      "outputs": [
        {
          "internalType": "address",
          "name": "",
          "type": "address"
        }
      ],
      "stateMutability": "view",
      "type": "function"
    },
    {
      "inputs": [],
      "name": "governance",
      "outputs": [
        {
          "internalType": "address",
          "name": "",
          "type": "address"
        }
      ],
      "stateMutability": "view",
      "type": "function"
    },
    {
      "inputs": [],
      "name": "guardian",
      "outputs": [
        {
          "internalType": "address",
          "name": "",
          "type": "address"
        }
      ],
      "stateMutability": "view",
      "type": "function"
    },
    {
      "inputs": [
        {
          "internalType": "address",
          "name": "_bridge",
          "type": "address"
        },
        {
          "internalType": "address",
          "name": "_governance",
          "type": "address"
        }
      ],
      "name": "initialize",
      "outputs": [],
      "stateMutability": "nonpayable",
      "type": "function"
    },
    {
      "inputs": [],
      "name": "management",
      "outputs": [
        {
          "internalType": "address",
          "name": "",
          "type": "address"
        }
      ],
      "stateMutability": "view",
      "type": "function"
    },
    {
      "inputs": [],
      "name": "rewards",
      "outputs": [
        {
          "components": [
            {
              "internalType": "int8",
              "name": "wid",
              "type": "int8"
            },
            {
              "internalType": "uint256",
              "name": "addr",
              "type": "uint256"
            }
          ],
          "internalType": "struct IEverscale.EverscaleAddress",
          "name": "",
          "type": "tuple"
        }
      ],
      "stateMutability": "view",
      "type": "function"
    },
    {
      "inputs": [
        {
          "components": [
            {
              "internalType": "int8",
              "name": "wid",
              "type": "int8"
            },
            {
              "internalType": "uint256",
              "name": "addr",
              "type": "uint256"
            }
          ],
          "internalType": "struct IEverscale.EverscaleAddress",
          "name": "_configuration",
          "type": "tuple"
        }
      ],
      "name": "setConfigurationAlien",
      "outputs": [],
      "stateMutability": "nonpayable",
      "type": "function"
    },
    {
      "inputs": [
        {
          "components": [
            {
              "internalType": "int8",
              "name": "wid",
              "type": "int8"
            },
            {
              "internalType": "uint256",
              "name": "addr",
              "type": "uint256"
            }
          ],
          "internalType": "struct IEverscale.EverscaleAddress",
          "name": "_configuration",
          "type": "tuple"
        }
      ],
      "name": "setConfigurationNative",
      "outputs": [],
      "stateMutability": "nonpayable",
      "type": "function"
    },
    {
      "inputs": [
        {
          "components": [
            {
              "internalType": "int8",
              "name": "wid",
              "type": "int8"
            },
            {
              "internalType": "uint256",
              "name": "addr",
              "type": "uint256"
            }
          ],
          "internalType": "struct IEverscale.EverscaleAddress",
          "name": "token",
          "type": "tuple"
        },
        {
          "internalType": "address",
          "name": "custom",
          "type": "address"
        }
      ],
      "name": "setCustomNative",
      "outputs": [],
      "stateMutability": "nonpayable",
      "type": "function"
    },
    {
      "inputs": [
        {
          "internalType": "address",
          "name": "token",
          "type": "address"
        },
        {
          "internalType": "uint256",
          "name": "daily",
          "type": "uint256"
        }
      ],
      "name": "setDailyWithdrawalLimits",
      "outputs": [],
      "stateMutability": "nonpayable",
      "type": "function"
    },
    {
      "inputs": [
        {
          "internalType": "bool",
          "name": "active",
          "type": "bool"
        }
      ],
      "name": "setEmergencyShutdown",
      "outputs": [],
      "stateMutability": "nonpayable",
      "type": "function"
    },
    {
      "inputs": [
        {
          "internalType": "address",
          "name": "_gasDonor",
          "type": "address"
        }
      ],
      "name": "setGasDonor",
      "outputs": [],
      "stateMutability": "nonpayable",
      "type": "function"
    },
    {
      "inputs": [
        {
          "internalType": "address",
          "name": "_governance",
          "type": "address"
        }
      ],
      "name": "setGovernance",
      "outputs": [],
      "stateMutability": "nonpayable",
      "type": "function"
    },
    {
      "inputs": [
        {
          "internalType": "address",
          "name": "_guardian",
          "type": "address"
        }
      ],
      "name": "setGuardian",
      "outputs": [],
      "stateMutability": "nonpayable",
      "type": "function"
    },
    {
      "inputs": [
        {
          "internalType": "address",
          "name": "_management",
          "type": "address"
        }
      ],
      "name": "setManagement",
      "outputs": [],
      "stateMutability": "nonpayable",
      "type": "function"
    },
    {
      "inputs": [
        {
          "components": [
            {
              "internalType": "int8",
              "name": "wid",
              "type": "int8"
            },
            {
              "internalType": "uint256",
              "name": "addr",
              "type": "uint256"
            }
          ],
          "internalType": "struct IEverscale.EverscaleAddress",
          "name": "_rewards",
          "type": "tuple"
        }
      ],
      "name": "setRewards",
      "outputs": [],
      "stateMutability": "nonpayable",
      "type": "function"
    },
    {
      "inputs": [
        {
          "internalType": "address",
          "name": "token",
          "type": "address"
        },
        {
          "internalType": "uint256",
          "name": "undeclared",
          "type": "uint256"
        }
      ],
      "name": "setUndeclaredWithdrawalLimits",
      "outputs": [],
      "stateMutability": "nonpayable",
      "type": "function"
    },
    {
      "inputs": [],
      "name": "withdrawGuardian",
      "outputs": [
        {
          "internalType": "address",
          "name": "",
          "type": "address"
        }
      ],
      "stateMutability": "view",
      "type": "function"
    }
  ],
  "bytecode": "0x608060405234801561001057600080fd5b506110ec806100206000396000f3fe608060405234801561001057600080fd5b50600436106101735760003560e01c806388a8d602116100de578063b3a9553411610097578063d4a22bde11610071578063d4a22bde146102cb578063e78cea92146102de578063f336544e146102e6578063f760fa91146102f957610173565b8063b3a9553414610292578063b9f9dd6e146102a5578063d450511f146102b857610173565b806388a8d602146102365780638a0dac4a1461023e5780639ec5a89414610251578063a30a4c7d14610259578063a72f7a6a1461026c578063ab033ea91461027f57610173565b8063452a932011610130578063452a9320146101f0578063485cc955146101f857806348e5d3641461020b5780634a9440cf146102135780634ae09436146102265780635aa6e6751461022e57610173565b806314c6440214610178578063238efcbc1461018d578063299dfbc21461019557806333a04641146101b35780633403c2fc146101c85780633fe21267146101dd575b600080fd5b61018b610186366004610eea565b61030c565b005b61018b610380565b61019d610417565b6040516101aa9190611084565b60405180910390f35b6101bb610454565b6040516101aa9190610fbd565b6101d0610472565b6040516101aa9190610fd1565b61018b6101eb366004610e48565b61048a565b6101bb6104e5565b61018b610206366004610e87565b610503565b6101bb610630565b61018b610221366004610ebf565b61064e565b61019d6106cc565b6101bb610709565b6101bb610727565b61018b61024c366004610e48565b610745565b61019d6107da565b61018b610267366004610f25565b610817565b61018b61027a366004610f0a565b610923565b61018b61028d366004610e48565b6109af565b61018b6102a0366004610e48565b610a37565b61018b6102b3366004610e48565b610a8d565b61018b6102c6366004610f0a565b610aeb565b61018b6102d9366004610e48565b610b74565b6101bb610bfc565b61018b6102f4366004610ebf565b610c1f565b61018b610307366004610f0a565b610c9d565b6000610316610d28565b905081156103535760108101546001600160a01b03163314806103455750600e8101546001600160a01b031633145b61034e57600080fd5b61036c565b600e8101546001600160a01b0316331461036c57600080fd5b600601805460ff1916911515919091179055565b600061038a610d28565b600f8101549091506001600160a01b031633146103a657600080fd5b60006103b0610d28565b600f810154600e820180546001600160a01b0319166001600160a01b0392831617908190556040519293507f8d55d160c0009eb3d739442df0a3ca089ed64378bfac017e7ddad463f9815b879261040b929190911690610fbd565b60405180910390a15050565b61041f610dc6565b6000610429610d28565b60408051808201909152600c820154600090810b810b900b8152600d90910154602082015291505090565b60008061045f610d28565b601c01546001600160a01b031691505090565b60008061047d610d28565b6006015460ff1691505090565b6000610494610d28565b600e8101549091506001600160a01b031633146104b057600080fd5b60006104ba610d28565b6001600160a01b0390931660009081526017909301602052505060409020600201805460ff19169055565b6000806104f0610d28565b601001546001600160a01b031691505090565b600061050d610d2d565b8054909150610100900460ff161580801561052e57508154600160ff909116105b8061054e575061053d30610d32565b15801561054e5750815460ff166001145b6105735760405162461bcd60e51b815260040161056a90611036565b60405180910390fd5b815460ff19166001178255801561059257815461ff0019166101001782555b600061059c610d28565b600681018054610100600160a81b0319166101006001600160a01b038981169190910291909117909155600e90910180546001600160a01b03191691861691909117905550801561062a57815461ff00191682556040517f7f26b83ff96e1f2b6a682f133852f6798a09c465da95921460cefb38474024989061062190600190611028565b60405180910390a15b50505050565b60008061063b610d28565b601901546001600160a01b031691505090565b6000610658610d28565b600e8101549091506001600160a01b0316331461067457600080fd5b600061067e610d28565b6001600160a01b03851660009081526017820160205260409020549091508310156106a857600080fd5b6001600160a01b039093166000908152601790930160205250604090912060010155565b6106d4610dc6565b60006106de610d28565b60408051808201909152600a820154600090810b810b900b8152600b90910154602082015291505090565b600080610714610d28565b600e01546001600160a01b031691505090565b600080610732610d28565b601101546001600160a01b031691505090565b600061074f610d28565b600e8101549091506001600160a01b0316331461076b57600080fd5b6000610775610d28565b6010810180546001600160a01b0319166001600160a01b0386811691909117918290556040519293507f837b9ad138a0a1839a9637afce5306a5c13e23eb63365686843a5319a243609c926107cd9290911690610fbd565b60405180910390a1505050565b6107e2610dc6565b60006107ec610d28565b604080518082019091526008820154600090810b810b900b8152600990910154602082015291505090565b6000610821610d28565b600e8101549091506001600160a01b0316331461083d57600080fd5b306001600160a01b0316826001600160a01b0316638da5cb5b6040518163ffffffff1660e01b815260040160206040518083038186803b15801561088057600080fd5b505afa158015610894573d6000803e3d6000fd5b505050506040513d601f19601f820116820180604052508101906108b89190610e6b565b6001600160a01b0316146108cb57600080fd5b60006108d5610d28565b905060006108e285610d63565b6001600160a01b039081166000908152602093909352604090922060040180549290941661010002610100600160a81b031990921691909117909255505050565b600061092d610d28565b600e8101549091506001600160a01b0316331461094957600080fd5b6000610953610d28565b8351600a82018054600083810b60ff1660ff19909216919091179091556020860151600b84018190556040519394507f02c8641e3ea3223d866d1370207667a0144ffe1381a4eca54aaedd7dd3dd25a7936107cd939190610fdc565b60006109b9610d28565b600e8101549091506001600160a01b031633146109d557600080fd5b60006109df610d28565b600f810180546001600160a01b0319166001600160a01b0386811691909117918290556040519293507f90ad4c550d25bd23af61db38d1ff8671b89edaaa0bca0fc36bac5084ecc120bd926107cd9290911690610fbd565b6000610a41610d28565b600e8101549091506001600160a01b03163314610a5d57600080fd5b6000610a67610d28565b601c0180546001600160a01b0319166001600160a01b0394909416939093179092555050565b6000610a97610d28565b600e8101549091506001600160a01b03163314610ab357600080fd5b6000610abd610d28565b6001600160a01b0390931660009081526017909301602052505060409020600201805460ff19166001179055565b6000610af5610d28565b600e8101549091506001600160a01b03163314610b1157600080fd5b6000610b1b610d28565b8351600c8201805460ff191660ff600084900b161790556020850151600d83018190556040519293507f02c8641e3ea3223d866d1370207667a0144ffe1381a4eca54aaedd7dd3dd25a7926107cd926001929091610fdc565b6000610b7e610d28565b600e8101549091506001600160a01b03163314610b9a57600080fd5b6000610ba4610d28565b6011810180546001600160a01b0319166001600160a01b0386811691909117918290556040519293507fff54978127edd34aec0f9061fb3b155fbe0ededdfa881ee3e0d541d3a1eef438926107cd9290911690610fbd565b600080610c07610d28565b6006015461010090046001600160a01b031692915050565b6000610c29610d28565b600e8101549091506001600160a01b03163314610c4557600080fd5b6000610c4f610d28565b6001600160a01b0385166000908152601782016020526040902060010154909150831115610c7c57600080fd5b6001600160a01b039093166000908152601790930160205250604090912055565b6000610ca7610d28565b600e8101549091506001600160a01b03163314610cc357600080fd5b6000610ccd610d28565b835160088201805460ff191660ff600093840b1617908190556020860151600984018190556040519394507ff57f295821e5d9056179dfff12b7b014eb502ca26eeffa45f84845678adb6cb5936107cd939290920b91611015565b600290565b600090565b600080826001600160a01b0316803b806020016040519081016040528181526000908060200190933c511192915050565b60003082600001518360200151604051602001610d81929190610f51565b60405160208183030381529060405280519060200120604051602001610da8929190610f67565b60408051601f19818403018152919052805160209091012092915050565b604080518082019091526000808252602082015290565b600060408284031215610dee578081fd5b6040516040810181811067ffffffffffffffff82111715610e1d57634e487b7160e01b83526041600452602483fd5b6040529050808235600081900b8114610e3557600080fd5b8152602092830135920191909152919050565b600060208284031215610e59578081fd5b8135610e648161109e565b9392505050565b600060208284031215610e7c578081fd5b8151610e648161109e565b60008060408385031215610e99578081fd5b8235610ea48161109e565b91506020830135610eb48161109e565b809150509250929050565b60008060408385031215610ed1578182fd5b8235610edc8161109e565b946020939093013593505050565b600060208284031215610efb578081fd5b81358015158114610e64578182fd5b600060408284031215610f1b578081fd5b610e648383610ddd565b60008060608385031215610f37578182fd5b610f418484610ddd565b91506040830135610eb48161109e565b60009290920b60f81b8252600182015260210190565b6001600160f81b0319815260609290921b6bffffffffffffffffffffffff1916600183015260158201527f192c19818bebb5c6c95f5dcb3c3257379fc46fb654780cb06f3211ee77e1a360603582015260550190565b6001600160a01b0391909116815260200190565b901515815260200190565b6060810160028510610ffe57634e487b7160e01b600052602160045260246000fd5b93815260009290920b602083015260409091015290565b60009290920b8252602082015260400190565b60ff91909116815260200190565b6020808252602e908201527f496e697469616c697a61626c653a20636f6e747261637420697320616c72656160408201526d191e481a5b9a5d1a585b1a5e995960921b606082015260800190565b815160000b81526020918201519181019190915260400190565b6001600160a01b03811681146110b357600080fd5b5056fea2646970667358221220460f41387e1f405ba25659c03a09b8355ffc241fbc4208f6b3190d604fc52bee64736f6c63430008000033",
  "linkReferences": {},
  "deployedLinkReferences": {}
}