{
  "_format": "hh-sol-artifact-1",
  "contractName": "BridgeMockup",
  "sourceName": "contracts/bridge/BridgeMockup.sol",
  "abi": [
    {
      "inputs": [
        {
          "internalType": "bytes",
          "name": "",
          "type": "bytes"
        },
        {
          "internalType": "bytes[]",
          "name": "",
          "type": "bytes[]"
        }
      ],
      "name": "verifySignedEverscaleEvent",
      "outputs": [
        {
          "internalType": "uint32",
          "name": "",
          "type": "uint32"
        }
      ],
      "stateMutability": "pure",
      "type": "function"
    }
  ],
  "bytecode": "0x608060405234801561001057600080fd5b50610204806100206000396000f3fe608060405234801561001057600080fd5b506004361061002b5760003560e01c8063dccb359914610030575b600080fd5b61004661003e3660046100c9565b600092915050565b60405163ffffffff909116815260200160405180910390f35b600082601f83011261006f578081fd5b81356001600160401b03811115610088576100886101b8565b61009b601f8201601f1916602001610188565b8181528460208386010111156100af578283fd5b816020850160208301379081016020019190915292915050565b600080604083850312156100db578182fd5b82356001600160401b03808211156100f1578384fd5b6100fd8683870161005f565b9350602091508185013581811115610113578384fd5b8501601f81018713610123578384fd5b803582811115610135576101356101b8565b6101428485830201610188565b8181528481019350828501865b83811015610178576101668b88843588010161005f565b8652948601949086019060010161014f565b5096999098509650505050505050565b604051601f8201601f191681016001600160401b03811182821017156101b0576101b06101b8565b604052919050565b634e487b7160e01b600052604160045260246000fdfea2646970667358221220a22082b13e2648c6c753cca63d6979ea8043a5784c8db6a83a5933c03e8da21e64736f6c63430008020033",
  "linkReferences": {},
  "deployedLinkReferences": {}
}