{
  "_format": "hh-sol-artifact-1",
  "contractName": "Diamond",
  "sourceName": "contracts/multivault/Diamond.sol",
  "abi": [
    {
      "stateMutability": "payable",
      "type": "fallback"
    },
    {
      "inputs": [
        {
          "internalType": "address",
          "name": "_contractOwner",
          "type": "address"
        }
      ],
      "name": "initialize",
      "outputs": [],
      "stateMutability": "nonpayable",
      "type": "function"
    },
    {
      "stateMutability": "payable",
      "type": "receive"
    }
  ],
  "bytecode": "0x608060405234801561001057600080fd5b506139ef806100206000396000f3fe6080604052600436106100225760003560e01c8063c4d66de8146100bd5761002c565b3661002c57600080fd5b600080356001600160e01b03191681527fc8fcad8db84d3cc18b4c41d551ea0ee66dd599cde068d998e57d5e09332c131c602081905260409091205481906001600160a01b0316806100995760405162461bcd60e51b815260040161009090611771565b60405180910390fd5b3660008037600080366000845af43d6000803e8080156100b8573d6000f35b3d6000fd5b3480156100c957600080fd5b506100dd6100d83660046112f9565b6100df565b005b6100e7610176565b6100f0816101d2565b6101736040516100ff906112b3565b604051809103906000f08015801561011b573d6000803e3d6000fd5b50604051610128906112c0565b604051809103906000f080158015610144573d6000803e3d6000fd5b50604051610151906112cd565b604051809103906000f08015801561016d573d6000803e3d6000fd5b50610232565b50565b61017e610601565b60040154600160a01b900460ff16156101a95760405162461bcd60e51b815260040161009090611488565b60016101b3610601565b6004018054911515600160a01b0260ff60a01b19909216919091179055565b60006101dc610601565b6004810180546001600160a01b038581166001600160a01b031983168117909355604051939450169182907f8be0079c531659141344cd1fd0a4f28419497f9722a3daafe3b4186f6b6457e090600090a3505050565b60408051600380825260808201909252600091816020015b6102526112da565b81526020019060019003908161024a5750506040805160018082528183019092529192506000919060208083019080368337019050509050631f931c1c60e01b816000815181106102b357634e487b7160e01b600052603260045260246000fd5b6001600160e01b031990921660209283029190910182015260408051606081019091526001600160a01b038716815290810160008152602001828152508260008151811061031157634e487b7160e01b600052603260045260246000fd5b602090810291909101015260408051600580825260c0820190925290816020016020820280368337019050509050637a0ed62760e01b8160008151811061036857634e487b7160e01b600052603260045260246000fd5b6001600160e01b03199092166020928302919091019091015280516356fe50af60e11b90829060019081106103ad57634e487b7160e01b600052603260045260246000fd5b6001600160e01b03199092166020928302919091019091015280516314bbdacb60e21b90829060029081106103f257634e487b7160e01b600052603260045260246000fd5b6001600160e01b03199092166020928302919091019091015280516366ffd66360e11b908290600390811061043757634e487b7160e01b600052603260045260246000fd5b6001600160e01b03199092166020928302919091019091015280516301ffc9a760e01b908290600490811061047c57634e487b7160e01b600052603260045260246000fd5b6001600160e01b031990921660209283029190910182015260408051606081019091526001600160a01b03861681529081016000815260200182815250826001815181106104da57634e487b7160e01b600052603260045260246000fd5b6020908102919091010152604080516002808252606082019092529081602001602082028036833701905050905063f2fde38b60e01b8160008151811061053157634e487b7160e01b600052603260045260246000fd5b6001600160e01b0319909216602092830291909101909101528051638da5cb5b60e01b908290600190811061057657634e487b7160e01b600052603260045260246000fd5b6001600160e01b031990921660209283029190910182015260408051606081019091526001600160a01b03851681529081016000815260200182815250826002815181106105d457634e487b7160e01b600052603260045260246000fd5b60200260200101819052506105fa82600060405180602001604052806000815250610625565b5050505050565b7fc8fcad8db84d3cc18b4c41d551ea0ee66dd599cde068d998e57d5e09332c131c90565b60005b835181101561084857600084828151811061065357634e487b7160e01b600052603260045260246000fd5b60200260200101516020015190506000600281111561068257634e487b7160e01b600052602160045260246000fd5b8160028111156106a257634e487b7160e01b600052602160045260246000fd5b141561070d576107088583815181106106cb57634e487b7160e01b600052603260045260246000fd5b6020026020010151600001518684815181106106f757634e487b7160e01b600052603260045260246000fd5b602002602001015160400151610893565b610835565b600181600281111561072f57634e487b7160e01b600052602160045260246000fd5b14156107955761070885838151811061075857634e487b7160e01b600052603260045260246000fd5b60200260200101516000015186848151811061078457634e487b7160e01b600052603260045260246000fd5b602002602001015160400151610ab6565b60028160028111156107b757634e487b7160e01b600052602160045260246000fd5b141561081d576107088583815181106107e057634e487b7160e01b600052603260045260246000fd5b60200260200101516000015186848151811061080c57634e487b7160e01b600052603260045260246000fd5b602002602001015160400151610cf3565b60405162461bcd60e51b81526004016100909061157e565b508061084081611903565b915050610628565b507f8faa70878671ccd212d20771b795c50af8fd3ff6cf27f4bde57e5d4de0aeb67383838360405161087c9392919061137c565b60405180910390a161088e8282610dcc565b505050565b60008151116108b45760405162461bcd60e51b8152600401610090906117a6565b60006108be610601565b90506001600160a01b0383166108e65760405162461bcd60e51b81526004016100909061160d565b6001600160a01b038316600090815260018201602052604090205461ffff81166109885761092c8460405180606001604052806025815260200161399560259139610ef4565b6002820180546001600160a01b038616600081815260018087016020908152604083208201805461ffff191661ffff90961695909517909455845490810185559381529190912090910180546001600160a01b03191690911790555b60005b83518110156105fa5760008482815181106109b657634e487b7160e01b600052603260045260246000fd5b6020908102919091018101516001600160e01b031981166000908152918690526040909120549091506001600160a01b03168015610a065760405162461bcd60e51b8152600401610090906114cb565b6001600160a01b03871660008181526001878101602090815260408084208054938401815584528184206008840401805463ffffffff60079095166004026101000a948502191660e089901c94909402939093179092556001600160e01b031986168352889052902080546001600160a01b03191690911761ffff60a01b1916600160a01b61ffff87160217905583610a9e816118e1565b94505050508080610aae90611903565b91505061098b565b6000815111610ad75760405162461bcd60e51b8152600401610090906117a6565b6000610ae1610601565b90506001600160a01b038316610b095760405162461bcd60e51b81526004016100909061160d565b6001600160a01b038316600090815260018201602052604090205461ffff8116610bab57610b4f8460405180606001604052806025815260200161399560259139610ef4565b6002820180546001600160a01b038616600081815260018087016020908152604083208201805461ffff191661ffff90961695909517909455845490810185559381529190912090910180546001600160a01b03191690911790555b60005b83518110156105fa576000848281518110610bd957634e487b7160e01b600052603260045260246000fd5b6020908102919091018101516001600160e01b031981166000908152918690526040909120549091506001600160a01b03908116908716811415610c2f5760405162461bcd60e51b815260040161009090611714565b610c398183610f15565b6001600160e01b03198216600081815260208781526040808320805461ffff60a01b1916600160a01b61ffff8b16021781556001600160a01b038c168085526001808c0185529285208054938401815585528385206008840401805463ffffffff60079095166004026101000a948502191660e08a901c94909402939093179092559390925287905281546001600160a01b03191617905583610cdb816118e1565b94505050508080610ceb90611903565b915050610bae565b6000815111610d145760405162461bcd60e51b8152600401610090906117a6565b6000610d1e610601565b90506001600160a01b03831615610d475760405162461bcd60e51b8152600401610090906116b7565b60005b8251811015610dc6576000838281518110610d7557634e487b7160e01b600052603260045260246000fd5b6020908102919091018101516001600160e01b031981166000908152918590526040909120549091506001600160a01b0316610db18183610f15565b50508080610dbe90611903565b915050610d4a565b50505050565b6001600160a01b038216610dfe57805115610df95760405162461bcd60e51b815260040161009090611521565b610ef0565b6000815111610e1f5760405162461bcd60e51b81526004016100909061165a565b6001600160a01b0382163014610e5157610e518260405180606001604052806029815260200161396c60299139610ef4565b600080836001600160a01b031683604051610e6c9190611360565b600060405180830381855af49150503d8060008114610ea7576040519150601f19603f3d011682016040523d82523d6000602084013e610eac565b606091505b50909250905081610dc657805115610ed8578060405162461bcd60e51b81526004016100909190611475565b60405162461bcd60e51b8152600401610090906115c6565b5050565b813b8181610dc65760405162461bcd60e51b81526004016100909190611475565b6000610f1f610601565b90506001600160a01b038316610f475760405162461bcd60e51b815260040161009090611841565b6001600160a01b038316301415610f705760405162461bcd60e51b8152600401610090906117f2565b6001600160e01b03198216600090815260208281526040808320546001600160a01b0387168452600180860190935290832054600160a01b90910461ffff169291610fba9161189e565b90508082146110c2576001600160a01b03851660009081526001840160205260408120805483908110610ffd57634e487b7160e01b600052603260045260246000fd5b600091825260208083206008830401546001600160a01b038a168452600188019091526040909220805460079092166004026101000a90920460e01b92508291908590811061105c57634e487b7160e01b600052603260045260246000fd5b600091825260208083206008830401805463ffffffff60079094166004026101000a938402191660e09590951c929092029390931790556001600160e01b031992909216825284905260409020805461ffff60a01b1916600160a01b61ffff8516021790555b6001600160a01b038516600090815260018401602052604090208054806110f957634e487b7160e01b600052603160045260246000fd5b60008281526020808220600860001990940193840401805463ffffffff600460078716026101000a0219169055919092556001600160e01b0319861682528490526040902080546001600160b01b0319169055806105fa5760028301546000906111659060019061189e565b6001600160a01b038716600090815260018087016020526040909120015490915061ffff168082146112405760008560020183815481106111b657634e487b7160e01b600052603260045260246000fd5b6000918252602090912001546002870180546001600160a01b0390921692508291849081106111f557634e487b7160e01b600052603260045260246000fd5b600091825260208083209190910180546001600160a01b0319166001600160a01b0394851617905592909116815260018781019092526040902001805461ffff191661ffff83161790555b8460020180548061126157634e487b7160e01b600052603160045260246000fd5b60008281526020808220830160001990810180546001600160a01b03191690559092019092556001600160a01b03891682526001878101909152604090912001805461ffff1916905550505050505050565b6116f38061193583390190565b61068e8061302883390190565b6102b6806136b683390190565b6040805160608082018352600080835260208301529181019190915290565b60006020828403121561130a578081fd5b81356001600160a01b0381168114611320578182fd5b9392505050565b6001600160a01b03169052565b6000815180845261134c8160208601602086016118b5565b601f01601f19169290920160200192915050565b600082516113728184602087016118b5565b9190910192915050565b606080825284518282018190526000919060809081850190602080820287018401818b01875b8481101561144657898303607f19018652815180516001600160a01b031684528481015189850190600381106113e657634e487b7160e01b8c52602160045260248cfd5b858701526040918201519185018a9052815190819052908501908a90898601905b808310156114315783516001600160e01b0319168252928701926001929092019190870190611407565b509786019794505050908301906001016113a2565b50506114548289018b611327565b8781036040890152611466818a611334565b9b9a5050505050505050505050565b6000602082526113206020830184611334565b60208082526023908201527f4469616d6f6e6453746f726167653a20616c726561647920696e697469616c696040820152621e995960ea1b606082015260800190565b60208082526036908201527f4469616d6f6e6453746f726167653a2043616e2774206164642066756e6374696040820152756f6e207468617420616c72656164792065786973747360501b606082015260800190565b6020808252603d908201527f4469616d6f6e6453746f726167653a205f696e6974206973206164647265737360408201527f283029206275745f63616c6c64617461206973206e6f7420656d707479000000606082015260800190565b60208082526028908201527f4469616d6f6e6453746f726167653a20496e636f7272656374204661636574436040820152673aba20b1ba34b7b760c11b606082015260800190565b60208082526027908201527f4469616d6f6e6453746f726167653a205f696e69742066756e6374696f6e2072604082015266195d995c9d195960ca1b606082015260800190565b6020808252602d908201527f4469616d6f6e6453746f726167653a204164642066616365742063616e27742060408201526c6265206164647265737328302960981b606082015260800190565b6020808252603e908201527f4469616d6f6e6453746f726167653a205f63616c6c6461746120697320656d7060408201527f747920627574205f696e6974206973206e6f7420616464726573732830290000606082015260800190565b60208082526037908201527f4469616d6f6e6453746f726167653a2052656d6f76652066616365742061646460408201527f72657373206d7573742062652061646472657373283029000000000000000000606082015260800190565b60208082526039908201527f4469616d6f6e6453746f726167653a2043616e2774207265706c61636520667560408201527f6e6374696f6e20776974682073616d652066756e6374696f6e00000000000000606082015260800190565b6020808252818101527f4469616d6f6e643a2046756e6374696f6e20646f6573206e6f74206578697374604082015260600190565b6020808252602c908201527f4469616d6f6e6453746f726167653a204e6f2073656c6563746f727320696e2060408201526b199858d95d081d1bc818dd5d60a21b606082015260800190565b6020808252602f908201527f4469616d6f6e6453746f726167653a2043616e27742072656d6f766520696d6d60408201526e3aba30b1363290333ab731ba34b7b760891b606082015260800190565b60208082526038908201527f4469616d6f6e6453746f726167653a2043616e27742072656d6f76652066756e60408201527f6374696f6e207468617420646f65736e27742065786973740000000000000000606082015260800190565b6000828210156118b0576118b061191e565b500390565b60005b838110156118d05781810151838201526020016118b8565b83811115610dc65750506000910152565b600061ffff808316818114156118f9576118f961191e565b6001019392505050565b60006000198214156119175761191761191e565b5060010190565b634e487b7160e01b600052601160045260246000fdfe608060405234801561001057600080fd5b506116d3806100206000396000f3fe608060405234801561001057600080fd5b506004361061002b5760003560e01c80631f931c1c14610030575b600080fd5b61004361003e366004610e17565b610045565b005b61004d61009e565b61009761005a858761149d565b8484848080601f0160208091040260200160405190810160405280939291908181526020018383808284376000920191909152506100ec92505050565b5050505050565b6100a661035a565b600401546001600160a01b03166100bb61037e565b6001600160a01b0316146100ea5760405162461bcd60e51b81526004016100e190611051565b60405180910390fd5b565b60005b835181101561030f57600084828151811061011a57634e487b7160e01b600052603260045260246000fd5b60200260200101516020015190506000600281111561014957634e487b7160e01b600052602160045260246000fd5b81600281111561016957634e487b7160e01b600052602160045260246000fd5b14156101d4576101cf85838151811061019257634e487b7160e01b600052603260045260246000fd5b6020026020010151600001518684815181106101be57634e487b7160e01b600052603260045260246000fd5b6020026020010151604001516103db565b6102fc565b60018160028111156101f657634e487b7160e01b600052602160045260246000fd5b141561025c576101cf85838151811061021f57634e487b7160e01b600052603260045260246000fd5b60200260200101516000015186848151811061024b57634e487b7160e01b600052603260045260246000fd5b6020026020010151604001516105fe565b600281600281111561027e57634e487b7160e01b600052602160045260246000fd5b14156102e4576101cf8583815181106102a757634e487b7160e01b600052603260045260246000fd5b6020026020010151600001518684815181106102d357634e487b7160e01b600052603260045260246000fd5b60200260200101516040015161083b565b60405162461bcd60e51b81526004016100e190611146565b508061030781611608565b9150506100ef565b507f8faa70878671ccd212d20771b795c50af8fd3ff6cf27f4bde57e5d4de0aeb67383838360405161034393929190610f3e565b60405180910390a16103558282610914565b505050565b7fc8fcad8db84d3cc18b4c41d551ea0ee66dd599cde068d998e57d5e09332c131c90565b6000333014156103d557600080368080601f0160208091040260200160405190810160405280939291908181526020018383808284376000920191909152505050503601516001600160a01b031691506103d89050565b50335b90565b60008151116103fc5760405162461bcd60e51b81526004016100e190611339565b600061040661035a565b90506001600160a01b03831661042e5760405162461bcd60e51b81526004016100e1906111d5565b6001600160a01b038316600090815260018201602052604090205461ffff81166104d0576104748460405180606001604052806025815260200161167960259139610a3c565b6002820180546001600160a01b038616600081815260018087016020908152604083208201805461ffff191661ffff90961695909517909455845490810185559381529190912090910180546001600160a01b03191690911790555b60005b83518110156100975760008482815181106104fe57634e487b7160e01b600052603260045260246000fd5b6020908102919091018101516001600160e01b031981166000908152918690526040909120549091506001600160a01b0316801561054e5760405162461bcd60e51b81526004016100e190611093565b6001600160a01b03871660008181526001878101602090815260408084208054938401815584528184206008840401805463ffffffff60079095166004026101000a948502191660e089901c94909402939093179092556001600160e01b031986168352889052902080546001600160a01b03191690911761ffff60a01b1916600160a01b61ffff871602179055836105e6816115e6565b945050505080806105f690611608565b9150506104d3565b600081511161061f5760405162461bcd60e51b81526004016100e190611339565b600061062961035a565b90506001600160a01b0383166106515760405162461bcd60e51b81526004016100e1906111d5565b6001600160a01b038316600090815260018201602052604090205461ffff81166106f3576106978460405180606001604052806025815260200161167960259139610a3c565b6002820180546001600160a01b038616600081815260018087016020908152604083208201805461ffff191661ffff90961695909517909455845490810185559381529190912090910180546001600160a01b03191690911790555b60005b835181101561009757600084828151811061072157634e487b7160e01b600052603260045260246000fd5b6020908102919091018101516001600160e01b031981166000908152918690526040909120549091506001600160a01b039081169087168114156107775760405162461bcd60e51b81526004016100e1906112dc565b6107818183610a5d565b6001600160e01b03198216600081815260208781526040808320805461ffff60a01b1916600160a01b61ffff8b16021781556001600160a01b038c168085526001808c0185529285208054938401815585528385206008840401805463ffffffff60079095166004026101000a948502191660e08a901c94909402939093179092559390925287905281546001600160a01b03191617905583610823816115e6565b9450505050808061083390611608565b9150506106f6565b600081511161085c5760405162461bcd60e51b81526004016100e190611339565b600061086661035a565b90506001600160a01b0383161561088f5760405162461bcd60e51b81526004016100e19061127f565b60005b825181101561090e5760008382815181106108bd57634e487b7160e01b600052603260045260246000fd5b6020908102919091018101516001600160e01b031981166000908152918590526040909120549091506001600160a01b03166108f98183610a5d565b5050808061090690611608565b915050610892565b50505050565b6001600160a01b038216610946578051156109415760405162461bcd60e51b81526004016100e1906110e9565b610a38565b60008151116109675760405162461bcd60e51b81526004016100e190611222565b6001600160a01b0382163014610999576109998260405180606001604052806029815260200161165060299139610a3c565b600080836001600160a01b0316836040516109b49190610f22565b600060405180830381855af49150503d80600081146109ef576040519150601f19603f3d011682016040523d82523d6000602084013e6109f4565b606091505b5090925090508161090e57805115610a20578060405162461bcd60e51b81526004016100e19190611037565b60405162461bcd60e51b81526004016100e19061118e565b5050565b813b818161090e5760405162461bcd60e51b81526004016100e19190611037565b6000610a6761035a565b90506001600160a01b038316610a8f5760405162461bcd60e51b81526004016100e1906113d4565b6001600160a01b038316301415610ab85760405162461bcd60e51b81526004016100e190611385565b6001600160e01b03198216600090815260208281526040808320546001600160a01b0387168452600180860190935290832054600160a01b90910461ffff169291610b0291611486565b9050808214610c0a576001600160a01b03851660009081526001840160205260408120805483908110610b4557634e487b7160e01b600052603260045260246000fd5b600091825260208083206008830401546001600160a01b038a168452600188019091526040909220805460079092166004026101000a90920460e01b925082919085908110610ba457634e487b7160e01b600052603260045260246000fd5b600091825260208083206008830401805463ffffffff60079094166004026101000a938402191660e09590951c929092029390931790556001600160e01b031992909216825284905260409020805461ffff60a01b1916600160a01b61ffff8516021790555b6001600160a01b03851660009081526001840160205260409020805480610c4157634e487b7160e01b600052603160045260246000fd5b60008281526020808220600860001990940193840401805463ffffffff600460078716026101000a0219169055919092556001600160e01b0319861682528490526040902080546001600160b01b031916905580610097576002830154600090610cad90600190611486565b6001600160a01b038716600090815260018087016020526040909120015490915061ffff16808214610d88576000856002018381548110610cfe57634e487b7160e01b600052603260045260246000fd5b6000918252602090912001546002870180546001600160a01b039092169250829184908110610d3d57634e487b7160e01b600052603260045260246000fd5b600091825260208083209190910180546001600160a01b0319166001600160a01b0394851617905592909116815260018781019092526040902001805461ffff191661ffff83161790555b84600201805480610da957634e487b7160e01b600052603160045260246000fd5b60008281526020808220830160001990810180546001600160a01b03191690559092019092556001600160a01b03891682526001878101909152604090912001805461ffff1916905550505050505050565b80356001600160a01b0381168114610e1257600080fd5b919050565b600080600080600060608688031215610e2e578081fd5b853567ffffffffffffffff80821115610e45578283fd5b818801915088601f830112610e58578283fd5b813581811115610e66578384fd5b60208a818284028601011115610e7a578485fd5b8084019850819750610e8d818b01610dfb565b965060408a0135935082841115610ea2578485fd5b838a0193508a601f850112610eb5578485fd5b8335915082821115610ec5578485fd5b8a81838601011115610ed5578485fd5b979a96995094975050909401935090919050565b6001600160a01b03169052565b60008151808452610f0e8160208601602086016115ba565b601f01601f19169290920160200192915050565b60008251610f348184602087016115ba565b9190910192915050565b606080825284518282018190526000919060809081850190602080820287018401818b01875b8481101561100857898303607f19018652815180516001600160a01b03168452848101518985019060038110610fa857634e487b7160e01b8c52602160045260248cfd5b858701526040918201519185018a9052815190819052908501908a90898601905b80831015610ff35783516001600160e01b0319168252928701926001929092019190870190610fc9565b50978601979450505090830190600101610f64565b50506110168289018b610ee9565b8781036040890152611028818a610ef6565b9b9a5050505050505050505050565b60006020825261104a6020830184610ef6565b9392505050565b60208082526022908201527f4c69624469616d6f6e643a204d75737420626520636f6e7472616374206f776e60408201526132b960f11b606082015260800190565b60208082526036908201527f4469616d6f6e6453746f726167653a2043616e2774206164642066756e6374696040820152756f6e207468617420616c72656164792065786973747360501b606082015260800190565b6020808252603d908201527f4469616d6f6e6453746f726167653a205f696e6974206973206164647265737360408201527f283029206275745f63616c6c64617461206973206e6f7420656d707479000000606082015260800190565b60208082526028908201527f4469616d6f6e6453746f726167653a20496e636f7272656374204661636574436040820152673aba20b1ba34b7b760c11b606082015260800190565b60208082526027908201527f4469616d6f6e6453746f726167653a205f696e69742066756e6374696f6e2072604082015266195d995c9d195960ca1b606082015260800190565b6020808252602d908201527f4469616d6f6e6453746f726167653a204164642066616365742063616e27742060408201526c6265206164647265737328302960981b606082015260800190565b6020808252603e908201527f4469616d6f6e6453746f726167653a205f63616c6c6461746120697320656d7060408201527f747920627574205f696e6974206973206e6f7420616464726573732830290000606082015260800190565b60208082526037908201527f4469616d6f6e6453746f726167653a2052656d6f76652066616365742061646460408201527f72657373206d7573742062652061646472657373283029000000000000000000606082015260800190565b60208082526039908201527f4469616d6f6e6453746f726167653a2043616e2774207265706c61636520667560408201527f6e6374696f6e20776974682073616d652066756e6374696f6e00000000000000606082015260800190565b6020808252602c908201527f4469616d6f6e6453746f726167653a204e6f2073656c6563746f727320696e2060408201526b199858d95d081d1bc818dd5d60a21b606082015260800190565b6020808252602f908201527f4469616d6f6e6453746f726167653a2043616e27742072656d6f766520696d6d60408201526e3aba30b1363290333ab731ba34b7b760891b606082015260800190565b60208082526038908201527f4469616d6f6e6453746f726167653a2043616e27742072656d6f76652066756e60408201527f6374696f6e207468617420646f65736e27742065786973740000000000000000606082015260800190565b604051601f8201601f1916810167ffffffffffffffff8111828210171561145a5761145a611639565b604052919050565b600067ffffffffffffffff82111561147c5761147c611639565b5060209081020190565b60008282101561149857611498611623565b500390565b60006114b06114ab84611462565b611431565b8381526020808201919084845b878110156115ae578135870160608082360312156114d9578788fd5b6114e281611431565b90506114ed82610dfb565b815284820135600381106114ff578889fd5b8186015260408281013567ffffffffffffffff81111561151d57898afd5b929092019136601f840112611530578889fd5b823561153e6114ab82611462565b81815287810190858901368a850288018b01111561155a578c8dfd5b8c96505b838710156115915780356001600160e01b03198116811461157d578d8efd5b83526001969096019591890191890161155e565b5092840192909252505086525093820193908201906001016114bd565b50919695505050505050565b60005b838110156115d55781810151838201526020016115bd565b8381111561090e5750506000910152565b600061ffff808316818114156115fe576115fe611623565b6001019392505050565b600060001982141561161c5761161c611623565b5060010190565b634e487b7160e01b600052601160045260246000fd5b634e487b7160e01b600052604160045260246000fdfe4469616d6f6e6453746f726167653a205f696e6974206164647265737320686173206e6f20636f64654469616d6f6e6453746f726167653a204e657720666163657420686173206e6f20636f6465a2646970667358221220e208f31dc3b1e45e1a3797671df0b0c27b68e3a07cabf744face0a32217dec8864736f6c63430008010033608060405234801561001057600080fd5b5061066e806100206000396000f3fe608060405234801561001057600080fd5b50600436106100575760003560e01c806301ffc9a71461005c57806352ef6b2c146100855780637a0ed6271461009a578063adfca15e146100af578063cdffacc6146100cf575b600080fd5b61006f61006a3660046104ac565b6100ef565b60405161007c9190610606565b60405180910390f35b61008d610122565b60405161007c919061052c565b6100a261018e565b60405161007c919061058c565b6100c26100bd36600461047e565b610363565b60405161007c9190610579565b6100e26100dd3660046104ac565b61040d565b60405161007c9190610518565b6000806100fa610442565b6001600160e01b0319841660009081526003909101602052604090205460ff16915050919050565b6060600061012e610442565b6002810180546040805160208084028201810190925282815293945083018282801561018357602002820191906000526020600020905b81546001600160a01b03168152600190910190602001808311610165575b505050505091505090565b6060600061019a610442565b60028101549091508067ffffffffffffffff8111156101c957634e487b7160e01b600052604160045260246000fd5b60405190808252806020026020018201604052801561020257816020015b6101ef610466565b8152602001906001900390816101e75790505b50925060005b8181101561035d57600083600201828154811061023557634e487b7160e01b600052603260045260246000fd5b9060005260206000200160009054906101000a90046001600160a01b031690508085838151811061027657634e487b7160e01b600052603260045260246000fd5b6020908102919091018101516001600160a01b03928316905290821660009081526001860182526040908190208054825181850281018501909352808352919290919083018282801561031557602002820191906000526020600020906000905b82829054906101000a900460e01b6001600160e01b031916815260200190600401906020826003010492830192600103820291508084116102d75790505b505050505085838151811061033a57634e487b7160e01b600052603260045260246000fd5b60200260200101516020018190525050808061035590610611565b915050610208565b50505090565b6060600061036f610442565b6001600160a01b0384166000908152600182016020908152604091829020805483518184028101840190945280845293945091929083018282801561040057602002820191906000526020600020906000905b82829054906101000a900460e01b6001600160e01b031916815260200190600401906020826003010492830192600103820291508084116103c25790505b5050505050915050919050565b600080610418610442565b6001600160e01b03199093166000908152602093909352505060409020546001600160a01b031690565b7fc8fcad8db84d3cc18b4c41d551ea0ee66dd599cde068d998e57d5e09332c131c90565b60408051808201909152600081526060602082015290565b60006020828403121561048f578081fd5b81356001600160a01b03811681146104a5578182fd5b9392505050565b6000602082840312156104bd578081fd5b81356001600160e01b0319811681146104a5578182fd5b6000815180845260208085019450808401835b8381101561050d5781516001600160e01b031916875295820195908201906001016104e7565b509495945050505050565b6001600160a01b0391909116815260200190565b6020808252825182820181905260009190848201906040850190845b8181101561056d5783516001600160a01b031683529284019291840191600101610548565b50909695505050505050565b6000602082526104a560208301846104d4565b60208082528251828201819052600091906040908185019080840286018301878501865b838110156105f857888303603f19018552815180516001600160a01b031684528701518784018790526105e5878501826104d4565b95880195935050908601906001016105b0565b509098975050505050505050565b901515815260200190565b600060001982141561063157634e487b7160e01b81526011600452602481fd5b506001019056fea2646970667358221220c2ca6552d3a112cac068f2150b775499de2a4121b4f877e00347c6515b85754d64736f6c63430008010033608060405234801561001057600080fd5b50610296806100206000396000f3fe608060405234801561001057600080fd5b50600436106100365760003560e01c80638da5cb5b1461003b578063f2fde38b14610059575b600080fd5b61004361006e565b604051610050919061020a565b60405180910390f35b61006c6100673660046101dc565b61007d565b005b6000610078610091565b905090565b6100856100ad565b61008e816100fb565b50565b600061009b61015b565b600401546001600160a01b0316919050565b6100b561015b565b600401546001600160a01b03166100ca61017f565b6001600160a01b0316146100f95760405162461bcd60e51b81526004016100f09061021e565b60405180910390fd5b565b600061010561015b565b6004810180546001600160a01b038581166001600160a01b031983168117909355604051939450169182907f8be0079c531659141344cd1fd0a4f28419497f9722a3daafe3b4186f6b6457e090600090a3505050565b7fc8fcad8db84d3cc18b4c41d551ea0ee66dd599cde068d998e57d5e09332c131c90565b6000333014156101d657600080368080601f0160208091040260200160405190810160405280939291908181526020018383808284376000920191909152505050503601516001600160a01b031691506101d99050565b50335b90565b6000602082840312156101ed578081fd5b81356001600160a01b0381168114610203578182fd5b9392505050565b6001600160a01b0391909116815260200190565b60208082526022908201527f4c69624469616d6f6e643a204d75737420626520636f6e7472616374206f776e60408201526132b960f11b60608201526080019056fea264697066735822122063e86ff0e483505b7eb20caa2574326bd8c0450edda8f94f4a47ccef54e8adf264736f6c634300080100334469616d6f6e6453746f726167653a205f696e6974206164647265737320686173206e6f20636f64654469616d6f6e6453746f726167653a204e657720666163657420686173206e6f20636f6465a26469706673582212208689be613d508894c45f458a893071d610c0281325e121f3fe000c6102854be364736f6c63430008010033",
  "linkReferences": {},
  "deployedLinkReferences": {}
}