{
  "_format": "hh-sol-artifact-1",
  "contractName": "Cache",
  "sourceName": "contracts/utils/Cache.sol",
  "abi": [
    {
      "inputs": [
        {
          "internalType": "bytes32",
          "name": "",
          "type": "bytes32"
        }
      ],
      "name": "cache",
      "outputs": [
        {
          "internalType": "bool",
          "name": "",
          "type": "bool"
        }
      ],
      "stateMutability": "view",
      "type": "function"
    }
  ],
  "bytecode": "0x608060405234801561001057600080fd5b5060ae8061001f6000396000f3fe6080604052348015600f57600080fd5b506004361060285760003560e01c806399eb59b914602d575b600080fd5b604d60383660046061565b60006020819052908152604090205460ff1681565b604051901515815260200160405180910390f35b6000602082840312156071578081fd5b503591905056fea264697066735822122079282a7f3954b51ace54835c0c1014ceef15826f3518d2883d847a5b8c91798664736f6c63430008020033",
  "linkReferences": {},
  "deployedLinkReferences": {}
}