{
  "_format": "hh-sol-artifact-1",
  "contractName": "MultiVaultFacetPendingWithdrawals",
  "sourceName": "contracts/multivault/multivault/facets/MultiVaultFacetPendingWithdrawals.sol",
  "abi": [
    {
      "anonymous": false,
      "inputs": [
        {
          "indexed": false,
          "internalType": "uint256",
          "name": "base_chainId",
          "type": "uint256"
        },
        {
          "indexed": false,
          "internalType": "uint160",
          "name": "base_token",
          "type": "uint160"
        },
        {
          "indexed": false,
          "internalType": "string",
          "name": "name",
          "type": "string"
        },
        {
          "indexed": false,
          "internalType": "string",
          "name": "symbol",
          "type": "string"
        },
        {
          "indexed": false,
          "internalType": "uint8",
          "name": "decimals",
          "type": "uint8"
        },
        {
          "indexed": false,
          "internalType": "uint128",
          "name": "amount",
          "type": "uint128"
        },
        {
          "indexed": false,
          "internalType": "int8",
          "name": "recipient_wid",
          "type": "int8"
        },
        {
          "indexed": false,
          "internalType": "uint256",
          "name": "recipient_addr",
          "type": "uint256"
        },
        {
          "indexed": false,
          "internalType": "uint256",
          "name": "value",
          "type": "uint256"
        },
        {
          "indexed": false,
          "internalType": "uint256",
          "name": "expected_evers",
          "type": "uint256"
        },
        {
          "indexed": false,
          "internalType": "bytes",
          "name": "payload",
          "type": "bytes"
        }
      ],
      "name": "AlienTransfer",
      "type": "event"
    },
    {
      "anonymous": false,
      "inputs": [
        {
          "indexed": false,
          "internalType": "enum IMultiVaultFacetTokens.TokenType",
          "name": "_type",
          "type": "uint8"
        },
        {
          "indexed": false,
          "internalType": "address",
          "name": "sender",
          "type": "address"
        },
        {
          "indexed": false,
          "internalType": "address",
          "name": "token",
          "type": "address"
        },
        {
          "indexed": false,
          "internalType": "int8",
          "name": "recipient_wid",
          "type": "int8"
        },
        {
          "indexed": false,
          "internalType": "uint256",
          "name": "recipient_addr",
          "type": "uint256"
        },
        {
          "indexed": false,
          "internalType": "uint256",
          "name": "amount",
          "type": "uint256"
        },
        {
          "indexed": false,
          "internalType": "uint256",
          "name": "fee",
          "type": "uint256"
        }
      ],
      "name": "Deposit",
      "type": "event"
    },
    {
      "anonymous": false,
      "inputs": [
        {
          "indexed": false,
          "internalType": "int8",
          "name": "native_wid",
          "type": "int8"
        },
        {
          "indexed": false,
          "internalType": "uint256",
          "name": "native_addr",
          "type": "uint256"
        },
        {
          "indexed": false,
          "internalType": "uint128",
          "name": "amount",
          "type": "uint128"
        },
        {
          "indexed": false,
          "internalType": "int8",
          "name": "recipient_wid",
          "type": "int8"
        },
        {
          "indexed": false,
          "internalType": "uint256",
          "name": "recipient_addr",
          "type": "uint256"
        },
        {
          "indexed": false,
          "internalType": "uint256",
          "name": "value",
          "type": "uint256"
        },
        {
          "indexed": false,
          "internalType": "uint256",
          "name": "expected_evers",
          "type": "uint256"
        },
        {
          "indexed": false,
          "internalType": "bytes",
          "name": "payload",
          "type": "bytes"
        }
      ],
      "name": "NativeTransfer",
      "type": "event"
    },
    {
      "anonymous": false,
      "inputs": [
        {
          "indexed": false,
          "internalType": "address",
          "name": "recipient",
          "type": "address"
        },
        {
          "indexed": false,
          "internalType": "uint256",
          "name": "id",
          "type": "uint256"
        },
        {
          "indexed": false,
          "internalType": "uint256",
          "name": "amount",
          "type": "uint256"
        }
      ],
      "name": "PendingWithdrawalCancel",
      "type": "event"
    },
    {
      "anonymous": false,
      "inputs": [
        {
          "indexed": false,
          "internalType": "address",
          "name": "recipient",
          "type": "address"
        },
        {
          "indexed": false,
          "internalType": "uint256",
          "name": "id",
          "type": "uint256"
        },
        {
          "indexed": false,
          "internalType": "address",
          "name": "token",
          "type": "address"
        },
        {
          "indexed": false,
          "internalType": "uint256",
          "name": "amount",
          "type": "uint256"
        },
        {
          "indexed": false,
          "internalType": "bytes32",
          "name": "payloadId",
          "type": "bytes32"
        }
      ],
      "name": "PendingWithdrawalCreated",
      "type": "event"
    },
    {
      "anonymous": false,
      "inputs": [
        {
          "indexed": false,
          "internalType": "address",
          "name": "recipient",
          "type": "address"
        },
        {
          "indexed": false,
          "internalType": "uint256",
          "name": "id",
          "type": "uint256"
        }
      ],
      "name": "PendingWithdrawalFill",
      "type": "event"
    },
    {
      "anonymous": false,
      "inputs": [
        {
          "indexed": false,
          "internalType": "address",
          "name": "recipient",
          "type": "address"
        },
        {
          "indexed": false,
          "internalType": "uint256",
          "name": "id",
          "type": "uint256"
        }
      ],
      "name": "PendingWithdrawalForce",
      "type": "event"
    },
    {
      "anonymous": false,
      "inputs": [
        {
          "indexed": false,
          "internalType": "address",
          "name": "recipient",
          "type": "address"
        },
        {
          "indexed": false,
          "internalType": "uint256",
          "name": "id",
          "type": "uint256"
        },
        {
          "indexed": false,
          "internalType": "enum IMultiVaultFacetPendingWithdrawals.ApproveStatus",
          "name": "approveStatus",
          "type": "uint8"
        }
      ],
      "name": "PendingWithdrawalUpdateApproveStatus",
      "type": "event"
    },
    {
      "anonymous": false,
      "inputs": [
        {
          "indexed": false,
          "internalType": "address",
          "name": "recipient",
          "type": "address"
        },
        {
          "indexed": false,
          "internalType": "uint256",
          "name": "id",
          "type": "uint256"
        },
        {
          "indexed": false,
          "internalType": "uint256",
          "name": "bounty",
          "type": "uint256"
        }
      ],
      "name": "PendingWithdrawalUpdateBounty",
      "type": "event"
    },
    {
      "anonymous": false,
      "inputs": [
        {
          "indexed": false,
          "internalType": "address",
          "name": "recipient",
          "type": "address"
        },
        {
          "indexed": false,
          "internalType": "uint256",
          "name": "id",
          "type": "uint256"
        },
        {
          "indexed": false,
          "internalType": "uint256",
          "name": "amount",
          "type": "uint256"
        }
      ],
      "name": "PendingWithdrawalWithdraw",
      "type": "event"
    },
    {
      "inputs": [
        {
          "internalType": "uint256",
          "name": "id",
          "type": "uint256"
        },
        {
          "internalType": "uint256",
          "name": "amount",
          "type": "uint256"
        },
        {
          "components": [
            {
              "internalType": "int8",
              "name": "wid",
              "type": "int8"
            },
            {
              "internalType": "uint256",
              "name": "addr",
              "type": "uint256"
            }
          ],
          "internalType": "struct IEverscale.EverscaleAddress",
          "name": "recipient",
          "type": "tuple"
        },
        {
          "internalType": "uint256",
          "name": "expected_evers",
          "type": "uint256"
        },
        {
          "internalType": "bytes",
          "name": "payload",
          "type": "bytes"
        },
        {
          "internalType": "uint256",
          "name": "bounty",
          "type": "uint256"
        }
      ],
      "name": "cancelPendingWithdrawal",
      "outputs": [],
      "stateMutability": "payable",
      "type": "function"
    },
    {
      "inputs": [
        {
          "components": [
            {
              "internalType": "address",
              "name": "recipient",
              "type": "address"
            },
            {
              "internalType": "uint256",
              "name": "id",
              "type": "uint256"
            }
          ],
          "internalType": "struct IMultiVaultFacetPendingWithdrawals.PendingWithdrawalId[]",
          "name": "pendingWithdrawalIds",
          "type": "tuple[]"
        }
      ],
      "name": "forceWithdraw",
      "outputs": [],
      "stateMutability": "nonpayable",
      "type": "function"
    },
    {
      "inputs": [
        {
          "internalType": "address",
          "name": "user",
          "type": "address"
        },
        {
          "internalType": "uint256",
          "name": "id",
          "type": "uint256"
        }
      ],
      "name": "pendingWithdrawals",
      "outputs": [
        {
          "components": [
            {
              "internalType": "address",
              "name": "token",
              "type": "address"
            },
            {
              "internalType": "uint256",
              "name": "amount",
              "type": "uint256"
            },
            {
              "internalType": "uint256",
              "name": "bounty",
              "type": "uint256"
            },
            {
              "internalType": "uint256",
              "name": "timestamp",
              "type": "uint256"
            },
            {
              "internalType": "enum IMultiVaultFacetPendingWithdrawals.ApproveStatus",
              "name": "approveStatus",
              "type": "uint8"
            }
          ],
          "internalType": "struct IMultiVaultFacetPendingWithdrawals.PendingWithdrawalParams",
          "name": "",
          "type": "tuple"
        }
      ],
      "stateMutability": "view",
      "type": "function"
    },
    {
      "inputs": [
        {
          "internalType": "address",
          "name": "user",
          "type": "address"
        }
      ],
      "name": "pendingWithdrawalsPerUser",
      "outputs": [
        {
          "internalType": "uint256",
          "name": "",
          "type": "uint256"
        }
      ],
      "stateMutability": "view",
      "type": "function"
    },
    {
      "inputs": [
        {
          "internalType": "address",
          "name": "_token",
          "type": "address"
        }
      ],
      "name": "pendingWithdrawalsTotal",
      "outputs": [
        {
          "internalType": "uint256",
          "name": "",
          "type": "uint256"
        }
      ],
      "stateMutability": "view",
      "type": "function"
    },
    {
      "inputs": [
        {
          "components": [
            {
              "internalType": "address",
              "name": "recipient",
              "type": "address"
            },
            {
              "internalType": "uint256",
              "name": "id",
              "type": "uint256"
            }
          ],
          "internalType": "struct IMultiVaultFacetPendingWithdrawals.PendingWithdrawalId[]",
          "name": "pendingWithdrawalId",
          "type": "tuple[]"
        },
        {
          "internalType": "enum IMultiVaultFacetPendingWithdrawals.ApproveStatus[]",
          "name": "approveStatus",
          "type": "uint8[]"
        }
      ],
      "name": "setPendingWithdrawalApprove",
      "outputs": [],
      "stateMutability": "nonpayable",
      "type": "function"
    },
    {
      "inputs": [
        {
          "components": [
            {
              "internalType": "address",
              "name": "recipient",
              "type": "address"
            },
            {
              "internalType": "uint256",
              "name": "id",
              "type": "uint256"
            }
          ],
          "internalType": "struct IMultiVaultFacetPendingWithdrawals.PendingWithdrawalId",
          "name": "pendingWithdrawalId",
          "type": "tuple"
        },
        {
          "internalType": "enum IMultiVaultFacetPendingWithdrawals.ApproveStatus",
          "name": "approveStatus",
          "type": "uint8"
        }
      ],
      "name": "setPendingWithdrawalApprove",
      "outputs": [],
      "stateMutability": "nonpayable",
      "type": "function"
    },
    {
      "inputs": [
        {
          "internalType": "uint256",
          "name": "id",
          "type": "uint256"
        },
        {
          "internalType": "uint256",
          "name": "bounty",
          "type": "uint256"
        }
      ],
      "name": "setPendingWithdrawalBounty",
      "outputs": [],
      "stateMutability": "nonpayable",
      "type": "function"
    },
    {
      "inputs": [
        {
          "internalType": "address",
          "name": "token",
          "type": "address"
        }
      ],
      "name": "withdrawalLimits",
      "outputs": [
        {
          "components": [
            {
              "internalType": "uint256",
              "name": "undeclared",
              "type": "uint256"
            },
            {
              "internalType": "uint256",
              "name": "daily",
              "type": "uint256"
            },
            {
              "internalType": "bool",
              "name": "enabled",
              "type": "bool"
            }
          ],
          "internalType": "struct IMultiVaultFacetPendingWithdrawals.WithdrawalLimits",
          "name": "",
          "type": "tuple"
        }
      ],
      "stateMutability": "view",
      "type": "function"
    },
    {
      "inputs": [
        {
          "internalType": "address",
          "name": "token",
          "type": "address"
        },
        {
          "internalType": "uint256",
          "name": "withdrawalPeriodId",
          "type": "uint256"
        }
      ],
      "name": "withdrawalPeriods",
      "outputs": [
        {
          "components": [
            {
              "internalType": "uint256",
              "name": "total",
              "type": "uint256"
            },
            {
              "internalType": "uint256",
              "name": "considered",
              "type": "uint256"
            }
          ],
          "internalType": "struct IMultiVaultFacetPendingWithdrawals.WithdrawalPeriodParams",
          "name": "",
          "type": "tuple"
        }
      ],
      "stateMutability": "view",
      "type": "function"
    }
  ],
  "bytecode": "0x608060405234801561001057600080fd5b506119de806100206000396000f3fe6080604052600436106100915760003560e01c8063bae47ae511610059578063bae47ae51461015b578063bb3a9f051461016e578063d48c7fbe1461019b578063e0959a59146101bb578063e1aebe77146101e857610091565b80631566e2af14610096578063207e80cd146100cc5780632d4bb521146100ee57806344dc49701461010e57806361a4021f1461013b575b600080fd5b3480156100a257600080fd5b506100b66100b1366004611220565b610208565b6040516100c391906117aa565b60405180910390f35b3480156100d857600080fd5b506100ec6100e7366004611434565b610238565b005b3480156100fa57600080fd5b506100ec610109366004611296565b6102c5565b34801561011a57600080fd5b5061012e61012936600461123a565b61034e565b6040516100c39190611727565b34801561014757600080fd5b506100ec6101563660046113e9565b610415565b6100ec610169366004611455565b610635565b34801561017a57600080fd5b5061018e61018936600461123a565b61074d565b6040516100c39190611793565b3480156101a757600080fd5b506100b66101b6366004611220565b6107a3565b3480156101c757600080fd5b506101db6101d6366004611220565b6107d2565b6040516100c39190611770565b3480156101f457600080fd5b506100ec610203366004611263565b610833565b60008061021361091f565b6001600160a01b0384166000908152601690910160205260409020549150505b919050565b600061024261091f565b905060006102503385610924565b9050806020015183111561026357600080fd5b336000818152601584016020908152604080832088845290915290819020600201859055517fbb627279073d07a96af217b9094121c421f7f2be0b1b476fe93db950ed55ba52916102b791879087906115e0565b60405180910390a150505050565b80518251146102d357600080fd5b60005b82518110156103495761033783828151811061030257634e487b7160e01b600052603260045260246000fd5b602002602001015183838151811061032a57634e487b7160e01b600052603260045260246000fd5b6020026020010151610415565b806103418161194b565b9150506102d6565b505050565b61035661104e565b600061036061091f565b6001600160a01b0380861660009081526015830160209081526040808320888452825291829020825160a081018452815490941684526001810154918401919091526002810154918301919091526003808201546060840152600482015493945091929091608084019160ff16908111156103eb57634e487b7160e01b600052602160045260246000fd5b600381111561040a57634e487b7160e01b600052602160045260246000fd5b905250949350505050565b600061041f61091f565b600e8101549091506001600160a01b0316331480610449575060198101546001600160a01b031633145b61045257600080fd5b82600061045e82610959565b9050600081602001511161047157600080fd5b600061047b61091f565b9050600061048887610959565b90506001816080015160038111156104b057634e487b7160e01b600052602160045260246000fd5b146104ba57600080fd5b60028660038111156104dc57634e487b7160e01b600052602160045260246000fd5b14806105075750600386600381111561050557634e487b7160e01b600052602160045260246000fd5b145b61051057600080fd5b61051a8787610a24565b600286600381111561053c57634e487b7160e01b600052602160045260246000fd5b1480156105575750805161054f90610ad2565b816020015111155b156105d55761056f8160000151888360200151610b57565b86516020820151825161058d926001600160a01b0390911691610bdc565b7f3ef6584c80879712c52cf83efe46fb39f52beb35aefa84d5a79aea88742a92548760000151886020015183602001516040516105cc939291906115e0565b60405180910390a15b60006105e48260600151610c32565b60208084015184516001600160a01b031660009081526018870183526040808220858352909352918220600101805493945090929091906106269084906118cc565b90915550505050505050505050565b600061063f61091f565b600681015490915060ff161561065457600080fd5b60006106603389610924565b9050600061066c61091f565b9050600088118015610682575081602001518811155b61068b57600080fd5b33600090815260158201602090815260408083208c8452909152812060010180548a92906106ba908490611904565b90915550506040805160a08101825288815283516001600160a01b0316602082015290810189905260608101879052608081018690526106fc81600034610c41565b7f31c40a7a2ef13d939ea5d0263021249143e2fcef429a2b981ccc1370f03ec0fb338b8b60405161072f939291906115e0565b60405180910390a16107418a86610238565b50505050505050505050565b6107556110a4565b600061075f61091f565b6001600160a01b0385166000908152601890910160209081526040808320868452825291829020825180840190935280548352600101549082015291505092915050565b6000806107ae61091f565b6001600160a01b038416600090815260149091016020526040902054915050919050565b6107da6110be565b60006107e461091f565b6001600160a01b0384166000908152601790910160209081526040918290208251606081018452815481526001820154928101929092526002015460ff16151591810191909152915050919050565b600061083d61091f565b905060005b825181101561034957600083828151811061086d57634e487b7160e01b600052603260045260246000fd5b60200260200101519050600061088282610959565b82516001600160a01b0390811660009081526015870160209081526040808320828801518452825282206001019190915584519083015183519394506108cb9390921691610bdc565b815160208301516040517f7e2f6ca77ea18ddd627ba7cb3f808427d009cb838b2ccc1749ade8245d9b69e8926109029290916115a3565b60405180910390a1505080806109179061194b565b915050610842565b600290565b61092c61104e565b6109526040518060400160405280856001600160a01b0316815260200184815250610959565b9392505050565b61096161104e565b600061096b61091f565b83516001600160a01b0390811660009081526015830160209081526040808320828901518452825291829020825160a081018452815490941684526001810154918401919091526002810154918301919091526003808201546060840152600482015493945091929091608084019160ff16908111156109fb57634e487b7160e01b600052602160045260246000fd5b6003811115610a1a57634e487b7160e01b600052602160045260246000fd5b9052509392505050565b6000610a2e61091f565b83516001600160a01b03166000908152601582016020908152604080832082880151845290915290206004018054919250839160ff19166001836003811115610a8757634e487b7160e01b600052602160045260246000fd5b0217905550825160208401516040517f7ed894a371451167c714ecffd40c5a3faf1e0ec592087257a0ea2cce2af6641992610ac592909186906115bc565b60405180910390a1505050565b6040516370a0823160e01b81526000906001600160a01b038316906370a0823190610b0190309060040161158f565b60206040518083038186803b158015610b1957600080fd5b505afa158015610b2d573d6000803e3d6000fd5b505050506040513d601f19601f82011682018060405250810190610b51919061141c565b92915050565b6000610b6161091f565b83516001600160a01b031660009081526015820160209081526040808320828801518452909152812060010180549293508492909190610ba2908490611904565b90915550506001600160a01b038416600090815260168201602052604081208054849290610bd1908490611904565b909155505050505050565b6103498363a9059cbb60e01b8484604051602401610bfb9291906115a3565b60408051601f198184030181529190526020810180516001600160e01b03166001600160e01b031990931692909217909152610e10565b6000610b5162015180836118e4565b7f4a75ed314c66620928056921a6aaaba7ff617e5900f664492cdd34a1e37e0c0846846020015185602001516001600160a01b03166306fdde036040518163ffffffff1660e01b815260040160006040518083038186803b158015610ca557600080fd5b505afa158015610cb9573d6000803e3d6000fd5b505050506040513d6000823e601f3d908101601f19168201604052610ce19190810190611376565b86602001516001600160a01b03166395d89b416040518163ffffffff1660e01b815260040160006040518083038186803b158015610d1e57600080fd5b505afa158015610d32573d6000803e3d6000fd5b505050506040513d6000823e601f3d908101601f19168201604052610d5a9190810190611376565b87602001516001600160a01b031663313ce5676040518163ffffffff1660e01b815260040160206040518083038186803b158015610d9757600080fd5b505afa158015610dab573d6000803e3d6000fd5b505050506040513d601f19601f82011682018060405250810190610dcf9190611512565b6040808a01518a51805160209091015160608d015160808e01519451610dfc9a99989796958d92916117b3565b60405180910390a161034983836000610ea8565b6000610e65826040518060400160405280602081526020017f5361666545524332303a206c6f772d6c6576656c2063616c6c206661696c6564815250856001600160a01b0316610f0d9092919063ffffffff16565b8051909150156103495780806020019051810190610e839190611356565b6103495760405162461bcd60e51b8152600401610e9f906116dd565b60405180910390fd5b7fb7ee532ff86e7f74d5cd5ce4634ce5eb66a960707e06f7b12d379a984e6242f081610ed5576001610ed8565b60005b60208086015186518051920151604088015133939190610ef99089906118cc565b88604051610ac59796959493929190611601565b6060610f1c8484600085610f24565b949350505050565b606082471015610f465760405162461bcd60e51b8152600401610e9f90611660565b610f4f85610fe4565b610f6b5760405162461bcd60e51b8152600401610e9f906116a6565b600080866001600160a01b03168587604051610f879190611573565b60006040518083038185875af1925050503d8060008114610fc4576040519150601f19603f3d011682016040523d82523d6000602084013e610fc9565b606091505b5091509150610fd9828286611015565b979650505050505050565b600080826001600160a01b0316803b806020016040519081016040528181526000908060200190933c511192915050565b60608315611024575081610952565b8251156110345782518084602001fd5b8160405162461bcd60e51b8152600401610e9f919061164d565b6040518060a0016040528060006001600160a01b031681526020016000815260200160008152602001600081526020016000600381111561109f57634e487b7160e01b600052602160045260246000fd5b905290565b604051806040016040528060008152602001600081525090565b604051806060016040528060008152602001600081526020016000151581525090565b80356001600160a01b038116811461023357600080fd5b600082601f830112611108578081fd5b8135602061111d61111883611880565b611856565b8281528181019085830160408086028801850189101561113b578687fd5b865b868110156111615761114f8a846111ca565b8552938501939181019160010161113d565b509198975050505050505050565b600082601f83011261117f578081fd5b813561118d611118826118a4565b8181528460208386010111156111a1578283fd5b816020850160208301379081016020019190915292915050565b80356004811061023357600080fd5b6000604082840312156111db578081fd5b6040516040810181811067ffffffffffffffff821117156111fe576111fe611992565b60405290508061120d836110e1565b8152602083013560208201525092915050565b600060208284031215611231578081fd5b610952826110e1565b6000806040838503121561124c578081fd5b611255836110e1565b946020939093013593505050565b600060208284031215611274578081fd5b813567ffffffffffffffff81111561128a578182fd5b610f1c848285016110f8565b600080604083850312156112a8578182fd5b823567ffffffffffffffff808211156112bf578384fd5b6112cb868387016110f8565b93506020915081850135818111156112e1578384fd5b85019050601f810186136112f3578283fd5b803561130161111882611880565b81815283810190838501858402850186018a101561131d578687fd5b8694505b8385101561134657611332816111bb565b835260019490940193918501918501611321565b5080955050505050509250929050565b600060208284031215611367578081fd5b81518015158114610952578182fd5b600060208284031215611387578081fd5b815167ffffffffffffffff81111561139d578182fd5b8201601f810184136113ad578182fd5b80516113bb611118826118a4565b8181528560208385010111156113cf578384fd5b6113e082602083016020860161191b565b95945050505050565b600080606083850312156113fb578182fd5b61140584846111ca565b9150611413604084016111bb565b90509250929050565b60006020828403121561142d578081fd5b5051919050565b60008060408385031215611446578182fd5b50508035926020909101359150565b60008060008060008086880360e081121561146e578283fd5b87359650602088013595506040603f198201121561148a578283fd5b506040516040810167ffffffffffffffff82821081831117156114af576114af611992565b8160405260408a0135915081850b82146114c7578485fd5b81835260608a013560208401529195506080890135945060a089013591808311156114f0578485fd5b50506114fe89828a0161116f565b92505060c087013590509295509295509295565b600060208284031215611523578081fd5b815160ff81168114610952578182fd5b6000815180845261154b81602086016020860161191b565b601f01601f19169290920160200192915050565b6004811061156f5761156f61197c565b9052565b6000825161158581846020870161191b565b9190910192915050565b6001600160a01b0391909116815260200190565b6001600160a01b03929092168252602082015260400190565b6001600160a01b03841681526020810183905260608101610f1c604083018461155f565b6001600160a01b039390931683526020830191909152604082015260600190565b60e08101600289106116155761161561197c565b9781526001600160a01b03968716602082015294909516604085015260009290920b6060840152608083015260a082015260c0015290565b6000602082526109526020830184611533565b60208082526026908201527f416464726573733a20696e73756666696369656e742062616c616e636520666f6040820152651c8818d85b1b60d21b606082015260800190565b6020808252601d908201527f416464726573733a2063616c6c20746f206e6f6e2d636f6e7472616374000000604082015260600190565b6020808252602a908201527f5361666545524332303a204552433230206f7065726174696f6e20646964206e6040820152691bdd081cdd58d8d9595960b21b606082015260800190565b81516001600160a01b0316815260208083015190820152604080830151908201526060808301519082015260808083015160a08301916117699084018261155f565b5092915050565b815181526020808301519082015260409182015115159181019190915260600190565b815181526020918201519181019190915260400190565b90815260200190565b8b81526001600160a01b038b166020820152610160604082018190526000906117de8382018d611533565b905082810360608401526117f2818c611533565b905060ff8a1660808401526fffffffffffffffffffffffffffffffff891660a084015287820b60c08401528660e084015285610100840152846101208401528281036101408401526118448185611533565b9e9d5050505050505050505050505050565b60405181810167ffffffffffffffff8111828210171561187857611878611992565b604052919050565b600067ffffffffffffffff82111561189a5761189a611992565b5060209081020190565b600067ffffffffffffffff8211156118be576118be611992565b50601f01601f191660200190565b600082198211156118df576118df611966565b500190565b6000826118ff57634e487b7160e01b81526012600452602481fd5b500490565b60008282101561191657611916611966565b500390565b60005b8381101561193657818101518382015260200161191e565b83811115611945576000848401525b50505050565b600060001982141561195f5761195f611966565b5060010190565b634e487b7160e01b600052601160045260246000fd5b634e487b7160e01b600052602160045260246000fd5b634e487b7160e01b600052604160045260246000fdfea2646970667358221220ce6445c8e28f734cbc0ba9ee5c99054b2777850bf9779ea48643d652aa4421a264736f6c63430008000033",
  "linkReferences": {},
  "deployedLinkReferences": {}
}