{
  "_format": "hh-sol-artifact-1",
  "contractName": "MultiVaultFacetPendingWithdrawals",
  "sourceName": "contracts/multivault/multivault/facets/MultiVaultFacetPendingWithdrawals.sol",
  "abi": [
    {
      "anonymous": false,
      "inputs": [
        {
          "indexed": false,
          "internalType": "uint256",
          "name": "base_chainId",
          "type": "uint256"
        },
        {
          "indexed": false,
          "internalType": "uint160",
          "name": "base_token",
          "type": "uint160"
        },
        {
          "indexed": false,
          "internalType": "string",
          "name": "name",
          "type": "string"
        },
        {
          "indexed": false,
          "internalType": "string",
          "name": "symbol",
          "type": "string"
        },
        {
          "indexed": false,
          "internalType": "uint8",
          "name": "decimals",
          "type": "uint8"
        },
        {
          "indexed": false,
          "internalType": "uint128",
          "name": "amount",
          "type": "uint128"
        },
        {
          "indexed": false,
          "internalType": "int8",
          "name": "recipient_wid",
          "type": "int8"
        },
        {
          "indexed": false,
          "internalType": "uint256",
          "name": "recipient_addr",
          "type": "uint256"
        },
        {
          "indexed": false,
          "internalType": "uint256",
          "name": "value",
          "type": "uint256"
        },
        {
          "indexed": false,
          "internalType": "uint256",
          "name": "expected_evers",
          "type": "uint256"
        },
        {
          "indexed": false,
          "internalType": "bytes",
          "name": "payload",
          "type": "bytes"
        }
      ],
      "name": "AlienTransfer",
      "type": "event"
    },
    {
      "anonymous": false,
      "inputs": [
        {
          "indexed": false,
          "internalType": "address",
          "name": "sender",
          "type": "address"
        },
        {
          "indexed": false,
          "internalType": "address",
          "name": "token",
          "type": "address"
        },
        {
          "indexed": false,
          "internalType": "int8",
          "name": "recipient_wid",
          "type": "int8"
        },
        {
          "indexed": false,
          "internalType": "uint256",
          "name": "recipient_addr",
          "type": "uint256"
        },
        {
          "indexed": false,
          "internalType": "uint256",
          "name": "amount",
          "type": "uint256"
        }
      ],
      "name": "Deposit",
      "type": "event"
    },
    {
      "anonymous": false,
      "inputs": [
        {
          "indexed": false,
          "internalType": "int8",
          "name": "native_wid",
          "type": "int8"
        },
        {
          "indexed": false,
          "internalType": "uint256",
          "name": "native_addr",
          "type": "uint256"
        },
        {
          "indexed": false,
          "internalType": "uint128",
          "name": "amount",
          "type": "uint128"
        },
        {
          "indexed": false,
          "internalType": "int8",
          "name": "recipient_wid",
          "type": "int8"
        },
        {
          "indexed": false,
          "internalType": "uint256",
          "name": "recipient_addr",
          "type": "uint256"
        },
        {
          "indexed": false,
          "internalType": "uint256",
          "name": "value",
          "type": "uint256"
        },
        {
          "indexed": false,
          "internalType": "uint256",
          "name": "expected_evers",
          "type": "uint256"
        },
        {
          "indexed": false,
          "internalType": "bytes",
          "name": "payload",
          "type": "bytes"
        }
      ],
      "name": "NativeTransfer",
      "type": "event"
    },
    {
      "anonymous": false,
      "inputs": [
        {
          "indexed": false,
          "internalType": "address",
          "name": "recipient",
          "type": "address"
        },
        {
          "indexed": false,
          "internalType": "uint256",
          "name": "id",
          "type": "uint256"
        },
        {
          "indexed": false,
          "internalType": "uint256",
          "name": "amount",
          "type": "uint256"
        }
      ],
      "name": "PendingWithdrawalCancel",
      "type": "event"
    },
    {
      "anonymous": false,
      "inputs": [
        {
          "indexed": false,
          "internalType": "address",
          "name": "recipient",
          "type": "address"
        },
        {
          "indexed": false,
          "internalType": "uint256",
          "name": "id",
          "type": "uint256"
        },
        {
          "indexed": false,
          "internalType": "address",
          "name": "token",
          "type": "address"
        },
        {
          "indexed": false,
          "internalType": "uint256",
          "name": "amount",
          "type": "uint256"
        },
        {
          "indexed": false,
          "internalType": "bytes32",
          "name": "payloadId",
          "type": "bytes32"
        }
      ],
      "name": "PendingWithdrawalCreated",
      "type": "event"
    },
    {
      "anonymous": false,
      "inputs": [
        {
          "indexed": false,
          "internalType": "address",
          "name": "recipient",
          "type": "address"
        },
        {
          "indexed": false,
          "internalType": "uint256",
          "name": "id",
          "type": "uint256"
        }
      ],
      "name": "PendingWithdrawalFill",
      "type": "event"
    },
    {
      "anonymous": false,
      "inputs": [
        {
          "indexed": false,
          "internalType": "address",
          "name": "recipient",
          "type": "address"
        },
        {
          "indexed": false,
          "internalType": "uint256",
          "name": "id",
          "type": "uint256"
        }
      ],
      "name": "PendingWithdrawalForce",
      "type": "event"
    },
    {
      "anonymous": false,
      "inputs": [
        {
          "indexed": false,
          "internalType": "address",
          "name": "recipient",
          "type": "address"
        },
        {
          "indexed": false,
          "internalType": "uint256",
          "name": "id",
          "type": "uint256"
        },
        {
          "indexed": false,
          "internalType": "enum IMultiVaultFacetPendingWithdrawals.ApproveStatus",
          "name": "approveStatus",
          "type": "uint8"
        }
      ],
      "name": "PendingWithdrawalUpdateApproveStatus",
      "type": "event"
    },
    {
      "anonymous": false,
      "inputs": [
        {
          "indexed": false,
          "internalType": "address",
          "name": "recipient",
          "type": "address"
        },
        {
          "indexed": false,
          "internalType": "uint256",
          "name": "id",
          "type": "uint256"
        },
        {
          "indexed": false,
          "internalType": "uint256",
          "name": "bounty",
          "type": "uint256"
        }
      ],
      "name": "PendingWithdrawalUpdateBounty",
      "type": "event"
    },
    {
      "anonymous": false,
      "inputs": [
        {
          "indexed": false,
          "internalType": "address",
          "name": "recipient",
          "type": "address"
        },
        {
          "indexed": false,
          "internalType": "uint256",
          "name": "id",
          "type": "uint256"
        },
        {
          "indexed": false,
          "internalType": "uint256",
          "name": "amount",
          "type": "uint256"
        }
      ],
      "name": "PendingWithdrawalWithdraw",
      "type": "event"
    },
    {
      "inputs": [
        {
          "internalType": "uint256",
          "name": "id",
          "type": "uint256"
        },
        {
          "internalType": "uint256",
          "name": "amount",
          "type": "uint256"
        },
        {
          "components": [
            {
              "internalType": "int8",
              "name": "wid",
              "type": "int8"
            },
            {
              "internalType": "uint256",
              "name": "addr",
              "type": "uint256"
            }
          ],
          "internalType": "struct IEverscale.EverscaleAddress",
          "name": "recipient",
          "type": "tuple"
        },
        {
          "internalType": "uint256",
          "name": "expected_evers",
          "type": "uint256"
        },
        {
          "internalType": "bytes",
          "name": "payload",
          "type": "bytes"
        },
        {
          "internalType": "uint256",
          "name": "bounty",
          "type": "uint256"
        }
      ],
      "name": "cancelPendingWithdrawal",
      "outputs": [],
      "stateMutability": "payable",
      "type": "function"
    },
    {
      "inputs": [
        {
          "components": [
            {
              "internalType": "address",
              "name": "recipient",
              "type": "address"
            },
            {
              "internalType": "uint256",
              "name": "id",
              "type": "uint256"
            }
          ],
          "internalType": "struct IMultiVaultFacetPendingWithdrawals.PendingWithdrawalId[]",
          "name": "pendingWithdrawalIds",
          "type": "tuple[]"
        }
      ],
      "name": "forceWithdraw",
      "outputs": [],
      "stateMutability": "nonpayable",
      "type": "function"
    },
    {
      "inputs": [
        {
          "internalType": "address",
          "name": "user",
          "type": "address"
        },
        {
          "internalType": "uint256",
          "name": "id",
          "type": "uint256"
        }
      ],
      "name": "pendingWithdrawals",
      "outputs": [
        {
          "components": [
            {
              "internalType": "address",
              "name": "token",
              "type": "address"
            },
            {
              "internalType": "uint256",
              "name": "amount",
              "type": "uint256"
            },
            {
              "internalType": "uint256",
              "name": "bounty",
              "type": "uint256"
            },
            {
              "internalType": "uint256",
              "name": "timestamp",
              "type": "uint256"
            },
            {
              "internalType": "enum IMultiVaultFacetPendingWithdrawals.ApproveStatus",
              "name": "approveStatus",
              "type": "uint8"
            }
          ],
          "internalType": "struct IMultiVaultFacetPendingWithdrawals.PendingWithdrawalParams",
          "name": "",
          "type": "tuple"
        }
      ],
      "stateMutability": "view",
      "type": "function"
    },
    {
      "inputs": [
        {
          "internalType": "address",
          "name": "user",
          "type": "address"
        }
      ],
      "name": "pendingWithdrawalsPerUser",
      "outputs": [
        {
          "internalType": "uint256",
          "name": "",
          "type": "uint256"
        }
      ],
      "stateMutability": "view",
      "type": "function"
    },
    {
      "inputs": [
        {
          "internalType": "address",
          "name": "_token",
          "type": "address"
        }
      ],
      "name": "pendingWithdrawalsTotal",
      "outputs": [
        {
          "internalType": "uint256",
          "name": "",
          "type": "uint256"
        }
      ],
      "stateMutability": "view",
      "type": "function"
    },
    {
      "inputs": [
        {
          "components": [
            {
              "internalType": "address",
              "name": "recipient",
              "type": "address"
            },
            {
              "internalType": "uint256",
              "name": "id",
              "type": "uint256"
            }
          ],
          "internalType": "struct IMultiVaultFacetPendingWithdrawals.PendingWithdrawalId[]",
          "name": "pendingWithdrawalId",
          "type": "tuple[]"
        },
        {
          "internalType": "enum IMultiVaultFacetPendingWithdrawals.ApproveStatus[]",
          "name": "approveStatus",
          "type": "uint8[]"
        }
      ],
      "name": "setPendingWithdrawalApprove",
      "outputs": [],
      "stateMutability": "nonpayable",
      "type": "function"
    },
    {
      "inputs": [
        {
          "components": [
            {
              "internalType": "address",
              "name": "recipient",
              "type": "address"
            },
            {
              "internalType": "uint256",
              "name": "id",
              "type": "uint256"
            }
          ],
          "internalType": "struct IMultiVaultFacetPendingWithdrawals.PendingWithdrawalId",
          "name": "pendingWithdrawalId",
          "type": "tuple"
        },
        {
          "internalType": "enum IMultiVaultFacetPendingWithdrawals.ApproveStatus",
          "name": "approveStatus",
          "type": "uint8"
        }
      ],
      "name": "setPendingWithdrawalApprove",
      "outputs": [],
      "stateMutability": "nonpayable",
      "type": "function"
    },
    {
      "inputs": [
        {
          "internalType": "uint256",
          "name": "id",
          "type": "uint256"
        },
        {
          "internalType": "uint256",
          "name": "bounty",
          "type": "uint256"
        }
      ],
      "name": "setPendingWithdrawalBounty",
      "outputs": [],
      "stateMutability": "nonpayable",
      "type": "function"
    },
    {
      "inputs": [
        {
          "internalType": "address",
          "name": "token",
          "type": "address"
        }
      ],
      "name": "withdrawalLimits",
      "outputs": [
        {
          "components": [
            {
              "internalType": "uint256",
              "name": "undeclared",
              "type": "uint256"
            },
            {
              "internalType": "uint256",
              "name": "daily",
              "type": "uint256"
            },
            {
              "internalType": "bool",
              "name": "enabled",
              "type": "bool"
            }
          ],
          "internalType": "struct IMultiVaultFacetPendingWithdrawals.WithdrawalLimits",
          "name": "",
          "type": "tuple"
        }
      ],
      "stateMutability": "view",
      "type": "function"
    },
    {
      "inputs": [
        {
          "internalType": "address",
          "name": "token",
          "type": "address"
        },
        {
          "internalType": "uint256",
          "name": "withdrawalPeriodId",
          "type": "uint256"
        }
      ],
      "name": "withdrawalPeriods",
      "outputs": [
        {
          "components": [
            {
              "internalType": "uint256",
              "name": "total",
              "type": "uint256"
            },
            {
              "internalType": "uint256",
              "name": "considered",
              "type": "uint256"
            }
          ],
          "internalType": "struct IMultiVaultFacetPendingWithdrawals.WithdrawalPeriodParams",
          "name": "",
          "type": "tuple"
        }
      ],
      "stateMutability": "view",
      "type": "function"
    }
  ],
  "bytecode": "0x608060405234801561001057600080fd5b5061191b806100206000396000f3fe6080604052600436106100915760003560e01c8063bae47ae511610059578063bae47ae51461015b578063bb3a9f051461016e578063d48c7fbe1461019b578063e0959a59146101bb578063e1aebe77146101e857610091565b80631566e2af14610096578063207e80cd146100cc5780632d4bb521146100ee57806344dc49701461010e57806361a4021f1461013b575b600080fd5b3480156100a257600080fd5b506100b66100b13660046111b1565b610208565b6040516100c391906116fd565b60405180910390f35b3480156100d857600080fd5b506100ec6100e73660046113c5565b610238565b005b3480156100fa57600080fd5b506100ec610109366004611227565b6102c5565b34801561011a57600080fd5b5061012e6101293660046111cb565b61034e565b6040516100c3919061167a565b34801561014757600080fd5b506100ec61015636600461137a565b610415565b6100ec6101693660046113e6565b610635565b34801561017a57600080fd5b5061018e6101893660046111cb565b61074b565b6040516100c391906116e6565b3480156101a757600080fd5b506100b66101b63660046111b1565b6107a1565b3480156101c757600080fd5b506101db6101d63660046111b1565b6107d0565b6040516100c391906116c3565b3480156101f457600080fd5b506100ec6102033660046111f4565b610831565b60008061021361091d565b6001600160a01b0384166000908152601690910160205260409020549150505b919050565b600061024261091d565b905060006102503385610922565b9050806020015183111561026357600080fd5b336000818152601584016020908152604080832088845290915290819020600201859055517fbb627279073d07a96af217b9094121c421f7f2be0b1b476fe93db950ed55ba52916102b7918790879061157f565b60405180910390a150505050565b80518251146102d357600080fd5b60005b82518110156103495761033783828151811061030257634e487b7160e01b600052603260045260246000fd5b602002602001015183838151811061032a57634e487b7160e01b600052603260045260246000fd5b6020026020010151610415565b806103418161189e565b9150506102d6565b505050565b610356610fdf565b600061036061091d565b6001600160a01b0380861660009081526015830160209081526040808320888452825291829020825160a081018452815490941684526001810154918401919091526002810154918301919091526003808201546060840152600482015493945091929091608084019160ff16908111156103eb57634e487b7160e01b600052602160045260246000fd5b600381111561040a57634e487b7160e01b600052602160045260246000fd5b905250949350505050565b600061041f61091d565b600e8101549091506001600160a01b0316331480610449575060198101546001600160a01b031633145b61045257600080fd5b82600061045e82610957565b9050600081602001511161047157600080fd5b600061047b61091d565b9050600061048887610957565b90506001816080015160038111156104b057634e487b7160e01b600052602160045260246000fd5b146104ba57600080fd5b60028660038111156104dc57634e487b7160e01b600052602160045260246000fd5b14806105075750600386600381111561050557634e487b7160e01b600052602160045260246000fd5b145b61051057600080fd5b61051a8787610a22565b600286600381111561053c57634e487b7160e01b600052602160045260246000fd5b1480156105575750805161054f90610ad0565b816020015111155b156105d55761056f8160000151888360200151610b55565b86516020820151825161058d926001600160a01b0390911691610bda565b7f3ef6584c80879712c52cf83efe46fb39f52beb35aefa84d5a79aea88742a92548760000151886020015183602001516040516105cc9392919061157f565b60405180910390a15b60006105e48260600151610c30565b60208084015184516001600160a01b0316600090815260188701835260408082208583529093529182206001018054939450909290919061062690849061181f565b90915550505050505050505050565b600061063f61091d565b600681015490915060ff161561065457600080fd5b60006106603389610922565b9050600061066c61091d565b9050600088118015610682575081602001518811155b61068b57600080fd5b33600090815260158201602090815260408083208c8452909152812060010180548a92906106ba908490611857565b90915550506040805160a08101825288815283516001600160a01b0316602082015290810189905260608101879052608081018690526106fa8134610c3f565b7f31c40a7a2ef13d939ea5d0263021249143e2fcef429a2b981ccc1370f03ec0fb338b8b60405161072d9392919061157f565b60405180910390a161073f8a86610238565b50505050505050505050565b610753611035565b600061075d61091d565b6001600160a01b0385166000908152601890910160209081526040808320868452825291829020825180840190935280548352600101549082015291505092915050565b6000806107ac61091d565b6001600160a01b038416600090815260149091016020526040902054915050919050565b6107d861104f565b60006107e261091d565b6001600160a01b0384166000908152601790910160209081526040918290208251606081018452815481526001820154928101929092526002015460ff16151591810191909152915050919050565b600061083b61091d565b905060005b825181101561034957600083828151811061086b57634e487b7160e01b600052603260045260246000fd5b60200260200101519050600061088082610957565b82516001600160a01b0390811660009081526015870160209081526040808320828801518452825282206001019190915584519083015183519394506108c99390921691610bda565b815160208301516040517f7e2f6ca77ea18ddd627ba7cb3f808427d009cb838b2ccc1749ade8245d9b69e892610900929091611542565b60405180910390a1505080806109159061189e565b915050610840565b600290565b61092a610fdf565b6109506040518060400160405280856001600160a01b0316815260200184815250610957565b9392505050565b61095f610fdf565b600061096961091d565b83516001600160a01b0390811660009081526015830160209081526040808320828901518452825291829020825160a081018452815490941684526001810154918401919091526002810154918301919091526003808201546060840152600482015493945091929091608084019160ff16908111156109f957634e487b7160e01b600052602160045260246000fd5b6003811115610a1857634e487b7160e01b600052602160045260246000fd5b9052509392505050565b6000610a2c61091d565b83516001600160a01b03166000908152601582016020908152604080832082880151845290915290206004018054919250839160ff19166001836003811115610a8557634e487b7160e01b600052602160045260246000fd5b0217905550825160208401516040517f7ed894a371451167c714ecffd40c5a3faf1e0ec592087257a0ea2cce2af6641992610ac3929091869061155b565b60405180910390a1505050565b6040516370a0823160e01b81526000906001600160a01b038316906370a0823190610aff90309060040161152e565b60206040518083038186803b158015610b1757600080fd5b505afa158015610b2b573d6000803e3d6000fd5b505050506040513d601f19601f82011682018060405250810190610b4f91906113ad565b92915050565b6000610b5f61091d565b83516001600160a01b031660009081526015820160209081526040808320828801518452909152812060010180549293508492909190610ba0908490611857565b90915550506001600160a01b038416600090815260168201602052604081208054849290610bcf908490611857565b909155505050505050565b6103498363a9059cbb60e01b8484604051602401610bf9929190611542565b60408051601f198184030181529190526020810180516001600160e01b03166001600160e01b031990931692909217909152610e06565b6000610b4f6201518083611837565b7f4a75ed314c66620928056921a6aaaba7ff617e5900f664492cdd34a1e37e0c0846836020015184602001516001600160a01b03166306fdde036040518163ffffffff1660e01b815260040160006040518083038186803b158015610ca357600080fd5b505afa158015610cb7573d6000803e3d6000fd5b505050506040513d6000823e601f3d908101601f19168201604052610cdf9190810190611307565b85602001516001600160a01b03166395d89b416040518163ffffffff1660e01b815260040160006040518083038186803b158015610d1c57600080fd5b505afa158015610d30573d6000803e3d6000fd5b505050506040513d6000823e601f3d908101601f19168201604052610d589190810190611307565b86602001516001600160a01b031663313ce5676040518163ffffffff1660e01b815260040160206040518083038186803b158015610d9557600080fd5b505afa158015610da9573d6000803e3d6000fd5b505050506040513d601f19601f82011682018060405250810190610dcd91906114a3565b6040808901518951805160209091015160608c015160808d01519451610dfa9a99989796958d9291611706565b60405180910390a15050565b6000610e5b826040518060400160405280602081526020017f5361666545524332303a206c6f772d6c6576656c2063616c6c206661696c6564815250856001600160a01b0316610e9e9092919063ffffffff16565b8051909150156103495780806020019051810190610e7991906112e7565b6103495760405162461bcd60e51b8152600401610e9590611630565b60405180910390fd5b6060610ead8484600085610eb5565b949350505050565b606082471015610ed75760405162461bcd60e51b8152600401610e95906115b3565b610ee085610f75565b610efc5760405162461bcd60e51b8152600401610e95906115f9565b600080866001600160a01b03168587604051610f189190611512565b60006040518083038185875af1925050503d8060008114610f55576040519150601f19603f3d011682016040523d82523d6000602084013e610f5a565b606091505b5091509150610f6a828286610fa6565b979650505050505050565b600080826001600160a01b0316803b806020016040519081016040528181526000908060200190933c511192915050565b60608315610fb5575081610950565b825115610fc55782518084602001fd5b8160405162461bcd60e51b8152600401610e9591906115a0565b6040518060a0016040528060006001600160a01b031681526020016000815260200160008152602001600081526020016000600381111561103057634e487b7160e01b600052602160045260246000fd5b905290565b604051806040016040528060008152602001600081525090565b604051806060016040528060008152602001600081526020016000151581525090565b80356001600160a01b038116811461023357600080fd5b600082601f830112611099578081fd5b813560206110ae6110a9836117d3565b6117a9565b828152818101908583016040808602880185018910156110cc578687fd5b865b868110156110f2576110e08a8461115b565b855293850193918101916001016110ce565b509198975050505050505050565b600082601f830112611110578081fd5b813561111e6110a9826117f7565b818152846020838601011115611132578283fd5b816020850160208301379081016020019190915292915050565b80356004811061023357600080fd5b60006040828403121561116c578081fd5b6040516040810181811067ffffffffffffffff8211171561118f5761118f6118cf565b60405290508061119e83611072565b8152602083013560208201525092915050565b6000602082840312156111c2578081fd5b61095082611072565b600080604083850312156111dd578081fd5b6111e683611072565b946020939093013593505050565b600060208284031215611205578081fd5b813567ffffffffffffffff81111561121b578182fd5b610ead84828501611089565b60008060408385031215611239578182fd5b823567ffffffffffffffff80821115611250578384fd5b61125c86838701611089565b9350602091508185013581811115611272578384fd5b85019050601f81018613611284578283fd5b80356112926110a9826117d3565b81815283810190838501858402850186018a10156112ae578687fd5b8694505b838510156112d7576112c38161114c565b8352600194909401939185019185016112b2565b5080955050505050509250929050565b6000602082840312156112f8578081fd5b81518015158114610950578182fd5b600060208284031215611318578081fd5b815167ffffffffffffffff81111561132e578182fd5b8201601f8101841361133e578182fd5b805161134c6110a9826117f7565b818152856020838501011115611360578384fd5b61137182602083016020860161186e565b95945050505050565b6000806060838503121561138c578182fd5b611396848461115b565b91506113a46040840161114c565b90509250929050565b6000602082840312156113be578081fd5b5051919050565b600080604083850312156113d7578182fd5b50508035926020909101359150565b60008060008060008086880360e08112156113ff578283fd5b87359650602088013595506040603f198201121561141b578283fd5b506040516040810167ffffffffffffffff8282108183111715611440576114406118cf565b8160405260408a0135915081850b8214611458578485fd5b81835260608a013560208401529195506080890135945060a08901359180831115611481578485fd5b505061148f89828a01611100565b92505060c087013590509295509295509295565b6000602082840312156114b4578081fd5b815160ff81168114610950578182fd5b600081518084526114dc81602086016020860161186e565b601f01601f19169290920160200192915050565b6004811061150e57634e487b7160e01b600052602160045260246000fd5b9052565b6000825161152481846020870161186e565b9190910192915050565b6001600160a01b0391909116815260200190565b6001600160a01b03929092168252602082015260400190565b6001600160a01b03841681526020810183905260608101610ead60408301846114f0565b6001600160a01b039390931683526020830191909152604082015260600190565b60006020825261095060208301846114c4565b60208082526026908201527f416464726573733a20696e73756666696369656e742062616c616e636520666f6040820152651c8818d85b1b60d21b606082015260800190565b6020808252601d908201527f416464726573733a2063616c6c20746f206e6f6e2d636f6e7472616374000000604082015260600190565b6020808252602a908201527f5361666545524332303a204552433230206f7065726174696f6e20646964206e6040820152691bdd081cdd58d8d9595960b21b606082015260800190565b81516001600160a01b0316815260208083015190820152604080830151908201526060808301519082015260808083015160a08301916116bc908401826114f0565b5092915050565b815181526020808301519082015260409182015115159181019190915260600190565b815181526020918201519181019190915260400190565b90815260200190565b8b81526001600160a01b038b166020820152610160604082018190526000906117318382018d6114c4565b90508281036060840152611745818c6114c4565b905060ff8a1660808401526fffffffffffffffffffffffffffffffff891660a084015287820b60c08401528660e0840152856101008401528461012084015282810361014084015261179781856114c4565b9e9d5050505050505050505050505050565b60405181810167ffffffffffffffff811182821017156117cb576117cb6118cf565b604052919050565b600067ffffffffffffffff8211156117ed576117ed6118cf565b5060209081020190565b600067ffffffffffffffff821115611811576118116118cf565b50601f01601f191660200190565b60008219821115611832576118326118b9565b500190565b60008261185257634e487b7160e01b81526012600452602481fd5b500490565b600082821015611869576118696118b9565b500390565b60005b83811015611889578181015183820152602001611871565b83811115611898576000848401525b50505050565b60006000198214156118b2576118b26118b9565b5060010190565b634e487b7160e01b600052601160045260246000fd5b634e487b7160e01b600052604160045260246000fdfea26469706673582212208ece70001d4ebd2a68db43975b772cbb08a03f96a489c202da264a665dfb9dcd64736f6c63430008000033",
  "linkReferences": {},
  "deployedLinkReferences": {}
}