{
  "_format": "hh-sol-artifact-1",
  "contractName": "ChainId",
  "sourceName": "contracts/multivault/utils/ChainId.sol",
  "abi": [
    {
      "inputs": [],
      "name": "getChainID",
      "outputs": [
        {
          "internalType": "uint256",
          "name": "",
          "type": "uint256"
        }
      ],
      "stateMutability": "view",
      "type": "function"
    }
  ],
  "bytecode": "0x6080604052348015600f57600080fd5b50608a8061001e6000396000f3fe6080604052348015600f57600080fd5b506004361060285760003560e01c8063564b81ef14602d575b600080fd5b60336047565b604051603e9190604b565b60405180910390f35b4690565b9081526020019056fea264697066735822122004adcb3b04ac58e1e2a69677b9dae6cda89f4c98f53112ff3dc83a1ef60adfe264736f6c63430008000033",
  "linkReferences": {},
  "deployedLinkReferences": {}
}