{
  "_format": "hh-sol-artifact-1",
  "contractName": "MultiVaultFacetFees",
  "sourceName": "contracts/multivault/multivault/facets/MultiVaultFacetFees.sol",
  "abi": [
    {
      "anonymous": false,
      "inputs": [
        {
          "indexed": false,
          "internalType": "uint256",
          "name": "base_chainId",
          "type": "uint256"
        },
        {
          "indexed": false,
          "internalType": "uint160",
          "name": "base_token",
          "type": "uint160"
        },
        {
          "indexed": false,
          "internalType": "string",
          "name": "name",
          "type": "string"
        },
        {
          "indexed": false,
          "internalType": "string",
          "name": "symbol",
          "type": "string"
        },
        {
          "indexed": false,
          "internalType": "uint8",
          "name": "decimals",
          "type": "uint8"
        },
        {
          "indexed": false,
          "internalType": "uint128",
          "name": "amount",
          "type": "uint128"
        },
        {
          "indexed": false,
          "internalType": "int8",
          "name": "recipient_wid",
          "type": "int8"
        },
        {
          "indexed": false,
          "internalType": "uint256",
          "name": "recipient_addr",
          "type": "uint256"
        },
        {
          "indexed": false,
          "internalType": "uint256",
          "name": "value",
          "type": "uint256"
        },
        {
          "indexed": false,
          "internalType": "uint256",
          "name": "expected_evers",
          "type": "uint256"
        },
        {
          "indexed": false,
          "internalType": "bytes",
          "name": "payload",
          "type": "bytes"
        }
      ],
      "name": "AlienTransfer",
      "type": "event"
    },
    {
      "anonymous": false,
      "inputs": [
        {
          "indexed": false,
          "internalType": "address",
          "name": "sender",
          "type": "address"
        },
        {
          "indexed": false,
          "internalType": "address",
          "name": "token",
          "type": "address"
        },
        {
          "indexed": false,
          "internalType": "int8",
          "name": "recipient_wid",
          "type": "int8"
        },
        {
          "indexed": false,
          "internalType": "uint256",
          "name": "recipient_addr",
          "type": "uint256"
        },
        {
          "indexed": false,
          "internalType": "uint256",
          "name": "amount",
          "type": "uint256"
        }
      ],
      "name": "Deposit",
      "type": "event"
    },
    {
      "anonymous": false,
      "inputs": [
        {
          "indexed": false,
          "internalType": "address",
          "name": "token",
          "type": "address"
        },
        {
          "indexed": false,
          "internalType": "uint256",
          "name": "amount",
          "type": "uint256"
        }
      ],
      "name": "EarnTokenCash",
      "type": "event"
    },
    {
      "anonymous": false,
      "inputs": [
        {
          "indexed": false,
          "internalType": "address",
          "name": "token",
          "type": "address"
        },
        {
          "indexed": false,
          "internalType": "uint256",
          "name": "amount",
          "type": "uint256"
        }
      ],
      "name": "EarnTokenFee",
      "type": "event"
    },
    {
      "anonymous": false,
      "inputs": [
        {
          "indexed": false,
          "internalType": "address",
          "name": "sender",
          "type": "address"
        },
        {
          "indexed": false,
          "internalType": "address",
          "name": "token",
          "type": "address"
        },
        {
          "indexed": false,
          "internalType": "uint256",
          "name": "amount",
          "type": "uint256"
        },
        {
          "indexed": false,
          "internalType": "uint256",
          "name": "lp_amount",
          "type": "uint256"
        }
      ],
      "name": "MintLiquidity",
      "type": "event"
    },
    {
      "anonymous": false,
      "inputs": [
        {
          "indexed": false,
          "internalType": "int8",
          "name": "native_wid",
          "type": "int8"
        },
        {
          "indexed": false,
          "internalType": "uint256",
          "name": "native_addr",
          "type": "uint256"
        },
        {
          "indexed": false,
          "internalType": "uint128",
          "name": "amount",
          "type": "uint128"
        },
        {
          "indexed": false,
          "internalType": "int8",
          "name": "recipient_wid",
          "type": "int8"
        },
        {
          "indexed": false,
          "internalType": "uint256",
          "name": "recipient_addr",
          "type": "uint256"
        },
        {
          "indexed": false,
          "internalType": "uint256",
          "name": "value",
          "type": "uint256"
        },
        {
          "indexed": false,
          "internalType": "uint256",
          "name": "expected_evers",
          "type": "uint256"
        },
        {
          "indexed": false,
          "internalType": "bytes",
          "name": "payload",
          "type": "bytes"
        }
      ],
      "name": "NativeTransfer",
      "type": "event"
    },
    {
      "anonymous": false,
      "inputs": [
        {
          "indexed": false,
          "internalType": "address",
          "name": "sender",
          "type": "address"
        },
        {
          "indexed": false,
          "internalType": "address",
          "name": "token",
          "type": "address"
        },
        {
          "indexed": false,
          "internalType": "uint256",
          "name": "amount",
          "type": "uint256"
        },
        {
          "indexed": false,
          "internalType": "uint256",
          "name": "underlying_amount",
          "type": "uint256"
        }
      ],
      "name": "RedeemLiquidity",
      "type": "event"
    },
    {
      "anonymous": false,
      "inputs": [
        {
          "indexed": false,
          "internalType": "address",
          "name": "token",
          "type": "address"
        },
        {
          "indexed": false,
          "internalType": "bool",
          "name": "skim_to_everscale",
          "type": "bool"
        },
        {
          "indexed": false,
          "internalType": "uint256",
          "name": "amount",
          "type": "uint256"
        }
      ],
      "name": "SkimFee",
      "type": "event"
    },
    {
      "anonymous": false,
      "inputs": [
        {
          "indexed": false,
          "internalType": "uint256",
          "name": "fee",
          "type": "uint256"
        }
      ],
      "name": "UpdateDefaultAlienDepositFee",
      "type": "event"
    },
    {
      "anonymous": false,
      "inputs": [
        {
          "indexed": false,
          "internalType": "uint256",
          "name": "fee",
          "type": "uint256"
        }
      ],
      "name": "UpdateDefaultAlienWithdrawFee",
      "type": "event"
    },
    {
      "anonymous": false,
      "inputs": [
        {
          "indexed": false,
          "internalType": "uint256",
          "name": "inetrest",
          "type": "uint256"
        }
      ],
      "name": "UpdateDefaultLiquidityInterest",
      "type": "event"
    },
    {
      "anonymous": false,
      "inputs": [
        {
          "indexed": false,
          "internalType": "uint256",
          "name": "fee",
          "type": "uint256"
        }
      ],
      "name": "UpdateDefaultNativeDepositFee",
      "type": "event"
    },
    {
      "anonymous": false,
      "inputs": [
        {
          "indexed": false,
          "internalType": "uint256",
          "name": "fee",
          "type": "uint256"
        }
      ],
      "name": "UpdateDefaultNativeWithdrawFee",
      "type": "event"
    },
    {
      "anonymous": false,
      "inputs": [
        {
          "indexed": false,
          "internalType": "address",
          "name": "token",
          "type": "address"
        },
        {
          "indexed": false,
          "internalType": "uint256",
          "name": "fee",
          "type": "uint256"
        }
      ],
      "name": "UpdateTokenDepositFee",
      "type": "event"
    },
    {
      "anonymous": false,
      "inputs": [
        {
          "indexed": false,
          "internalType": "address",
          "name": "token",
          "type": "address"
        },
        {
          "indexed": false,
          "internalType": "uint256",
          "name": "interest",
          "type": "uint256"
        }
      ],
      "name": "UpdateTokenLiquidityInterest",
      "type": "event"
    },
    {
      "anonymous": false,
      "inputs": [
        {
          "indexed": false,
          "internalType": "address",
          "name": "token",
          "type": "address"
        },
        {
          "indexed": false,
          "internalType": "uint256",
          "name": "fee",
          "type": "uint256"
        }
      ],
      "name": "UpdateTokenWithdrawFee",
      "type": "event"
    },
    {
      "inputs": [],
      "name": "defaultAlienDepositFee",
      "outputs": [
        {
          "internalType": "uint256",
          "name": "",
          "type": "uint256"
        }
      ],
      "stateMutability": "view",
      "type": "function"
    },
    {
      "inputs": [],
      "name": "defaultAlienWithdrawFee",
      "outputs": [
        {
          "internalType": "uint256",
          "name": "",
          "type": "uint256"
        }
      ],
      "stateMutability": "view",
      "type": "function"
    },
    {
      "inputs": [],
      "name": "defaultNativeDepositFee",
      "outputs": [
        {
          "internalType": "uint256",
          "name": "",
          "type": "uint256"
        }
      ],
      "stateMutability": "view",
      "type": "function"
    },
    {
      "inputs": [],
      "name": "defaultNativeWithdrawFee",
      "outputs": [
        {
          "internalType": "uint256",
          "name": "",
          "type": "uint256"
        }
      ],
      "stateMutability": "view",
      "type": "function"
    },
    {
      "inputs": [
        {
          "internalType": "address",
          "name": "_token",
          "type": "address"
        }
      ],
      "name": "fees",
      "outputs": [
        {
          "internalType": "uint256",
          "name": "",
          "type": "uint256"
        }
      ],
      "stateMutability": "view",
      "type": "function"
    },
    {
      "inputs": [
        {
          "internalType": "uint256",
          "name": "fee",
          "type": "uint256"
        }
      ],
      "name": "setDefaultAlienDepositFee",
      "outputs": [],
      "stateMutability": "nonpayable",
      "type": "function"
    },
    {
      "inputs": [
        {
          "internalType": "uint256",
          "name": "fee",
          "type": "uint256"
        }
      ],
      "name": "setDefaultAlienWithdrawFee",
      "outputs": [],
      "stateMutability": "nonpayable",
      "type": "function"
    },
    {
      "inputs": [
        {
          "internalType": "uint256",
          "name": "fee",
          "type": "uint256"
        }
      ],
      "name": "setDefaultNativeDepositFee",
      "outputs": [],
      "stateMutability": "nonpayable",
      "type": "function"
    },
    {
      "inputs": [
        {
          "internalType": "uint256",
          "name": "fee",
          "type": "uint256"
        }
      ],
      "name": "setDefaultNativeWithdrawFee",
      "outputs": [],
      "stateMutability": "nonpayable",
      "type": "function"
    },
    {
      "inputs": [
        {
          "internalType": "address",
          "name": "token",
          "type": "address"
        },
        {
          "internalType": "uint256",
          "name": "_depositFee",
          "type": "uint256"
        }
      ],
      "name": "setTokenDepositFee",
      "outputs": [],
      "stateMutability": "nonpayable",
      "type": "function"
    },
    {
      "inputs": [
        {
          "internalType": "address",
          "name": "token",
          "type": "address"
        },
        {
          "internalType": "uint256",
          "name": "_withdrawFee",
          "type": "uint256"
        }
      ],
      "name": "setTokenWithdrawFee",
      "outputs": [],
      "stateMutability": "nonpayable",
      "type": "function"
    },
    {
      "inputs": [
        {
          "internalType": "address",
          "name": "token",
          "type": "address"
        }
      ],
      "name": "skim",
      "outputs": [],
      "stateMutability": "payable",
      "type": "function"
    }
  ],
  "bytecode": "0x608060405234801561001057600080fd5b50610d2c806100206000396000f3fe6080604052600436106100a75760003560e01c8063937591be11610064578063937591be1461016e578063b00b507b14610183578063b05629b2146101a3578063bc25cf77146101c3578063f03430a2146101d6578063faaebd21146101eb576100a7565b80630b1e41f3146100ac57806315e38cba146100ce5780636132046f146100ee5780636754f1c3146101195780636cf844a91461012e57806370ce6a9f1461014e575b600080fd5b3480156100b857600080fd5b506100cc6100c7366004610afe565b61020b565b005b3480156100da57600080fd5b506100cc6100e9366004610afe565b6102b4565b3480156100fa57600080fd5b5061010361034f565b6040516101109190610c9d565b60405180910390f35b34801561012557600080fd5b50610103610364565b34801561013a57600080fd5b506100cc610149366004610afe565b610379565b34801561015a57600080fd5b506100cc610169366004610afe565b610414565b34801561017a57600080fd5b506101036104af565b34801561018f57600080fd5b506100cc61019e366004610ab5565b6104c4565b3480156101af57600080fd5b506100cc6101be366004610ab5565b610587565b6100cc6101d1366004610a9b565b61063b565b3480156101e257600080fd5b506101036107b9565b3480156101f757600080fd5b50610103610206366004610a9b565b6107ce565b60006102156107fe565b600e8101549091506001600160a01b031633148061023f575060118101546001600160a01b031633145b61024857600080fd5b816102566002612710610ca6565b81111561026257600080fd5b600061026c6107fe565b90508381600501819055507fcec9b3468756e2d441f305b2cfe915b0bb518c706624eae356d1e34b1fc56a4c846040516102a69190610c9d565b60405180910390a150505050565b60006102be6107fe565b600e8101549091506001600160a01b03163314806102e8575060118101546001600160a01b031633145b6102f157600080fd5b816102ff6002612710610ca6565b81111561030b57600080fd5b60006103156107fe565b90508381600301819055507fb157aa7359c629b106f1dcb37499eb973465da2a430767daf1786a847a4d594d846040516102a69190610c9d565b60008061035a6107fe565b6003015491505090565b60008061036f6107fe565b6005015491505090565b60006103836107fe565b600e8101549091506001600160a01b03163314806103ad575060118101546001600160a01b031633145b6103b657600080fd5b816103c46002612710610ca6565b8111156103d057600080fd5b60006103da6107fe565b90508381600201819055507f741c3eeb1fda0d7ffc08dd3cabd7f9d83160795197c1ffd4b7237ee484dce91a846040516102a69190610c9d565b600061041e6107fe565b600e8101549091506001600160a01b0316331480610448575060118101546001600160a01b031633145b61045157600080fd5b8161045f6002612710610ca6565b81111561046b57600080fd5b60006104756107fe565b90508381600401819055507fc78ca6d4c59de2360b05fc34c4e90973a12a51c8f48db1aab4aee9c77a6be761846040516102a69190610c9d565b6000806104ba6107fe565b6002015491505090565b60006104ce6107fe565b600e8101549091506001600160a01b03163314806104f8575060118101546001600160a01b031633145b61050157600080fd5b8161050f6002612710610ca6565b81111561051b57600080fd5b60006105256107fe565b6001600160a01b03861660009081526020829052604090819020600301869055519091507fc59b292d37e591cd5abc7dd995386491a791f928d0e695c65326ab0925e2aa4b906105789087908790610b53565b60405180910390a15050505050565b60006105916107fe565b600e8101549091506001600160a01b03163314806105bb575060118101546001600160a01b031633145b6105c457600080fd5b816105d26002612710610ca6565b8111156105de57600080fd5b60006105e86107fe565b6001600160a01b03861660009081526020829052604090819020600201869055519091507fa91b1d487aa1a61fc5fb3790d9c347c7611fae51926289d903a699bdd7f9902e906105789087908790610b53565b610643610803565b600061064d6107fe565b600e8101549091506001600160a01b0316331480610677575060118101546001600160a01b031633145b61068057600080fd5b600061068a6107fe565b6001600160a01b0384166000908152601382016020526040902054909150806106b257600080fd5b6001600160a01b038416600090815260138301602090815260408083208390559084905290206004015460ff16801561075257600e8301546040516340c10f1960e01b81526001600160a01b03878116926340c10f199261071b92909116908690600401610b53565b600060405180830381600087803b15801561073557600080fd5b505af1158015610749573d6000803e3d6000fd5b5050505061076e565b600e83015461076e906001600160a01b03878116911684610841565b7fab2dd91d5f61e8a4a1809f31218af1940dd7034e2281ab51ce46ad3e868cfcc1856000846040516107a293929190610b32565b60405180910390a1505050506107b661089c565b50565b6000806107c46107fe565b6004015491505090565b6000806107d96107fe565b6001600160a01b0384166000908152601390910160205260409020549150505b919050565b600290565b600061080d6108ad565b80549091506002141561083b5760405162461bcd60e51b815260040161083290610c66565b60405180910390fd5b60029055565b6108978363a9059cbb60e01b8484604051602401610860929190610b53565b60408051601f198184030181529190526020810180516001600160e01b03166001600160e01b0319909316929092179091526108b2565b505050565b60006108a66108ad565b6001905550565b600190565b6000610907826040518060400160405280602081526020017f5361666545524332303a206c6f772d6c6576656c2063616c6c206661696c6564815250856001600160a01b03166109419092919063ffffffff16565b80519091501561089757808060200190518101906109259190610ade565b6108975760405162461bcd60e51b815260040161083290610c1c565b6060610950848460008561095a565b90505b9392505050565b60608247101561097c5760405162461bcd60e51b815260040161083290610b9f565b61098585610a1a565b6109a15760405162461bcd60e51b815260040161083290610be5565b600080866001600160a01b031685876040516109bd9190610b16565b60006040518083038185875af1925050503d80600081146109fa576040519150601f19603f3d011682016040523d82523d6000602084013e6109ff565b606091505b5091509150610a0f828286610a4b565b979650505050505050565b600080826001600160a01b0316803b806020016040519081016040528181526000908060200190933c511192915050565b60608315610a5a575081610953565b825115610a6a5782518084602001fd5b8160405162461bcd60e51b81526004016108329190610b6c565b80356001600160a01b03811681146107f957600080fd5b600060208284031215610aac578081fd5b61095382610a84565b60008060408385031215610ac7578081fd5b610ad083610a84565b946020939093013593505050565b600060208284031215610aef578081fd5b81518015158114610953578182fd5b600060208284031215610b0f578081fd5b5035919050565b60008251610b28818460208701610cc6565b9190910192915050565b6001600160a01b039390931683529015156020830152604082015260600190565b6001600160a01b03929092168252602082015260400190565b6000602082528251806020840152610b8b816040850160208701610cc6565b601f01601f19169190910160400192915050565b60208082526026908201527f416464726573733a20696e73756666696369656e742062616c616e636520666f6040820152651c8818d85b1b60d21b606082015260800190565b6020808252601d908201527f416464726573733a2063616c6c20746f206e6f6e2d636f6e7472616374000000604082015260600190565b6020808252602a908201527f5361666545524332303a204552433230206f7065726174696f6e20646964206e6040820152691bdd081cdd58d8d9595960b21b606082015260800190565b6020808252601f908201527f5265656e7472616e637947756172643a207265656e7472616e742063616c6c00604082015260600190565b90815260200190565b600082610cc157634e487b7160e01b81526012600452602481fd5b500490565b60005b83811015610ce1578181015183820152602001610cc9565b83811115610cf0576000848401525b5050505056fea2646970667358221220b21ba3ffb6bb1e98aa8088e538b68f30fb6f880988b0e5cc9b1d47f46cf4809064736f6c63430008000033",
  "linkReferences": {},
  "deployedLinkReferences": {}
}