{
  "_format": "hh-sol-artifact-1",
  "contractName": "MultiVaultFacetWithdraw",
  "sourceName": "contracts/multivault/multivault/facets/MultiVaultFacetWithdraw.sol",
  "abi": [
    {
      "anonymous": false,
      "inputs": [
        {
          "indexed": false,
          "internalType": "address",
          "name": "token",
          "type": "address"
        }
      ],
      "name": "BlacklistTokenAdded",
      "type": "event"
    },
    {
      "anonymous": false,
      "inputs": [
        {
          "indexed": false,
          "internalType": "address",
          "name": "token",
          "type": "address"
        }
      ],
      "name": "BlacklistTokenRemoved",
      "type": "event"
    },
    {
      "anonymous": false,
      "inputs": [
        {
          "indexed": false,
          "internalType": "address",
          "name": "token",
          "type": "address"
        },
        {
          "indexed": false,
          "internalType": "uint256",
          "name": "amount",
          "type": "uint256"
        }
      ],
      "name": "EarnTokenCash",
      "type": "event"
    },
    {
      "anonymous": false,
      "inputs": [
        {
          "indexed": false,
          "internalType": "address",
          "name": "token",
          "type": "address"
        },
        {
          "indexed": false,
          "internalType": "uint256",
          "name": "amount",
          "type": "uint256"
        }
      ],
      "name": "EarnTokenFee",
      "type": "event"
    },
    {
      "anonymous": false,
      "inputs": [
        {
          "indexed": false,
          "internalType": "address",
          "name": "sender",
          "type": "address"
        },
        {
          "indexed": false,
          "internalType": "address",
          "name": "token",
          "type": "address"
        },
        {
          "indexed": false,
          "internalType": "uint256",
          "name": "amount",
          "type": "uint256"
        },
        {
          "indexed": false,
          "internalType": "uint256",
          "name": "lp_amount",
          "type": "uint256"
        }
      ],
      "name": "MintLiquidity",
      "type": "event"
    },
    {
      "anonymous": false,
      "inputs": [
        {
          "indexed": false,
          "internalType": "address",
          "name": "recipient",
          "type": "address"
        },
        {
          "indexed": false,
          "internalType": "uint256",
          "name": "id",
          "type": "uint256"
        },
        {
          "indexed": false,
          "internalType": "uint256",
          "name": "amount",
          "type": "uint256"
        }
      ],
      "name": "PendingWithdrawalCancel",
      "type": "event"
    },
    {
      "anonymous": false,
      "inputs": [
        {
          "indexed": false,
          "internalType": "address",
          "name": "recipient",
          "type": "address"
        },
        {
          "indexed": false,
          "internalType": "uint256",
          "name": "id",
          "type": "uint256"
        },
        {
          "indexed": false,
          "internalType": "address",
          "name": "token",
          "type": "address"
        },
        {
          "indexed": false,
          "internalType": "uint256",
          "name": "amount",
          "type": "uint256"
        },
        {
          "indexed": false,
          "internalType": "bytes32",
          "name": "payloadId",
          "type": "bytes32"
        }
      ],
      "name": "PendingWithdrawalCreated",
      "type": "event"
    },
    {
      "anonymous": false,
      "inputs": [
        {
          "indexed": false,
          "internalType": "address",
          "name": "recipient",
          "type": "address"
        },
        {
          "indexed": false,
          "internalType": "uint256",
          "name": "id",
          "type": "uint256"
        }
      ],
      "name": "PendingWithdrawalFill",
      "type": "event"
    },
    {
      "anonymous": false,
      "inputs": [
        {
          "indexed": false,
          "internalType": "address",
          "name": "recipient",
          "type": "address"
        },
        {
          "indexed": false,
          "internalType": "uint256",
          "name": "id",
          "type": "uint256"
        }
      ],
      "name": "PendingWithdrawalForce",
      "type": "event"
    },
    {
      "anonymous": false,
      "inputs": [
        {
          "indexed": false,
          "internalType": "address",
          "name": "recipient",
          "type": "address"
        },
        {
          "indexed": false,
          "internalType": "uint256",
          "name": "id",
          "type": "uint256"
        },
        {
          "indexed": false,
          "internalType": "enum IMultiVaultFacetPendingWithdrawals.ApproveStatus",
          "name": "approveStatus",
          "type": "uint8"
        }
      ],
      "name": "PendingWithdrawalUpdateApproveStatus",
      "type": "event"
    },
    {
      "anonymous": false,
      "inputs": [
        {
          "indexed": false,
          "internalType": "address",
          "name": "recipient",
          "type": "address"
        },
        {
          "indexed": false,
          "internalType": "uint256",
          "name": "id",
          "type": "uint256"
        },
        {
          "indexed": false,
          "internalType": "uint256",
          "name": "bounty",
          "type": "uint256"
        }
      ],
      "name": "PendingWithdrawalUpdateBounty",
      "type": "event"
    },
    {
      "anonymous": false,
      "inputs": [
        {
          "indexed": false,
          "internalType": "address",
          "name": "recipient",
          "type": "address"
        },
        {
          "indexed": false,
          "internalType": "uint256",
          "name": "id",
          "type": "uint256"
        },
        {
          "indexed": false,
          "internalType": "uint256",
          "name": "amount",
          "type": "uint256"
        }
      ],
      "name": "PendingWithdrawalWithdraw",
      "type": "event"
    },
    {
      "anonymous": false,
      "inputs": [
        {
          "indexed": false,
          "internalType": "address",
          "name": "sender",
          "type": "address"
        },
        {
          "indexed": false,
          "internalType": "address",
          "name": "token",
          "type": "address"
        },
        {
          "indexed": false,
          "internalType": "uint256",
          "name": "amount",
          "type": "uint256"
        },
        {
          "indexed": false,
          "internalType": "uint256",
          "name": "underlying_amount",
          "type": "uint256"
        }
      ],
      "name": "RedeemLiquidity",
      "type": "event"
    },
    {
      "anonymous": false,
      "inputs": [
        {
          "indexed": false,
          "internalType": "address",
          "name": "token",
          "type": "address"
        },
        {
          "indexed": false,
          "internalType": "bool",
          "name": "skim_to_everscale",
          "type": "bool"
        },
        {
          "indexed": false,
          "internalType": "uint256",
          "name": "amount",
          "type": "uint256"
        }
      ],
      "name": "SkimFee",
      "type": "event"
    },
    {
      "anonymous": false,
      "inputs": [
        {
          "indexed": false,
          "internalType": "address",
          "name": "token",
          "type": "address"
        },
        {
          "indexed": false,
          "internalType": "uint256",
          "name": "activation",
          "type": "uint256"
        },
        {
          "indexed": false,
          "internalType": "bool",
          "name": "isNative",
          "type": "bool"
        },
        {
          "indexed": false,
          "internalType": "uint256",
          "name": "depositFee",
          "type": "uint256"
        },
        {
          "indexed": false,
          "internalType": "uint256",
          "name": "withdrawFee",
          "type": "uint256"
        }
      ],
      "name": "TokenActivated",
      "type": "event"
    },
    {
      "anonymous": false,
      "inputs": [
        {
          "indexed": false,
          "internalType": "address",
          "name": "token",
          "type": "address"
        },
        {
          "indexed": false,
          "internalType": "int8",
          "name": "native_wid",
          "type": "int8"
        },
        {
          "indexed": false,
          "internalType": "uint256",
          "name": "native_addr",
          "type": "uint256"
        },
        {
          "indexed": false,
          "internalType": "string",
          "name": "name_prefix",
          "type": "string"
        },
        {
          "indexed": false,
          "internalType": "string",
          "name": "symbol_prefix",
          "type": "string"
        },
        {
          "indexed": false,
          "internalType": "string",
          "name": "name",
          "type": "string"
        },
        {
          "indexed": false,
          "internalType": "string",
          "name": "symbol",
          "type": "string"
        },
        {
          "indexed": false,
          "internalType": "uint8",
          "name": "decimals",
          "type": "uint8"
        }
      ],
      "name": "TokenCreated",
      "type": "event"
    },
    {
      "anonymous": false,
      "inputs": [
        {
          "indexed": false,
          "internalType": "uint256",
          "name": "fee",
          "type": "uint256"
        }
      ],
      "name": "UpdateDefaultAlienDepositFee",
      "type": "event"
    },
    {
      "anonymous": false,
      "inputs": [
        {
          "indexed": false,
          "internalType": "uint256",
          "name": "fee",
          "type": "uint256"
        }
      ],
      "name": "UpdateDefaultAlienWithdrawFee",
      "type": "event"
    },
    {
      "anonymous": false,
      "inputs": [
        {
          "indexed": false,
          "internalType": "uint256",
          "name": "inetrest",
          "type": "uint256"
        }
      ],
      "name": "UpdateDefaultLiquidityInterest",
      "type": "event"
    },
    {
      "anonymous": false,
      "inputs": [
        {
          "indexed": false,
          "internalType": "uint256",
          "name": "fee",
          "type": "uint256"
        }
      ],
      "name": "UpdateDefaultNativeDepositFee",
      "type": "event"
    },
    {
      "anonymous": false,
      "inputs": [
        {
          "indexed": false,
          "internalType": "uint256",
          "name": "fee",
          "type": "uint256"
        }
      ],
      "name": "UpdateDefaultNativeWithdrawFee",
      "type": "event"
    },
    {
      "anonymous": false,
      "inputs": [
        {
          "indexed": false,
          "internalType": "address",
          "name": "token",
          "type": "address"
        },
        {
          "indexed": false,
          "internalType": "uint256",
          "name": "fee",
          "type": "uint256"
        }
      ],
      "name": "UpdateTokenDepositFee",
      "type": "event"
    },
    {
      "anonymous": false,
      "inputs": [
        {
          "indexed": false,
          "internalType": "address",
          "name": "token",
          "type": "address"
        },
        {
          "indexed": false,
          "internalType": "uint256",
          "name": "interest",
          "type": "uint256"
        }
      ],
      "name": "UpdateTokenLiquidityInterest",
      "type": "event"
    },
    {
      "anonymous": false,
      "inputs": [
        {
          "indexed": false,
          "internalType": "address",
          "name": "token",
          "type": "address"
        },
        {
          "indexed": false,
          "internalType": "uint256",
          "name": "fee",
          "type": "uint256"
        }
      ],
      "name": "UpdateTokenWithdrawFee",
      "type": "event"
    },
    {
      "anonymous": false,
      "inputs": [
        {
          "indexed": false,
          "internalType": "enum IMultiVaultFacetTokens.TokenType",
          "name": "_type",
          "type": "uint8"
        },
        {
          "indexed": false,
          "internalType": "bytes32",
          "name": "payloadId",
          "type": "bytes32"
        },
        {
          "indexed": false,
          "internalType": "address",
          "name": "token",
          "type": "address"
        },
        {
          "indexed": false,
          "internalType": "address",
          "name": "recipient",
          "type": "address"
        },
        {
          "indexed": false,
          "internalType": "uint256",
          "name": "amount",
          "type": "uint256"
        },
        {
          "indexed": false,
          "internalType": "uint256",
          "name": "fee",
          "type": "uint256"
        }
      ],
      "name": "Withdraw",
      "type": "event"
    },
    {
      "inputs": [
        {
          "internalType": "bytes",
          "name": "payload",
          "type": "bytes"
        },
        {
          "internalType": "bytes[]",
          "name": "signatures",
          "type": "bytes[]"
        }
      ],
      "name": "saveWithdrawAlien",
      "outputs": [],
      "stateMutability": "nonpayable",
      "type": "function"
    },
    {
      "inputs": [
        {
          "internalType": "bytes",
          "name": "payload",
          "type": "bytes"
        },
        {
          "internalType": "bytes[]",
          "name": "signatures",
          "type": "bytes[]"
        },
        {
          "internalType": "uint256",
          "name": "bounty",
          "type": "uint256"
        }
      ],
      "name": "saveWithdrawAlien",
      "outputs": [],
      "stateMutability": "nonpayable",
      "type": "function"
    },
    {
      "inputs": [
        {
          "internalType": "bytes",
          "name": "payload",
          "type": "bytes"
        },
        {
          "internalType": "bytes[]",
          "name": "signatures",
          "type": "bytes[]"
        }
      ],
      "name": "saveWithdrawNative",
      "outputs": [],
      "stateMutability": "nonpayable",
      "type": "function"
    },
    {
      "inputs": [
        {
          "internalType": "bytes32",
          "name": "id",
          "type": "bytes32"
        }
      ],
      "name": "withdrawalIds",
      "outputs": [
        {
          "internalType": "bool",
          "name": "",
          "type": "bool"
        }
      ],
      "stateMutability": "view",
      "type": "function"
    }
  ],
  "bytecode": "0x608060405234801561001057600080fd5b50613a7c806100206000396000f3fe60806040523480156200001157600080fd5b5060043610620000525760003560e01c806351ce9d211462000057578063a078085e1462000070578063dc7fc7c71462000087578063e063cb5014620000b6575b600080fd5b6200006e6200006836600462001d8d565b620000cd565b005b6200006e6200008136600462001df5565b620000df565b6200009e6200009836600462001d74565b62000511565b604051620000ad9190620023fb565b60405180910390f35b6200006e620000c736600462001d8d565b6200053c565b620000db82826000620000df565b5050565b620000e9620006c5565b826000620000f662000708565b82516020808501919091206000818152600784019092526040909120549192509060ff16156200012557600080fd5b60008181526007830160205260408120805460ff191660011790556200014a62000708565b600681015490915060ff16156200016057600080fd5b60006200016c62000708565b60408051808201909152600c820154600090810b810b810b8252600d8301546020830152919250620001a2908a908a906200070d565b90506000898051906020012090506000620001c1836040015162000818565b905046816060015114620001d457600080fd5b80516001600160a01b031660009081526020859052604090206001015460ff1615620001ff57600080fd5b600062000217826020015183600001516001620008c6565b905062000229826000015182620009a3565b60008183602001516200023d9190620027e2565b905060006200025b8460000151876020015163ffffffff1662000adf565b90506200027c8460000151876020015163ffffffff16866020015162000b53565b600062000293856000015186602001518462000bb6565b9050620002a4856000015162000c58565b856020015111158015620002b55750805b15620002f157620002d8856040015186602001518660018a8a6000015162000ce3565b620002e38562000df0565b5050505050505050620004fe565b604080860180516001600160a01b03908116600090815260148c016020528381205492519091168152918220805491926200032c8362002868565b909155505085516001600160a01b0316600090815260168a016020526040812080548692906200035e90849062002784565b925050819055506040518060a0016040528087600001516001600160a01b0316815260200185815260200187604001516001600160a01b0316336001600160a01b031614620003af576000620003b1565b8f5b815260208a81015163ffffffff1690820152604001600090526040878101516001600160a01b03908116600090815260158d016020908152838220868352815290839020845181546001600160a01b03191693169290921782558301516001808301919091559183015160028201556060830151600380830191909155608084015160048301805493949193909260ff19909116919084908111156200046757634e487b7160e01b600052602160045260246000fd5b02179055505050604080870151875191517f7eceb0f3cb15a14a99150ee4ebb88b9a1df1b3c50efae84c8a82072d3264b4c992620004ad929185919089908d9062002361565b60405180910390a181620004e957620004e9604051806040016040528088604001516001600160a01b0316815260200183815250600162000e87565b620004f48662000df0565b5050505050505050505b505050506200050c62000f3a565b505050565b6000806200051e62000708565b60008481526007909101602052604090205460ff169150505b919050565b62000546620006c5565b8160006200055362000708565b82516020808501919091206000818152600784019092526040909120549192509060ff16156200058257600080fd5b60008181526007830160205260408120805460ff19166001179055620005a762000708565b600681015490915060ff1615620005bd57600080fd5b6000620005c962000708565b60408051808201909152600a820154600090810b810b810b8252600b8301546020830152919250620005ff90899089906200070d565b905060008880519060200120905060006200061e836040015162000f4d565b9050468160800151146200063157600080fd5b60006200063e826200101d565b6001600160a01b03811660009081526020879052604090206001015490915060ff16156200066b57600080fd5b60006200067f8360400151836001620008c6565b90506200068d8282620009a3565b620006a683606001518460400151836000888762000ce3565b620006b183620010f9565b50505050505050505050620000db62000f3a565b6000620006d162001190565b805490915060021415620007025760405162461bcd60e51b8152600401620006f990620025e1565b60405180910390fd5b60029055565b600290565b6200071762001a33565b60006200072362000708565b600681015460405163dccb359960e01b815291925061010090046001600160a01b03169063dccb3599906200075f908890889060040162002406565b60206040518083038186803b1580156200077857600080fd5b505afa1580156200078d573d6000803e3d6000fd5b505050506040513d601f19601f82011682018060405250810190620007b3919062002150565b63ffffffff1615620007c457600080fd5b600085806020019051810190620007dc919062001f87565b9050836000015160000b816060015160000b14801562000803575083602001518160800151145b6200080d57600080fd5b9150505b9392505050565b6200082262001a80565b60008060008060008060008880602001905181019062000843919062002089565b96509650965096509650965096506040518060a00160405280886001600160a01b03168152602001876001600160801b03168152602001866001600160a01b031681526020018581526020016040518060600160405280866001600160a01b03168152602001858152602001841515815250815250975050505050505050919050565b600080620008d362000708565b6001600160a01b03808616600090815260208381526040808320815160c08101835281548152600182015460ff90811615159482019490945260028201549281019290925260038101546060830152600401549182161515608082015261010090910490921660a083015291925090808560018111156200096457634e487b7160e01b600052602160045260246000fd5b14620009755781606001516200097b565b81604001515b90506127106200098c8883620027c0565b6200099891906200279f565b979650505050505050565b6000620009af62000708565b905081620009be5750620000db565b6001600160a01b0383166000818152601a83016020818152604080842081516080810183528154808252600183015482860152600283015493820193909352600390910154606082015294845291905262000a1b57508262000a5c565b600061271083606001518662000a329190620027c0565b62000a3e91906200279f565b905062000a4c8186620027e2565b915062000a5a868262001195565b505b8062000a6b57505050620000db565b6001600160a01b03851660009081526013840160205260408120805483929062000a9790849062002784565b90915550506040517f08048a94734163493ed404ed3c277587011804858159ded940ef190b79210e409062000ad0908790849062002348565b60405180910390a15050505050565b62000ae962001ac8565b600062000af562000708565b6001600160a01b0385166000908152601882016020526040812091925062000b1d8562001218565b81526020019081526020016000206040518060400160405290816000820154815260200160018201548152505091505092915050565b600062000b5f62000708565b9050600062000b6e8462001218565b6001600160a01b0386166000908152601884016020908152604080832084845290915281208054929350859290919062000baa90849062002784565b90915550505050505050565b60008062000bc362000708565b6001600160a01b03861660009081526017820160209081526040918290208251606081018452815481526001820154928101929092526002015460ff16151591810182905291925062000c1c5760019250505062000811565b80518510801562000c4e575060208082015190850151855162000c40908862002784565b62000c4c9190620027e2565b105b9695505050505050565b6040516370a0823160e01b81526000906001600160a01b038316906370a082319062000c89903090600401620022a4565b60206040518083038186803b15801562000ca257600080fd5b505afa15801562000cb7573d6000803e3d6000fd5b505050506040513d601f19601f8201168201806040525081019062000cdd919062002137565b92915050565b600083600181111562000d0657634e487b7160e01b600052602160045260246000fd5b141562000d82576001600160a01b0381166340c10f198762000d298789620027e2565b6040518363ffffffff1660e01b815260040162000d4892919062002348565b600060405180830381600087803b15801562000d6357600080fd5b505af115801562000d78573d6000803e3d6000fd5b5050505062000da5565b62000da58662000d938688620027e2565b6001600160a01b038416919062001229565b7f66a5e8ae5d3d5883f7d5a0caaa6b4e484e40278a749b23c63830e86aa54c1c6e83838389898960405162000de0969594939291906200247c565b60405180910390a1505050505050565b6080810151516001600160a01b03811630141562000e0d57600080fd5b6001600160a01b03811615620000db57600063f684784160e01b8360405160240162000e3a919062002618565b60408051601f198184030181529181526020820180516001600160e01b03166001600160e01b031990941693909317909252608085015180519201519092506200050c9190839062001283565b600062000e9362000708565b83516001600160a01b03166000908152601582016020908152604080832082880151845290915290206004018054919250839160ff1916600183600381111562000eed57634e487b7160e01b600052602160045260246000fd5b0217905550825160208401516040517f7ed894a371451167c714ecffd40c5a3faf1e0ec592087257a0ea2cce2af664199262000f2d9290918690620023c3565b60405180910390a1505050565b600062000f4662001190565b6001905550565b62000f5762001ae2565b60008060008060008060008060008060008c80602001905181019062000f7e919062001e66565b604080516101008101825260009c909c0b60c08d0190815260e08d019b909b52998b52895160608082018c5299815260208181019990995260ff909716878b0152878b01969096526001600160801b03909416898901526001600160a01b03928316878a01526080890191909152865195860187521684529183019190915215159181019190915260a08201529b505050505050505050505050919050565b6000806200102a62000708565b905060006200103d8460000151620012ff565b6001600160a01b038116600090815260208490526040902054909150620010bc57620010728460000151856020015162001366565b5062001080816001620016e3565b83516001600160a01b0382166000908152600180850160209081526040832084518154940b60ff1660ff19909416939093178355909201519101555b6001600160a01b038082166000908152602084905260409020600401546101009004168015620010f157925062000537915050565b509392505050565b60a0810151516001600160a01b0381163014156200111657600080fd5b6001600160a01b03811615620000db576000638776033260e01b8360405160240162001143919062002669565b60408051601f198184030181529181526020820180516001600160e01b03166001600160e01b03199094169390931790925260a085015180519201519092506200050c9190839062001283565b600190565b6000620011a162000708565b905081620011b05750620000db565b6001600160a01b0383166000908152601a8201602052604081206002018054849290620011df90849062002784565b90915550506040517f27f709cebd025c144ca5c2ace6b8b708999e4bd14a82106cfce6c1991cf9f5179062000f2d908590859062002348565b600062000cdd62015180836200279f565b6200050c8363a9059cbb60e01b84846040516024016200124b92919062002348565b60408051601f198184030181529190526020810180516001600160e01b03166001600160e01b03199093169290921790915262001851565b6000836001600160a01b0316836040516200129f9190620021e7565b6000604051808303816000865af19150503d8060008114620012de576040519150601f19603f3d011682016040523d82523d6000602084013e620012e3565b606091505b505090508115620012f95780620012f957600080fd5b50505050565b600030826000015183602001516040516020016200131f92919062002205565b60405160208183030381529060405280519060200120604051602001620013489291906200224e565b60408051601f19818403018152919052805160209091012092915050565b6000806200137362000708565b9050600060405180602001620013899062001b33565b601f1982820381018352601f9091011660408190528651602088810151939450600093620013ba9390910162002205565b604051602081830303815290604052805190602001209050808251602084016000f593506000836012016000866001600160a01b03166001600160a01b03168152602001908152602001600020604051806060016040529081600082015481526020016001820180546200142e906200282b565b80601f01602080910402602001604051908101604052809291908181526020018280546200145c906200282b565b8015620014ad5780601f106200148157610100808354040283529160200191620014ad565b820191906000526020600020905b8154815290600101906020018083116200148f57829003601f168201915b50505050508152602001600282018054620014c8906200282b565b80601f0160208091040260200160405190810160405280929190818152602001828054620014f6906200282b565b8015620015475780601f106200151b5761010080835404028352916020019162001547565b820191906000526020600020905b8154815290600101906020018083116200152957829003601f168201915b5050505050815250509050600081600001516000146200156c5781602001516200158c565b60405180604001604052806006815260200165027b1ba3ab9960d51b8152505b825190915060009015620015a5578260400151620015c2565b604051806040016040528060038152602001621bd8dd60ea1b8152505b9050866001600160a01b0316631624f6c6838a60000151604051602001620015ec9291906200221b565b604051602081830303815290604052838b60200151604051602001620016149291906200221b565b60408051601f19818403018152828252908d01516001600160e01b031960e086901b168352620016489392600401620024dd565b600060405180830381600087803b1580156200166357600080fd5b505af115801562001678573d6000803e3d6000fd5b505050507f3e6b76d22037074e0415e75179bad8e98a6c869a4edc4f01b3375e2c72faf9a6878a600001518b6020015185858d600001518e602001518f60400151604051620016cf989796959493929190620022b8565b60405180910390a150505050505092915050565b6000620016ef62000708565b9050600082620017045781600401546200170a565b81600201545b90506000836200171f57826005015462001725565b82600301545b90506040518060c00160405280438152602001600015158152602001838152602001828152602001851515815260200160006001600160a01b0316815250836000016000876001600160a01b03166001600160a01b031681526020019081526020016000206000820151816000015560208201518160010160006101000a81548160ff021916908315150217905550604082015181600201556060820151816003015560808201518160040160006101000a81548160ff02191690831515021790555060a08201518160040160016101000a8154816001600160a01b0302191690836001600160a01b031602179055509050507f0c051f0fa97177b7a4bae4cd3f0c633d0813e1da77361496a35b6ff7e117ea31854386858560405162000ad095949392919062002395565b6000620018a8826040518060400160405280602081526020017f5361666545524332303a206c6f772d6c6576656c2063616c6c206661696c6564815250856001600160a01b0316620018e89092919063ffffffff16565b8051909150156200050c5780806020019051810190620018c9919062001d57565b6200050c5760405162461bcd60e51b8152600401620006f99062002597565b6060620018f9848460008562001901565b949350505050565b606082471015620019265760405162461bcd60e51b8152600401620006f9906200251a565b6200193185620019c4565b620019505760405162461bcd60e51b8152600401620006f99062002560565b600080866001600160a01b031685876040516200196e9190620021e7565b60006040518083038185875af1925050503d8060008114620019ad576040519150601f19603f3d011682016040523d82523d6000602084013e620019b2565b606091505b509150915062000998828286620019f5565b600080826001600160a01b0316803b806020016040519081016040528181526000908060200190933c511192915050565b6060831562001a0657508162000811565b82511562001a175782518084602001fd5b8160405162461bcd60e51b8152600401620006f99190620024c8565b604080516101208101825260008082526020820181905260609282018390529181018290526080810182905260a0810182905260c0810182905260e0810182905261010081019190915290565b6040518060a0016040528060006001600160a01b031681526020016000815260200160006001600160a01b031681526020016000815260200162001ac362001b41565b905290565b604051806040016040528060008152602001600081525090565b6040518060c0016040528062001af762001b6d565b815260200162001b0662001b84565b81526020016000815260200160006001600160a01b031681526020016000815260200162001ac362001b41565b61116580620028e283390190565b604051806060016040528060006001600160a01b03168152602001606081526020016000151581525090565b604080518082019091526000808252602082015290565b60405180606001604052806060815260200160608152602001600060ff1681525090565b80516200053781620028c8565b600082601f83011262001bc6578081fd5b8135602067ffffffffffffffff82111562001be55762001be5620028b2565b62001bf481828402016200272c565b82815281810190858301855b8581101562001c2d5762001c1a898684358b010162001c4b565b8452928401929084019060010162001c00565b5090979650505050505050565b805180151581146200053757600080fd5b600082601f83011262001c5c578081fd5b813562001c7362001c6d8262002759565b6200272c565b81815284602083860101111562001c88578283fd5b816020850160208301379081016020019190915292915050565b600082601f83011262001cb3578081fd5b815162001cc462001c6d8262002759565b81815284602083860101111562001cd9578283fd5b620018f9826020830160208701620027fc565b8051600081900b81146200053757600080fd5b80516001600160801b03811681146200053757600080fd5b805163ffffffff811681146200053757600080fd5b805167ffffffffffffffff811681146200053757600080fd5b805160ff811681146200053757600080fd5b60006020828403121562001d69578081fd5b620008118262001c3a565b60006020828403121562001d86578081fd5b5035919050565b6000806040838503121562001da0578081fd5b823567ffffffffffffffff8082111562001db8578283fd5b62001dc68683870162001c4b565b9350602085013591508082111562001ddc578283fd5b5062001deb8582860162001bb5565b9150509250929050565b60008060006060848603121562001e0a578081fd5b833567ffffffffffffffff8082111562001e22578283fd5b62001e308783880162001c4b565b9450602086013591508082111562001e46578283fd5b5062001e558682870162001bb5565b925050604084013590509250925092565b60008060008060008060008060008060006101608c8e03121562001e88578687fd5b62001e938c62001cec565b9a5060208c0151995060408c015167ffffffffffffffff81111562001eb6578788fd5b62001ec48e828f0162001ca2565b99505060608c015167ffffffffffffffff81111562001ee1578788fd5b62001eef8e828f0162001ca2565b98505062001f0060808d0162001d45565b965062001f1060a08d0162001cff565b955062001f2060c08d0162001ba8565b945060e08c0151935062001f386101008d0162001ba8565b92506101208c015167ffffffffffffffff81111562001f55578283fd5b62001f638e828f0162001ca2565b92505062001f756101408d0162001c3a565b90509295989b509295989b9093969950565b60006020828403121562001f99578081fd5b815167ffffffffffffffff8082111562001fb1578283fd5b818401915061012080838703121562001fc8578384fd5b62001fd3816200272c565b905062001fe08362001d2c565b815262001ff06020840162001d17565b602082015260408301518281111562002007578485fd5b620020158782860162001ca2565b604083015250620020296060840162001cec565b6060820152608083015160808201526200204660a0840162001cec565b60a082015260c083015160c08201526200206360e0840162001ba8565b60e082015261010091506200207a82840162001d17565b91810191909152949350505050565b600080600080600080600060e0888a031215620020a4578081fd5b8751620020b181620028c8565b9650620020c16020890162001cff565b95506040880151620020d381620028c8565b606089015160808a01519196509450620020ed81620028c8565b60a089015190935067ffffffffffffffff8111156200210a578182fd5b620021188a828b0162001ca2565b9250506200212960c0890162001c3a565b905092959891949750929550565b60006020828403121562002149578081fd5b5051919050565b60006020828403121562002162578081fd5b620008118262001d17565b6001600160a01b03169052565b6000815180845262002194816020860160208601620027fc565b601f01601f19169290920160200192915050565b600060018060a01b038251168352602082015160606020850152620021d160608501826200217a565b6040938401511515949093019390935250919050565b60008251620021fb818460208701620027fc565b9190910192915050565b60009290920b60f81b8252600182015260210190565b600083516200222f818460208801620027fc565b83519083019062002245818360208801620027fc565b01949350505050565b6001600160f81b0319815260609290921b6bffffffffffffffffffffffff1916600183015260158201527f192c19818bebb5c6c95f5dcb3c3257379fc46fb654780cb06f3211ee77e1a360603582015260550190565b6001600160a01b0391909116815260200190565b6001600160a01b0389168152600088810b60208301526040820188905261010060608301819052620022ed838201896200217a565b905082810360808401526200230381886200217a565b905082810360a08401526200231981876200217a565b905082810360c08401526200232f81866200217a565b91505060ff831660e08301529998505050505050505050565b6001600160a01b03929092168252602082015260400190565b6001600160a01b03958616815260208101949094529190931660408301526060820192909252608081019190915260a00190565b6001600160a01b03959095168552602085019390935290151560408401526060830152608082015260a00190565b6001600160a01b0384168152602081018390526060810160048310620023ed57620023ed6200289c565b826040830152949350505050565b901515815260200190565b6000604082526200241b60408301856200217a565b602083820381850152818551808452828401915082838202850101838801865b838110156200246d57601f198784030185526200245a8383516200217a565b948601949250908501906001016200243b565b50909998505050505050505050565b60c08101600288106200249357620024936200289c565b96815260208101959095526001600160a01b039384166040860152919092166060840152608083019190915260a09091015290565b6000602082526200081160208301846200217a565b600060608252620024f260608301866200217a565b82810360208401526200250681866200217a565b91505060ff83166040830152949350505050565b60208082526026908201527f416464726573733a20696e73756666696369656e742062616c616e636520666f6040820152651c8818d85b1b60d21b606082015260800190565b6020808252601d908201527f416464726573733a2063616c6c20746f206e6f6e2d636f6e7472616374000000604082015260600190565b6020808252602a908201527f5361666545524332303a204552433230206f7065726174696f6e20646964206e6040820152691bdd081cdd58d8d9595960b21b606082015260800190565b6020808252601f908201527f5265656e7472616e637947756172643a207265656e7472616e742063616c6c00604082015260600190565b60006020825260018060a01b03808451166020840152602084015160408401528060408501511660608401525060608301516080830152608083015160a080840152620018f960c0840182620021a8565b60006020825282518051820b60208401526020810151604084015250602083015160e0606084015280516060610100850152620026ab6101608501826200217a565b9050602082015160ff1985830301610120860152620026cb82826200217a565b60409384015160ff166101408701529286015160808601525050606084015190620026fa60a08501836200216d565b608085015160c085015260a0850151848203601f190160e08601529150620027238183620021a8565b95945050505050565b60405181810167ffffffffffffffff81118282101715620027515762002751620028b2565b604052919050565b600067ffffffffffffffff821115620027765762002776620028b2565b50601f01601f191660200190565b600082198211156200279a576200279a62002886565b500190565b600082620027bb57634e487b7160e01b81526012600452602481fd5b500490565b6000816000190483118215151615620027dd57620027dd62002886565b500290565b600082821015620027f757620027f762002886565b500390565b60005b8381101562002819578181015183820152602001620027ff565b83811115620012f95750506000910152565b6002810460018216806200284057607f821691505b602082108114156200286257634e487b7160e01b600052602260045260246000fd5b50919050565b60006000198214156200287f576200287f62002886565b5060010190565b634e487b7160e01b600052601160045260246000fd5b634e487b7160e01b600052602160045260246000fd5b634e487b7160e01b600052604160045260246000fd5b6001600160a01b0381168114620028de57600080fd5b5056fe608060405234801561001057600080fd5b50610019610028565b6100228161002c565b5061007c565b3390565b600080546001600160a01b038381166001600160a01b0319831681178455604051919092169283917f8be0079c531659141344cd1fd0a4f28419497f9722a3daafe3b4186f6b6457e09190a35050565b6110da8061008b6000396000f3fe608060405234801561001057600080fd5b506004361061010b5760003560e01c806370a08231116100a25780639dc29fac116100715780639dc29fac146101fe578063a457c2d714610211578063a9059cbb14610224578063dd62ed3e14610237578063f2fde38b1461024a5761010b565b806370a08231146101c6578063715018a6146101d95780638da5cb5b146101e157806395d89b41146101f65761010b565b806323b872dd116100de57806323b872dd14610178578063313ce5671461018b57806339509351146101a057806340c10f19146101b35761010b565b806306fdde0314610110578063095ea7b31461012e5780631624f6c61461014e57806318160ddd14610163575b600080fd5b61011861025d565b6040516101259190610c9f565b60405180910390f35b61014161013c366004610bdd565b6102ef565b6040516101259190610c94565b61016161015c366004610c06565b610311565b005b61016b610362565b6040516101259190610ff7565b610141610186366004610ba2565b610368565b610193610396565b6040516101259190611000565b6101416101ae366004610bdd565b61039f565b6101616101c1366004610bdd565b6103cb565b61016b6101d4366004610b4f565b610421565b610161610440565b6101e961048b565b6040516101259190610c80565b61011861049a565b61016161020c366004610bdd565b6104a9565b61014161021f366004610bdd565b6104f2565b610141610232366004610bdd565b61053a565b61016b610245366004610b70565b610552565b610161610258366004610b4f565b61057d565b60606005805461026c9061103d565b80601f01602080910402602001604051908101604052809291908181526020018280546102989061103d565b80156102e55780601f106102ba576101008083540402835291602001916102e5565b820191906000526020600020905b8154815290600101906020018083116102c857829003601f168201915b5050505050905090565b6000806102fa6105ee565b90506103078185856105f2565b5060019392505050565b6001541561031e57600080fd5b8251610331906005906020860190610a1e565b508151610345906006906020850190610a1e565b506007805460ff191660ff92909216919091179055505043600155565b60045490565b6000806103736105ee565b90506103808582856106a6565b61038b8585856106f0565b506001949350505050565b60075460ff1690565b6000806103aa6105ee565b90506103078185856103bc8589610552565b6103c6919061100e565b6105f2565b6103d36105ee565b6001600160a01b03166103e461048b565b6001600160a01b0316146104135760405162461bcd60e51b815260040161040a90610e7c565b60405180910390fd5b61041d8282610814565b5050565b6001600160a01b0381166000908152600260205260409020545b919050565b6104486105ee565b6001600160a01b031661045961048b565b6001600160a01b03161461047f5760405162461bcd60e51b815260040161040a90610e7c565b61048960006108dc565b565b6000546001600160a01b031690565b60606006805461026c9061103d565b6104b16105ee565b6001600160a01b03166104c261048b565b6001600160a01b0316146104e85760405162461bcd60e51b815260040161040a90610e7c565b61041d828261092c565b6000806104fd6105ee565b9050600061050b8286610552565b90508381101561052d5760405162461bcd60e51b815260040161040a90610f7b565b61038b82868684036105f2565b6000806105456105ee565b90506103078185856106f0565b6001600160a01b03918216600090815260036020908152604080832093909416825291909152205490565b6105856105ee565b6001600160a01b031661059661048b565b6001600160a01b0316146105bc5760405162461bcd60e51b815260040161040a90610e7c565b6001600160a01b0381166105e25760405162461bcd60e51b815260040161040a90610d77565b6105eb816108dc565b50565b3390565b6001600160a01b0383166106185760405162461bcd60e51b815260040161040a90610f37565b6001600160a01b03821661063e5760405162461bcd60e51b815260040161040a90610dbd565b6001600160a01b0380841660008181526003602090815260408083209487168084529490915290819020849055517f8c5be1e5ebec7d5bd14f71427d1e84f3dd0314c0f7b2291e5b200ac8c7c3b92590610699908590610ff7565b60405180910390a3505050565b60006106b28484610552565b905060001981146106ea57818110156106dd5760405162461bcd60e51b815260040161040a90610dff565b6106ea84848484036105f2565b50505050565b6001600160a01b0383166107165760405162461bcd60e51b815260040161040a90610ef2565b6001600160a01b03821661073c5760405162461bcd60e51b815260040161040a90610cf2565b610747838383610a19565b6001600160a01b038316600090815260026020526040902054818110156107805760405162461bcd60e51b815260040161040a90610e36565b6001600160a01b038085166000908152600260205260408082208585039055918516815290812080548492906107b790849061100e565b92505081905550826001600160a01b0316846001600160a01b03167fddf252ad1be2c89b69c2b068fc378daa952ba7f163c4a11628f55a4df523b3ef846040516108019190610ff7565b60405180910390a36106ea848484610a19565b6001600160a01b03821661083a5760405162461bcd60e51b815260040161040a90610fc0565b61084660008383610a19565b8060046000828254610858919061100e565b90915550506001600160a01b0382166000908152600260205260408120805483929061088590849061100e565b90915550506040516001600160a01b038316906000907fddf252ad1be2c89b69c2b068fc378daa952ba7f163c4a11628f55a4df523b3ef906108c8908590610ff7565b60405180910390a361041d60008383610a19565b600080546001600160a01b038381166001600160a01b0319831681178455604051919092169283917f8be0079c531659141344cd1fd0a4f28419497f9722a3daafe3b4186f6b6457e09190a35050565b6001600160a01b0382166109525760405162461bcd60e51b815260040161040a90610eb1565b61095e82600083610a19565b6001600160a01b038216600090815260026020526040902054818110156109975760405162461bcd60e51b815260040161040a90610d35565b6001600160a01b03831660009081526002602052604081208383039055600480548492906109c6908490611026565b90915550506040516000906001600160a01b038516907fddf252ad1be2c89b69c2b068fc378daa952ba7f163c4a11628f55a4df523b3ef90610a09908690610ff7565b60405180910390a3610a19836000845b505050565b828054610a2a9061103d565b90600052602060002090601f016020900481019282610a4c5760008555610a92565b82601f10610a6557805160ff1916838001178555610a92565b82800160010185558215610a92579182015b82811115610a92578251825591602001919060010190610a77565b50610a9e929150610aa2565b5090565b5b80821115610a9e5760008155600101610aa3565b80356001600160a01b038116811461043b57600080fd5b600082601f830112610ade578081fd5b813567ffffffffffffffff80821115610af957610af961108e565b604051601f8301601f191681016020018281118282101715610b1d57610b1d61108e565b604052828152848301602001861015610b34578384fd5b82602086016020830137918201602001929092529392505050565b600060208284031215610b60578081fd5b610b6982610ab7565b9392505050565b60008060408385031215610b82578081fd5b610b8b83610ab7565b9150610b9960208401610ab7565b90509250929050565b600080600060608486031215610bb6578081fd5b610bbf84610ab7565b9250610bcd60208501610ab7565b9150604084013590509250925092565b60008060408385031215610bef578182fd5b610bf883610ab7565b946020939093013593505050565b600080600060608486031215610c1a578283fd5b833567ffffffffffffffff80821115610c31578485fd5b610c3d87838801610ace565b94506020860135915080821115610c52578384fd5b50610c5f86828701610ace565b925050604084013560ff81168114610c75578182fd5b809150509250925092565b6001600160a01b0391909116815260200190565b901515815260200190565b6000602080835283518082850152825b81811015610ccb57858101830151858201604001528201610caf565b81811115610cdc5783604083870101525b50601f01601f1916929092016040019392505050565b60208082526023908201527f45524332303a207472616e7366657220746f20746865207a65726f206164647260408201526265737360e81b606082015260800190565b60208082526022908201527f45524332303a206275726e20616d6f756e7420657863656564732062616c616e604082015261636560f01b606082015260800190565b60208082526026908201527f4f776e61626c653a206e6577206f776e657220697320746865207a65726f206160408201526564647265737360d01b606082015260800190565b60208082526022908201527f45524332303a20617070726f766520746f20746865207a65726f206164647265604082015261737360f01b606082015260800190565b6020808252601d908201527f45524332303a20696e73756666696369656e7420616c6c6f77616e6365000000604082015260600190565b60208082526026908201527f45524332303a207472616e7366657220616d6f756e7420657863656564732062604082015265616c616e636560d01b606082015260800190565b6020808252818101527f4f776e61626c653a2063616c6c6572206973206e6f7420746865206f776e6572604082015260600190565b60208082526021908201527f45524332303a206275726e2066726f6d20746865207a65726f206164647265736040820152607360f81b606082015260800190565b60208082526025908201527f45524332303a207472616e736665722066726f6d20746865207a65726f206164604082015264647265737360d81b606082015260800190565b60208082526024908201527f45524332303a20617070726f76652066726f6d20746865207a65726f206164646040820152637265737360e01b606082015260800190565b60208082526025908201527f45524332303a2064656372656173656420616c6c6f77616e63652062656c6f77604082015264207a65726f60d81b606082015260800190565b6020808252601f908201527f45524332303a206d696e7420746f20746865207a65726f206164647265737300604082015260600190565b90815260200190565b60ff91909116815260200190565b6000821982111561102157611021611078565b500190565b60008282101561103857611038611078565b500390565b60028104600182168061105157607f821691505b6020821081141561107257634e487b7160e01b600052602260045260246000fd5b50919050565b634e487b7160e01b600052601160045260246000fd5b634e487b7160e01b600052604160045260246000fdfea2646970667358221220f18026eb95ae5bbcf4ea7ea2edc428bd95ed8a4f562ba16ae901cac10b082dc664736f6c63430008000033a264697066735822122052b49f6d204266d863aa70b5101c0e1014ac76533fc9d1f0cb9fab60fb8208f864736f6c63430008000033",
  "linkReferences": {},
  "deployedLinkReferences": {}
}