{
  "address": "0x069FC975C6b50B2a366F00601321127548dbd92D",
  "abi": [
    {
      "anonymous": false,
      "inputs": [
        {
          "indexed": true,
          "internalType": "address",
          "name": "relay",
          "type": "address"
        },
        {
          "indexed": false,
          "internalType": "bool",
          "name": "status",
          "type": "bool"
        }
      ],
      "name": "BanRelay",
      "type": "event"
    },
    {
      "anonymous": false,
      "inputs": [
        {
          "indexed": false,
          "internalType": "bool",
          "name": "active",
          "type": "bool"
        }
      ],
      "name": "EmergencyShutdown",
      "type": "event"
    },
    {
      "anonymous": false,
      "inputs": [
        {
          "indexed": true,
          "internalType": "uint32",
          "name": "round",
          "type": "uint32"
        },
        {
          "components": [
            {
              "internalType": "uint32",
              "name": "end",
              "type": "uint32"
            },
            {
              "internalType": "uint32",
              "name": "ttl",
              "type": "uint32"
            },
            {
              "internalType": "uint32",
              "name": "requiredSignatures",
              "type": "uint32"
            }
          ],
          "indexed": false,
          "internalType": "struct IBridge.Round",
          "name": "meta",
          "type": "tuple"
        }
      ],
      "name": "NewRound",
      "type": "event"
    },
    {
      "anonymous": false,
      "inputs": [
        {
          "indexed": true,
          "internalType": "address",
          "name": "previousOwner",
          "type": "address"
        },
        {
          "indexed": true,
          "internalType": "address",
          "name": "newOwner",
          "type": "address"
        }
      ],
      "name": "OwnershipTransferred",
      "type": "event"
    },
    {
      "anonymous": false,
      "inputs": [
        {
          "indexed": false,
          "internalType": "address",
          "name": "account",
          "type": "address"
        }
      ],
      "name": "Paused",
      "type": "event"
    },
    {
      "anonymous": false,
      "inputs": [
        {
          "indexed": true,
          "internalType": "uint32",
          "name": "round",
          "type": "uint32"
        },
        {
          "indexed": true,
          "internalType": "address",
          "name": "relay",
          "type": "address"
        }
      ],
      "name": "RoundRelay",
      "type": "event"
    },
    {
      "anonymous": false,
      "inputs": [
        {
          "indexed": false,
          "internalType": "address",
          "name": "account",
          "type": "address"
        }
      ],
      "name": "Unpaused",
      "type": "event"
    },
    {
      "anonymous": false,
      "inputs": [
        {
          "indexed": false,
          "internalType": "uint32",
          "name": "value",
          "type": "uint32"
        }
      ],
      "name": "UpdateMinimumRequiredSignatures",
      "type": "event"
    },
    {
      "anonymous": false,
      "inputs": [
        {
          "components": [
            {
              "internalType": "int8",
              "name": "wid",
              "type": "int8"
            },
            {
              "internalType": "uint256",
              "name": "addr",
              "type": "uint256"
            }
          ],
          "indexed": false,
          "internalType": "struct IBridge.TONAddress",
          "name": "configuration",
          "type": "tuple"
        }
      ],
      "name": "UpdateRoundRelaysConfiguration",
      "type": "event"
    },
    {
      "anonymous": false,
      "inputs": [
        {
          "indexed": false,
          "internalType": "address",
          "name": "_roundSubmitter",
          "type": "address"
        }
      ],
      "name": "UpdateRoundSubmitter",
      "type": "event"
    },
    {
      "anonymous": false,
      "inputs": [
        {
          "indexed": false,
          "internalType": "uint32",
          "name": "value",
          "type": "uint32"
        }
      ],
      "name": "UpdateRoundTTL",
      "type": "event"
    },
    {
      "inputs": [
        {
          "internalType": "address[]",
          "name": "_relays",
          "type": "address[]"
        }
      ],
      "name": "banRelays",
      "outputs": [],
      "stateMutability": "nonpayable",
      "type": "function"
    },
    {
      "inputs": [
        {
          "internalType": "address",
          "name": "",
          "type": "address"
        }
      ],
      "name": "blacklist",
      "outputs": [
        {
          "internalType": "bool",
          "name": "",
          "type": "bool"
        }
      ],
      "stateMutability": "view",
      "type": "function"
    },
    {
      "inputs": [
        {
          "internalType": "bytes32",
          "name": "",
          "type": "bytes32"
        }
      ],
      "name": "cache",
      "outputs": [
        {
          "internalType": "bool",
          "name": "",
          "type": "bool"
        }
      ],
      "stateMutability": "view",
      "type": "function"
    },
    {
      "inputs": [
        {
          "internalType": "bytes",
          "name": "payload",
          "type": "bytes"
        }
      ],
      "name": "decodeRoundRelaysEventData",
      "outputs": [
        {
          "internalType": "uint32",
          "name": "round",
          "type": "uint32"
        },
        {
          "internalType": "uint160[]",
          "name": "_relays",
          "type": "uint160[]"
        },
        {
          "internalType": "uint32",
          "name": "roundEnd",
          "type": "uint32"
        }
      ],
      "stateMutability": "pure",
      "type": "function"
    },
    {
      "inputs": [],
      "name": "emergencyShutdown",
      "outputs": [
        {
          "internalType": "bool",
          "name": "",
          "type": "bool"
        }
      ],
      "stateMutability": "view",
      "type": "function"
    },
    {
      "inputs": [
        {
          "internalType": "uint160[]",
          "name": "_relays",
          "type": "uint160[]"
        },
        {
          "internalType": "uint32",
          "name": "roundEnd",
          "type": "uint32"
        }
      ],
      "name": "forceRoundRelays",
      "outputs": [],
      "stateMutability": "nonpayable",
      "type": "function"
    },
    {
      "inputs": [],
      "name": "initialRound",
      "outputs": [
        {
          "internalType": "uint32",
          "name": "",
          "type": "uint32"
        }
      ],
      "stateMutability": "view",
      "type": "function"
    },
    {
      "inputs": [
        {
          "internalType": "address",
          "name": "_owner",
          "type": "address"
        },
        {
          "internalType": "address",
          "name": "_roundSubmitter",
          "type": "address"
        },
        {
          "internalType": "uint32",
          "name": "_minimumRequiredSignatures",
          "type": "uint32"
        },
        {
          "internalType": "uint32",
          "name": "_roundTTL",
          "type": "uint32"
        },
        {
          "internalType": "uint32",
          "name": "_initialRound",
          "type": "uint32"
        },
        {
          "internalType": "uint32",
          "name": "_initialRoundEnd",
          "type": "uint32"
        },
        {
          "internalType": "uint160[]",
          "name": "_relays",
          "type": "uint160[]"
        }
      ],
      "name": "initialize",
      "outputs": [],
      "stateMutability": "nonpayable",
      "type": "function"
    },
    {
      "inputs": [
        {
          "internalType": "address",
          "name": "candidate",
          "type": "address"
        }
      ],
      "name": "isBanned",
      "outputs": [
        {
          "internalType": "bool",
          "name": "",
          "type": "bool"
        }
      ],
      "stateMutability": "view",
      "type": "function"
    },
    {
      "inputs": [
        {
          "internalType": "uint32",
          "name": "round",
          "type": "uint32"
        },
        {
          "internalType": "address",
          "name": "candidate",
          "type": "address"
        }
      ],
      "name": "isRelay",
      "outputs": [
        {
          "internalType": "bool",
          "name": "",
          "type": "bool"
        }
      ],
      "stateMutability": "view",
      "type": "function"
    },
    {
      "inputs": [
        {
          "internalType": "uint32",
          "name": "round",
          "type": "uint32"
        }
      ],
      "name": "isRoundRotten",
      "outputs": [
        {
          "internalType": "bool",
          "name": "",
          "type": "bool"
        }
      ],
      "stateMutability": "view",
      "type": "function"
    },
    {
      "inputs": [],
      "name": "lastRound",
      "outputs": [
        {
          "internalType": "uint32",
          "name": "",
          "type": "uint32"
        }
      ],
      "stateMutability": "view",
      "type": "function"
    },
    {
      "inputs": [],
      "name": "minimumRequiredSignatures",
      "outputs": [
        {
          "internalType": "uint32",
          "name": "",
          "type": "uint32"
        }
      ],
      "stateMutability": "view",
      "type": "function"
    },
    {
      "inputs": [],
      "name": "owner",
      "outputs": [
        {
          "internalType": "address",
          "name": "",
          "type": "address"
        }
      ],
      "stateMutability": "view",
      "type": "function"
    },
    {
      "inputs": [],
      "name": "pause",
      "outputs": [],
      "stateMutability": "nonpayable",
      "type": "function"
    },
    {
      "inputs": [],
      "name": "paused",
      "outputs": [
        {
          "internalType": "bool",
          "name": "",
          "type": "bool"
        }
      ],
      "stateMutability": "view",
      "type": "function"
    },
    {
      "inputs": [
        {
          "internalType": "bytes",
          "name": "payload",
          "type": "bytes"
        },
        {
          "internalType": "bytes",
          "name": "signature",
          "type": "bytes"
        }
      ],
      "name": "recoverSignature",
      "outputs": [
        {
          "internalType": "address",
          "name": "signer",
          "type": "address"
        }
      ],
      "stateMutability": "pure",
      "type": "function"
    },
    {
      "inputs": [
        {
          "internalType": "uint32",
          "name": "",
          "type": "uint32"
        },
        {
          "internalType": "address",
          "name": "",
          "type": "address"
        }
      ],
      "name": "relays",
      "outputs": [
        {
          "internalType": "bool",
          "name": "",
          "type": "bool"
        }
      ],
      "stateMutability": "view",
      "type": "function"
    },
    {
      "inputs": [],
      "name": "renounceOwnership",
      "outputs": [],
      "stateMutability": "nonpayable",
      "type": "function"
    },
    {
      "inputs": [],
      "name": "roundRelaysConfiguration",
      "outputs": [
        {
          "internalType": "int8",
          "name": "wid",
          "type": "int8"
        },
        {
          "internalType": "uint256",
          "name": "addr",
          "type": "uint256"
        }
      ],
      "stateMutability": "view",
      "type": "function"
    },
    {
      "inputs": [],
      "name": "roundSubmitter",
      "outputs": [
        {
          "internalType": "address",
          "name": "",
          "type": "address"
        }
      ],
      "stateMutability": "view",
      "type": "function"
    },
    {
      "inputs": [],
      "name": "roundTTL",
      "outputs": [
        {
          "internalType": "uint32",
          "name": "",
          "type": "uint32"
        }
      ],
      "stateMutability": "view",
      "type": "function"
    },
    {
      "inputs": [
        {
          "internalType": "uint32",
          "name": "",
          "type": "uint32"
        }
      ],
      "name": "rounds",
      "outputs": [
        {
          "internalType": "uint32",
          "name": "end",
          "type": "uint32"
        },
        {
          "internalType": "uint32",
          "name": "ttl",
          "type": "uint32"
        },
        {
          "internalType": "uint32",
          "name": "requiredSignatures",
          "type": "uint32"
        }
      ],
      "stateMutability": "view",
      "type": "function"
    },
    {
      "inputs": [
        {
          "internalType": "bytes",
          "name": "payload",
          "type": "bytes"
        },
        {
          "internalType": "bytes[]",
          "name": "signatures",
          "type": "bytes[]"
        }
      ],
      "name": "setRoundRelays",
      "outputs": [],
      "stateMutability": "nonpayable",
      "type": "function"
    },
    {
      "inputs": [
        {
          "internalType": "address",
          "name": "_roundSubmitter",
          "type": "address"
        }
      ],
      "name": "setRoundSubmitter",
      "outputs": [],
      "stateMutability": "nonpayable",
      "type": "function"
    },
    {
      "inputs": [
        {
          "internalType": "address",
          "name": "newOwner",
          "type": "address"
        }
      ],
      "name": "transferOwnership",
      "outputs": [],
      "stateMutability": "nonpayable",
      "type": "function"
    },
    {
      "inputs": [
        {
          "internalType": "address[]",
          "name": "_relays",
          "type": "address[]"
        }
      ],
      "name": "unbanRelays",
      "outputs": [],
      "stateMutability": "nonpayable",
      "type": "function"
    },
    {
      "inputs": [],
      "name": "unpause",
      "outputs": [],
      "stateMutability": "nonpayable",
      "type": "function"
    },
    {
      "inputs": [
        {
          "internalType": "uint32",
          "name": "_minimumRequiredSignatures",
          "type": "uint32"
        }
      ],
      "name": "updateMinimumRequiredSignatures",
      "outputs": [],
      "stateMutability": "nonpayable",
      "type": "function"
    },
    {
      "inputs": [
        {
          "components": [
            {
              "internalType": "int8",
              "name": "wid",
              "type": "int8"
            },
            {
              "internalType": "uint256",
              "name": "addr",
              "type": "uint256"
            }
          ],
          "internalType": "struct IBridge.TONAddress",
          "name": "_roundRelaysConfiguration",
          "type": "tuple"
        }
      ],
      "name": "updateRoundRelaysConfiguration",
      "outputs": [],
      "stateMutability": "nonpayable",
      "type": "function"
    },
    {
      "inputs": [
        {
          "internalType": "uint32",
          "name": "_roundTTL",
          "type": "uint32"
        }
      ],
      "name": "updateRoundTTL",
      "outputs": [],
      "stateMutability": "nonpayable",
      "type": "function"
    },
    {
      "inputs": [
        {
          "internalType": "bytes",
          "name": "payload",
          "type": "bytes"
        },
        {
          "internalType": "bytes[]",
          "name": "signatures",
          "type": "bytes[]"
        }
      ],
      "name": "verifySignedTonEvent",
      "outputs": [
        {
          "internalType": "uint32",
          "name": "errorCode",
          "type": "uint32"
        }
      ],
      "stateMutability": "view",
      "type": "function"
    }
  ],
  "transactionHash": "0x370b6f825482a25da3854a027c0d45a4c82d4a58a446132f4e039ff933f36044",
  "args": [],
  "solcInputHash": "08b2cf5de0422650c74c59ba8bfa7a30",
  "bytecode": "0x608060405234801561001057600080fd5b506126be806100206000396000f3fe608060405234801561001057600080fd5b50600436106101f05760003560e01c806379a6d51f1161010f578063a40b9e73116100a2578063e35d165311610071578063e35d1653146104fb578063f2fde38b14610510578063f9f92be414610523578063fa78e3bf14610546576101f0565b8063a40b9e7314610460578063a8719e0014610473578063c46f602f146104a1578063e17ddc41146104e2576101f0565b80638a2ef9d4116100de5780638a2ef9d4146104065780638da5cb5b1461041957806397f735d51461042a57806399eb59b91461043d576101f0565b806379a6d51f1461037057806382bc07e6146103d45780638456cb59146103eb57806387f24b78146103f3576101f0565b80633f4ba83a1161018757806356db6fff1161015657806356db6fff1461031f5780635c975abb146103325780636399e8341461033d578063715018a614610368576101f0565b80633f4ba83a146102de5780634145a9e0146102e65780634d6e855e146102f9578063507b8ed21461030c576101f0565b806331f25330116101c357806331f253301461026f5780633403c2fc1461029b5780633637f6a8146102b85780633b1e8156146102cb576101f0565b806304f5b841146101f557806311bbedb71461020a57806320fb2ac81461023a57806323f11f991461025c575b600080fd5b610208610203366004611e9e565b610579565b005b609c5461021d906001600160a01b031681565b6040516001600160a01b0390911681526020015b60405180910390f35b61024d610248366004611f2e565b6108ef565b604051610231939291906123fa565b61020861026a366004611d27565b610932565b609b5461028690600160481b900463ffffffff1681565b60405163ffffffff9091168152602001610231565b609b546102a89060ff1681565b6040519015158152602001610231565b6102086102c636600461220b565b6109b5565b6102086102d9366004611df3565b610a2f565b610208610b58565b6102086102f4366004611e32565b610b8c565b61021d610307366004611fd3565b610c8c565b61020861031a36600461220b565b610cfd565b61020861032d366004611df3565b610d7f565b60655460ff166102a8565b609d54609e5461034e9160000b9082565b6040805160009390930b8352602083019190915201610231565b610208610ea3565b6103ad61037e36600461220b565b609a6020526000908152604090205463ffffffff808216916401000000008104821691600160401b9091041683565b6040805163ffffffff94851681529284166020840152921691810191909152606001610231565b609b5461028690600160681b900463ffffffff1681565b610208610ed7565b610208610401366004612029565b610f09565b610208610414366004611d43565b610f77565b6033546001600160a01b031661021d565b6102a8610438366004611d27565b61121a565b6102a861044b366004611e86565b60976020526000908152604090205460ff1681565b61028661046e366004611f60565b61123c565b6102a8610481366004612227565b609860209081526000928352604080842090915290825290205460ff1681565b6102a86104af366004612227565b63ffffffff821660009081526098602090815260408083206001600160a01b038516845290915290205460ff1692915050565b609b546102869065010000000000900463ffffffff1681565b609b5461028690610100900463ffffffff1681565b61020861051e366004611d27565b611347565b6102a8610531366004611d27565b60996020526000908152604090205460ff1681565b6102a861055436600461220b565b63ffffffff9081166000908152609a6020526040902054640100000000900416421190565b83838080601f01602080910402602001604051908101604052809392919081815260200183838082843760009201829052506040519093506105c1925084915060200161231e565b60408051601f1981840301815291815281516020928301206000818152609790935291205490915060ff161561063e5760405162461bcd60e51b815260206004820152601b60248201527f43616368653a207061796c6f616420616c7265616479207365656e000000000060448201526064015b60405180910390fd5b61068486868080601f01602080910402602001604051908101604052809392919081815260200183838082843760009201919091525061046e9250879150889050612569565b63ffffffff16156106e65760405162461bcd60e51b815260206004820152602660248201527f4272696467653a207369676e61747572657320766572696669636174696f6e2060448201526519985a5b195960d21b6064820152608401610635565b60006106f486880188612040565b60e08101519091506001600160a01b031630146107535760405162461bcd60e51b815260206004820152601960248201527f4272696467653a2077726f6e67206576656e742070726f7879000000000000006044820152606401610635565b609d546060820151600091820b820b910b1480156107765750609e546080820151145b6107cc5760405162461bcd60e51b815260206004820152602160248201527f4272696467653a2077726f6e67206576656e7420636f6e66696775726174696f6044820152603760f91b6064820152608401610635565b60008060006108108a8a8080601f0160208091040260200160405190810160405280939291908181526020018383808284376000920191909152506108ef92505050565b609b54929550909350915061083390600160681b900463ffffffff1660016124dd565b63ffffffff168363ffffffff16146108835760405162461bcd60e51b8152602060048201526013602482015272109c9a5919d94e881ddc9bdb99c81c9bdd5b99606a1b6044820152606401610635565b61088e8383836113e2565b609b8054600160681b900463ffffffff1690600d6108ab836125c1565b825463ffffffff9182166101009390930a928302919092021990911617905550505060009283525050609760205260409020805460ff191660011790555050505050565b600060606000808480602001905181019061090a919061212d565b90508060400151806020019051810190610924919061225f565b919790965090945092505050565b6033546001600160a01b0316331461095c5760405162461bcd60e51b81526004016106359061239f565b609c80546001600160a01b0319166001600160a01b038381169190911791829055604051911681527f7ed72b9d012a44ff790c3eb9d7d6f5b03f04d47c5128249cf14d559126ba7656906020015b60405180910390a150565b6033546001600160a01b031633146109df5760405162461bcd60e51b81526004016106359061239f565b609b805464ffffffff00191661010063ffffffff8416908102919091179091556040519081527fb80014cbadaa4692dd31be5d87278068d67ed23b027c3063f855b3f828a00ea2906020016109aa565b6033546001600160a01b03163314610a595760405162461bcd60e51b81526004016106359061239f565b60005b81811015610b5357600160996000858585818110610a8a57634e487b7160e01b600052603260045260246000fd5b9050602002016020810190610a9f9190611d27565b6001600160a01b031681526020810191909152604001600020805460ff1916911515919091179055828282818110610ae757634e487b7160e01b600052603260045260246000fd5b9050602002016020810190610afc9190611d27565b6001600160a01b03167f8e91a79c752035dd825468c2990c5d65794e64e4025fa3b1800c4eef2bdd42496001604051610b39911515815260200190565b60405180910390a280610b4b816125a6565b915050610a5c565b505050565b6033546001600160a01b03163314610b825760405162461bcd60e51b81526004016106359061239f565b610b8a6115f4565b565b609c546001600160a01b03163314610bf15760405162461bcd60e51b815260206004820152602260248201527f4272696467653a2073656e646572206e6f7420726f756e64207375626d69747460448201526132b960f11b6064820152608401610635565b609b54610c4b90610c1090600160681b900463ffffffff1660016124dd565b8484808060200260200160405190810160405280939291908181526020018383602002808284376000920191909152508692506113e2915050565b609b8054600160681b900463ffffffff1690600d610c68836125c1565b91906101000a81548163ffffffff021916908363ffffffff16021790555050505050565b6000610cf682610cf085805190602001206040517f19457468657265756d205369676e6564204d6573736167653a0a3332000000006020820152603c8101829052600090605c01604051602081830303815290604052805190602001209050919050565b90611687565b9392505050565b6033546001600160a01b03163314610d275760405162461bcd60e51b81526004016106359061239f565b609b805468ffffffff000000000019166501000000000063ffffffff8416908102919091179091556040519081527f33bf3241a8582c0b4d713c63761f4f809f651202e32748b335ec8bda0ac74f6c906020016109aa565b6033546001600160a01b03163314610da95760405162461bcd60e51b81526004016106359061239f565b60005b81811015610b5357600060996000858585818110610dda57634e487b7160e01b600052603260045260246000fd5b9050602002016020810190610def9190611d27565b6001600160a01b031681526020810191909152604001600020805460ff1916911515919091179055828282818110610e3757634e487b7160e01b600052603260045260246000fd5b9050602002016020810190610e4c9190611d27565b6001600160a01b03167f8e91a79c752035dd825468c2990c5d65794e64e4025fa3b1800c4eef2bdd42496000604051610e89911515815260200190565b60405180910390a280610e9b816125a6565b915050610dac565b6033546001600160a01b03163314610ecd5760405162461bcd60e51b81526004016106359061239f565b610b8a600061175e565b6033546001600160a01b03163314610f015760405162461bcd60e51b81526004016106359061239f565b610b8a6117b0565b6033546001600160a01b03163314610f335760405162461bcd60e51b81526004016106359061239f565b7f0ae1c27ed06d996178e8dd8d5a4de962856a4a1896d7d93ffa83bbdb2960803d81604051610f6291906123d4565b60405180910390a180609d610b538282612611565b600054610100900460ff1680610f90575060005460ff16155b610fac5760405162461bcd60e51b815260040161063590612351565b600054610100900460ff16158015610fd7576000805460ff1961ff0019909116610100171660011790555b610fdf61182b565b610fe76118af565b610ff089611347565b609c80546001600160a01b0319166001600160a01b038a169081179091556040519081527f7ed72b9d012a44ff790c3eb9d7d6f5b03f04d47c5128249cf14d559126ba76569060200160405180910390a1609b805464ffffffff00191661010063ffffffff8a81168202929092179283905560405192041681527fb80014cbadaa4692dd31be5d87278068d67ed23b027c3063f855b3f828a00ea29060200160405180910390a1609b805468ffffffff000000000019166501000000000063ffffffff8981168202929092179283905560405192041681527f33bf3241a8582c0b4d713c63761f4f809f651202e32748b335ec8bda0ac74f6c9060200160405180910390a1428463ffffffff1610156111655760405162461bcd60e51b815260206004820152603160248201527f4272696467653a20696e697469616c20726f756e6420656e642073686f756c6460448201527020626520696e207468652066757475726560781b6064820152608401610635565b84609b60096101000a81548163ffffffff021916908363ffffffff1602179055506111d7609b60099054906101000a900463ffffffff168484808060200260200160405190810160405280939291908181526020018383602002808284376000920191909152508992506113e2915050565b609b8054600160681b63ffffffff600160481b8304160263ffffffff60681b19909116179055801561120f576000805461ff00191690555b505050505050505050565b6001600160a01b03811660009081526099602052604090205460ff165b919050565b60008083806020019051810190611253919061212d565b610100810151609b549192509063ffffffff600160481b9091048116908216101561128357600192505050611341565b609b5463ffffffff600160681b909104811690821611156112a957600292505050611341565b60006112b686868461191f565b63ffffffff8084166000908152609a6020526040902054919250600160401b909104811690821610156112ef5760039350505050611341565b63ffffffff8083166000908152609a60205260409020546401000000009004164211156113225760049350505050611341565b60655460ff16156113395760059350505050611341565b600093505050505b92915050565b6033546001600160a01b031633146113715760405162461bcd60e51b81526004016106359061239f565b6001600160a01b0381166113d65760405162461bcd60e51b815260206004820152602660248201527f4f776e61626c653a206e6577206f776e657220697320746865207a65726f206160448201526564647265737360d01b6064820152608401610635565b6113df8161175e565b50565b60006003835160026113f4919061254a565b6113fe919061252a565b6114099060016124dd565b905060405180606001604052808363ffffffff168152602001609b60059054906101000a900463ffffffff168461144091906124dd565b63ffffffff9081168252609b5460209092019161010090048116908416106114685782611477565b609b54610100900463ffffffff165b63ffffffff9081169091528581166000818152609a60209081526040918290208551815492870151968401518616600160401b026bffffffff0000000000000000199787166401000000000267ffffffff00000000199290971663ffffffff199094169390931716949094179490941693909317825591517f2ce61c979b72a1395bdb012126e61daf9bd4debed80bce11325d00d0faa2f41b9161153c91905463ffffffff8082168352602082811c821690840152604091821c169082015260600190565b60405180910390a260005b83518110156115ed57600084828151811061157257634e487b7160e01b600052603260045260246000fd5b60209081029190910181015163ffffffff881660008181526098845260408082206001600160a01b0385168084529552808220805460ff191660011790555192945090917f94819138a8ba708dfe846523a28de6ec7c2838e707270e6be73644534e5979ef9190a350806115e5816125a6565b915050611547565b5050505050565b60655460ff1661163d5760405162461bcd60e51b815260206004820152601460248201527314185d5cd8589b194e881b9bdd081c185d5cd95960621b6044820152606401610635565b6065805460ff191690557f5db9ee0a495bf2e6ff9c91a7834c1ba4fdd244a5e8aa4e537bd38aeae4b073aa335b6040516001600160a01b03909116815260200160405180910390a1565b60008060008084516041146116a25760009350505050611341565b50505060208201516040830151606084015160001a601b8110156116ce576116cb601b82612505565b90505b8060ff16601b141580156116e657508060ff16601c14155b156116f75760009350505050611341565b60408051600081526020810180835288905260ff831691810191909152606081018490526080810183905260019060a0016020604051602081039080840390855afa15801561174a573d6000803e3d6000fd5b505050602060405103519350505050611341565b603380546001600160a01b038381166001600160a01b0319831681179093556040519116919082907f8be0079c531659141344cd1fd0a4f28419497f9722a3daafe3b4186f6b6457e090600090a35050565b60655460ff16156117f65760405162461bcd60e51b815260206004820152601060248201526f14185d5cd8589b194e881c185d5cd95960821b6044820152606401610635565b6065805460ff191660011790557f62e78cea01bee320cd4e420270b5ea74000d11b0c9f74754ebdbfc544b05a25861166a3390565b600054610100900460ff1680611844575060005460ff16155b6118605760405162461bcd60e51b815260040161063590612351565b600054610100900460ff1615801561188b576000805460ff1961ff0019909116610100171660011790555b611893611a42565b61189b611ab5565b80156113df576000805461ff001916905550565b600054610100900460ff16806118c8575060005460ff16155b6118e45760405162461bcd60e51b815260040161063590612351565b600054610100900460ff1615801561190f576000805460ff1961ff0019909116610100171660011790555b611917611a42565b61189b611b33565b60008080805b8551811015611a385760006119618888848151811061195457634e487b7160e01b600052603260045260246000fd5b6020026020010151610c8c565b9050836001600160a01b0316816001600160a01b0316116119ce5760405162461bcd60e51b815260206004820152602160248201527f4272696467653a207369676e6174757265732073657175656e63652077726f6e6044820152606760f81b6064820152608401610635565b63ffffffff861660009081526098602090815260408083206001600160a01b0385168452909152902054909350839060ff168015611a125750611a108161121a565b155b15611a255782611a21816125c1565b9350505b5080611a30816125a6565b915050611925565b5095945050505050565b600054610100900460ff1680611a5b575060005460ff16155b611a775760405162461bcd60e51b815260040161063590612351565b600054610100900460ff1615801561189b576000805460ff1961ff00199091166101001716600117905580156113df576000805461ff001916905550565b600054610100900460ff1680611ace575060005460ff16155b611aea5760405162461bcd60e51b815260040161063590612351565b600054610100900460ff16158015611b15576000805460ff1961ff0019909116610100171660011790555b6065805460ff1916905580156113df576000805461ff001916905550565b600054610100900460ff1680611b4c575060005460ff16155b611b685760405162461bcd60e51b815260040161063590612351565b600054610100900460ff16158015611b93576000805460ff1961ff0019909116610100171660011790555b61189b3361175e565b6000611baf611baa84612493565b612463565b83815290506020808201908360005b86811015611be557611bd38883358801611c4e565b84529282019290820190600101611bbe565b505050509392505050565b80356112378161263d565b80516112378161263d565b60008083601f840112611c17578182fd5b5081356001600160401b03811115611c2d578182fd5b6020830191508360208083028501011115611c4757600080fd5b9250929050565b600082601f830112611c5e578081fd5b8135611c6c611baa826124b6565b818152846020838601011115611c80578283fd5b816020850160208301379081016020019190915292915050565b600082601f830112611caa578081fd5b8151611cb8611baa826124b6565b818152846020838601011115611ccc578283fd5b611cdd826020830160208701612576565b949350505050565b803561123781612652565b805161123781612652565b803561123781612661565b805161123781612661565b803561123781612673565b805161123781612673565b600060208284031215611d38578081fd5b8135610cf68161263d565b60008060008060008060008060e0898b031215611d5e578384fd5b8835611d698161263d565b97506020890135611d798161263d565b96506040890135611d8981612661565b95506060890135611d9981612661565b94506080890135611da981612661565b935060a0890135611db981612661565b925060c08901356001600160401b03811115611dd3578283fd5b611ddf8b828c01611c06565b999c989b5096995094979396929594505050565b60008060208385031215611e05578182fd5b82356001600160401b03811115611e1a578283fd5b611e2685828601611c06565b90969095509350505050565b600080600060408486031215611e46578081fd5b83356001600160401b03811115611e5b578182fd5b611e6786828701611c06565b9094509250506020840135611e7b81612661565b809150509250925092565b600060208284031215611e97578081fd5b5035919050565b60008060008060408587031215611eb3578182fd5b84356001600160401b0380821115611ec9578384fd5b818701915087601f830112611edc578384fd5b813581811115611eea578485fd5b886020828501011115611efb578485fd5b602092830196509450908601359080821115611f15578384fd5b50611f2287828801611c06565b95989497509550505050565b600060208284031215611f3f578081fd5b81356001600160401b03811115611f54578182fd5b611cdd84828501611c4e565b60008060408385031215611f72578182fd5b82356001600160401b0380821115611f88578384fd5b611f9486838701611c4e565b93506020850135915080821115611fa9578283fd5b508301601f81018513611fba578182fd5b611fc985823560208401611b9c565b9150509250929050565b60008060408385031215611fe5578182fd5b82356001600160401b0380821115611ffb578384fd5b61200786838701611c4e565b9350602085013591508082111561201c578283fd5b50611fc985828601611c4e565b60006040828403121561203a578081fd5b50919050565b600060208284031215612051578081fd5b81356001600160401b0380821115612067578283fd5b818401915061012080838703121561207d578384fd5b61208681612463565b905061209183611d11565b815261209f60208401611cfb565b60208201526040830135828111156120b5578485fd5b6120c187828601611c4e565b6040830152506120d360608401611ce5565b6060820152608083013560808201526120ee60a08401611ce5565b60a082015260c083013560c082015261210960e08401611bf0565b60e0820152610100915061211e828401611cfb565b91810191909152949350505050565b60006020828403121561213e578081fd5b81516001600160401b0380821115612154578283fd5b818401915061012080838703121561216a578384fd5b61217381612463565b905061217e83611d1c565b815261218c60208401611d06565b60208201526040830151828111156121a2578485fd5b6121ae87828601611c9a565b6040830152506121c060608401611cf0565b6060820152608083015160808201526121db60a08401611cf0565b60a082015260c083015160c08201526121f660e08401611bfb565b60e0820152610100915061211e828401611d06565b60006020828403121561221c578081fd5b8135610cf681612661565b60008060408385031215612239578182fd5b823561224481612661565b915060208301356122548161263d565b809150509250929050565b600080600060608486031215612273578081fd5b835161227e81612661565b809350506020808501516001600160401b0381111561229b578283fd5b8501601f810187136122ab578283fd5b80516122b9611baa82612493565b81815283810190838501858402850186018b10156122d5578687fd5b8694505b838510156123005780516122ec8161263d565b8352600194909401939185019185016122d9565b50809650505050505061231560408501611d06565b90509250925092565b600060208252825180602084015261233d816040850160208701612576565b601f01601f19169190910160400192915050565b6020808252602e908201527f496e697469616c697a61626c653a20636f6e747261637420697320616c72656160408201526d191e481a5b9a5d1a585b1a5e995960921b606082015260800190565b6020808252818101527f4f776e61626c653a2063616c6c6572206973206e6f7420746865206f776e6572604082015260600190565b6040810182356123e381612652565b8060000b8352506020830135602083015292915050565b60006060820163ffffffff808716845260206060818601528287518085526080870191508289019450855b8181101561244a5785516001600160a01b031683529483019491830191600101612425565b5050809450505080851660408501525050949350505050565b604051601f8201601f191681016001600160401b038111828210171561248b5761248b6125fb565b604052919050565b60006001600160401b038211156124ac576124ac6125fb565b5060209081020190565b60006001600160401b038211156124cf576124cf6125fb565b50601f01601f191660200190565b600063ffffffff8083168185168083038211156124fc576124fc6125e5565b01949350505050565b600060ff821660ff84168060ff03821115612522576125226125e5565b019392505050565b60008261254557634e487b7160e01b81526012600452602481fd5b500490565b6000816000190483118215151615612564576125646125e5565b500290565b6000610cf6368484611b9c565b60005b83811015612591578181015183820152602001612579565b838111156125a0576000848401525b50505050565b60006000198214156125ba576125ba6125e5565b5060010190565b600063ffffffff808316818114156125db576125db6125e5565b6001019392505050565b634e487b7160e01b600052601160045260246000fd5b634e487b7160e01b600052604160045260246000fd5b813561261c81612652565b60ff1982541660ff8260000b16811783555050602082013560018201555050565b6001600160a01b03811681146113df57600080fd5b8060000b81146113df57600080fd5b63ffffffff811681146113df57600080fd5b6001600160401b03811681146113df57600080fdfea264697066735822122006f140962c1dd99668e9057afb7b2b3054a34d032d479d7ed67c99d1c451c07e64736f6c63430008020033",
  "devdoc": {
    "author": "https://github.com/broxus",
    "details": "Stores relays for each round, implements slashing, helps in validating TON-ETH events",
    "kind": "dev",
    "methods": {
      "banRelays(address[])": {
        "params": {
          "_relays": "List of relay addresses to ban"
        }
      },
      "forceRoundRelays(uint160[],uint32)": {
        "details": "Can be called only by `roundSubmitter`",
        "params": {
          "_relays": "Next round relays",
          "roundEnd": "Round end"
        }
      },
      "initialize(address,address,uint32,uint32,uint32,uint32,uint160[])": {
        "details": "`roundRelaysConfiguration` should be specified later.",
        "params": {
          "_initialRound": "Initial round number. Useful in case new EVM network is connected to the bridge.",
          "_initialRoundEnd": "Initial round end timestamp.",
          "_minimumRequiredSignatures": "Minimum required signatures per round.",
          "_owner": "Bridge owner",
          "_relays": "Initial set of relays. Encode addresses as uint160",
          "_roundSubmitter": "Round submitter",
          "_roundTTL": "Round TTL after round ends."
        }
      },
      "isBanned(address)": {
        "details": "Check if relay is banned. Ban is global. If the relay is banned it means it lost relay power in all rounds, past and future.",
        "params": {
          "candidate": "Address to check"
        }
      },
      "isRelay(uint32,address)": {
        "details": "Check if some address is relay at specific round",
        "params": {
          "candidate": "Address to check",
          "round": "Round id"
        }
      },
      "isRoundRotten(uint32)": {
        "details": "Check if round is rotten",
        "params": {
          "round": "Round id"
        }
      },
      "owner()": {
        "details": "Returns the address of the current owner."
      },
      "pause()": {
        "details": "When Bridge paused, signature verification fails."
      },
      "paused()": {
        "details": "Returns true if the contract is paused, and false otherwise."
      },
      "recoverSignature(bytes,bytes)": {
        "params": {
          "payload": "Payload",
          "signature": "Signature"
        }
      },
      "renounceOwnership()": {
        "details": "Leaves the contract without owner. It will not be possible to call `onlyOwner` functions anymore. Can only be called by the current owner. NOTE: Renouncing ownership will leave the contract without an owner, thereby removing any functionality that is only available to the owner."
      },
      "setRoundRelays(bytes,bytes[])": {
        "details": "Grant relay permission for set of addresses at specific round",
        "params": {
          "payload": "Bytes encoded TONEvent structure",
          "signatures": "Payload signatures"
        }
      },
      "setRoundSubmitter(address)": {
        "details": "Can be called only by owner",
        "params": {
          "_roundSubmitter": "New round submitter address"
        }
      },
      "transferOwnership(address)": {
        "details": "Transfers ownership of the contract to a new account (`newOwner`). Can only be called by the current owner."
      },
      "unbanRelays(address[])": {
        "params": {
          "_relays": "List of relay addresses to unban"
        }
      },
      "updateMinimumRequiredSignatures(uint32)": {
        "params": {
          "_minimumRequiredSignatures": "New value"
        }
      },
      "updateRoundRelaysConfiguration((int8,uint256))": {
        "params": {
          "_roundRelaysConfiguration": "TON address of configuration"
        }
      },
      "updateRoundTTL(uint32)": {
        "details": "This affects only future rounds. Rounds, that were already set, keep their current TTL.",
        "params": {
          "_roundTTL": "New TTL value"
        }
      },
      "verifySignedTonEvent(bytes,bytes[])": {
        "details": "Signatures should be sorted by the ascending signers. Error codes: 0. Verification passed (no error) 1. Specified round is less than `initialRound` 2. Specified round is more than `lastRound` 3. Not enough correct signatures. Possible reasons: - Some of the signers are not relays at the specified round - Some of the signers are banned 4. Round is rotten. 5. Everything is correct, but bridge is in \"paused\" state",
        "params": {
          "payload": "Bytes encoded TONEvent structure",
          "signatures": "Payload signatures"
        },
        "returns": {
          "errorCode": "Error code"
        }
      }
    },
    "title": "Ethereum Bridge contract",
    "version": 1
  },
  "userdoc": {
    "kind": "user",
    "methods": {
      "banRelays(address[])": {
        "notice": "Ban relays"
      },
      "forceRoundRelays(uint160[],uint32)": {
        "notice": "Forced set of next round relays"
      },
      "initialize(address,address,uint32,uint32,uint32,uint32,uint160[])": {
        "notice": "Bridge initializer"
      },
      "pause()": {
        "notice": "Pause Bridge contract."
      },
      "recoverSignature(bytes,bytes)": {
        "notice": "Recover signer from the payload and signature"
      },
      "setRoundSubmitter(address)": {
        "notice": "Set round submitter"
      },
      "unbanRelays(address[])": {
        "notice": "Unban relays"
      },
      "unpause()": {
        "notice": "Unpause Bridge contract."
      },
      "updateMinimumRequiredSignatures(uint32)": {
        "notice": "Update minimum amount of required signatures per round"
      },
      "updateRoundRelaysConfiguration((int8,uint256))": {
        "notice": "Update address of configuration, that emits event with next round relays."
      },
      "updateRoundTTL(uint32)": {
        "notice": "Update round TTL"
      },
      "verifySignedTonEvent(bytes,bytes[])": {
        "notice": "Verify payload signatures."
      }
    },
    "version": 1
  },
  "storageLayout": {
    "storage": [
      {
        "astId": 130,
        "contract": "contracts/bridge/Bridge.sol:Bridge",
        "label": "_initialized",
        "offset": 0,
        "slot": "0",
        "type": "t_bool"
      },
      {
        "astId": 133,
        "contract": "contracts/bridge/Bridge.sol:Bridge",
        "label": "_initializing",
        "offset": 1,
        "slot": "0",
        "type": "t_bool"
      },
      {
        "astId": 325,
        "contract": "contracts/bridge/Bridge.sol:Bridge",
        "label": "__gap",
        "offset": 0,
        "slot": "1",
        "type": "t_array(t_uint256)50_storage"
      },
      {
        "astId": 10,
        "contract": "contracts/bridge/Bridge.sol:Bridge",
        "label": "_owner",
        "offset": 0,
        "slot": "51",
        "type": "t_address"
      },
      {
        "astId": 123,
        "contract": "contracts/bridge/Bridge.sol:Bridge",
        "label": "__gap",
        "offset": 0,
        "slot": "52",
        "type": "t_array(t_uint256)49_storage"
      },
      {
        "astId": 191,
        "contract": "contracts/bridge/Bridge.sol:Bridge",
        "label": "_paused",
        "offset": 0,
        "slot": "101",
        "type": "t_bool"
      },
      {
        "astId": 282,
        "contract": "contracts/bridge/Bridge.sol:Bridge",
        "label": "__gap",
        "offset": 0,
        "slot": "102",
        "type": "t_array(t_uint256)49_storage"
      },
      {
        "astId": 3594,
        "contract": "contracts/bridge/Bridge.sol:Bridge",
        "label": "cache",
        "offset": 0,
        "slot": "151",
        "type": "t_mapping(t_bytes32,t_bool)"
      },
      {
        "astId": 2373,
        "contract": "contracts/bridge/Bridge.sol:Bridge",
        "label": "relays",
        "offset": 0,
        "slot": "152",
        "type": "t_mapping(t_uint32,t_mapping(t_address,t_bool))"
      },
      {
        "astId": 2377,
        "contract": "contracts/bridge/Bridge.sol:Bridge",
        "label": "blacklist",
        "offset": 0,
        "slot": "153",
        "type": "t_mapping(t_address,t_bool)"
      },
      {
        "astId": 2382,
        "contract": "contracts/bridge/Bridge.sol:Bridge",
        "label": "rounds",
        "offset": 0,
        "slot": "154",
        "type": "t_mapping(t_uint32,t_struct(Round)3138_storage)"
      },
      {
        "astId": 2384,
        "contract": "contracts/bridge/Bridge.sol:Bridge",
        "label": "emergencyShutdown",
        "offset": 0,
        "slot": "155",
        "type": "t_bool"
      },
      {
        "astId": 2386,
        "contract": "contracts/bridge/Bridge.sol:Bridge",
        "label": "minimumRequiredSignatures",
        "offset": 1,
        "slot": "155",
        "type": "t_uint32"
      },
      {
        "astId": 2388,
        "contract": "contracts/bridge/Bridge.sol:Bridge",
        "label": "roundTTL",
        "offset": 5,
        "slot": "155",
        "type": "t_uint32"
      },
      {
        "astId": 2390,
        "contract": "contracts/bridge/Bridge.sol:Bridge",
        "label": "initialRound",
        "offset": 9,
        "slot": "155",
        "type": "t_uint32"
      },
      {
        "astId": 2392,
        "contract": "contracts/bridge/Bridge.sol:Bridge",
        "label": "lastRound",
        "offset": 13,
        "slot": "155",
        "type": "t_uint32"
      },
      {
        "astId": 2394,
        "contract": "contracts/bridge/Bridge.sol:Bridge",
        "label": "roundSubmitter",
        "offset": 0,
        "slot": "156",
        "type": "t_address"
      },
      {
        "astId": 2397,
        "contract": "contracts/bridge/Bridge.sol:Bridge",
        "label": "roundRelaysConfiguration",
        "offset": 0,
        "slot": "157",
        "type": "t_struct(TONAddress)3143_storage"
      }
    ],
    "types": {
      "t_address": {
        "encoding": "inplace",
        "label": "address",
        "numberOfBytes": "20"
      },
      "t_array(t_uint256)49_storage": {
        "base": "t_uint256",
        "encoding": "inplace",
        "label": "uint256[49]",
        "numberOfBytes": "1568"
      },
      "t_array(t_uint256)50_storage": {
        "base": "t_uint256",
        "encoding": "inplace",
        "label": "uint256[50]",
        "numberOfBytes": "1600"
      },
      "t_bool": {
        "encoding": "inplace",
        "label": "bool",
        "numberOfBytes": "1"
      },
      "t_bytes32": {
        "encoding": "inplace",
        "label": "bytes32",
        "numberOfBytes": "32"
      },
      "t_int8": {
        "encoding": "inplace",
        "label": "int8",
        "numberOfBytes": "1"
      },
      "t_mapping(t_address,t_bool)": {
        "encoding": "mapping",
        "key": "t_address",
        "label": "mapping(address => bool)",
        "numberOfBytes": "32",
        "value": "t_bool"
      },
      "t_mapping(t_bytes32,t_bool)": {
        "encoding": "mapping",
        "key": "t_bytes32",
        "label": "mapping(bytes32 => bool)",
        "numberOfBytes": "32",
        "value": "t_bool"
      },
      "t_mapping(t_uint32,t_mapping(t_address,t_bool))": {
        "encoding": "mapping",
        "key": "t_uint32",
        "label": "mapping(uint32 => mapping(address => bool))",
        "numberOfBytes": "32",
        "value": "t_mapping(t_address,t_bool)"
      },
      "t_mapping(t_uint32,t_struct(Round)3138_storage)": {
        "encoding": "mapping",
        "key": "t_uint32",
        "label": "mapping(uint32 => struct IBridge.Round)",
        "numberOfBytes": "32",
        "value": "t_struct(Round)3138_storage"
      },
      "t_struct(Round)3138_storage": {
        "encoding": "inplace",
        "label": "struct IBridge.Round",
        "members": [
          {
            "astId": 3133,
            "contract": "contracts/bridge/Bridge.sol:Bridge",
            "label": "end",
            "offset": 0,
            "slot": "0",
            "type": "t_uint32"
          },
          {
            "astId": 3135,
            "contract": "contracts/bridge/Bridge.sol:Bridge",
            "label": "ttl",
            "offset": 4,
            "slot": "0",
            "type": "t_uint32"
          },
          {
            "astId": 3137,
            "contract": "contracts/bridge/Bridge.sol:Bridge",
            "label": "requiredSignatures",
            "offset": 8,
            "slot": "0",
            "type": "t_uint32"
          }
        ],
        "numberOfBytes": "32"
      },
      "t_struct(TONAddress)3143_storage": {
        "encoding": "inplace",
        "label": "struct IBridge.TONAddress",
        "members": [
          {
            "astId": 3140,
            "contract": "contracts/bridge/Bridge.sol:Bridge",
            "label": "wid",
            "offset": 0,
            "slot": "0",
            "type": "t_int8"
          },
          {
            "astId": 3142,
            "contract": "contracts/bridge/Bridge.sol:Bridge",
            "label": "addr",
            "offset": 0,
            "slot": "1",
            "type": "t_uint256"
          }
        ],
        "numberOfBytes": "64"
      },
      "t_uint256": {
        "encoding": "inplace",
        "label": "uint256",
        "numberOfBytes": "32"
      },
      "t_uint32": {
        "encoding": "inplace",
        "label": "uint32",
        "numberOfBytes": "4"
      }
    }
  }
}