{
  "address": "0x0bf41165F7d0d289007029bc01Bf4AF2d98dDDc4",
  "abi": [
    {
      "inputs": [
        {
          "internalType": "address",
          "name": "_bridge",
          "type": "address"
        },
        {
          "internalType": "address",
          "name": "_proxyAdmin",
          "type": "address"
        },
        {
          "internalType": "address",
          "name": "_wrapper",
          "type": "address"
        }
      ],
      "stateMutability": "nonpayable",
      "type": "constructor"
    },
    {
      "anonymous": false,
      "inputs": [
        {
          "indexed": true,
          "internalType": "address",
          "name": "token",
          "type": "address"
        },
        {
          "indexed": true,
          "internalType": "address",
          "name": "deployer",
          "type": "address"
        },
        {
          "indexed": false,
          "internalType": "address",
          "name": "vault",
          "type": "address"
        },
        {
          "indexed": false,
          "internalType": "string",
          "name": "api_version",
          "type": "string"
        }
      ],
      "name": "NewExperimentalVault",
      "type": "event"
    },
    {
      "anonymous": false,
      "inputs": [
        {
          "indexed": true,
          "internalType": "uint256",
          "name": "release_id",
          "type": "uint256"
        },
        {
          "indexed": false,
          "internalType": "address",
          "name": "template",
          "type": "address"
        },
        {
          "indexed": false,
          "internalType": "string",
          "name": "api_version",
          "type": "string"
        }
      ],
      "name": "NewRelease",
      "type": "event"
    },
    {
      "anonymous": false,
      "inputs": [
        {
          "indexed": true,
          "internalType": "address",
          "name": "token",
          "type": "address"
        },
        {
          "indexed": true,
          "internalType": "uint256",
          "name": "vault_id",
          "type": "uint256"
        },
        {
          "indexed": false,
          "internalType": "address",
          "name": "vault",
          "type": "address"
        },
        {
          "indexed": false,
          "internalType": "string",
          "name": "api_version",
          "type": "string"
        }
      ],
      "name": "NewVault",
      "type": "event"
    },
    {
      "anonymous": false,
      "inputs": [
        {
          "indexed": true,
          "internalType": "address",
          "name": "previousOwner",
          "type": "address"
        },
        {
          "indexed": true,
          "internalType": "address",
          "name": "newOwner",
          "type": "address"
        }
      ],
      "name": "OwnershipTransferred",
      "type": "event"
    },
    {
      "anonymous": false,
      "inputs": [
        {
          "indexed": true,
          "internalType": "address",
          "name": "vaultWrapper",
          "type": "address"
        }
      ],
      "name": "UpdateVaultWrapper",
      "type": "event"
    },
    {
      "anonymous": false,
      "inputs": [
        {
          "indexed": false,
          "internalType": "address",
          "name": "vault",
          "type": "address"
        },
        {
          "indexed": false,
          "internalType": "string",
          "name": "tag",
          "type": "string"
        }
      ],
      "name": "VaultTagged",
      "type": "event"
    },
    {
      "inputs": [
        {
          "internalType": "address",
          "name": "",
          "type": "address"
        }
      ],
      "name": "banksy",
      "outputs": [
        {
          "internalType": "bool",
          "name": "",
          "type": "bool"
        }
      ],
      "stateMutability": "view",
      "type": "function"
    },
    {
      "inputs": [],
      "name": "bridge",
      "outputs": [
        {
          "internalType": "address",
          "name": "",
          "type": "address"
        }
      ],
      "stateMutability": "view",
      "type": "function"
    },
    {
      "inputs": [
        {
          "internalType": "address",
          "name": "vault",
          "type": "address"
        },
        {
          "internalType": "uint256",
          "name": "releaseDelta",
          "type": "uint256"
        }
      ],
      "name": "endorseVault",
      "outputs": [],
      "stateMutability": "nonpayable",
      "type": "function"
    },
    {
      "inputs": [
        {
          "internalType": "address",
          "name": "",
          "type": "address"
        }
      ],
      "name": "isRegistered",
      "outputs": [
        {
          "internalType": "bool",
          "name": "",
          "type": "bool"
        }
      ],
      "stateMutability": "view",
      "type": "function"
    },
    {
      "inputs": [],
      "name": "latestRelease",
      "outputs": [
        {
          "internalType": "string",
          "name": "api_version",
          "type": "string"
        }
      ],
      "stateMutability": "view",
      "type": "function"
    },
    {
      "inputs": [
        {
          "internalType": "address",
          "name": "token",
          "type": "address"
        }
      ],
      "name": "latestVault",
      "outputs": [
        {
          "internalType": "address",
          "name": "",
          "type": "address"
        }
      ],
      "stateMutability": "view",
      "type": "function"
    },
    {
      "inputs": [
        {
          "internalType": "address",
          "name": "token",
          "type": "address"
        },
        {
          "internalType": "address",
          "name": "governance",
          "type": "address"
        },
        {
          "internalType": "address",
          "name": "guardian",
          "type": "address"
        },
        {
          "internalType": "uint256",
          "name": "releaseDelta",
          "type": "uint256"
        }
      ],
      "name": "newExperimentalVault",
      "outputs": [
        {
          "internalType": "address",
          "name": "",
          "type": "address"
        }
      ],
      "stateMutability": "nonpayable",
      "type": "function"
    },
    {
      "inputs": [
        {
          "internalType": "address",
          "name": "vault",
          "type": "address"
        }
      ],
      "name": "newRelease",
      "outputs": [],
      "stateMutability": "nonpayable",
      "type": "function"
    },
    {
      "inputs": [
        {
          "internalType": "address",
          "name": "token",
          "type": "address"
        },
        {
          "internalType": "address",
          "name": "guardian",
          "type": "address"
        },
        {
          "internalType": "uint256",
          "name": "releaseDelta",
          "type": "uint256"
        }
      ],
      "name": "newVault",
      "outputs": [
        {
          "internalType": "address",
          "name": "",
          "type": "address"
        }
      ],
      "stateMutability": "nonpayable",
      "type": "function"
    },
    {
      "inputs": [],
      "name": "numReleases",
      "outputs": [
        {
          "internalType": "uint256",
          "name": "",
          "type": "uint256"
        }
      ],
      "stateMutability": "view",
      "type": "function"
    },
    {
      "inputs": [],
      "name": "numTokens",
      "outputs": [
        {
          "internalType": "uint256",
          "name": "",
          "type": "uint256"
        }
      ],
      "stateMutability": "view",
      "type": "function"
    },
    {
      "inputs": [
        {
          "internalType": "address",
          "name": "",
          "type": "address"
        }
      ],
      "name": "numVaults",
      "outputs": [
        {
          "internalType": "uint256",
          "name": "",
          "type": "uint256"
        }
      ],
      "stateMutability": "view",
      "type": "function"
    },
    {
      "inputs": [],
      "name": "owner",
      "outputs": [
        {
          "internalType": "address",
          "name": "",
          "type": "address"
        }
      ],
      "stateMutability": "view",
      "type": "function"
    },
    {
      "inputs": [],
      "name": "proxyAdmin",
      "outputs": [
        {
          "internalType": "address",
          "name": "",
          "type": "address"
        }
      ],
      "stateMutability": "view",
      "type": "function"
    },
    {
      "inputs": [
        {
          "internalType": "uint256",
          "name": "",
          "type": "uint256"
        }
      ],
      "name": "releases",
      "outputs": [
        {
          "internalType": "address",
          "name": "",
          "type": "address"
        }
      ],
      "stateMutability": "view",
      "type": "function"
    },
    {
      "inputs": [],
      "name": "renounceOwnership",
      "outputs": [],
      "stateMutability": "nonpayable",
      "type": "function"
    },
    {
      "inputs": [
        {
          "internalType": "address",
          "name": "tagger",
          "type": "address"
        },
        {
          "internalType": "bool",
          "name": "allowed",
          "type": "bool"
        }
      ],
      "name": "setBanksy",
      "outputs": [],
      "stateMutability": "nonpayable",
      "type": "function"
    },
    {
      "inputs": [
        {
          "internalType": "address",
          "name": "_bridge",
          "type": "address"
        }
      ],
      "name": "setBridge",
      "outputs": [],
      "stateMutability": "nonpayable",
      "type": "function"
    },
    {
      "inputs": [
        {
          "internalType": "address",
          "name": "_proxyAdmin",
          "type": "address"
        }
      ],
      "name": "setProxyAdmin",
      "outputs": [],
      "stateMutability": "nonpayable",
      "type": "function"
    },
    {
      "inputs": [
        {
          "internalType": "address",
          "name": "vault",
          "type": "address"
        },
        {
          "internalType": "string",
          "name": "tag",
          "type": "string"
        }
      ],
      "name": "tagVault",
      "outputs": [],
      "stateMutability": "nonpayable",
      "type": "function"
    },
    {
      "inputs": [
        {
          "internalType": "address",
          "name": "",
          "type": "address"
        }
      ],
      "name": "tags",
      "outputs": [
        {
          "internalType": "string",
          "name": "",
          "type": "string"
        }
      ],
      "stateMutability": "view",
      "type": "function"
    },
    {
      "inputs": [
        {
          "internalType": "address",
          "name": "newOwner",
          "type": "address"
        }
      ],
      "name": "transferOwnership",
      "outputs": [],
      "stateMutability": "nonpayable",
      "type": "function"
    },
    {
      "inputs": [],
      "name": "wrapper",
      "outputs": [
        {
          "internalType": "address",
          "name": "",
          "type": "address"
        }
      ],
      "stateMutability": "view",
      "type": "function"
    }
  ],
  "transactionHash": "0xa3d48adb367a79d24f28ae7682dcc2865f81cd56c5095380e49d67162750ab60",
  "args": [
    "0xA2c568fCddFC9165A1022D80Ab69e757F0c01741",
    "0x90fc6CfFAD78DC2f9F3b761CfD8eE5660542a416",
    "0xDABd8eaF10A172FB0425804b06420362cf6F6EC1"
  ],
  "solcInputHash": "08b2cf5de0422650c74c59ba8bfa7a30",
  "bytecode": "0x60806040523480156200001157600080fd5b5060405162002aff38038062002aff8339810160408190526200003491620000ef565b6200003f3362000082565b600880546001600160a01b039485166001600160a01b0319918216179091556009805493851693821693909317909255600a805491909316911617905562000138565b600080546001600160a01b038381166001600160a01b0319831681178455604051919092169283917f8be0079c531659141344cd1fd0a4f28419497f9722a3daafe3b4186f6b6457e09190a35050565b80516001600160a01b0381168114620000ea57600080fd5b919050565b60008060006060848603121562000104578283fd5b6200010f84620000d2565b92506200011f60208501620000d2565b91506200012f60408501620000d2565b90509250925092565b6129b780620001486000396000f3fe60806040523480156200001157600080fd5b50600436106200016c5760003560e01c80638dd1480211620000d5578063c677a0651162000087578063c677a065146200032b578063e177dc701462000342578063e78cea921462000359578063ee711ed5146200036d578063f2fde38b1462000393578063f9c7bba514620003aa576200016c565b80638dd14802146200027c5780638e499bcf1462000293578063ac210cc7146200029d578063b366a35c14620002b1578063b6a9f40f14620002c8578063c3c5a54714620002f4576200016c565b80635e05f6af116200012f5780635e05f6af146200021157806360bd68f81462000228578063715018a6146200023f5780637331a84314620002495780637be0ca5e14620002605780638da5cb5b146200026a576200016c565b806333990d4b14620001715780633e47158c146200018a57806347c0266114620001bb57806356e0a94b14620001d257806358b8f84214620001eb575b600080fd5b6200018862000182366004620015af565b620003cd565b005b6009546200019e906001600160a01b031681565b6040516001600160a01b0390911681526020015b60405180910390f35b62000188620001cc366004620015af565b620006a2565b620001dc60015481565b604051908152602001620001b2565b62000202620001fc366004620015af565b620006f1565b604051620001b291906200189b565b620001886200022236600462001690565b62000793565b6200018862000239366004620016d0565b620007eb565b62000188620008e0565b6200019e6200025a3660046200164b565b6200091b565b6200020262000991565b6000546001600160a01b03166200019e565b620001886200028d366004620015af565b62000a46565b620001dc60065481565b600a546200019e906001600160a01b031681565b62000188620002c236600462001767565b62000a95565b6200019e620002d936600462001808565b6002602052600090815260409020546001600160a01b031681565b6200031a62000305366004620015af565b60076020526000908152604090205460ff1681565b6040519015158152602001620001b2565b6200019e6200033c366004620015f4565b62000dcc565b6200019e62000353366004620015af565b62000ed1565b6008546200019e906001600160a01b031681565b6200031a6200037e366004620015af565b600c6020526000908152604090205460ff1681565b62000188620003a4366004620015af565b62000f24565b620001dc620003bb366004620015af565b60036020526000908152604090205481565b6000546001600160a01b03163314620004035760405162461bcd60e51b8152600401620003fa90620018b0565b60405180910390fd5b6001548015620005b0576200053b60026000620004226001856200195f565b815260200190815260200160002060009054906101000a90046001600160a01b03166001600160a01b031663258294106040518163ffffffff1660e01b815260040160006040518083038186803b1580156200047d57600080fd5b505afa15801562000492573d6000803e3d6000fd5b505050506040513d6000823e601f3d908101601f19168201604052620004bc919081019062001795565b836001600160a01b031663258294106040518163ffffffff1660e01b815260040160006040518083038186803b158015620004f657600080fd5b505afa1580156200050b573d6000803e3d6000fd5b505050506040513d6000823e601f3d908101601f1916820160405262000535919081019062001795565b62000fc6565b15620005b05760405162461bcd60e51b815260206004820152603760248201527f52656769737472793a206e65772072656c656173652073686f756c642068617660448201527f6520646966666572656e74206170692076657273696f6e0000000000000000006064820152608401620003fa565b600081815260026020526040902080546001600160a01b0319166001600160a01b038416179055620005e481600162001944565b600181905550807fa6fbd216b6734f34092f1be6b7247e1551a6d4f2d5000c53721cfdc119a5b7cf83846001600160a01b031663258294106040518163ffffffff1660e01b815260040160006040518083038186803b1580156200064757600080fd5b505afa1580156200065c573d6000803e3d6000fd5b505050506040513d6000823e601f3d908101601f1916820160405262000686919081019062001795565b604051620006969291906200186d565b60405180910390a25050565b6000546001600160a01b03163314620006cf5760405162461bcd60e51b8152600401620003fa90620018b0565b600980546001600160a01b0319166001600160a01b0392909216919091179055565b600b60205260009081526040902080546200070c90620019a8565b80601f01602080910402602001604051908101604052809291908181526020018280546200073a90620019a8565b80156200078b5780601f106200075f576101008083540402835291602001916200078b565b820191906000526020600020905b8154815290600101906020018083116200076d57829003601f168201915b505050505081565b6000546001600160a01b03163314620007c05760405162461bcd60e51b8152600401620003fa90620018b0565b6001600160a01b03919091166000908152600c60205260409020805460ff1916911515919091179055565b6000546001600160a01b031633146200087557336000908152600c602052604090205460ff16620008755760405162461bcd60e51b815260206004820152602d60248201527f52656769737472793a206f6e6c79206f776e6572206f722062616e6b7379206160448201526c6c6c6f77656420746f2074616760981b6064820152608401620003fa565b6001600160a01b0382166000908152600b602090815260409091208251620008a092840190620014fb565b507f07bd58794c2ca0ae152f7719eb5f02c654476de972cadec0e8191ae8be42096d8282604051620008d49291906200186d565b60405180910390a15050565b6000546001600160a01b031633146200090d5760405162461bcd60e51b8152600401620003fa90620018b0565b62000919600062001023565b565b600080546001600160a01b03163314620009495760405162461bcd60e51b8152600401620003fa90620018b0565b600082600180546200095c91906200195f565b6200096891906200195f565b905060006200097a8633878562001073565b9050620009888682620012ad565b95945050505050565b60606002600060018054620009a791906200195f565b815260200190815260200160002060009054906101000a90046001600160a01b03166001600160a01b031663258294106040518163ffffffff1660e01b815260040160006040518083038186803b15801562000a0257600080fd5b505afa15801562000a17573d6000803e3d6000fd5b505050506040513d6000823e601f3d908101601f1916820160405262000a41919081019062001795565b905090565b6000546001600160a01b0316331462000a735760405162461bcd60e51b8152600401620003fa90620018b0565b600880546001600160a01b0319166001600160a01b0392909216919091179055565b6000546001600160a01b0316331462000ac25760405162461bcd60e51b8152600401620003fa90620018b0565b336001600160a01b0316826001600160a01b0316635aa6e6756040518163ffffffff1660e01b815260040160206040518083038186803b15801562000b0657600080fd5b505afa15801562000b1b573d6000803e3d6000fd5b505050506040513d601f19601f8201168201806040525081019062000b419190620015d5565b6001600160a01b03161462000b995760405162461bcd60e51b815260206004820181905260248201527f52656769737472793a2077726f6e67207661756c7420676f7665726e616e63656044820152606401620003fa565b6000816001805462000bac91906200195f565b62000bb891906200195f565b600081815260026020526040808220548151630258294160e41b8152915193945091926001600160a01b03909216916325829410916004808201928692909190829003018186803b15801562000c0d57600080fd5b505afa15801562000c22573d6000803e3d6000fd5b505050506040513d6000823e601f3d908101601f1916820160405262000c4c919081019062001795565b905062000cd2846001600160a01b031663258294106040518163ffffffff1660e01b815260040160006040518083038186803b15801562000c8c57600080fd5b505afa15801562000ca1573d6000803e3d6000fd5b505050506040513d6000823e601f3d908101601f1916820160405262000ccb919081019062001795565b8262000fc6565b62000d465760405162461bcd60e51b815260206004820152603760248201527f52656769737472793a207661756c742073686f756c6420686176652073616d6560448201527f206170692076657273696f6e2061732072656c656173650000000000000000006064820152608401620003fa565b62000dc6846001600160a01b031663fc0c546a6040518163ffffffff1660e01b815260040160206040518083038186803b15801562000d8457600080fd5b505afa15801562000d99573d6000803e3d6000fd5b505050506040513d601f19601f8201168201806040525081019062000dbf9190620015d5565b85620012ad565b50505050565b600080826001805462000de091906200195f565b62000dec91906200195f565b9050600062000dfe8787878562001073565b9050336001600160a01b0316876001600160a01b03167f57a9cdc2a05e05f66e76769bdbe88e21ec45d9ee0f97d4cb60395d4c75dcbcda83846001600160a01b031663258294106040518163ffffffff1660e01b815260040160006040518083038186803b15801562000e7057600080fd5b505afa15801562000e85573d6000803e3d6000fd5b505050506040513d6000823e601f3d908101601f1916820160405262000eaf919081019062001795565b60405162000ebf9291906200186d565b60405180910390a39695505050505050565b6001600160a01b03811660009081526004602090815260408083206003909252822054829062000f04906001906200195f565b81526020810191909152604001600020546001600160a01b031692915050565b6000546001600160a01b0316331462000f515760405162461bcd60e51b8152600401620003fa90620018b0565b6001600160a01b03811662000fb85760405162461bcd60e51b815260206004820152602660248201527f4f776e61626c653a206e6577206f776e657220697320746865207a65726f206160448201526564647265737360d01b6064820152608401620003fa565b62000fc38162001023565b50565b60008160405160200162000fdb91906200184f565b60405160208183030381529060405280519060200120836040516020016200100491906200184f565b6040516020818303038152906040528051906020012014905092915050565b600080546001600160a01b038381166001600160a01b0319831681178455604051919092169283917f8be0079c531659141344cd1fd0a4f28419497f9722a3daafe3b4186f6b6457e09190a35050565b6000818152600260205260408120546001600160a01b031680620010e45760405162461bcd60e51b815260206004820152602160248201527f52656769737472793a2072656c65617365207461726765742069732077726f6e6044820152606760f81b6064820152608401620003fa565b60095460405160009183916001600160a01b039091169062001106906200158a565b6001600160a01b03928316815291166020820152606060408201819052600090820152608001604051809103906000f08015801562001149573d6000803e3d6000fd5b50600a546009546040519293506000926001600160a01b03928316929091169062001174906200158a565b6001600160a01b03928316815291166020820152606060408201819052600090820152608001604051809103906000f080158015620011b7573d6000803e3d6000fd5b5060405163189acdbd60e31b81526001600160a01b0384811660048301529192509082169063c4d66de890602401600060405180830381600087803b1580156200120057600080fd5b505af115801562001215573d6000803e3d6000fd5b505060085460405163cc2a9a5b60e01b81526001600160a01b038c811660048301528b81166024830152918216604482015284821660648201528982166084820152600060a4820152908516925063cc2a9a5b915060c401600060405180830381600087803b1580156200128857600080fd5b505af11580156200129d573d6000803e3d6000fd5b50939a9950505050505050505050565b6001600160a01b038216600090815260036020526040902054801562001364576001600160a01b0383166000908152600460205260408120620012f791620004226001856200195f565b15620013645760405162461bcd60e51b815260206004820152603560248201527f52656769737472793a206e6577207661756c742073686f756c642068617665206044820152743234b33332b932b73a1030b834903b32b939b4b7b760591b6064820152608401620003fa565b6001600160a01b038381166000908152600460209081526040808320858452909152902080546001600160a01b031916918416919091179055620013aa81600162001944565b6001600160a01b03841660009081526003602090815260408083209390935560079052205460ff1662001438576001600160a01b0383166000818152600760209081526040808320805460ff19166001908117909155600680548552600590935290832080546001600160a01b03191690941790935580549091906200143290849062001944565b90915550505b80836001600160a01b03167fce089905ba4a4d622553bcb5646fd23e895c256f0376eee04e99e61cec1dc7e884856001600160a01b031663258294106040518163ffffffff1660e01b815260040160006040518083038186803b1580156200149f57600080fd5b505afa158015620014b4573d6000803e3d6000fd5b505050506040513d6000823e601f3d908101601f19168201604052620014de919081019062001795565b604051620014ee9291906200186d565b60405180910390a3505050565b8280546200150990620019a8565b90600052602060002090601f0160209004810192826200152d576000855562001578565b82601f106200154857805160ff191683800117855562001578565b8280016001018555821562001578579182015b82811115620015785782518255916020019190600101906200155b565b506200158692915062001598565b5090565b610f5a8062001a2883390190565b5b8082111562001586576000815560010162001599565b600060208284031215620015c1578081fd5b8135620015ce8162001a11565b9392505050565b600060208284031215620015e7578081fd5b8151620015ce8162001a11565b600080600080608085870312156200160a578283fd5b8435620016178162001a11565b93506020850135620016298162001a11565b925060408501356200163b8162001a11565b9396929550929360600135925050565b60008060006060848603121562001660578283fd5b83356200166d8162001a11565b925060208401356200167f8162001a11565b929592945050506040919091013590565b60008060408385031215620016a3578182fd5b8235620016b08162001a11565b915060208301358015158114620016c5578182fd5b809150509250929050565b60008060408385031215620016e3578182fd5b8235620016f08162001a11565b9150602083013567ffffffffffffffff8111156200170c578182fd5b8301601f810185136200171d578182fd5b8035620017346200172e8262001919565b620018e5565b81815286602083850101111562001749578384fd5b81602084016020830137908101602001929092525090939092509050565b600080604083850312156200177a578182fd5b8235620017878162001a11565b946020939093013593505050565b600060208284031215620017a7578081fd5b815167ffffffffffffffff811115620017be578182fd5b8201601f81018413620017cf578182fd5b8051620017e06200172e8262001919565b818152856020838501011115620017f5578384fd5b6200098882602083016020860162001979565b6000602082840312156200181a578081fd5b5035919050565b600081518084526200183b81602086016020860162001979565b601f01601f19169290920160200192915050565b600082516200186381846020870162001979565b9190910192915050565b6001600160a01b0383168152604060208201819052600090620018939083018462001821565b949350505050565b600060208252620015ce602083018462001821565b6020808252818101527f4f776e61626c653a2063616c6c6572206973206e6f7420746865206f776e6572604082015260600190565b604051601f8201601f1916810167ffffffffffffffff81118282101715620019115762001911620019fb565b604052919050565b600067ffffffffffffffff821115620019365762001936620019fb565b50601f01601f191660200190565b600082198211156200195a576200195a620019e5565b500190565b600082821015620019745762001974620019e5565b500390565b60005b83811015620019965781810151838201526020016200197c565b8381111562000dc65750506000910152565b600281046001821680620019bd57607f821691505b60208210811415620019df57634e487b7160e01b600052602260045260246000fd5b50919050565b634e487b7160e01b600052601160045260246000fd5b634e487b7160e01b600052604160045260246000fd5b6001600160a01b038116811462000fc357600080fdfe608060405260405162000f5a38038062000f5a8339810160408190526200002691620004e2565b82816200005560017f360894a13ba1a3210667c828492db98dca3e2076cc3735a920a3ca505d382bbd62000611565b60008051602062000f13833981519152146200008157634e487b7160e01b600052600160045260246000fd5b6200008f82826000620000ff565b50620000bf905060017fb53127684a568b3173ae13b9f8a6016e243e63b6e8ee1178d6a717850b5d610462000611565b60008051602062000ef383398151915214620000eb57634e487b7160e01b600052600160045260246000fd5b620000f6826200013c565b5050506200067a565b6200010a8362000197565b600082511180620001185750805b156200013757620001358383620001d960201b6200026c1760201c565b505b505050565b7f7e644d79422f17c01e4894b5f4f588d331ebfa28653d42ae832dc59e38c9798f6200016762000208565b604080516001600160a01b03928316815291841660208301520160405180910390a1620001948162000241565b50565b620001a281620002f6565b6040516001600160a01b038216907fbc7cd75a20ee27fd9adebab32041f755214dbc6bffa90cc0225b39da2e5c2d3b90600090a250565b606062000201838360405180606001604052806027815260200162000f336027913962000399565b9392505050565b60006200023260008051602062000ef383398151915260001b6200047f60201b620002141760201c565b546001600160a01b0316905090565b6001600160a01b038116620002ac5760405162461bcd60e51b815260206004820152602660248201527f455243313936373a206e65772061646d696e20697320746865207a65726f206160448201526564647265737360d01b60648201526084015b60405180910390fd5b80620002d560008051602062000ef383398151915260001b6200047f60201b620002141760201c565b80546001600160a01b0319166001600160a01b039290921691909117905550565b6200030c816200048260201b620002981760201c565b620003705760405162461bcd60e51b815260206004820152602d60248201527f455243313936373a206e657720696d706c656d656e746174696f6e206973206e60448201526c1bdd08184818dbdb9d1c9858dd609a1b6064820152608401620002a3565b80620002d560008051602062000f1383398151915260001b6200047f60201b620002141760201c565b6060620003a68462000482565b620004035760405162461bcd60e51b815260206004820152602660248201527f416464726573733a2064656c65676174652063616c6c20746f206e6f6e2d636f6044820152651b9d1c9858dd60d21b6064820152608401620002a3565b600080856001600160a01b031685604051620004209190620005be565b600060405180830381855af49150503d80600081146200045d576040519150601f19603f3d011682016040523d82523d6000602084013e62000462565b606091505b509092509050620004758282866200048c565b9695505050505050565b90565b803b15155b919050565b606083156200049d57508162000201565b825115620004ae5782518084602001fd5b8160405162461bcd60e51b8152600401620002a39190620005dc565b80516001600160a01b03811681146200048757600080fd5b600080600060608486031215620004f7578283fd5b6200050284620004ca565b92506200051260208501620004ca565b60408501519092506001600160401b03808211156200052f578283fd5b818601915086601f83011262000543578283fd5b81518181111562000558576200055862000664565b604051601f8201601f19908116603f0116810190838211818310171562000583576200058362000664565b816040528281528960208487010111156200059c578586fd5b620005af83602083016020880162000635565b80955050505050509250925092565b60008251620005d281846020870162000635565b9190910192915050565b6000602082528251806020840152620005fd81604085016020870162000635565b601f01601f19169190910160400192915050565b6000828210156200063057634e487b7160e01b81526011600452602481fd5b500390565b60005b838110156200065257818101518382015260200162000638565b83811115620001355750506000910152565b634e487b7160e01b600052604160045260246000fd5b610869806200068a6000396000f3fe60806040526004361061004e5760003560e01c80633659cfe6146100655780634f1ef286146100855780635c60da1b146100985780638f283970146100c9578063f851a440146100e95761005d565b3661005d5761005b6100fe565b005b61005b6100fe565b34801561007157600080fd5b5061005b6100803660046106f9565b610118565b61005b610093366004610713565b610164565b3480156100a457600080fd5b506100ad6101da565b6040516001600160a01b03909116815260200160405180910390f35b3480156100d557600080fd5b5061005b6100e43660046106f9565b610217565b3480156100f557600080fd5b506100ad610241565b6101066102a2565b610116610111610346565b610355565b565b610120610379565b6001600160a01b0316336001600160a01b0316141561015957610154816040518060200160405280600081525060006103ac565b610161565b6101616100fe565b50565b61016c610379565b6001600160a01b0316336001600160a01b031614156101cd576101c88383838080601f016020809104026020016040519081016040528093929190818152602001838380828437600092019190915250600192506103ac915050565b6101d5565b6101d56100fe565b505050565b60006101e4610379565b6001600160a01b0316336001600160a01b0316141561020c57610205610346565b9050610214565b6102146100fe565b90565b61021f610379565b6001600160a01b0316336001600160a01b0316141561015957610154816103d7565b600061024b610379565b6001600160a01b0316336001600160a01b0316141561020c57610205610379565b6060610291838360405180606001604052806027815260200161080d6027913961042b565b9392505050565b803b15155b919050565b6102aa610379565b6001600160a01b0316336001600160a01b031614156103415760405162461bcd60e51b815260206004820152604260248201527f5472616e73706172656e745570677261646561626c6550726f78793a2061646d60448201527f696e2063616e6e6f742066616c6c6261636b20746f2070726f78792074617267606482015261195d60f21b608482015260a4015b60405180910390fd5b610116565b6000610350610506565b905090565b3660008037600080366000845af43d6000803e808015610374573d6000f35b3d6000fd5b60007fb53127684a568b3173ae13b9f8a6016e243e63b6e8ee1178d6a717850b5d61035b546001600160a01b0316905090565b6103b58361052e565b6000825111806103c25750805b156101d5576103d1838361026c565b50505050565b7f7e644d79422f17c01e4894b5f4f588d331ebfa28653d42ae832dc59e38c9798f610400610379565b604080516001600160a01b03928316815291841660208301520160405180910390a16101618161056e565b606061043684610298565b6104915760405162461bcd60e51b815260206004820152602660248201527f416464726573733a2064656c65676174652063616c6c20746f206e6f6e2d636f6044820152651b9d1c9858dd60d21b6064820152608401610338565b600080856001600160a01b0316856040516104ac9190610791565b600060405180830381855af49150503d80600081146104e7576040519150601f19603f3d011682016040523d82523d6000602084013e6104ec565b606091505b50915091506104fc828286610617565b9695505050505050565b60007f360894a13ba1a3210667c828492db98dca3e2076cc3735a920a3ca505d382bbc61039d565b61053781610650565b6040516001600160a01b038216907fbc7cd75a20ee27fd9adebab32041f755214dbc6bffa90cc0225b39da2e5c2d3b90600090a250565b6001600160a01b0381166105d35760405162461bcd60e51b815260206004820152602660248201527f455243313936373a206e65772061646d696e20697320746865207a65726f206160448201526564647265737360d01b6064820152608401610338565b807fb53127684a568b3173ae13b9f8a6016e243e63b6e8ee1178d6a717850b5d61035b80546001600160a01b0319166001600160a01b039290921691909117905550565b60608315610626575081610291565b8251156106365782518084602001fd5b8160405162461bcd60e51b815260040161033891906107ad565b61065981610298565b6106bb5760405162461bcd60e51b815260206004820152602d60248201527f455243313936373a206e657720696d706c656d656e746174696f6e206973206e60448201526c1bdd08184818dbdb9d1c9858dd609a1b6064820152608401610338565b807f360894a13ba1a3210667c828492db98dca3e2076cc3735a920a3ca505d382bbc6105f6565b80356001600160a01b038116811461029d57600080fd5b60006020828403121561070a578081fd5b610291826106e2565b600080600060408486031215610727578182fd5b610730846106e2565b9250602084013567ffffffffffffffff8082111561074c578384fd5b818601915086601f83011261075f578384fd5b81358181111561076d578485fd5b87602082850101111561077e578485fd5b6020830194508093505050509250925092565b600082516107a38184602087016107e0565b9190910192915050565b60006020825282518060208401526107cc8160408501602087016107e0565b601f01601f19169190910160400192915050565b60005b838110156107fb5781810151838201526020016107e3565b838111156103d1575050600091015256fe416464726573733a206c6f772d6c6576656c2064656c65676174652063616c6c206661696c6564a26469706673582212209bf552ca58977d10f406be5d5c50b9747459f68d17359a87ca45cd7b37e3643164736f6c63430008020033b53127684a568b3173ae13b9f8a6016e243e63b6e8ee1178d6a717850b5d6103360894a13ba1a3210667c828492db98dca3e2076cc3735a920a3ca505d382bbc416464726573733a206c6f772d6c6576656c2064656c65676174652063616c6c206661696c6564a26469706673582212203b55002bda6fc429b344d4ab87453b02c4b7c84ca7ce9655f97d30049da3c10b64736f6c63430008020033",
  "devdoc": {
    "kind": "dev",
    "methods": {
      "owner()": {
        "details": "Returns the address of the current owner."
      },
      "renounceOwnership()": {
        "details": "Leaves the contract without owner. It will not be possible to call `onlyOwner` functions anymore. Can only be called by the current owner. NOTE: Renouncing ownership will leave the contract without an owner, thereby removing any functionality that is only available to the owner."
      },
      "transferOwnership(address)": {
        "details": "Transfers ownership of the contract to a new account (`newOwner`). Can only be called by the current owner."
      }
    },
    "version": 1
  },
  "userdoc": {
    "kind": "user",
    "methods": {},
    "version": 1
  },
  "storageLayout": {
    "storage": [
      {
        "astId": 334,
        "contract": "contracts/vault/Registry.sol:Registry",
        "label": "_owner",
        "offset": 0,
        "slot": "0",
        "type": "t_address"
      },
      {
        "astId": 3660,
        "contract": "contracts/vault/Registry.sol:Registry",
        "label": "numReleases",
        "offset": 0,
        "slot": "1",
        "type": "t_uint256"
      },
      {
        "astId": 3664,
        "contract": "contracts/vault/Registry.sol:Registry",
        "label": "releases",
        "offset": 0,
        "slot": "2",
        "type": "t_mapping(t_uint256,t_address)"
      },
      {
        "astId": 3668,
        "contract": "contracts/vault/Registry.sol:Registry",
        "label": "numVaults",
        "offset": 0,
        "slot": "3",
        "type": "t_mapping(t_address,t_uint256)"
      },
      {
        "astId": 3674,
        "contract": "contracts/vault/Registry.sol:Registry",
        "label": "vaults",
        "offset": 0,
        "slot": "4",
        "type": "t_mapping(t_address,t_mapping(t_uint256,t_address))"
      },
      {
        "astId": 3678,
        "contract": "contracts/vault/Registry.sol:Registry",
        "label": "tokens",
        "offset": 0,
        "slot": "5",
        "type": "t_mapping(t_uint256,t_address)"
      },
      {
        "astId": 3680,
        "contract": "contracts/vault/Registry.sol:Registry",
        "label": "numTokens",
        "offset": 0,
        "slot": "6",
        "type": "t_uint256"
      },
      {
        "astId": 3684,
        "contract": "contracts/vault/Registry.sol:Registry",
        "label": "isRegistered",
        "offset": 0,
        "slot": "7",
        "type": "t_mapping(t_address,t_bool)"
      },
      {
        "astId": 3686,
        "contract": "contracts/vault/Registry.sol:Registry",
        "label": "bridge",
        "offset": 0,
        "slot": "8",
        "type": "t_address"
      },
      {
        "astId": 3688,
        "contract": "contracts/vault/Registry.sol:Registry",
        "label": "proxyAdmin",
        "offset": 0,
        "slot": "9",
        "type": "t_address"
      },
      {
        "astId": 3690,
        "contract": "contracts/vault/Registry.sol:Registry",
        "label": "wrapper",
        "offset": 0,
        "slot": "10",
        "type": "t_address"
      },
      {
        "astId": 3694,
        "contract": "contracts/vault/Registry.sol:Registry",
        "label": "tags",
        "offset": 0,
        "slot": "11",
        "type": "t_mapping(t_address,t_string_storage)"
      },
      {
        "astId": 3698,
        "contract": "contracts/vault/Registry.sol:Registry",
        "label": "banksy",
        "offset": 0,
        "slot": "12",
        "type": "t_mapping(t_address,t_bool)"
      }
    ],
    "types": {
      "t_address": {
        "encoding": "inplace",
        "label": "address",
        "numberOfBytes": "20"
      },
      "t_bool": {
        "encoding": "inplace",
        "label": "bool",
        "numberOfBytes": "1"
      },
      "t_mapping(t_address,t_bool)": {
        "encoding": "mapping",
        "key": "t_address",
        "label": "mapping(address => bool)",
        "numberOfBytes": "32",
        "value": "t_bool"
      },
      "t_mapping(t_address,t_mapping(t_uint256,t_address))": {
        "encoding": "mapping",
        "key": "t_address",
        "label": "mapping(address => mapping(uint256 => address))",
        "numberOfBytes": "32",
        "value": "t_mapping(t_uint256,t_address)"
      },
      "t_mapping(t_address,t_string_storage)": {
        "encoding": "mapping",
        "key": "t_address",
        "label": "mapping(address => string)",
        "numberOfBytes": "32",
        "value": "t_string_storage"
      },
      "t_mapping(t_address,t_uint256)": {
        "encoding": "mapping",
        "key": "t_address",
        "label": "mapping(address => uint256)",
        "numberOfBytes": "32",
        "value": "t_uint256"
      },
      "t_mapping(t_uint256,t_address)": {
        "encoding": "mapping",
        "key": "t_uint256",
        "label": "mapping(uint256 => address)",
        "numberOfBytes": "32",
        "value": "t_address"
      },
      "t_string_storage": {
        "encoding": "bytes",
        "label": "string",
        "numberOfBytes": "32"
      },
      "t_uint256": {
        "encoding": "inplace",
        "label": "uint256",
        "numberOfBytes": "32"
      }
    }
  }
}