{
  "address": "0xB5895eD621edbC7AEd5b48878cB5DAdBB17E9027",
  "abi": [
    {
      "name": "Deposit",
      "inputs": [
        {
          "name": "amount",
          "type": "uint256",
          "indexed": false
        },
        {
          "name": "wid",
          "type": "int128",
          "indexed": false
        },
        {
          "name": "addr",
          "type": "uint256",
          "indexed": false
        }
      ],
      "anonymous": false,
      "type": "event"
    },
    {
      "name": "PendingWithdrawalUpdate",
      "inputs": [
        {
          "name": "recipient",
          "type": "address",
          "indexed": true
        },
        {
          "name": "amount",
          "type": "uint256",
          "indexed": false
        },
        {
          "name": "bounty",
          "type": "uint256",
          "indexed": false
        },
        {
          "name": "open",
          "type": "bool",
          "indexed": false
        }
      ],
      "anonymous": false,
      "type": "event"
    },
    {
      "name": "UpdateBridge",
      "inputs": [
        {
          "name": "bridge",
          "type": "address",
          "indexed": true
        }
      ],
      "anonymous": false,
      "type": "event"
    },
    {
      "name": "UpdateWrapper",
      "inputs": [
        {
          "name": "wrapper",
          "type": "address",
          "indexed": true
        }
      ],
      "anonymous": false,
      "type": "event"
    },
    {
      "name": "UpdateConfiguration",
      "inputs": [
        {
          "name": "configuration",
          "type": "(int128,uint256)",
          "indexed": false
        }
      ],
      "anonymous": false,
      "type": "event"
    },
    {
      "name": "UpdateRewards",
      "inputs": [
        {
          "name": "rewards",
          "type": "(int128,uint256)",
          "indexed": false
        }
      ],
      "anonymous": false,
      "type": "event"
    },
    {
      "name": "UpdateStrategyRewards",
      "inputs": [
        {
          "name": "strategy",
          "type": "address",
          "indexed": true
        },
        {
          "name": "rewards",
          "type": "(int128,uint256)",
          "indexed": false
        }
      ],
      "anonymous": false,
      "type": "event"
    },
    {
      "name": "UpdateDepositFee",
      "inputs": [
        {
          "name": "fee",
          "type": "(uint256,uint256)",
          "indexed": false
        }
      ],
      "anonymous": false,
      "type": "event"
    },
    {
      "name": "UpdateWithdrawFee",
      "inputs": [
        {
          "name": "fee",
          "type": "(uint256,uint256)",
          "indexed": false
        }
      ],
      "anonymous": false,
      "type": "event"
    },
    {
      "name": "StrategyAdded",
      "inputs": [
        {
          "name": "strategy",
          "type": "address",
          "indexed": true
        },
        {
          "name": "debtRatio",
          "type": "uint256",
          "indexed": false
        },
        {
          "name": "minDebtPerHarvest",
          "type": "uint256",
          "indexed": false
        },
        {
          "name": "maxDebtPerHarvest",
          "type": "uint256",
          "indexed": false
        },
        {
          "name": "performanceFee",
          "type": "uint256",
          "indexed": false
        }
      ],
      "anonymous": false,
      "type": "event"
    },
    {
      "name": "StrategyReported",
      "inputs": [
        {
          "name": "strategy",
          "type": "address",
          "indexed": true
        },
        {
          "name": "gain",
          "type": "uint256",
          "indexed": false
        },
        {
          "name": "loss",
          "type": "uint256",
          "indexed": false
        },
        {
          "name": "debtPaid",
          "type": "uint256",
          "indexed": false
        },
        {
          "name": "totalGain",
          "type": "uint256",
          "indexed": false
        },
        {
          "name": "totalSkim",
          "type": "uint256",
          "indexed": false
        },
        {
          "name": "totalLoss",
          "type": "uint256",
          "indexed": false
        },
        {
          "name": "totalDebt",
          "type": "uint256",
          "indexed": false
        },
        {
          "name": "debtAdded",
          "type": "uint256",
          "indexed": false
        },
        {
          "name": "debtRatio",
          "type": "uint256",
          "indexed": false
        }
      ],
      "anonymous": false,
      "type": "event"
    },
    {
      "name": "UpdateGovernance",
      "inputs": [
        {
          "name": "governance",
          "type": "address",
          "indexed": false
        }
      ],
      "anonymous": false,
      "type": "event"
    },
    {
      "name": "NewPendingGovernance",
      "inputs": [
        {
          "name": "governance",
          "type": "address",
          "indexed": false
        }
      ],
      "anonymous": false,
      "type": "event"
    },
    {
      "name": "UpdateManagement",
      "inputs": [
        {
          "name": "management",
          "type": "address",
          "indexed": false
        }
      ],
      "anonymous": false,
      "type": "event"
    },
    {
      "name": "UpdateDepositLimit",
      "inputs": [
        {
          "name": "depositLimit",
          "type": "uint256",
          "indexed": false
        }
      ],
      "anonymous": false,
      "type": "event"
    },
    {
      "name": "UpdatePerformanceFee",
      "inputs": [
        {
          "name": "performanceFee",
          "type": "uint256",
          "indexed": false
        }
      ],
      "anonymous": false,
      "type": "event"
    },
    {
      "name": "UpdateManagementFee",
      "inputs": [
        {
          "name": "managementFee",
          "type": "uint256",
          "indexed": false
        }
      ],
      "anonymous": false,
      "type": "event"
    },
    {
      "name": "UpdateGuardian",
      "inputs": [
        {
          "name": "guardian",
          "type": "address",
          "indexed": false
        }
      ],
      "anonymous": false,
      "type": "event"
    },
    {
      "name": "EmergencyShutdown",
      "inputs": [
        {
          "name": "active",
          "type": "bool",
          "indexed": false
        }
      ],
      "anonymous": false,
      "type": "event"
    },
    {
      "name": "UpdateWithdrawalQueue",
      "inputs": [
        {
          "name": "queue",
          "type": "address[20]",
          "indexed": false
        }
      ],
      "anonymous": false,
      "type": "event"
    },
    {
      "name": "StrategyUpdateDebtRatio",
      "inputs": [
        {
          "name": "strategy",
          "type": "address",
          "indexed": true
        },
        {
          "name": "debtRatio",
          "type": "uint256",
          "indexed": false
        }
      ],
      "anonymous": false,
      "type": "event"
    },
    {
      "name": "StrategyUpdateMinDebtPerHarvest",
      "inputs": [
        {
          "name": "strategy",
          "type": "address",
          "indexed": true
        },
        {
          "name": "minDebtPerHarvest",
          "type": "uint256",
          "indexed": false
        }
      ],
      "anonymous": false,
      "type": "event"
    },
    {
      "name": "StrategyUpdateMaxDebtPerHarvest",
      "inputs": [
        {
          "name": "strategy",
          "type": "address",
          "indexed": true
        },
        {
          "name": "maxDebtPerHarvest",
          "type": "uint256",
          "indexed": false
        }
      ],
      "anonymous": false,
      "type": "event"
    },
    {
      "name": "StrategyUpdatePerformanceFee",
      "inputs": [
        {
          "name": "strategy",
          "type": "address",
          "indexed": true
        },
        {
          "name": "performanceFee",
          "type": "uint256",
          "indexed": false
        }
      ],
      "anonymous": false,
      "type": "event"
    },
    {
      "name": "StrategyMigrated",
      "inputs": [
        {
          "name": "oldVersion",
          "type": "address",
          "indexed": true
        },
        {
          "name": "newVersion",
          "type": "address",
          "indexed": true
        }
      ],
      "anonymous": false,
      "type": "event"
    },
    {
      "name": "StrategyRevoked",
      "inputs": [
        {
          "name": "strategy",
          "type": "address",
          "indexed": true
        }
      ],
      "anonymous": false,
      "type": "event"
    },
    {
      "name": "StrategyRemovedFromQueue",
      "inputs": [
        {
          "name": "strategy",
          "type": "address",
          "indexed": true
        }
      ],
      "anonymous": false,
      "type": "event"
    },
    {
      "name": "StrategyAddedToQueue",
      "inputs": [
        {
          "name": "strategy",
          "type": "address",
          "indexed": true
        }
      ],
      "anonymous": false,
      "type": "event"
    },
    {
      "stateMutability": "nonpayable",
      "type": "function",
      "name": "initialize",
      "inputs": [
        {
          "name": "token",
          "type": "address"
        },
        {
          "name": "governance",
          "type": "address"
        },
        {
          "name": "bridge",
          "type": "address"
        },
        {
          "name": "wrapper",
          "type": "address"
        },
        {
          "name": "guardian",
          "type": "address"
        },
        {
          "name": "management",
          "type": "address"
        }
      ],
      "outputs": [],
      "gas": 367155
    },
    {
      "stateMutability": "pure",
      "type": "function",
      "name": "apiVersion",
      "inputs": [],
      "outputs": [
        {
          "name": "",
          "type": "string"
        }
      ],
      "gas": 5946
    },
    {
      "stateMutability": "nonpayable",
      "type": "function",
      "name": "setDepositFee",
      "inputs": [
        {
          "name": "fee",
          "type": "tuple",
          "components": [
            {
              "name": "step",
              "type": "uint256"
            },
            {
              "name": "size",
              "type": "uint256"
            }
          ]
        }
      ],
      "outputs": [],
      "gas": 76514
    },
    {
      "stateMutability": "nonpayable",
      "type": "function",
      "name": "setWithdrawFee",
      "inputs": [
        {
          "name": "fee",
          "type": "tuple",
          "components": [
            {
              "name": "step",
              "type": "uint256"
            },
            {
              "name": "size",
              "type": "uint256"
            }
          ]
        }
      ],
      "outputs": [],
      "gas": 76544
    },
    {
      "stateMutability": "nonpayable",
      "type": "function",
      "name": "setWrapper",
      "inputs": [
        {
          "name": "wrapper",
          "type": "address"
        }
      ],
      "outputs": [],
      "gas": 38805
    },
    {
      "stateMutability": "nonpayable",
      "type": "function",
      "name": "setConfiguration",
      "inputs": [
        {
          "name": "configuration",
          "type": "tuple",
          "components": [
            {
              "name": "wid",
              "type": "int128"
            },
            {
              "name": "addr",
              "type": "uint256"
            }
          ]
        }
      ],
      "outputs": [],
      "gas": 74089
    },
    {
      "stateMutability": "nonpayable",
      "type": "function",
      "name": "setGovernance",
      "inputs": [
        {
          "name": "governance",
          "type": "address"
        }
      ],
      "outputs": [],
      "gas": 39071
    },
    {
      "stateMutability": "nonpayable",
      "type": "function",
      "name": "acceptGovernance",
      "inputs": [],
      "outputs": [],
      "gas": 38997
    },
    {
      "stateMutability": "nonpayable",
      "type": "function",
      "name": "setManagement",
      "inputs": [
        {
          "name": "management",
          "type": "address"
        }
      ],
      "outputs": [],
      "gas": 39135
    },
    {
      "stateMutability": "nonpayable",
      "type": "function",
      "name": "setStrategyRewards",
      "inputs": [
        {
          "name": "strategy",
          "type": "address"
        },
        {
          "name": "rewards",
          "type": "tuple",
          "components": [
            {
              "name": "wid",
              "type": "int128"
            },
            {
              "name": "addr",
              "type": "uint256"
            }
          ]
        }
      ],
      "outputs": [],
      "gas": 82246
    },
    {
      "stateMutability": "nonpayable",
      "type": "function",
      "name": "setRewards",
      "inputs": [
        {
          "name": "rewards",
          "type": "tuple",
          "components": [
            {
              "name": "wid",
              "type": "int128"
            },
            {
              "name": "addr",
              "type": "uint256"
            }
          ]
        }
      ],
      "outputs": [],
      "gas": 74239
    },
    {
      "stateMutability": "nonpayable",
      "type": "function",
      "name": "setLockedProfitDegradation",
      "inputs": [
        {
          "name": "degradation",
          "type": "uint256"
        }
      ],
      "outputs": [],
      "gas": 37879
    },
    {
      "stateMutability": "nonpayable",
      "type": "function",
      "name": "setDepositLimit",
      "inputs": [
        {
          "name": "limit",
          "type": "uint256"
        }
      ],
      "outputs": [],
      "gas": 39155
    },
    {
      "stateMutability": "nonpayable",
      "type": "function",
      "name": "setPerformanceFee",
      "inputs": [
        {
          "name": "fee",
          "type": "uint256"
        }
      ],
      "outputs": [],
      "gas": 39289
    },
    {
      "stateMutability": "nonpayable",
      "type": "function",
      "name": "setManagementFee",
      "inputs": [
        {
          "name": "fee",
          "type": "uint256"
        }
      ],
      "outputs": [],
      "gas": 39319
    },
    {
      "stateMutability": "nonpayable",
      "type": "function",
      "name": "setGuardian",
      "inputs": [
        {
          "name": "guardian",
          "type": "address"
        }
      ],
      "outputs": [],
      "gas": 41863
    },
    {
      "stateMutability": "nonpayable",
      "type": "function",
      "name": "setEmergencyShutdown",
      "inputs": [
        {
          "name": "active",
          "type": "bool"
        }
      ],
      "outputs": [],
      "gas": 41934
    },
    {
      "stateMutability": "nonpayable",
      "type": "function",
      "name": "setWithdrawalQueue",
      "inputs": [
        {
          "name": "queue",
          "type": "address[20]"
        }
      ],
      "outputs": [],
      "gas": 1348979
    },
    {
      "stateMutability": "nonpayable",
      "type": "function",
      "name": "setPendingWithdrawalBounty",
      "inputs": [
        {
          "name": "id",
          "type": "uint256"
        },
        {
          "name": "bounty",
          "type": "uint256"
        }
      ],
      "outputs": [],
      "gas": 49722
    },
    {
      "stateMutability": "view",
      "type": "function",
      "name": "totalAssets",
      "inputs": [],
      "outputs": [
        {
          "name": "",
          "type": "uint256"
        }
      ],
      "gas": 8578
    },
    {
      "stateMutability": "nonpayable",
      "type": "function",
      "name": "deposit",
      "inputs": [
        {
          "name": "sender",
          "type": "address"
        },
        {
          "name": "recipient",
          "type": "tuple",
          "components": [
            {
              "name": "wid",
              "type": "int128"
            },
            {
              "name": "addr",
              "type": "uint256"
            }
          ]
        },
        {
          "name": "_amount",
          "type": "uint256"
        },
        {
          "name": "pendingWithdrawalId",
          "type": "tuple",
          "components": [
            {
              "name": "recipient",
              "type": "address"
            },
            {
              "name": "id",
              "type": "uint256"
            }
          ]
        },
        {
          "name": "sendTransferToTon",
          "type": "bool"
        }
      ],
      "outputs": [],
      "gas": 196701
    },
    {
      "stateMutability": "nonpayable",
      "type": "function",
      "name": "saveWithdraw",
      "inputs": [
        {
          "name": "payloadId",
          "type": "bytes32"
        },
        {
          "name": "recipient",
          "type": "address"
        },
        {
          "name": "_amount",
          "type": "uint256"
        },
        {
          "name": "bounty",
          "type": "uint256"
        }
      ],
      "outputs": [],
      "gas": 246913
    },
    {
      "stateMutability": "nonpayable",
      "type": "function",
      "name": "cancelPendingWithdrawal",
      "inputs": [
        {
          "name": "id",
          "type": "uint256"
        },
        {
          "name": "recipient",
          "type": "tuple",
          "components": [
            {
              "name": "wid",
              "type": "int128"
            },
            {
              "name": "addr",
              "type": "uint256"
            }
          ]
        }
      ],
      "outputs": [],
      "gas": 80444
    },
    {
      "stateMutability": "nonpayable",
      "type": "function",
      "name": "withdraw",
      "inputs": [
        {
          "name": "id",
          "type": "uint256"
        }
      ],
      "outputs": [
        {
          "name": "",
          "type": "uint256"
        }
      ]
    },
    {
      "stateMutability": "nonpayable",
      "type": "function",
      "name": "withdraw",
      "inputs": [
        {
          "name": "id",
          "type": "uint256"
        },
        {
          "name": "recipient",
          "type": "address"
        }
      ],
      "outputs": [
        {
          "name": "",
          "type": "uint256"
        }
      ]
    },
    {
      "stateMutability": "nonpayable",
      "type": "function",
      "name": "withdraw",
      "inputs": [
        {
          "name": "id",
          "type": "uint256"
        },
        {
          "name": "recipient",
          "type": "address"
        },
        {
          "name": "maxLoss",
          "type": "uint256"
        }
      ],
      "outputs": [
        {
          "name": "",
          "type": "uint256"
        }
      ]
    },
    {
      "stateMutability": "nonpayable",
      "type": "function",
      "name": "addStrategy",
      "inputs": [
        {
          "name": "strategy",
          "type": "address"
        },
        {
          "name": "debtRatio",
          "type": "uint256"
        },
        {
          "name": "minDebtPerHarvest",
          "type": "uint256"
        },
        {
          "name": "maxDebtPerHarvest",
          "type": "uint256"
        },
        {
          "name": "performanceFee",
          "type": "uint256"
        }
      ],
      "outputs": [],
      "gas": 1638399
    },
    {
      "stateMutability": "nonpayable",
      "type": "function",
      "name": "updateStrategyDebtRatio",
      "inputs": [
        {
          "name": "strategy",
          "type": "address"
        },
        {
          "name": "debtRatio",
          "type": "uint256"
        }
      ],
      "outputs": [],
      "gas": 121685
    },
    {
      "stateMutability": "nonpayable",
      "type": "function",
      "name": "updateStrategyMinDebtPerHarvest",
      "inputs": [
        {
          "name": "strategy",
          "type": "address"
        },
        {
          "name": "minDebtPerHarvest",
          "type": "uint256"
        }
      ],
      "outputs": [],
      "gas": 47551
    },
    {
      "stateMutability": "nonpayable",
      "type": "function",
      "name": "updateStrategyMaxDebtPerHarvest",
      "inputs": [
        {
          "name": "strategy",
          "type": "address"
        },
        {
          "name": "maxDebtPerHarvest",
          "type": "uint256"
        }
      ],
      "outputs": [],
      "gas": 47581
    },
    {
      "stateMutability": "nonpayable",
      "type": "function",
      "name": "updateStrategyPerformanceFee",
      "inputs": [
        {
          "name": "strategy",
          "type": "address"
        },
        {
          "name": "performanceFee",
          "type": "uint256"
        }
      ],
      "outputs": [],
      "gas": 42794
    },
    {
      "stateMutability": "nonpayable",
      "type": "function",
      "name": "migrateStrategy",
      "inputs": [
        {
          "name": "oldVersion",
          "type": "address"
        },
        {
          "name": "newVersion",
          "type": "address"
        }
      ],
      "outputs": [],
      "gas": 1324247
    },
    {
      "stateMutability": "nonpayable",
      "type": "function",
      "name": "revokeStrategy",
      "inputs": [],
      "outputs": []
    },
    {
      "stateMutability": "nonpayable",
      "type": "function",
      "name": "revokeStrategy",
      "inputs": [
        {
          "name": "strategy",
          "type": "address"
        }
      ],
      "outputs": []
    },
    {
      "stateMutability": "nonpayable",
      "type": "function",
      "name": "addStrategyToQueue",
      "inputs": [
        {
          "name": "strategy",
          "type": "address"
        }
      ],
      "outputs": [],
      "gas": 1255524
    },
    {
      "stateMutability": "nonpayable",
      "type": "function",
      "name": "removeStrategyFromQueue",
      "inputs": [
        {
          "name": "strategy",
          "type": "address"
        }
      ],
      "outputs": [],
      "gas": 23635413
    },
    {
      "stateMutability": "view",
      "type": "function",
      "name": "debtOutstanding",
      "inputs": [],
      "outputs": [
        {
          "name": "",
          "type": "uint256"
        }
      ]
    },
    {
      "stateMutability": "view",
      "type": "function",
      "name": "debtOutstanding",
      "inputs": [
        {
          "name": "strategy",
          "type": "address"
        }
      ],
      "outputs": [
        {
          "name": "",
          "type": "uint256"
        }
      ]
    },
    {
      "stateMutability": "view",
      "type": "function",
      "name": "creditAvailable",
      "inputs": [],
      "outputs": [
        {
          "name": "",
          "type": "uint256"
        }
      ]
    },
    {
      "stateMutability": "view",
      "type": "function",
      "name": "creditAvailable",
      "inputs": [
        {
          "name": "strategy",
          "type": "address"
        }
      ],
      "outputs": [
        {
          "name": "",
          "type": "uint256"
        }
      ]
    },
    {
      "stateMutability": "view",
      "type": "function",
      "name": "availableDepositLimit",
      "inputs": [],
      "outputs": [
        {
          "name": "",
          "type": "uint256"
        }
      ],
      "gas": 21201
    },
    {
      "stateMutability": "view",
      "type": "function",
      "name": "expectedReturn",
      "inputs": [],
      "outputs": [
        {
          "name": "",
          "type": "uint256"
        }
      ]
    },
    {
      "stateMutability": "view",
      "type": "function",
      "name": "expectedReturn",
      "inputs": [
        {
          "name": "strategy",
          "type": "address"
        }
      ],
      "outputs": [
        {
          "name": "",
          "type": "uint256"
        }
      ]
    },
    {
      "stateMutability": "nonpayable",
      "type": "function",
      "name": "report",
      "inputs": [
        {
          "name": "gain",
          "type": "uint256"
        },
        {
          "name": "loss",
          "type": "uint256"
        },
        {
          "name": "_debtPayment",
          "type": "uint256"
        }
      ],
      "outputs": [
        {
          "name": "",
          "type": "uint256"
        }
      ],
      "gas": 660170
    },
    {
      "stateMutability": "nonpayable",
      "type": "function",
      "name": "sweep",
      "inputs": [
        {
          "name": "token",
          "type": "address"
        }
      ],
      "outputs": []
    },
    {
      "stateMutability": "nonpayable",
      "type": "function",
      "name": "sweep",
      "inputs": [
        {
          "name": "token",
          "type": "address"
        },
        {
          "name": "amount",
          "type": "uint256"
        }
      ],
      "outputs": []
    },
    {
      "stateMutability": "nonpayable",
      "type": "function",
      "name": "emergencyWithdrawAndRevoke",
      "inputs": [
        {
          "name": "strategy",
          "type": "address"
        }
      ],
      "outputs": []
    },
    {
      "stateMutability": "nonpayable",
      "type": "function",
      "name": "emergencyWithdrawAndRevoke",
      "inputs": [
        {
          "name": "strategy",
          "type": "address"
        },
        {
          "name": "_amountNeeded",
          "type": "uint256"
        }
      ],
      "outputs": []
    },
    {
      "stateMutability": "nonpayable",
      "type": "function",
      "name": "skim",
      "inputs": [
        {
          "name": "strategy",
          "type": "address"
        }
      ],
      "outputs": [],
      "gas": 59036
    },
    {
      "stateMutability": "view",
      "type": "function",
      "name": "token",
      "inputs": [],
      "outputs": [
        {
          "name": "",
          "type": "address"
        }
      ],
      "gas": 3618
    },
    {
      "stateMutability": "view",
      "type": "function",
      "name": "governance",
      "inputs": [],
      "outputs": [
        {
          "name": "",
          "type": "address"
        }
      ],
      "gas": 3648
    },
    {
      "stateMutability": "view",
      "type": "function",
      "name": "management",
      "inputs": [],
      "outputs": [
        {
          "name": "",
          "type": "address"
        }
      ],
      "gas": 3678
    },
    {
      "stateMutability": "view",
      "type": "function",
      "name": "guardian",
      "inputs": [],
      "outputs": [
        {
          "name": "",
          "type": "address"
        }
      ],
      "gas": 3708
    },
    {
      "stateMutability": "view",
      "type": "function",
      "name": "pendingWithdrawalsPerUser",
      "inputs": [
        {
          "name": "arg0",
          "type": "address"
        }
      ],
      "outputs": [
        {
          "name": "",
          "type": "uint256"
        }
      ],
      "gas": 3953
    },
    {
      "stateMutability": "view",
      "type": "function",
      "name": "pendingWithdrawals",
      "inputs": [
        {
          "name": "arg0",
          "type": "address"
        },
        {
          "name": "arg1",
          "type": "uint256"
        }
      ],
      "outputs": [
        {
          "name": "amount",
          "type": "uint256"
        },
        {
          "name": "bounty",
          "type": "uint256"
        },
        {
          "name": "open",
          "type": "bool"
        }
      ],
      "gas": 8914
    },
    {
      "stateMutability": "view",
      "type": "function",
      "name": "pendingWithdrawalsTotal",
      "inputs": [],
      "outputs": [
        {
          "name": "",
          "type": "uint256"
        }
      ],
      "gas": 3798
    },
    {
      "stateMutability": "view",
      "type": "function",
      "name": "withdrawIds",
      "inputs": [
        {
          "name": "arg0",
          "type": "bytes32"
        }
      ],
      "outputs": [
        {
          "name": "",
          "type": "bool"
        }
      ],
      "gas": 3943
    },
    {
      "stateMutability": "view",
      "type": "function",
      "name": "wrapper",
      "inputs": [],
      "outputs": [
        {
          "name": "",
          "type": "address"
        }
      ],
      "gas": 3858
    },
    {
      "stateMutability": "view",
      "type": "function",
      "name": "bridge",
      "inputs": [],
      "outputs": [
        {
          "name": "",
          "type": "address"
        }
      ],
      "gas": 3888
    },
    {
      "stateMutability": "view",
      "type": "function",
      "name": "configuration",
      "inputs": [],
      "outputs": [
        {
          "name": "wid",
          "type": "int128"
        },
        {
          "name": "addr",
          "type": "uint256"
        }
      ],
      "gas": 6452
    },
    {
      "stateMutability": "view",
      "type": "function",
      "name": "rewards",
      "inputs": [],
      "outputs": [
        {
          "name": "wid",
          "type": "int128"
        },
        {
          "name": "addr",
          "type": "uint256"
        }
      ],
      "gas": 6482
    },
    {
      "stateMutability": "view",
      "type": "function",
      "name": "depositFee",
      "inputs": [],
      "outputs": [
        {
          "name": "step",
          "type": "uint256"
        },
        {
          "name": "size",
          "type": "uint256"
        }
      ],
      "gas": 6512
    },
    {
      "stateMutability": "view",
      "type": "function",
      "name": "withdrawFee",
      "inputs": [],
      "outputs": [
        {
          "name": "step",
          "type": "uint256"
        },
        {
          "name": "size",
          "type": "uint256"
        }
      ],
      "gas": 6542
    },
    {
      "stateMutability": "view",
      "type": "function",
      "name": "strategies",
      "inputs": [
        {
          "name": "arg0",
          "type": "address"
        }
      ],
      "outputs": [
        {
          "name": "performanceFee",
          "type": "uint256"
        },
        {
          "name": "activation",
          "type": "uint256"
        },
        {
          "name": "debtRatio",
          "type": "uint256"
        },
        {
          "name": "minDebtPerHarvest",
          "type": "uint256"
        },
        {
          "name": "maxDebtPerHarvest",
          "type": "uint256"
        },
        {
          "name": "lastReport",
          "type": "uint256"
        },
        {
          "name": "totalDebt",
          "type": "uint256"
        },
        {
          "name": "totalGain",
          "type": "uint256"
        },
        {
          "name": "totalSkim",
          "type": "uint256"
        },
        {
          "name": "totalLoss",
          "type": "uint256"
        },
        {
          "name": "rewardsManager",
          "type": "address"
        },
        {
          "name": "rewards",
          "type": "tuple",
          "components": [
            {
              "name": "wid",
              "type": "int128"
            },
            {
              "name": "addr",
              "type": "uint256"
            }
          ]
        }
      ],
      "gas": 32100
    },
    {
      "stateMutability": "view",
      "type": "function",
      "name": "withdrawalQueue",
      "inputs": [
        {
          "name": "arg0",
          "type": "uint256"
        }
      ],
      "outputs": [
        {
          "name": "",
          "type": "address"
        }
      ],
      "gas": 4177
    },
    {
      "stateMutability": "view",
      "type": "function",
      "name": "emergencyShutdown",
      "inputs": [],
      "outputs": [
        {
          "name": "",
          "type": "bool"
        }
      ],
      "gas": 4098
    },
    {
      "stateMutability": "view",
      "type": "function",
      "name": "depositLimit",
      "inputs": [],
      "outputs": [
        {
          "name": "",
          "type": "uint256"
        }
      ],
      "gas": 4128
    },
    {
      "stateMutability": "view",
      "type": "function",
      "name": "debtRatio",
      "inputs": [],
      "outputs": [
        {
          "name": "",
          "type": "uint256"
        }
      ],
      "gas": 4158
    },
    {
      "stateMutability": "view",
      "type": "function",
      "name": "totalDebt",
      "inputs": [],
      "outputs": [
        {
          "name": "",
          "type": "uint256"
        }
      ],
      "gas": 4188
    },
    {
      "stateMutability": "view",
      "type": "function",
      "name": "lastReport",
      "inputs": [],
      "outputs": [
        {
          "name": "",
          "type": "uint256"
        }
      ],
      "gas": 4218
    },
    {
      "stateMutability": "view",
      "type": "function",
      "name": "activation",
      "inputs": [],
      "outputs": [
        {
          "name": "",
          "type": "uint256"
        }
      ],
      "gas": 4248
    },
    {
      "stateMutability": "view",
      "type": "function",
      "name": "lockedProfit",
      "inputs": [],
      "outputs": [
        {
          "name": "",
          "type": "uint256"
        }
      ],
      "gas": 4278
    },
    {
      "stateMutability": "view",
      "type": "function",
      "name": "lockedProfitDegradation",
      "inputs": [],
      "outputs": [
        {
          "name": "",
          "type": "uint256"
        }
      ],
      "gas": 4308
    },
    {
      "stateMutability": "view",
      "type": "function",
      "name": "managementFee",
      "inputs": [],
      "outputs": [
        {
          "name": "",
          "type": "uint256"
        }
      ],
      "gas": 4338
    },
    {
      "stateMutability": "view",
      "type": "function",
      "name": "performanceFee",
      "inputs": [],
      "outputs": [
        {
          "name": "",
          "type": "uint256"
        }
      ],
      "gas": 4368
    }
  ],
  "transactionHash": "0x9041493ed5f0f75242547069a93064684fd326f322bff811f7acea7b1f2642cb",
  "args": [],
  "bytecode": "0x6151b456600436101561000d57613dc7565b600035601c52600051341561002157600080fd5b63cc2a9a5b8114156102225760043560a01c1561003d57600080fd5b60243560a01c1561004d57600080fd5b60443560a01c1561005d57600080fd5b60643560a01c1561006d57600080fd5b60843560a01c1561007d57600080fd5b60a43560a01c1561008d57600080fd5b6016541561009a57600080fd5b600435600055602435600155602435610140527f8d55d160c0009eb3d739442df0a3ca089ed64378bfac017e7ddad463f9815b876020610140a160a43560025560a435610140527fff54978127edd34aec0f9061fb3b155fbe0ededdfa881ee3e0d541d3a1eef4386020610140a1604435600a556044357ff7e059f82bd20d2e2af76029a2174fc736dbbdb71beefa4f382ae40dea52a96d60006000a26064356009556064357fa571949e4c31a5eb775f6a430d9c61f72f6a8061fd968826ba044a337ede72ad60006000a2608435600355608435610140527f837b9ad138a0a1839a9637afce5306a5c13e23eb63365686843a5319a243609c6020610140a16000601a5560006101405261014051610160527f0810a1c261ca2c0cd86a0152c51c43ba9dc329639d2349f98140891b2ea798eb6020610160a1600060195560006101405261014051610160527f7a7883b0074f96e2c7fab65eb25abf624c488761a5db889e3bb84855dcc6daaf6020610160a142601555426016556529d635a8e000601855005b63258294108114156102b7576005610140527f302e312e30000000000000000000000000000000000000000000000000000000610160526101408051602001806101e08284600060045af161027657600080fd5b50506101e0518061020001818260206001820306601f820103905003368237505060206101c05260406101e0510160206001820306601f82010390506101c0f35b639e7eb4c381141561036757600254610160526001546101805260006101405261014061012060006002818352015b6101205160200261016001513314156103025760018352610312565b81516001018083528114156102e6575b5050506101405161032257600080fd5b600d60c052602060c0206004803582558060200135600183015550507fb6eefa02580d6f322ee5896ea821a69d903fed8a7995a63bf5b2227df5e880056020610140a1005b63cded1df781141561041757600254610160526001546101805260006101405261014061012060006002818352015b6101205160200261016001513314156103b257600183526103c2565b8151600101808352811415610396575b505050610140516103d257600080fd5b600e60c052602060c0206004803582558060200135600183015550507f7637929fdc0cdca7738cf78ac894bdd2689891fbcd1e2c879694d4cfb2f1e5056020610140a1005b63c2167d938114156104725760043560a01c1561043357600080fd5b600154331461044157600080fd5b6004357fa571949e4c31a5eb775f6a430d9c61f72f6a8061fd968826ba044a337ede72ad60006000a2600435600955005b638c40a3138114156104d157600154331461048c57600080fd5b7f8e1fd3f96cb4921f8f5a7ee33ad6ddba073fe3c3585a71306fa493fac421b9556020610140a1600b60c052602060c020600480358255806020013560018301555050005b63ab033ea981141561052f5760043560a01c156104ed57600080fd5b60015433146104fb57600080fd5b33610140527f90ad4c550d25bd23af61db38d1ff8671b89edaaa0bca0fc36bac5084ecc120bd6020610140a1600435600455005b63238efcbc81141561057b57600454331461054957600080fd5b3360015533610140527f8d55d160c0009eb3d739442df0a3ca089ed64378bfac017e7ddad463f9815b876020610140a1005b63d4a22bde8114156105db5760043560a01c1561059757600080fd5b60015433146105a557600080fd5b600435600255600435610140527fff54978127edd34aec0f9061fb3b155fbe0ededdfa881ee3e0d541d3a1eef4386020610140a1005b6382a5bb6b8114156106ff5760043560a01c156105f757600080fd5b60006001600f60043560e05260c052604060c02060c052602060c02001541161061f57600080fd5b6001546101605260025461018052600a600f60043560e05260c052604060c02060c052602060c02001546101a05260006101405261014061012060006003818352015b61012051602002610160015133141561067e576001835261068e565b8151600101808352811415610662575b5050506101405161069e57600080fd5b600b600f60043560e05260c052604060c02060c052602060c0200160c052602060c0206024803582558060200135600183015550506004357f1e0afb75cfc88e97464007059868dcd4b5ec7ab02a18de2b00cf478c4ee5ad976020610140a2005b62eeed8181141561075d57600154331461071857600080fd5b600c60c052602060c0206004803582558060200135600183015550507f1721cee25564e2cfcfbb82736ed97214cb61c8c5b4981bb496b10a9a279752776020610140a1005b637a55036581141561079657600154331461077757600080fd5b670de0b6b3a7640000600435111561078e57600080fd5b600435601855005b63bdc8144b8114156107e65760015433146107b057600080fd5b600435601255600435610140527fae565aab888bca5e19e25a13db7b0c9144305bf55cb0f3f4d724f730e5acdd626020610140a1005b6370897b2381141561084757600154331461080057600080fd5b611388600435111561081157600080fd5b600435601a55600435610140527f0810a1c261ca2c0cd86a0152c51c43ba9dc329639d2349f98140891b2ea798eb6020610140a1005b63fe56e2328114156108a857600154331461086157600080fd5b612710600435111561087257600080fd5b600435601955600435610140527f7a7883b0074f96e2c7fab65eb25abf624c488761a5db889e3bb84855dcc6daaf6020610140a1005b638a0dac4a8114156109595760043560a01c156108c457600080fd5b600354610160526001546101805260006101405261014061012060006002818352015b6101205160200261016001513314156109035760018352610913565b81516001018083528114156108e7575b5050506101405161092357600080fd5b600435600355600435610140527f837b9ad138a0a1839a9637afce5306a5c13e23eb63365686843a5319a243609c6020610140a1005b6314c64402811415610a255760043560011c1561097557600080fd5b600435156109e157600354610160526001546101805260006101405261014061012060006002818352015b6101205160200261016001513314156109bc57600183526109cc565b81516001018083528114156109a0575b505050610140516109dc57600080fd5b6109ef565b60015433146109ef57600080fd5b600435601155600435610140527fba40372a3a724dca3c57156128ef1e896724b65b37a17f190b1ad5de68f3a4f36020610140a1005b6394148415811415610d8f576000610120525b610120516004013560a01c15610a4d57600080fd5b6020610120510161012052610280610120511015610a6a57610a38565b600254610160526001546101805260006101405261014061012060006002818352015b610120516020026101600151331415610aa95760018352610ab9565b8151600101808352811415610a8d575b50505061014051610ac957600080fd5b610400366101403761054060006014818352015b60046105405160148110610af057600080fd5b60200201351515610b27576105405160148110610b0c57600080fd5b601060c052602060c020015415610b2257600080fd5b610ccb565b60006105405160148110610b3a57600080fd5b601060c052602060c020015418610b5057600080fd5b60006001600f60046105405160148110610b6957600080fd5b602002013560e05260c052604060c02060c052602060c020015411610b8d57600080fd5b601f60046105405160148110610ba257600080fd5b6020020135166105605261058060006020818352015b6105605161058051818183011015610bcf57600080fd5b808201905090506020808206905090506105a05260046105405160148110610bf657600080fd5b60200201356101406105a05160208110610c0f57600080fd5b602002015118610c1e57600080fd5b6101406105a05160208110610c3257600080fd5b60200201511515610c735760046105405160148110610c5057600080fd5b60200201356101406105a05160208110610c6957600080fd5b6020020152610c83565b8151600101808352811415610bb8575b505060046105405160148110610c9857600080fd5b60200201356105405160148110610cae57600080fd5b601060c052602060c02001555b8151600101808352811415610add575b50506004356105405260243561056052604435610580526064356105a0526084356105c05260a4356105e05260c4356106005260e43561062052610104356106405261012435610660526101443561068052610164356106a052610184356106c0526101a4356106e0526101c435610700526101e43561072052610204356107405261022435610760526102443561078052610264356107a0527f695ac3ac73f08f2002284ffe563cefe798ee2878a5e04219522e2e99eb89d168610280610540a1005b63207e80cd811415610e5b57600260063360e05260c052604060c02060043560e05260c052604060c02060c052602060c02001541515610e0e576308c379a0610140526020610160526020610180527f5661756c743a2070656e64696e67207769746864726177616c20636c6f7365646101a05261018050606461015cfd5b602435600160063360e05260c052604060c02060043560e05260c052604060c02060c052602060c0200155336101405260043561016052610160516101405160065801613dcd565b600050005b6301e1d114811415610e8157600658016141e2565b610140526101405160005260206000f35b639a5252cc8114156112c157601b5415610e9a57600080fd5b6001601b5560043560a01c15610eaf57600080fd5b60c43560011c15610ebf57600080fd5b60115415610ecc57600080fd5b6009543314610eda57600080fd5b601254600658016141e2565b6101405261014051606435818183011015610f0057600080fd5b8082019050905011151515610f54576308c379a06101605260206101805260206101a0527f5661756c743a207265737065637420746865206465706f736974206c696d69746101c0526101a050606461017cfd5b6101405160643561016052610180600d8060c052602060c02054825260018160c052602060c0200154826020015250506101a0516101805161016051600658016143bb565b6102005261014052610200516101405260006101405111610fb957600080fd5b610140516000546101605260043561018052306101a052610140516101c0526101c0516101a051610180516101605160065801614031565b6101405260005060403661016037600060843518156111d0576101a0600660843560e05260c052604060c02060a43560e05260c052604060c0208060c052602060c02054825260018160c052602060c0200154826020015260028160c052602060c0200154826040015250506101e05115156110ac576308c379a0610200526020610220526020610240527f5661756c743a2070656e64696e67207769746864726177616c20636c6f7365646102605261024050606461021cfd5b6101a051610160526101c051610180526101405161016051610180516101a0516101c0516101e05160005461020052608435610220526101a0516101c051808210156110f757600080fd5b808203905090506102405261024051610220516102005160065801613e97565b6101e0526101c0526101a05261018052610160526101405260005060006002600660843560e05260c052604060c02060a43560e05260c052604060c02060c052602060c0200155600780546101a0518082101561117357600080fd5b808203905090508155506101405161016051610180516101a0516101c0516101e0516084356102005260a43561022052610220516102005160065801613dcd565b6101e0526101c0526101a0526101805261016052610140526000505b61016051610140511015151561124a576308c379a06101a05260206101c052602d6101e0527f5661756c743a20746f6f206c6f77206465706f73697420666f72207370656369610200527f666965642066696c6c696e677300000000000000000000000000000000000000610220526101e05060846101bcfd5b60c435156112ba57610140516101605161018051610140516101805181818301101561127557600080fd5b808201905090506101a0526101c06024803582528060200135826020015250506101e0516101c0516101a05160065801614366565b6101805261016052610140526000505b6000601b55005b63f297dbac8114156114ec5760243560a01c156112dd57600080fd5b60095433146112eb57600080fd5b600435610140526101405160065801614669565b6000506101405160443561016052610180600e8060c052602060c02054825260018160c052602060c0200154826020015250506101a0516101805161016051600658016143bb565b6102005261014052610200516101405260206101e060246370a0823161016052306101805261017c6000545afa61137d57600080fd5b601f3d1161138a57600080fd5b6000506101e051610140511115156113ff576101405161016051610180516101a0516101c0516101e0516000546102005260243561022052610140516102405261024051610220516102005160065801613e97565b6101e0526101c0526101a0526101805261016052610140526000506114ea565b600780546101405181818301101561141657600080fd5b80820190509050815550600560243560e05260c052604060c0205461016052600560243560e05260c052604060c0208054600181818301101561145857600080fd5b8082019050905081555060016002600660243560e05260c052604060c0206101605160e05260c052604060c02060c052602060c020015561014051600660243560e05260c052604060c0206101605160e05260c052604060c02060c052602060c020556064356001600660243560e05260c052604060c0206101605160e05260c052604060c02060c052602060c02001555b005b633383ae638114156116785761014060063360e05260c052604060c02060043560e05260c052604060c0208060c052602060c02054825260018160c052602060c0200154826020015260028160c052602060c020015482604001525050610180511515611598576308c379a06101a05260206101c05260206101e0527f5661756c743a2070656e64696e67207769746864726177616c20636c6f736564610200526101e05060646101bcfd5b600061014051116115a857600080fd5b610140516101605161018051610140516101a0526101c06024803582528060200135826020015250506101e0516101c0516101a05160065801614366565b61018052610160526101405260005060078054610140518082101561160a57600080fd5b808203905090508155506000600260063360e05260c052604060c02060043560e05260c052604060c02060c052602060c0200155610140516101605161018051336101a0526004356101c0526101c0516101a05160065801613dcd565b610180526101605261014052600050005b632e1a7d4d8114156116945733610140526001610160526116fe565b62f714ce8114156116c55760016101605260243560a01c156116b557600080fd5b60206024610140376000506116fe565b63e63697c88114156116f95760243560a01c156116e157600080fd5b602060246101403760206044610160376000506116fe565b611cfd565b601b541561170b57600080fd5b6001601b5561018060063360e05260c052604060c02060043560e05260c052604060c0208060c052602060c02054825260018160c052602060c0200154826020015260028160c052602060c0200154826040015250506101c05115156117b0576308c379a06101e0526020610200526020610220527f5661756c743a2070656e64696e67207769746864726177616c20636c6f736564610240526102205060646101fcfd5b610180516101e05260006101e051116117c857600080fd5b602061028060246370a0823161020052306102205261021c6000545afa6117ee57600080fd5b601f3d116117fb57600080fd5b600050610280516101e0511115611bf35760006102a0526102e060006014818352015b6102e051601060c052602060c02001546102c0526102c051151561184157611ac6565b60206103a060246370a0823161032052306103405261033c6000545afa61186757600080fd5b601f3d1161187457600080fd5b6000506103a05161030052610300516101e05111151561189357611ac6565b6101e05161030051808210156118a857600080fd5b8082039050905061032052610320516006600f6102c05160e05260c052604060c02060c052602060c0200154808211156118e257806118e4565b815b90509050610320526103205115156118fb57611ab6565b60206103e06024632e1a7d4d61036052610320516103805261037c60006102c0515af161192757600080fd5b601f3d1161193457600080fd5b6000506103e05161034052602061040060246370a0823161038052306103a05261039c6000545afa61196557600080fd5b601f3d1161197257600080fd5b60005061040051610300518082101561198a57600080fd5b80820390509050610360526000610340511115611a5d576101e0805161034051808210156119b757600080fd5b808203905090508152506102a08051610340518181830110156119d957600080fd5b80820190509050815250610140610380525b61038051516020610380510161038052610380610380511015611a0d576119eb565b6102c0516103a052610340516103c0526103c0516103a051600658016144c1565b610360610380525b6103805152602061038051036103805261014061038051101515611a5957611a36565b6000505b6006600f6102c05160e05260c052604060c02060c052602060c0200180546103605180821015611a8c57600080fd5b80820390509050815550601480546103605180821015611aab57600080fd5b808203905090508155505b815160010180835281141561181e575b50506101e051602061034060246370a082316102c052306102e0526102dc6000545afa611af257600080fd5b601f3d11611aff57600080fd5b6000506103405110151515611b9d576308c379a06103605260206103805260456103a0527f5661756c743a2063616e7420636c6f73652070656e64696e67207769746864726103c0527f6177616c206576656e20776974682073747261746567696573206c69717569646103e0527f6174696f6e000000000000000000000000000000000000000000000000000000610400526103a05060a461037cfd5b610160516101e0516102a051818183011015611bb857600080fd5b808201905090508082028215828483041417611bd357600080fd5b80905090509050612710808204905090506102a0511115611bf357600080fd5b6101405161016051610180516101a0516101c0516101e0516000546102005261014051610220526101e0516102405261024051610220516102005160065801613e97565b6101e0526101c0526101a0526101805261016052610140526000506000600260063360e05260c052604060c02060043560e05260c052604060c02060c052602060c0200155600780546101e05180821015611c9157600080fd5b808203905090508155506101405161016051610180516101a0516101c0516101e051336102005260043561022052610220516102005160065801613dcd565b6101e0526101c0526101a0526101805261016052610140526000506101e0516000526000601b5560206000f35b6314b4e26e811415611f675760043560a01c15611d1957600080fd5b6013601060c052602060c020015415611d3157600080fd5b60115415611d3e57600080fd5b6001543314611d4c57600080fd5b600060043518611d5b57600080fd5b6001600f60043560e05260c052604060c02060c052602060c020015415611d8157600080fd5b60206101a0600463fbfa77cf6101405261015c6004355afa611da257600080fd5b601f3d11611daf57600080fd5b6000506101a0513014611dc157600080fd5b60206101a06004631f1fcd516101405261015c6004355afa611de257600080fd5b601f3d11611def57600080fd5b6000506101a05160005414611e0357600080fd5b612710601354602435818183011015611e1b57600080fd5b808201905090501115611e2d57600080fd5b6064356044351115611e3e57600080fd5b6113886084351115611e4f57600080fd5b600f60043560e05260c052604060c02060c052602060c0206084358155426001820155602435600282015560443560038201556064356004820155426005820155600060068201556000600782015560006008820155600060098201556000600a820155600b810160c052602060c020600c8060c052602060c02054825560018160c052602060c020015460018301555050506024356101405260443561016052606435610180526084356101a0526004357f5a6abd2af9fe6c0554fa08649e2d86e4393ff19dc304d072d38d295c9291d4dc6080610140a260138054602435818183011015611f3e57600080fd5b808201905090508155506004356013601060c052602060c0200155600658016146e9565b600050005b637c6a4f248114156120735760043560a01c15611f8357600080fd5b6001543314611f9157600080fd5b60006001600f60043560e05260c052604060c02060c052602060c020015411611fb957600080fd5b601380546002600f60043560e05260c052604060c02060c052602060c020015480821015611fe657600080fd5b808203905090508155506024356002600f60043560e05260c052604060c02060c052602060c02001556013805460243581818301101561202557600080fd5b80820190509050815550612710601354111561204057600080fd5b602435610140526004357fbda9398315c83ccef012bcaa318a2ff7b680f36429d36597bd4bc25ac11ead596020610140a2005b63e722befe8114156121925760043560a01c1561208f57600080fd5b600254610160526001546101805260006101405261014061012060006002818352015b6101205160200261016001513314156120ce57600183526120de565b81516001018083528114156120b2575b505050610140516120ee57600080fd5b60006001600f60043560e05260c052604060c02060c052602060c02001541161211657600080fd5b6024356004600f60043560e05260c052604060c02060c052602060c0200154101561214057600080fd5b6024356003600f60043560e05260c052604060c02060c052602060c0200155602435610140526004357f0b728ad785976532c4aaadde09b1cba5f262a7090e83c62d2377bc405678b29c6020610140a2005b634757a1568114156122b15760043560a01c156121ae57600080fd5b600254610160526001546101805260006101405261014061012060006002818352015b6101205160200261016001513314156121ed57600183526121fd565b81516001018083528114156121d1575b5050506101405161220d57600080fd5b60006001600f60043560e05260c052604060c02060c052602060c02001541161223557600080fd5b6024356003600f60043560e05260c052604060c02060c052602060c0200154111561225f57600080fd5b6024356004600f60043560e05260c052604060c02060c052602060c0200155602435610140526004357f1796a8e0760e2de5b72e7bf64fccb7666c48ceab94cb6cae7cb7eff4b6f641ab6020610140a2005b63d0194ed68114156123635760043560a01c156122cd57600080fd5b60015433146122db57600080fd5b61138860243511156122ec57600080fd5b60006001600f60043560e05260c052604060c02060c052602060c02001541161231457600080fd5b602435600f60043560e05260c052604060c02060c052602060c02055602435610140526004357fe57488a65fa53066d4c25bac90db47dda4e5de3025ac12bf76ff07211cf7f39e6020610140a2005b636cb56d198114156127215760043560a01c1561237f57600080fd5b60243560a01c1561238f57600080fd5b600154331461239d57600080fd5b6000602435186123ac57600080fd5b60006001600f60043560e05260c052604060c02060c052602060c0200154116123d457600080fd5b6001600f60243560e05260c052604060c02060c052602060c0200154156123fa57600080fd5b610140600f60043560e05260c052604060c0208060c052602060c02054825260018160c052602060c0200154826020015260028160c052602060c0200154826040015260038160c052602060c0200154826060015260048160c052602060c0200154826080015260058160c052602060c02001548260a0015260068160c052602060c02001548260c0015260078160c052602060c02001548260e0015260088160c052602060c020015482610100015260098160c052602060c0200154826101200152600a8160c052602060c02001548261014001528161016001600b8260c052602060c020018060c052602060c02054825260018160c052602060c02001548260200152505050506101405161016051610180516101a0516101c0516101e05161020051610220516102405161026051610280516102a0516102c0516004356102e0526102e051600658016147cc565b6102c0526102a05261028052610260526102405261022052610200526101e0526101c0526101a052610180526101605261014052600050601380546101805181818301101561259957600080fd5b8082019050905081555060006006600f60043560e05260c052604060c02060c052602060c0200155600f60243560e05260c052604060c02060c052602060c0206101405181556101e05160018201556101805160028201556101a05160038201556101c05160048201556101e051600582015561020051600682015560006007820155600060088201556000600982015561028051600a820155600b810160c052602060c0206102a080518255806020015160018301555050506004353b61266057600080fd5b60006000602463ce5494bb6102e052602435610300526102fc60006004355af161268957600080fd5b6024356004357f100b69bb6b504e1252e36b375233158edee64d071b399e2f81473a695fd1b02160006000a36102e060006014818352015b6004356102e051601481106126d557600080fd5b601060c052602060c0200154141561270d576024356102e051601481106126fb57600080fd5b601060c052602060c020015560006000f35b81516001018083528114156126c1575b5050005b63a0e4af9a811415612737573361014052612768565b63bb994d488114156127635760043560a01c1561275357600080fd5b6020600461014037600050612768565b61281a565b61014051610180526001546101a0526003546101c05260006101605261016061012060006003818352015b6101205160200261018001513314156127af57600183526127bf565b8151600101808352811415612793575b505050610160516127cf57600080fd5b6002600f6101405160e05260c052604060c02060c052602060c020015415156127f85760006000f35b61014051610140516101605261016051600658016147cc565b61014052600050005b63f76e4caa8114156129965760043560a01c1561283657600080fd5b600254610160526001546101805260006101405261014061012060006002818352015b6101205160200261016001513314156128755760018352612885565b8151600101808352811415612859575b5050506101405161289557600080fd5b60006001600f60043560e05260c052604060c02060c052602060c0200154116128bd57600080fd5b60006101405261018060006014818352015b61018051601060c052602060c0200154610160526101605115156128f257612934565b600435610160511861290357600080fd5b6101408051600181818301101561291957600080fd5b808201905090508152505b81516001018083528114156128cf575b50506014610140511061294657600080fd5b6004356013601060c052602060c020015561014051600658016146e9565b610140526000506004357fa8727d412c6fa1e2497d6d6f275e2d9fe4d9318d5b793632e60ad9d38ee8f1fa60006000a2005b63b22439f5811415612abd5760043560a01c156129b257600080fd5b600254610160526001546101805260006101405261014061012060006002818352015b6101205160200261016001513314156129f15760018352612a01565b81516001018083528114156129d5575b50505061014051612a1157600080fd5b61014060006014818352015b6004356101405160148110612a3157600080fd5b601060c052602060c02001541415612aa55760006101405160148110612a5657600080fd5b601060c052602060c020015561014051600658016146e9565b610140526000506004357f8e1ec3c16d6a67ea8effe2ac7adef9c2de0bc0dc47c49cdf18f6a8b0048085be60006000a260006000f35b8151600101808352811415612a1d575b505060006000fd5b63bf3759b5811415612ad3573361014052612b04565b63bdcf36bb811415612aff5760043560a01c15612aef57600080fd5b6020600461014037600050612b04565b612b32565b610140516101405161016052610160516006580161485b565b6101c052610140526101c05160005260206000f35b63112c1f9b811415612b48573361014052612b79565b63d7648013811415612b745760043560a01c15612b6457600080fd5b6020600461014037600050612b79565b612ba7565b610140516101405161016052610160516006580161498c565b6101c052610140526101c05160005260206000f35b63153c27c4811415612c1757600658016141e2565b61014052610140516012541115612c0a5760125461014051600658016141e2565b61016052610140526101605180821015612bf657600080fd5b8082039050905060005260206000f3612c15565b600060005260206000f35b005b63d3406abd811415612c2d573361014052612c5e565b6333586b67811415612c595760043560a01c15612c4957600080fd5b6020600461014037600050612c5e565b612c8c565b6101405161014051610160526101605160065801614c03565b6101c052610140526101c05160005260206000f35b63a1d9bafc8114156132635760006001600f3360e05260c052604060c02060c052602060c020015411612cbe57600080fd5b600435604435818183011015612cd357600080fd5b8082019050905060206101c060246370a0823161014052336101605261015c6000545afa612d0057600080fd5b601f3d11612d0d57600080fd5b6000506101c0511015612d1f57600080fd5b60006024351115612d4b573361014052602435610160526101605161014051600658016144c1565b6000505b61014051336101605260043561018052610180516101605160065801614d56565b6101e052610140526101e051610140526007600f3360e05260c052604060c02060c052602060c020018054600435818183011015612da957600080fd5b8082019050905081555061014051610160513361018052610180516006580161498c565b6101e05261016052610140526101e05161016052610140516101605161018051336101a0526101a0516006580161485b565b6102005261018052610160526101405261020051610180526044356101805180821115612e2c5780612e2e565b815b905090506101a05260006101a0511115612eb8576006600f3360e05260c052604060c02060c052602060c0200180546101a05180821015612e6e57600080fd5b80820390509050815550601480546101a05180821015612e8d57600080fd5b8082039050905081555061018080516101a05180821015612ead57600080fd5b808203905090508152505b6000610160511115612f1e576006600f3360e05260c052604060c02060c052602060c02001805461016051818183011015612ef257600080fd5b808201905090508155506014805461016051818183011015612f1357600080fd5b808201905090508155505b6004356101a051818183011015612f3457600080fd5b808201905090506101c052610160516101c0511015612fbe576101405161016051610180516101a0516101c0516000546101e0523361020052610160516101c05180821015612f8257600080fd5b808203905090506102205261022051610200516101e05160065801613e97565b6101c0526101a052610180526101605261014052600050613042565b610160516101c0511115613042576101405161016051610180516101a0516101c0516000546101e052336102005230610220526101c051610160518082101561300657600080fd5b80820390509050610240526102405161022051610200516101e05160065801614031565b6101c0526101a0526101805261016052610140526000505b6101405161016051610180516101a0516101c0516101e05160065801614245565b610200526101e0526101c0526101a0526101805261016052610140526102005160043581818301101561309557600080fd5b8082019050905061014051808210156130ad57600080fd5b808203905090506101e0526024356101e05111156130e8576101e051602435808210156130d957600080fd5b808203905090506017556130ee565b60006017555b426005600f3360e05260c052604060c02060c052602060c02001554260155560406004610200376101a051610240526007600f3360e05260c052604060c02060c052602060c0200154610260526008600f3360e05260c052604060c02060c052602060c0200154610280526009600f3360e05260c052604060c02060c052602060c02001546102a0526006600f3360e05260c052604060c02060c052602060c02001546102c052610160516102e0526002600f3360e05260c052604060c02060c052602060c020015461030052337fd3c3f0f8d274a9c1e6eecdca5418bb2dee1067b4721d00255214b797bf94b5f4610120610200a26002600f3360e05260c052604060c02060c052602060c0200154151561320b57600161320f565b6011545b15613254576020610260600463efbb5cb06102005261021c335afa61323357600080fd5b601f3d1161324057600080fd5b6000506102605160005260206000f3613261565b6101805160005260206000f35b005b6301681a62811415613299577fffffffffffffffffffffffffffffffffffffffffffffffffffffffffffffffff610140526132ba565b636ea056a98114156132b55760206024610140376000506132ba565b61339a565b60043560a01c156132ca57600080fd5b60015433146132d857600080fd5b600054600435186132e857600080fd5b61014051610160527fffffffffffffffffffffffffffffffffffffffffffffffffffffffffffffffff61016051141561335a57602061020060246370a0823161018052306101a05261019c6004355afa61334157600080fd5b601f3d1161334e57600080fd5b60005061020051610160525b6101405161016051600435610180526001546101a052610160516101c0526101c0516101a0516101805160065801613e97565b6101605261014052600050005b63aed0d48f8114156133d0577fffffffffffffffffffffffffffffffffffffffffffffffffffffffffffffffff610140526133f1565b63140dbc6e8114156133ec5760206024610140376000506133f1565b6136be565b60043560a01c1561340157600080fd5b600354610180526001546101a05260006101605261016061012060006002818352015b6101205160200261018001513314156134405760018352613450565b8151600101808352811415613424575b5050506101605161346057600080fd5b6000610160527fffffffffffffffffffffffffffffffffffffffffffffffffffffffffffffffff6101405114156134b6576006600f60043560e05260c052604060c02060c052602060c0200154610160526134bf565b61014051610160525b600061016051116134cf57600080fd5b60006001600f60043560e05260c052604060c02060c052602060c0200154116134f757600080fd5b602061022060246370a082316101a052306101c0526101bc6000545afa61351d57600080fd5b601f3d1161352a57600080fd5b600050610220516101805260206102406024632e1a7d4d6101c052610160516101e0526101dc60006004355af161356057600080fd5b601f3d1161356d57600080fd5b600050610240516101a052602061026060246370a082316101e05230610200526101fc6000545afa61359e57600080fd5b601f3d116135ab57600080fd5b6000506102605161018051808210156135c357600080fd5b808203905090506101c05260006101a0511115613626576101405161016051610180516101a0516101c0516004356101e0526101a05161020052610200516101e051600658016144c1565b6101c0526101a0526101805261016052610140526000505b6006600f60043560e05260c052604060c02060c052602060c0200180546101c0518082101561365457600080fd5b80820390509050815550601480546101c0518082101561367357600080fd5b808203905090508155506101405161016051610180516101a0516101c0516004356101e0526101e051600658016147cc565b6101c0526101a052610180526101605261014052600050005b63bc25cf7781141561384a5760043560a01c156136da57600080fd5b600254610160526001546101805260006101405261014061012060006002818352015b6101205160200261016001513314156137195760018352613729565b81516001018083528114156136fd575b5050506101405161373957600080fd5b60006001600f60043560e05260c052604060c02060c052602060c02001541161376157600080fd5b6007600f60043560e05260c052604060c02060c052602060c02001546008600f60043560e05260c052604060c02060c052602060c0200154808210156137a657600080fd5b8082039050905061014052600061014051116137c157600080fd5b6008600f60043560e05260c052604060c02060c052602060c020018054610140518181830110156137f157600080fd5b80820190509050815550610140516101405161016052610180600c8060c052602060c02054825260018160c052602060c0200154826020015250506101a051610180516101605160065801614366565b61014052600050005b63fc0c546a8114156138625760005460005260206000f35b635aa6e67581141561387a5760015460005260206000f35b6388a8d6028114156138925760025460005260206000f35b63452a93208114156138aa5760035460005260206000f35b63d48c7fbe8114156138e05760043560a01c156138c657600080fd5b600560043560e05260c052604060c0205460005260206000f35b6344dc49708114156139715760043560a01c156138fc57600080fd5b600660043560e05260c052604060c02060243560e05260c052604060c0206101408080808460c052602060c0205481525050602081019050808060018560c052602060c020015481525050602081019050808060028560c052602060c02001548152505060609050905060c05260c051610140f35b63d41097f58114156139895760075460005260206000f35b633aa87ae88114156139af57600860043560e05260c052604060c0205460005260206000f35b63ac210cc78114156139c75760095460005260206000f35b63e78cea928114156139df57600a5460005260206000f35b636c70bee9811415613a2b57600b6101408080808460c052602060c0205481525050602081019050808060018560c052602060c02001548152505060409050905060c05260c051610140f35b639ec5a894811415613a7757600c6101408080808460c052602060c0205481525050602081019050808060018560c052602060c02001548152505060409050905060c05260c051610140f35b6367a52793811415613ac357600d6101408080808460c052602060c0205481525050602081019050808060018560c052602060c02001548152505060409050905060c05260c051610140f35b63e941fa78811415613b0f57600e6101408080808460c052602060c0205481525050602081019050808060018560c052602060c02001548152505060409050905060c05260c051610140f35b6339ebf823811415613ca45760043560a01c15613b2b57600080fd5b600f60043560e05260c052604060c0206101408080808460c052602060c0205481525050602081019050808060018560c052602060c020015481525050602081019050808060028560c052602060c020015481525050602081019050808060038560c052602060c020015481525050602081019050808060048560c052602060c020015481525050602081019050808060058560c052602060c020015481525050602081019050808060068560c052602060c020015481525050602081019050808060078560c052602060c020015481525050602081019050808060088560c052602060c020015481525050602081019050808060098560c052602060c0200154815250506020810190508080600a8560c052602060c02001548152505060208101905080808080600b8760c052602060c0200160c052602060c020548152505060208101905080806001600b8860c052602060c0200160c052602060c02001548152505050506101a09050905060c05260c051610140f35b63c822adda811415613cd55760043560148110613cc057600080fd5b601060c052602060c020015460005260206000f35b633403c2fc811415613ced5760115460005260206000f35b63ecf70858811415613d055760125460005260206000f35b63cea55f57811415613d1d5760135460005260206000f35b63fc7b9c18811415613d355760145460005260206000f35b63c3535b52811415613d4d5760155460005260206000f35b633629c8de811415613d655760165460005260206000f35b6344b81396811415613d7d5760175460005260206000f35b6342232716811415613d955760185460005260206000f35b63a6f7f5d6811415613dad5760195460005260206000f35b6387788782811415613dc557601a5460005260206000f35b505b60006000fd5b61018052610140526101605260066101405160e05260c052604060c0206101605160e05260c052604060c02060c052602060c020546101a052600160066101405160e05260c052604060c0206101605160e05260c052604060c02060c052602060c02001546101c052600260066101405160e05260c052604060c0206101605160e05260c052604060c02060c052602060c02001546101e052610140517f934097d02f2cead9204f4b2ba5cbeee7dd6c5cb5cb9d0bbcb520002dbee8846d60606101a0a261018051565b6101a05261014052610160526101805260006004610220527fa9059cbb000000000000000000000000000000000000000000000000000000006102405261022060048060208461028001018260208501600060045af15050805182019150506101605160208261028001015260208101905061018051602082610280010152602081019050806102805261028090508051602001806103208284600060045af1613f4057600080fd5b505060206103e0610320516103406000610140515af1613f5f57600080fd5b60203d80821115613f705780613f72565b815b905090506103c0526103c08051602001806101c08284600060045af1613f9757600080fd5b505060006101c051111561402b576101c0806020015160008251806020901315613fc057600080fd5b8091901215613fce57600080fd5b806020036101000a82049050905090501515151561402b576308c379a0610220526020610240526010610260527f5472616e73666572206661696c656421000000000000000000000000000000006102805261026050606461023cfd5b6101a051565b6101c0526101405261016052610180526101a05260006004610240527f23b872dd00000000000000000000000000000000000000000000000000000000610260526102406004806020846102a001018260208501600060045af1505080518201915050610160516020826102a0010152602081019050610180516020826102a00101526020810190506101a0516020826102a0010152602081019050806102a0526102a090508051602001806103608284600060045af16140f157600080fd5b50506020610440610360516103806000610140515af161411057600080fd5b60203d808211156141215780614123565b815b90509050610420526104208051602001806101e08284600060045af161414857600080fd5b505060006101e05111156141dc576101e080602001516000825180602090131561417157600080fd5b809190121561417f57600080fd5b806020036101000a8204905090509050151515156141dc576308c379a0610240526020610260526010610280527f5472616e73666572206661696c656421000000000000000000000000000000006102a05261028050606461025cfd5b6101c051565b6101405260206101e060246370a0823161016052306101805261017c6000545afa61420c57600080fd5b601f3d1161421957600080fd5b6000506101e05160145481818301101561423257600080fd5b8082019050905060005260005161014051565b61014052426015548082101561425a57600080fd5b80820390509050601854808202821582848304141761427857600080fd5b8090509050905061016052670de0b6b3a76400006101605110156142f8576017546101805261018051610160516101805180820282158284830414176142bd57600080fd5b80905090509050670de0b6b3a764000080820490509050808210156142e157600080fd5b808203905090506000526000516101405156614306565b600060005260005161014051565b005b6101405261014051600658016141e2565b610160526101405261016051610140516101605160065801614245565b610180526101605261014052610180518082101561435357600080fd5b8082039050905060005260005161014051565b6101a052610140526101605261018052610140516101c052610160516101e05261018051610200527fd506e4d6f39a3b8e7974016c4d1e076ee799eafbd2c0653c83e44a33c26671e860606101c0a16101a051565b6101a0526101405261016052610180526101805115156143dc5760016143e6565b6101605161014051105b156143fb57610140516000526000516101a051565b6101405161018051808202821582848304141761441757600080fd5b80905090509050612710808204905090506101c0526101405161016051610180516101a0516101c0516101c0516101e052610200600c8060c052602060c02054825260018160c052602060c02001548260200152505061022051610200516101e05160065801614366565b6101c0526101a052610180526101605261014052600050610140516101c051808210156144ae57600080fd5b808203905090506000526000516101a051565b6101805261014052610160526006600f6101405160e05260c052604060c02060c052602060c02001546101a052610160516101a051101561450157600080fd5b600060135418156145d05761016051601354808202821582848304141761452757600080fd5b80905090509050601454808061453c57600080fd5b8204905090506002600f6101405160e05260c052604060c02060c052602060c02001548082111561456d578061456f565b815b905090506101c0526002600f6101405160e05260c052604060c02060c052602060c0200180546101c051808210156145a657600080fd5b80820390509050815550601380546101c051808210156145c557600080fd5b808203905090508155505b6009600f6101405160e05260c052604060c02060c052602060c0200180546101605181818301101561460157600080fd5b808201905090508155506101a051610160518082101561462057600080fd5b808203905090506006600f6101405160e05260c052604060c02060c052602060c020015560148054610160518082101561465957600080fd5b8082039050905081555061018051565b610160526101405260086101405160e05260c052604060c020541515156146cf576308c379a06101805260206101a052601c6101c0527f5661756c743a20776974686472617720616c7265616479207365656e000000006101e0526101c050606461019cfd5b600160086101405160e05260c052604060c0205561016051565b6101405260006101605261018060006014818352015b610180516014811061471057600080fd5b601060c052602060c02001546101a0526101a051151561474f576101608051600181818301101561474057600080fd5b808201905090508152506147b4565b60006101605111156147b4576101a05161018051610160518082101561477457600080fd5b808203905090506014811061478857600080fd5b601060c052602060c0200155600061018051601481106147a757600080fd5b601060c052602060c02001555b81516001018083528114156146ff575b505061014051565b6101605261014052601380546002600f6101405160e05260c052604060c02060c052602060c02001548082101561480257600080fd5b8082039050905081555060006002600f6101405160e05260c052604060c02060c052602060c0200155610140517f4201c688d84c01154d321afa0c72f1bffe9eef53005c9de9d035074e71e9b32a60006000a261016051565b61016052610140526013541515614895576006600f6101405160e05260c052604060c02060c052602060c020015460005260005161016051565b6002600f6101405160e05260c052604060c02060c052602060c0200154610140516101605161018051600658016141e2565b6101a0526101805261016052610140526101a05180820282158284830414176148ef57600080fd5b8090509050905061271080820490509050610180526006600f6101405160e05260c052604060c02060c052602060c02001546101a05260115415614941576101a051600052600051610160515661498a565b610180516101a051111515614962576000600052600051610160515661498a565b6101a051610180518082101561497757600080fd5b8082039050905060005260005161016051565b005b6101605261014052601154156149aa57600060005260005161016051565b610140516101605161018051600658016141e2565b6101a0526101805261016052610140526101a05161018052610180516007541015156149f357600060005260005161016051565b601354610180518082028215828483041417614a0e57600080fd5b80905090509050612710808204905090506101a0526014546101c0526002600f6101405160e05260c052604060c02060c052602060c0200154610180518082028215828483041417614a5f57600080fd5b80905090509050612710808204905090506101e0526006600f6101405160e05260c052604060c02060c052602060c0200154610200526003600f6101405160e05260c052604060c02060c052602060c0200154610220526004600f6101405160e05260c052604060c02060c052602060c020015461024052610200516101e051111515614aed576001614af8565b6101c0516101a05111155b15614b0b57600060005260005161016051565b6101e0516102005180821015614b2057600080fd5b8082039050905061026052610260516101a0516101c05180821015614b4457600080fd5b8082039050905080821115614b595780614b5b565b815b905090506102605261026051602061030060246370a0823161028052306102a05261029c6000545afa614b8d57600080fd5b601f3d11614b9a57600080fd5b6000506103005180821115614baf5780614bb1565b815b905090506102605261022051610260511015614bd95760006000526000516101605156614c01565b610260516102405180821115614bef5780614bf1565b815b9050905060005260005161016051565b005b61016052610140526005600f6101405160e05260c052604060c02060c052602060c020015461018052426101805180821015614c3e57600080fd5b808203905090506101a052610180516001600f6101405160e05260c052604060c02060c052602060c020015480821015614c7757600080fd5b808203905090506101c05260006101a0511115614cdd5760006101c0511115614cd55760206102c060046322f3e2d46102605261027c610140515afa614cbc57600080fd5b601f3d11614cc957600080fd5b6000506102c051614cd8565b60005b614ce0565b60005b15614d46576007600f6101405160e05260c052604060c02060c052602060c02001546101a0518082028215828483041417614d1a57600080fd5b809050905090506101c0518080614d3057600080fd5b8204905090506000526000516101605156614d54565b600060005260005161016051565b005b610180526101405261016052426001600f6101405160e05260c052604060c02060c052602060c02001541415614d9457600060005260005161018051565b426005600f6101405160e05260c052604060c02060c052602060c020015480821015614dbf57600080fd5b808203905090506101a05260006101a05118614dda57600080fd5b610160511515614df257600060005260005161018051565b6006600f6101405160e05260c052604060c02060c052602060c020015460206102406004638e6350e26101e0526101fc610140515afa614e3157600080fd5b601f3d11614e3e57600080fd5b6000506102405180821015614e5257600080fd5b808203905090506101a0518082028215828483041417614e7157600080fd5b809050905090506019548082028215828483041417614e8f57600080fd5b80905090509050612710808204905090506301e18558808204905090506101c05261016051600f6101405160e05260c052604060c02060c052602060c020548082028215828483041417614ee257600080fd5b80905090509050612710808204905090506101e05261016051601a548082028215828483041417614f1257600080fd5b809050905090506127108082049050905061020052610200516101e051818183011015614f3e57600080fd5b808201905090506101c051818183011015614f5857600080fd5b80820190509050610220526101605161022051111561502e576101e051610160518082028215828483041417614f8d57600080fd5b80905090509050610220518080614fa357600080fd5b8204905090506101e05261020051610160518082028215828483041417614fc957600080fd5b80905090509050610220518080614fdf57600080fd5b820490509050610200526101c05161016051808202821582848304141761500557600080fd5b8090509050905061022051808061501b57600080fd5b8204905090506101c05261016051610220525b60006101e05111156150da576101405161016051610180516101a0516101c0516101e05161020051610220516101e05161024052610260600b600f6101405160e05260c052604060c02060c052602060c020018060c052602060c02054825260018160c052602060c02001548260200152505061028051610260516102405160065801614366565b61022052610200526101e0526101c0526101a0526101805261016052610140526000505b6000610200516101c0518181830110156150f357600080fd5b8082019050905011156151a0576101405161016051610180516101a0516101c0516101e0516102005161022051610200516101c05181818301101561513757600080fd5b8082019050905061024052610260600c8060c052602060c02054825260018160c052602060c02001548260200152505061028051610260516102405160065801614366565b61022052610200526101e0526101c0526101a0526101805261016052610140526000505b6102205160005260005161018051565b6100046151b4036100046000396100046151b4036000f3"
}