{
  "address": "0xDABd8eaF10A172FB0425804b06420362cf6F6EC1",
  "abi": [
    {
      "inputs": [],
      "name": "apiVersion",
      "outputs": [
        {
          "internalType": "string",
          "name": "api_version",
          "type": "string"
        }
      ],
      "stateMutability": "view",
      "type": "function"
    },
    {
      "inputs": [
        {
          "internalType": "bytes",
          "name": "payload",
          "type": "bytes"
        }
      ],
      "name": "decodeWithdrawEventData",
      "outputs": [
        {
          "internalType": "int8",
          "name": "sender_wid",
          "type": "int8"
        },
        {
          "internalType": "uint256",
          "name": "sender_addr",
          "type": "uint256"
        },
        {
          "internalType": "uint128",
          "name": "amount",
          "type": "uint128"
        },
        {
          "internalType": "uint160",
          "name": "_recipient",
          "type": "uint160"
        },
        {
          "internalType": "uint32",
          "name": "chainId",
          "type": "uint32"
        }
      ],
      "stateMutability": "pure",
      "type": "function"
    },
    {
      "inputs": [
        {
          "components": [
            {
              "internalType": "int128",
              "name": "wid",
              "type": "int128"
            },
            {
              "internalType": "uint256",
              "name": "addr",
              "type": "uint256"
            }
          ],
          "internalType": "struct IVault.TONAddress",
          "name": "recipient",
          "type": "tuple"
        },
        {
          "internalType": "uint256",
          "name": "amount",
          "type": "uint256"
        }
      ],
      "name": "deposit",
      "outputs": [],
      "stateMutability": "nonpayable",
      "type": "function"
    },
    {
      "inputs": [
        {
          "components": [
            {
              "internalType": "int128",
              "name": "wid",
              "type": "int128"
            },
            {
              "internalType": "uint256",
              "name": "addr",
              "type": "uint256"
            }
          ],
          "internalType": "struct IVault.TONAddress",
          "name": "recipient",
          "type": "tuple"
        },
        {
          "internalType": "uint256",
          "name": "amount",
          "type": "uint256"
        },
        {
          "internalType": "address[]",
          "name": "pendingWithdrawalsToFill",
          "type": "address[]"
        }
      ],
      "name": "depositWithFillings",
      "outputs": [],
      "stateMutability": "nonpayable",
      "type": "function"
    },
    {
      "inputs": [],
      "name": "getChainID",
      "outputs": [
        {
          "internalType": "uint256",
          "name": "",
          "type": "uint256"
        }
      ],
      "stateMutability": "view",
      "type": "function"
    },
    {
      "inputs": [
        {
          "internalType": "address",
          "name": "_vault",
          "type": "address"
        }
      ],
      "name": "initialize",
      "outputs": [],
      "stateMutability": "nonpayable",
      "type": "function"
    },
    {
      "inputs": [
        {
          "internalType": "bytes",
          "name": "payload",
          "type": "bytes"
        },
        {
          "internalType": "bytes[]",
          "name": "signatures",
          "type": "bytes[]"
        },
        {
          "internalType": "uint256",
          "name": "bounty",
          "type": "uint256"
        }
      ],
      "name": "saveWithdraw",
      "outputs": [],
      "stateMutability": "nonpayable",
      "type": "function"
    },
    {
      "inputs": [],
      "name": "vault",
      "outputs": [
        {
          "internalType": "address",
          "name": "",
          "type": "address"
        }
      ],
      "stateMutability": "view",
      "type": "function"
    }
  ],
  "transactionHash": "0xaf95b92514f4fb91b14a4c8d1a79767f7e4c77ee1a9ce2cbbb0d8d8688bc9808",
  "args": [],
  "solcInputHash": "08b2cf5de0422650c74c59ba8bfa7a30",
  "bytecode": "0x608060405234801561001057600080fd5b50611166806100206000396000f3fe608060405234801561001057600080fd5b50600436106100885760003560e01c8063bd047a941161005b578063bd047a94146100f3578063c4d66de81461014f578063f319d73b14610162578063fbfa77cf1461017557610088565b8063258294101461008d5780632a2f435f146100bd5780634dde1694146100d2578063564b81ef146100e5575b600080fd5b60408051808201825260058152640312e302e360dc1b602082015290516100b49190610fd9565b60405180910390f35b6100d06100cb366004610a97565b6101a6565b005b6100d06100e0366004610c72565b610640565b6040514681526020016100b4565b610106610101366004610b30565b6106c9565b6040805160009690960b865260208601949094526001600160801b03909216928401929092526001600160a01b03909116606083015263ffffffff16608082015260a0016100b4565b6100d061015d366004610a58565b610713565b6100d0610170366004610bd8565b6107f2565b60005461018e906201000090046001600160a01b031681565b6040516001600160a01b0390911681526020016100b4565b60008060029054906101000a90046001600160a01b03166001600160a01b031663e78cea926040518163ffffffff1660e01b815260040160206040518083038186803b1580156101f557600080fd5b505afa158015610209573d6000803e3d6000fd5b505050506040513d601f19601f8201168201806040525081019061022d9190610a7b565b60405163a40b9e7360e01b81529091506001600160a01b0382169063a40b9e7390610262908990899089908990600401610f2d565b60206040518083038186803b15801561027a57600080fd5b505afa15801561028e573d6000803e3d6000fd5b505050506040513d601f19601f820116820180604052508101906102b29190610e8e565b63ffffffff16156103205760405162461bcd60e51b815260206004820152602d60248201527f5661756c7420777261707065723a207369676e6174757265732076657269666960448201526c18d85d1a5bdb8819985a5b1959609a1b60648201526084015b60405180910390fd5b600061032e86880188610cc1565b9050600060029054906101000a90046001600160a01b03166001600160a01b03168160e001516001600160a01b0316146103aa5760405162461bcd60e51b815260206004820181905260248201527f5661756c7420777261707065723a2077726f6e67206576656e742070726f78796044820152606401610317565b60008060029054906101000a90046001600160a01b03166001600160a01b0316636c70bee96040518163ffffffff1660e01b8152600401604080518083038186803b1580156103f857600080fd5b505afa15801561040c573d6000803e3d6000fd5b505050506040513d601f19601f820116820180604052508101906104309190610c37565b90508060000151600f0b826060015160000b148015610456575080602001518260800151145b6104b35760405162461bcd60e51b815260206004820152602860248201527f5661756c7420777261707065723a2077726f6e67206576656e7420636f6e666960448201526733bab930ba34b7b760c11b6064820152608401610317565b5060008060008060006104fb8c8c8080601f0160208091040260200160405190810160405280939291908181526020018383808284376000920191909152506106c992505050565b9450945094509450945061050c4690565b8163ffffffff16146105605760405162461bcd60e51b815260206004820152601d60248201527f5661756c7420777261707065723a2077726f6e6720636861696e2069640000006044820152606401610317565b6000829050600060029054906101000a90046001600160a01b03166001600160a01b031663f297dbac8e8e604051610599929190610ed4565b60405190819003902083876001600160a01b03821633146105bb5760006105bd565b8d5b6040516001600160e01b031960e087901b16815260048101949094526001600160a01b0390921660248401526001600160801b031660448301526064820152608401600060405180830381600087803b15801561061957600080fd5b505af115801561062d573d6000803e3d6000fd5b5050505050505050505050505050505050565b600080546040516365e7cb6b60e01b81523360048201528451600f0b6024820152602085015160448201526064810184905260848101929092526201000090046001600160a01b0316906365e7cb6b9060a401600060405180830381600087803b1580156106ad57600080fd5b505af11580156106c1573d6000803e3d6000fd5b505050505050565b600080600080600080868060200190518101906106e69190610daf565b905080604001518060200190518101906107009190610b63565b939b929a50909850965090945092505050565b600054610100900460ff168061072c575060005460ff16155b61078f5760405162461bcd60e51b815260206004820152602e60248201527f496e697469616c697a61626c653a20636f6e747261637420697320616c72656160448201526d191e481a5b9a5d1a585b1a5e995960921b6064820152608401610317565b600054610100900460ff161580156107ba576000805460ff1961ff0019909116610100171660011790555b6000805462010000600160b01b031916620100006001600160a01b0385160217905580156107ee576000805461ff00191690555b5050565b806108515760405162461bcd60e51b815260206004820152602960248201527f577261707065723a206e6f2070656e64696e67207769746864726177616c73206044820152681cdc1958da599a595960ba1b6064820152608401610317565b60005b8181101561090f576000546201000090046001600160a01b03166365e7cb6b33878787878781811061089657634e487b7160e01b600052603260045260246000fd5b90506020020160208101906108ab9190610a58565b6040518563ffffffff1660e01b81526004016108ca9493929190610ee4565b600060405180830381600087803b1580156108e457600080fd5b505af11580156108f8573d6000803e3d6000fd5b50505050808061090790611095565b915050610854565b5050505050565b8035610921816110d2565b919050565b8051610921816110d2565b60008083601f840112610942578182fd5b50813567ffffffffffffffff811115610959578182fd5b602083019150836020808302850101111561097357600080fd5b9250929050565b600082601f83011261098a578081fd5b813561099d6109988261103d565b61100c565b8181528460208386010111156109b1578283fd5b816020850160208301379081016020019190915292915050565b600082601f8301126109db578081fd5b81516109e96109988261103d565b8181528460208386010111156109fd578283fd5b610a0e826020830160208701611065565b949350505050565b8035610921816110f9565b8051610921816110f9565b803561092181611108565b805161092181611108565b80356109218161111a565b80516109218161111a565b600060208284031215610a69578081fd5b8135610a74816110d2565b9392505050565b600060208284031215610a8c578081fd5b8151610a74816110d2565b600080600080600060608688031215610aae578081fd5b853567ffffffffffffffff80821115610ac5578283fd5b818801915088601f830112610ad8578283fd5b813581811115610ae6578384fd5b896020828501011115610af7578384fd5b602092830197509550908701359080821115610b11578283fd5b50610b1e88828901610931565b96999598509660400135949350505050565b600060208284031215610b41578081fd5b813567ffffffffffffffff811115610b57578182fd5b610a0e8482850161097a565b600080600080600060a08688031215610b7a578283fd5b8551610b85816110f9565b6020870151604088015191965094506001600160801b0381168114610ba8578384fd5b6060870151909350610bb9816110d2565b6080870151909250610bca81611108565b809150509295509295909350565b6000806000808486036080811215610bee578283fd5b6040811215610bfb578283fd5b5084935060408501359250606085013567ffffffffffffffff811115610c1f578283fd5b610c2b87828801610931565b95989497509550505050565b600060408284031215610c48578081fd5b610c52604061100c565b8251610c5d816110ea565b81526020928301519281019290925250919050565b6000808284036060811215610c85578283fd5b6040811215610c92578283fd5b50610c9d604061100c565b8335610ca8816110ea565b8152602084810135908201529460409093013593505050565b600060208284031215610cd2578081fd5b813567ffffffffffffffff80821115610ce9578283fd5b8184019150610120808387031215610cff578384fd5b610d088161100c565b9050610d1383610a42565b8152610d2160208401610a2c565b6020820152604083013582811115610d37578485fd5b610d438782860161097a565b604083015250610d5560608401610a16565b606082015260808301356080820152610d7060a08401610a16565b60a082015260c083013560c0820152610d8b60e08401610916565b60e08201526101009150610da0828401610a2c565b91810191909152949350505050565b600060208284031215610dc0578081fd5b815167ffffffffffffffff80821115610dd7578283fd5b8184019150610120808387031215610ded578384fd5b610df68161100c565b9050610e0183610a4d565b8152610e0f60208401610a37565b6020820152604083015182811115610e25578485fd5b610e31878286016109cb565b604083015250610e4360608401610a21565b606082015260808301516080820152610e5e60a08401610a21565b60a082015260c083015160c0820152610e7960e08401610926565b60e08201526101009150610da0828401610a37565b600060208284031215610e9f578081fd5b8151610a7481611108565b60008284528282602086013780602084860101526020601f19601f85011685010190509392505050565b6000828483379101908152919050565b6001600160a01b03858116825260a08201908535610f01816110ea565b80600f0b6020850152506020860135604084015284606084015280841660808401525095945050505050565b600060408252610f41604083018688610eaa565b6020838203818501528185835281830190508182870284010187855b88811015610fc957858303601f190184528135368b9003601e19018112610f82578788fd5b8a01803567ffffffffffffffff811115610f9a578889fd5b8036038c1315610fa8578889fd5b610fb58582898501610eaa565b958701959450505090840190600101610f5d565b50909a9950505050505050505050565b6000602082528251806020840152610ff8816040850160208701611065565b601f01601f19169190910160400192915050565b604051601f8201601f1916810167ffffffffffffffff81118282101715611035576110356110bc565b604052919050565b600067ffffffffffffffff821115611057576110576110bc565b50601f01601f191660200190565b60005b83811015611080578181015183820152602001611068565b8381111561108f576000848401525b50505050565b60006000198214156110b557634e487b7160e01b81526011600452602481fd5b5060010190565b634e487b7160e01b600052604160045260246000fd5b6001600160a01b03811681146110e757600080fd5b50565b80600f0b81146110e757600080fd5b8060000b81146110e757600080fd5b63ffffffff811681146110e757600080fd5b67ffffffffffffffff811681146110e757600080fdfea2646970667358221220d83c554a1c2e4d28f0c918258dc2037323d6b16395ac457fdc53c38b9f855ee364736f6c63430008020033",
  "devdoc": {
    "kind": "dev",
    "methods": {
      "deposit((int128,uint256),uint256)": {
        "params": {
          "amount": "Amount of tokens to be deposited",
          "recipient": "Recipient TON address"
        }
      },
      "depositWithFillings((int128,uint256),uint256,address[])": {
        "params": {
          "amount": "Amount of tokens to be deposited, should be gte than sum(fillings)",
          "pendingWithdrawalsToFill": "List of addresses, whose pending withdrawals will be filled with deposit",
          "recipient": "Recipient TON address"
        }
      },
      "saveWithdraw(bytes,bytes[],uint256)": {
        "params": {
          "bounty": "Pending withdraw bounty, can be set only by withdraw recipient. Ignores otherwise.",
          "payload": "Bytes encoded `IBridge.TONEvent` structure",
          "signatures": "Set of relay's signatures"
        }
      }
    },
    "version": 1
  },
  "userdoc": {
    "kind": "user",
    "methods": {
      "deposit((int128,uint256),uint256)": {
        "notice": "Most common entry point for Broxus Bridge.this Simply transfers tokens to the FreeTON side."
      },
      "depositWithFillings((int128,uint256),uint256,address[])": {
        "notice": "Special type of deposit, which allows to fill specified pending withdrawals. Set of fillings should be created off-chain. Usually allows depositor to receive additional reward (bounty) on the FreeTON side."
      },
      "saveWithdraw(bytes,bytes[],uint256)": {
        "notice": "Entry point for withdrawing tokens from the Broxus Bridge. Expects payload with withdraw details and list of relay's signatures."
      }
    },
    "version": 1
  },
  "storageLayout": {
    "storage": [
      {
        "astId": 1280,
        "contract": "contracts/vault/VaultWrapper.sol:VaultWrapper",
        "label": "_initialized",
        "offset": 0,
        "slot": "0",
        "type": "t_bool"
      },
      {
        "astId": 1283,
        "contract": "contracts/vault/VaultWrapper.sol:VaultWrapper",
        "label": "_initializing",
        "offset": 1,
        "slot": "0",
        "type": "t_bool"
      },
      {
        "astId": 4258,
        "contract": "contracts/vault/VaultWrapper.sol:VaultWrapper",
        "label": "vault",
        "offset": 2,
        "slot": "0",
        "type": "t_address"
      }
    ],
    "types": {
      "t_address": {
        "encoding": "inplace",
        "label": "address",
        "numberOfBytes": "20"
      },
      "t_bool": {
        "encoding": "inplace",
        "label": "bool",
        "numberOfBytes": "1"
      }
    }
  }
}