{
  "address": "0x87838Cec52e31C578E056Cbc0a6AcBCF07DBB45e",
  "abi": [
    {
      "inputs": [],
      "name": "apiVersion",
      "outputs": [
        {
          "internalType": "string",
          "name": "api_version",
          "type": "string"
        }
      ],
      "stateMutability": "pure",
      "type": "function"
    },
    {
      "inputs": [
        {
          "internalType": "bytes",
          "name": "payload",
          "type": "bytes"
        }
      ],
      "name": "decodeWithdrawEventData",
      "outputs": [
        {
          "internalType": "int8",
          "name": "sender_wid",
          "type": "int8"
        },
        {
          "internalType": "uint256",
          "name": "sender_addr",
          "type": "uint256"
        },
        {
          "internalType": "uint128",
          "name": "amount",
          "type": "uint128"
        },
        {
          "internalType": "uint160",
          "name": "_recipient",
          "type": "uint160"
        },
        {
          "internalType": "uint32",
          "name": "chainId",
          "type": "uint32"
        }
      ],
      "stateMutability": "pure",
      "type": "function"
    },
    {
      "inputs": [
        {
          "components": [
            {
              "internalType": "int128",
              "name": "wid",
              "type": "int128"
            },
            {
              "internalType": "uint256",
              "name": "addr",
              "type": "uint256"
            }
          ],
          "internalType": "struct IVault.TONAddress",
          "name": "recipient",
          "type": "tuple"
        },
        {
          "internalType": "uint256",
          "name": "amount",
          "type": "uint256"
        }
      ],
      "name": "deposit",
      "outputs": [],
      "stateMutability": "nonpayable",
      "type": "function"
    },
    {
      "inputs": [
        {
          "components": [
            {
              "internalType": "int128",
              "name": "wid",
              "type": "int128"
            },
            {
              "internalType": "uint256",
              "name": "addr",
              "type": "uint256"
            }
          ],
          "internalType": "struct IVault.TONAddress",
          "name": "recipient",
          "type": "tuple"
        },
        {
          "internalType": "uint256",
          "name": "amount",
          "type": "uint256"
        },
        {
          "components": [
            {
              "internalType": "address",
              "name": "recipient",
              "type": "address"
            },
            {
              "internalType": "uint256",
              "name": "id",
              "type": "uint256"
            }
          ],
          "internalType": "struct IVault.PendingWithdrawalId[]",
          "name": "pendingWithdrawalsIdsToFill",
          "type": "tuple[]"
        }
      ],
      "name": "depositWithFillings",
      "outputs": [],
      "stateMutability": "nonpayable",
      "type": "function"
    },
    {
      "inputs": [],
      "name": "getChainID",
      "outputs": [
        {
          "internalType": "uint256",
          "name": "",
          "type": "uint256"
        }
      ],
      "stateMutability": "view",
      "type": "function"
    },
    {
      "inputs": [
        {
          "internalType": "address",
          "name": "_vault",
          "type": "address"
        }
      ],
      "name": "initialize",
      "outputs": [],
      "stateMutability": "nonpayable",
      "type": "function"
    },
    {
      "inputs": [
        {
          "internalType": "bytes",
          "name": "payload",
          "type": "bytes"
        },
        {
          "internalType": "bytes[]",
          "name": "signatures",
          "type": "bytes[]"
        },
        {
          "internalType": "uint256",
          "name": "bounty",
          "type": "uint256"
        }
      ],
      "name": "saveWithdraw",
      "outputs": [],
      "stateMutability": "nonpayable",
      "type": "function"
    },
    {
      "inputs": [],
      "name": "vault",
      "outputs": [
        {
          "internalType": "address",
          "name": "",
          "type": "address"
        }
      ],
      "stateMutability": "view",
      "type": "function"
    }
  ],
  "transactionHash": "0x4ebf43504015c3c5bcf0d11207e6322623811917616f6d99b03dec96d4e7d8ac",
  "args": [],
  "solcInputHash": "22e20508f4b2a1ab67c19d71655d7ca9",
  "bytecode": "0x608060405234801561001057600080fd5b506111ad806100206000396000f3fe608060405234801561001057600080fd5b50600436106100885760003560e01c80638ecb58e61161005b5780638ecb58e6146100f3578063bd047a9414610106578063c4d66de814610162578063fbfa77cf1461017557610088565b8063258294101461008d5780632a2f435f146100bd5780634dde1694146100d2578063564b81ef146100e5575b600080fd5b60408051808201825260058152640302e312e360dc1b602082015290516100b49190611020565b60405180910390f35b6100d06100cb366004610a67565b6101a6565b005b6100d06100e0366004610c9e565b610640565b6040514681526020016100b4565b6100d0610101366004610bd7565b6106ee565b610119610114366004610b2f565b610806565b6040805160009690960b865260208601949094526001600160801b03909216928401929092526001600160a01b03909116606083015263ffffffff16608082015260a0016100b4565b6100d0610170366004610a28565b610850565b60005461018e906201000090046001600160a01b031681565b6040516001600160a01b0390911681526020016100b4565b60008060029054906101000a90046001600160a01b03166001600160a01b031663e78cea926040518163ffffffff1660e01b815260040160206040518083038186803b1580156101f557600080fd5b505afa158015610209573d6000803e3d6000fd5b505050506040513d601f19601f8201168201806040525081019061022d9190610a4b565b60405163a40b9e7360e01b81529091506001600160a01b0382169063a40b9e7390610262908990899089908990600401610f74565b60206040518083038186803b15801561027a57600080fd5b505afa15801561028e573d6000803e3d6000fd5b505050506040513d601f19601f820116820180604052508101906102b29190610eba565b63ffffffff16156103205760405162461bcd60e51b815260206004820152602d60248201527f5661756c7420777261707065723a207369676e6174757265732076657269666960448201526c18d85d1a5bdb8819985a5b1959609a1b60648201526084015b60405180910390fd5b600061032e86880188610ced565b9050600060029054906101000a90046001600160a01b03166001600160a01b03168160e001516001600160a01b0316146103aa5760405162461bcd60e51b815260206004820181905260248201527f5661756c7420777261707065723a2077726f6e67206576656e742070726f78796044820152606401610317565b60008060029054906101000a90046001600160a01b03166001600160a01b0316636c70bee96040518163ffffffff1660e01b8152600401604080518083038186803b1580156103f857600080fd5b505afa15801561040c573d6000803e3d6000fd5b505050506040513d601f19601f820116820180604052508101906104309190610c63565b90508060000151600f0b826060015160000b148015610456575080602001518260800151145b6104b35760405162461bcd60e51b815260206004820152602860248201527f5661756c7420777261707065723a2077726f6e67206576656e7420636f6e666960448201526733bab930ba34b7b760c11b6064820152608401610317565b5060008060008060006104fb8c8c8080601f01602080910402602001604051908101604052809392919081815260200183838082843760009201919091525061080692505050565b9450945094509450945061050c4690565b8163ffffffff16146105605760405162461bcd60e51b815260206004820152601d60248201527f5661756c7420777261707065723a2077726f6e6720636861696e2069640000006044820152606401610317565b6000829050600060029054906101000a90046001600160a01b03166001600160a01b031663f297dbac8e8e604051610599929190610f00565b60405190819003902083876001600160a01b03821633146105bb5760006105bd565b8d5b6040516001600160e01b031960e087901b16815260048101949094526001600160a01b0390921660248401526001600160801b031660448301526064820152608401600060405180830381600087803b15801561061957600080fd5b505af115801561062d573d6000803e3d6000fd5b5050505050505050505050505050505050565b604080518082018252600080825260208083018281529154935163269494b360e21b81523360048201528651600f0b60248201529086015160448201526064810185905282516001600160a01b039081166084830152915160a4820152600160c482015291926201000090041690639a5252cc9060e401600060405180830381600087803b1580156106d157600080fd5b505af11580156106e5573d6000803e3d6000fd5b50505050505050565b8061074d5760405162461bcd60e51b815260206004820152602960248201527f577261707065723a206e6f2070656e64696e67207769746864726177616c73206044820152681cdc1958da599a595960ba1b6064820152608401610317565b60005b818110156107ff576000546201000090046001600160a01b0316639a5252cc33878787878781811061079257634e487b7160e01b600052603260045260246000fd5b90506040020160016040518663ffffffff1660e01b81526004016107ba959493929190610f10565b600060405180830381600087803b1580156107d457600080fd5b505af11580156107e8573d6000803e3d6000fd5b5050505080806107f7906110dc565b915050610750565b5050505050565b600080600080600080868060200190518101906108239190610ddb565b9050806040015180602001905181019061083d9190610b62565b939b929a50909850965090945092505050565b600054610100900460ff1680610869575060005460ff16155b6108cc5760405162461bcd60e51b815260206004820152602e60248201527f496e697469616c697a61626c653a20636f6e747261637420697320616c72656160448201526d191e481a5b9a5d1a585b1a5e995960921b6064820152608401610317565b600054610100900460ff161580156108f7576000805460ff1961ff0019909116610100171660011790555b6000805462010000600160b01b031916620100006001600160a01b03851602179055801561092b576000805461ff00191690555b5050565b803561093a81611119565b919050565b805161093a81611119565b600082601f83011261095a578081fd5b813561096d61096882611084565b611053565b818152846020838601011115610981578283fd5b816020850160208301379081016020019190915292915050565b600082601f8301126109ab578081fd5b81516109b961096882611084565b8181528460208386010111156109cd578283fd5b6109de8260208301602087016110ac565b949350505050565b803561093a81611140565b805161093a81611140565b803561093a8161114f565b805161093a8161114f565b803561093a81611161565b805161093a81611161565b600060208284031215610a39578081fd5b8135610a4481611119565b9392505050565b600060208284031215610a5c578081fd5b8151610a4481611119565b600080600080600060608688031215610a7e578081fd5b853567ffffffffffffffff80821115610a95578283fd5b818801915088601f830112610aa8578283fd5b813581811115610ab6578384fd5b60208a81838601011115610ac8578485fd5b8084019850819750808a0135935082841115610ae2578485fd5b838a0193508a601f850112610af5578485fd5b8335915082821115610b05578485fd5b8a818284028601011115610b17578485fd5b979a9699509190960196909550604001359392505050565b600060208284031215610b40578081fd5b813567ffffffffffffffff811115610b56578182fd5b6109de8482850161094a565b600080600080600060a08688031215610b79578283fd5b8551610b8481611140565b6020870151604088015191965094506001600160801b0381168114610ba7578384fd5b6060870151909350610bb881611119565b6080870151909250610bc98161114f565b809150509295509295909350565b6000806000808486036080811215610bed578283fd5b6040811215610bfa578283fd5b5084935060408501359250606085013567ffffffffffffffff80821115610c1f578384fd5b818701915087601f830112610c32578384fd5b813581811115610c40578485fd5b886020604083028501011115610c54578485fd5b95989497505060200194505050565b600060408284031215610c74578081fd5b610c7e6040611053565b8251610c8981611131565b81526020928301519281019290925250919050565b6000808284036060811215610cb1578283fd5b6040811215610cbe578283fd5b50610cc96040611053565b8335610cd481611131565b8152602084810135908201529460409093013593505050565b600060208284031215610cfe578081fd5b813567ffffffffffffffff80821115610d15578283fd5b8184019150610120808387031215610d2b578384fd5b610d3481611053565b9050610d3f83610a12565b8152610d4d602084016109fc565b6020820152604083013582811115610d63578485fd5b610d6f8782860161094a565b604083015250610d81606084016109e6565b606082015260808301356080820152610d9c60a084016109e6565b60a082015260c083013560c0820152610db760e0840161092f565b60e08201526101009150610dcc8284016109fc565b91810191909152949350505050565b600060208284031215610dec578081fd5b815167ffffffffffffffff80821115610e03578283fd5b8184019150610120808387031215610e19578384fd5b610e2281611053565b9050610e2d83610a1d565b8152610e3b60208401610a07565b6020820152604083015182811115610e51578485fd5b610e5d8782860161099b565b604083015250610e6f606084016109f1565b606082015260808301516080820152610e8a60a084016109f1565b60a082015260c083015160c0820152610ea560e0840161093f565b60e08201526101009150610dcc828401610a07565b600060208284031215610ecb578081fd5b8151610a448161114f565b60008284528282602086013780602084860101526020601f19601f85011685010190509392505050565b6000828483379101908152919050565b6001600160a01b03868116825260e08201908635610f2d81611131565b80600f0b602085015250602087013560408401528560608401528435610f5281611119565b1660808301526020939093013560a082015290151560c0909101529392505050565b600060408252610f88604083018688610ed6565b6020838203818501528185835281830190508182870284010187855b8881101561101057858303601f190184528135368b9003601e19018112610fc9578788fd5b8a01803567ffffffffffffffff811115610fe1578889fd5b8036038c1315610fef578889fd5b610ffc8582898501610ed6565b958701959450505090840190600101610fa4565b50909a9950505050505050505050565b600060208252825180602084015261103f8160408501602087016110ac565b601f01601f19169190910160400192915050565b604051601f8201601f1916810167ffffffffffffffff8111828210171561107c5761107c611103565b604052919050565b600067ffffffffffffffff82111561109e5761109e611103565b50601f01601f191660200190565b60005b838110156110c75781810151838201526020016110af565b838111156110d6576000848401525b50505050565b60006000198214156110fc57634e487b7160e01b81526011600452602481fd5b5060010190565b634e487b7160e01b600052604160045260246000fd5b6001600160a01b038116811461112e57600080fd5b50565b80600f0b811461112e57600080fd5b8060000b811461112e57600080fd5b63ffffffff8116811461112e57600080fd5b67ffffffffffffffff8116811461112e57600080fdfea2646970667358221220c60a15d85fc422ef47c3995ed427965da56724c98930a83c6a0c57c88f3a301664736f6c63430008020033",
  "devdoc": {
    "kind": "dev",
    "methods": {
      "deposit((int128,uint256),uint256)": {
        "params": {
          "amount": "Amount of tokens to be deposited",
          "recipient": "Recipient TON address"
        }
      },
      "depositWithFillings((int128,uint256),uint256,(address,uint256)[])": {
        "params": {
          "amount": "Amount of tokens to be deposited, should be gte than sum(fillings)",
          "pendingWithdrawalsIdsToFill": "List of pending withdrawals ids",
          "recipient": "Recipient TON address"
        }
      },
      "saveWithdraw(bytes,bytes[],uint256)": {
        "params": {
          "bounty": "Pending withdraw bounty, can be set only by withdraw recipient. Ignores otherwise.",
          "payload": "Bytes encoded `IBridge.TONEvent` structure",
          "signatures": "Set of relay's signatures"
        }
      }
    },
    "version": 1
  },
  "userdoc": {
    "kind": "user",
    "methods": {
      "deposit((int128,uint256),uint256)": {
        "notice": "Most common entry point for Broxus Bridge.this Simply transfers tokens to the FreeTON side."
      },
      "depositWithFillings((int128,uint256),uint256,(address,uint256)[])": {
        "notice": "Special type of deposit, which allows to fill specified pending withdrawals. Set of fillings should be created off-chain. Usually allows depositor to receive additional reward (bounty) on the FreeTON side."
      },
      "saveWithdraw(bytes,bytes[],uint256)": {
        "notice": "Entry point for withdrawing tokens from the Broxus Bridge. Expects payload with withdraw details and list of relay's signatures."
      }
    },
    "version": 1
  },
  "storageLayout": {
    "storage": [
      {
        "astId": 1280,
        "contract": "contracts/vault/VaultWrapper.sol:VaultWrapper",
        "label": "_initialized",
        "offset": 0,
        "slot": "0",
        "type": "t_bool"
      },
      {
        "astId": 1283,
        "contract": "contracts/vault/VaultWrapper.sol:VaultWrapper",
        "label": "_initializing",
        "offset": 1,
        "slot": "0",
        "type": "t_bool"
      },
      {
        "astId": 4455,
        "contract": "contracts/vault/VaultWrapper.sol:VaultWrapper",
        "label": "vault",
        "offset": 2,
        "slot": "0",
        "type": "t_address"
      }
    ],
    "types": {
      "t_address": {
        "encoding": "inplace",
        "label": "address",
        "numberOfBytes": "20"
      },
      "t_bool": {
        "encoding": "inplace",
        "label": "bool",
        "numberOfBytes": "1"
      }
    }
  }
}