{
  "address": "0xE45c89E033e24779FbbBA49bf42Ae27E116a160D",
  "abi": [
    {
      "name": "NewRelease",
      "inputs": [
        {
          "name": "release_id",
          "type": "uint256",
          "indexed": true
        },
        {
          "name": "template",
          "type": "address",
          "indexed": false
        },
        {
          "name": "api_version",
          "type": "string",
          "indexed": false
        }
      ],
      "anonymous": false,
      "type": "event"
    },
    {
      "name": "NewVault",
      "inputs": [
        {
          "name": "token",
          "type": "address",
          "indexed": true
        },
        {
          "name": "vault_id",
          "type": "uint256",
          "indexed": true
        },
        {
          "name": "vault",
          "type": "address",
          "indexed": false
        },
        {
          "name": "api_version",
          "type": "string",
          "indexed": false
        }
      ],
      "anonymous": false,
      "type": "event"
    },
    {
      "name": "NewExperimentalVault",
      "inputs": [
        {
          "name": "token",
          "type": "address",
          "indexed": true
        },
        {
          "name": "deployer",
          "type": "address",
          "indexed": true
        },
        {
          "name": "vault",
          "type": "address",
          "indexed": false
        },
        {
          "name": "api_version",
          "type": "string",
          "indexed": false
        }
      ],
      "anonymous": false,
      "type": "event"
    },
    {
      "name": "NewGovernance",
      "inputs": [
        {
          "name": "governance",
          "type": "address",
          "indexed": false
        }
      ],
      "anonymous": false,
      "type": "event"
    },
    {
      "name": "VaultTagged",
      "inputs": [
        {
          "name": "vault",
          "type": "address",
          "indexed": false
        },
        {
          "name": "tag",
          "type": "string",
          "indexed": false
        }
      ],
      "anonymous": false,
      "type": "event"
    },
    {
      "name": "UpdateVaultWrapper",
      "inputs": [
        {
          "name": "vaultWrapper",
          "type": "address",
          "indexed": true
        }
      ],
      "anonymous": false,
      "type": "event"
    },
    {
      "stateMutability": "nonpayable",
      "type": "constructor",
      "inputs": [
        {
          "name": "bridge",
          "type": "address"
        },
        {
          "name": "vaultWrapper",
          "type": "address"
        }
      ],
      "outputs": []
    },
    {
      "stateMutability": "nonpayable",
      "type": "function",
      "name": "setBridge",
      "inputs": [
        {
          "name": "bridge",
          "type": "address"
        }
      ],
      "outputs": [],
      "gas": 37545
    },
    {
      "stateMutability": "nonpayable",
      "type": "function",
      "name": "setVaultWrapper",
      "inputs": [
        {
          "name": "vaultWrapper",
          "type": "address"
        }
      ],
      "outputs": [],
      "gas": 37575
    },
    {
      "stateMutability": "nonpayable",
      "type": "function",
      "name": "setGovernance",
      "inputs": [
        {
          "name": "governance",
          "type": "address"
        }
      ],
      "outputs": [],
      "gas": 37605
    },
    {
      "stateMutability": "nonpayable",
      "type": "function",
      "name": "acceptGovernance",
      "inputs": [],
      "outputs": [],
      "gas": 38877
    },
    {
      "stateMutability": "view",
      "type": "function",
      "name": "latestRelease",
      "inputs": [],
      "outputs": [
        {
          "name": "",
          "type": "string"
        }
      ],
      "gas": 12951
    },
    {
      "stateMutability": "view",
      "type": "function",
      "name": "latestVault",
      "inputs": [
        {
          "name": "token",
          "type": "address"
        }
      ],
      "outputs": [
        {
          "name": "",
          "type": "address"
        }
      ],
      "gas": 5247
    },
    {
      "stateMutability": "nonpayable",
      "type": "function",
      "name": "newRelease",
      "inputs": [
        {
          "name": "vault",
          "type": "address"
        }
      ],
      "outputs": [],
      "gas": 95528
    },
    {
      "stateMutability": "nonpayable",
      "type": "function",
      "name": "newVault",
      "inputs": [
        {
          "name": "token",
          "type": "address"
        },
        {
          "name": "guardian",
          "type": "address"
        },
        {
          "name": "releaseDelta",
          "type": "uint256"
        }
      ],
      "outputs": [
        {
          "name": "",
          "type": "address"
        }
      ],
      "gas": 315208
    },
    {
      "stateMutability": "nonpayable",
      "type": "function",
      "name": "newExperimentalVault",
      "inputs": [
        {
          "name": "token",
          "type": "address"
        },
        {
          "name": "governance",
          "type": "address"
        },
        {
          "name": "guardian",
          "type": "address"
        }
      ],
      "outputs": [
        {
          "name": "",
          "type": "address"
        }
      ]
    },
    {
      "stateMutability": "nonpayable",
      "type": "function",
      "name": "newExperimentalVault",
      "inputs": [
        {
          "name": "token",
          "type": "address"
        },
        {
          "name": "governance",
          "type": "address"
        },
        {
          "name": "guardian",
          "type": "address"
        },
        {
          "name": "releaseDelta",
          "type": "uint256"
        }
      ],
      "outputs": [
        {
          "name": "",
          "type": "address"
        }
      ]
    },
    {
      "stateMutability": "nonpayable",
      "type": "function",
      "name": "endorseVault",
      "inputs": [
        {
          "name": "vault",
          "type": "address"
        }
      ],
      "outputs": []
    },
    {
      "stateMutability": "nonpayable",
      "type": "function",
      "name": "endorseVault",
      "inputs": [
        {
          "name": "vault",
          "type": "address"
        },
        {
          "name": "releaseDelta",
          "type": "uint256"
        }
      ],
      "outputs": []
    },
    {
      "stateMutability": "nonpayable",
      "type": "function",
      "name": "setBanksy",
      "inputs": [
        {
          "name": "tagger",
          "type": "address"
        }
      ],
      "outputs": []
    },
    {
      "stateMutability": "nonpayable",
      "type": "function",
      "name": "setBanksy",
      "inputs": [
        {
          "name": "tagger",
          "type": "address"
        },
        {
          "name": "allowed",
          "type": "bool"
        }
      ],
      "outputs": []
    },
    {
      "stateMutability": "nonpayable",
      "type": "function",
      "name": "tagVault",
      "inputs": [
        {
          "name": "vault",
          "type": "address"
        },
        {
          "name": "tag",
          "type": "string"
        }
      ],
      "outputs": [],
      "gas": 190124
    },
    {
      "stateMutability": "view",
      "type": "function",
      "name": "numReleases",
      "inputs": [],
      "outputs": [
        {
          "name": "",
          "type": "uint256"
        }
      ],
      "gas": 2748
    },
    {
      "stateMutability": "view",
      "type": "function",
      "name": "releases",
      "inputs": [
        {
          "name": "arg0",
          "type": "uint256"
        }
      ],
      "outputs": [
        {
          "name": "",
          "type": "address"
        }
      ],
      "gas": 2893
    },
    {
      "stateMutability": "view",
      "type": "function",
      "name": "numVaults",
      "inputs": [
        {
          "name": "arg0",
          "type": "address"
        }
      ],
      "outputs": [
        {
          "name": "",
          "type": "uint256"
        }
      ],
      "gas": 3023
    },
    {
      "stateMutability": "view",
      "type": "function",
      "name": "vaults",
      "inputs": [
        {
          "name": "arg0",
          "type": "address"
        },
        {
          "name": "arg1",
          "type": "uint256"
        }
      ],
      "outputs": [
        {
          "name": "",
          "type": "address"
        }
      ],
      "gas": 3168
    },
    {
      "stateMutability": "view",
      "type": "function",
      "name": "vaultWrapper",
      "inputs": [],
      "outputs": [
        {
          "name": "",
          "type": "address"
        }
      ],
      "gas": 2868
    },
    {
      "stateMutability": "view",
      "type": "function",
      "name": "tokens",
      "inputs": [
        {
          "name": "arg0",
          "type": "uint256"
        }
      ],
      "outputs": [
        {
          "name": "",
          "type": "address"
        }
      ],
      "gas": 3013
    },
    {
      "stateMutability": "view",
      "type": "function",
      "name": "numTokens",
      "inputs": [],
      "outputs": [
        {
          "name": "",
          "type": "uint256"
        }
      ],
      "gas": 2928
    },
    {
      "stateMutability": "view",
      "type": "function",
      "name": "isRegistered",
      "inputs": [
        {
          "name": "arg0",
          "type": "address"
        }
      ],
      "outputs": [
        {
          "name": "",
          "type": "bool"
        }
      ],
      "gas": 3173
    },
    {
      "stateMutability": "view",
      "type": "function",
      "name": "governance",
      "inputs": [],
      "outputs": [
        {
          "name": "",
          "type": "address"
        }
      ],
      "gas": 2988
    },
    {
      "stateMutability": "view",
      "type": "function",
      "name": "pendingGovernance",
      "inputs": [],
      "outputs": [
        {
          "name": "",
          "type": "address"
        }
      ],
      "gas": 3018
    },
    {
      "stateMutability": "view",
      "type": "function",
      "name": "bridge",
      "inputs": [],
      "outputs": [
        {
          "name": "",
          "type": "address"
        }
      ],
      "gas": 3048
    },
    {
      "stateMutability": "view",
      "type": "function",
      "name": "decoder",
      "inputs": [],
      "outputs": [
        {
          "name": "",
          "type": "address"
        }
      ],
      "gas": 3078
    },
    {
      "stateMutability": "view",
      "type": "function",
      "name": "tags",
      "inputs": [
        {
          "name": "arg0",
          "type": "address"
        }
      ],
      "outputs": [
        {
          "name": "",
          "type": "string"
        }
      ],
      "gas": 18179
    },
    {
      "stateMutability": "view",
      "type": "function",
      "name": "banksy",
      "inputs": [
        {
          "name": "arg0",
          "type": "address"
        }
      ],
      "outputs": [
        {
          "name": "",
          "type": "bool"
        }
      ],
      "gas": 3353
    }
  ],
  "transactionHash": "0x45f5546984f1cfb864bfd882d96ca75beca2afa325d2c9522dc91aa77a506a3c",
  "args": [
    "0xe81FEe60eeFa312D4feC375C6a3dF20D3F434442",
    "0xC4F15ff7e02A3DEDfBE6F3e469B47F02cD15F69F"
  ],
  "bytecode": "0x604061137661014039602061137660c03960c05160a01c1561002057600080fd5b602060206113760160c03960c05160a01c1561003b57600080fd5b3360085561014051600a556101605160045561135e56600436101561000d57610e83565b600035601c52600051341561002157600080fd5b638dd148028114156100535760043560a01c1561003d57600080fd5b600854331461004b57600080fd5b600435600a55005b63d84927098114156100855760043560a01c1561006f57600080fd5b600854331461007d57600080fd5b600435600455005b63ab033ea98114156100b75760043560a01c156100a157600080fd5b60085433146100af57600080fd5b600435600955005b63238efcbc8114156101035760095433146100d157600080fd5b3360085533610140527f4f386975ea1c2f7cf1845b08bee00626fbb624ecad16254d63d9bb9ba86526de6020610140a1005b637be0ca5e8114156101d75760606101a0600463258294106101405261015c600160005460018082101561013657600080fd5b8082039050905060e05260c052604060c020545afa61015457600080fd5b603f3d1161016157600080fd5b601d6101a06101a05101511061017657600080fd5b6000506101c08051602001806102408284600060045af161019657600080fd5b5050610240518061026001818260206001820306601f82010390500336823750506020610220526040610240510160206001820306601f8201039050610220f35b63e177dc7081141561023f5760043560a01c156101f357600080fd5b600360043560e05260c052604060c020600260043560e05260c052604060c0205460018082101561022357600080fd5b8082039050905060e05260c052604060c0205460005260206000f35b6333990d4b8114156104955760043560a01c1561025b57600080fd5b600854331461026957600080fd5b600054610140526000610140511115610345576060610400600463258294106103a0526103bc6004355afa61029d57600080fd5b603f3d116102aa57600080fd5b601d610400610400510151106102bf57600080fd5b600050610420602001516060610340600463258294106102e0526102fc6001610140516001808210156102f157600080fd5b8082039050905060e05260c052604060c020545afa61030f57600080fd5b603f3d1161031c57600080fd5b601d6103406103405101511061033157600080fd5b600050610360602001511861034557600080fd5b60043560016101405160e05260c052604060c0205561014051600181818301101561036f57600080fd5b8082019050905060005560606101c0600463258294106101605261017c6004355afa61039a57600080fd5b603f3d116103a757600080fd5b601d6101c06101c0510151106103bc57600080fd5b6000506101e08051602001806102208284600060045af16103dc57600080fd5b50506004356102c052604061028052610280516102e052610220805160200180610280516102c0018284600060045af161041557600080fd5b5050610280516102c00151806020610280516102c0010101818260206001820306601f82010390500336823750506020610280516102c0015160206001820306601f820103905061028051010161028052610140517fa6fbd216b6734f34092f1be6b7247e1551a6d4f2d5000c53721cfdc119a5b7cf610280516102c0a2005b637331a8438114156105935760043560a01c156104b157600080fd5b60243560a01c156104c157600080fd5b60085433146104cf57600080fd5b6000546001808210156104e157600080fd5b80820390509050604435808210156104f857600080fd5b8082039050905061014052610140516101605160043561018052336101a0526024356101c052610140516101e0526101e0516101c0516101a0516101805160065801610e89565b6102405261016052610140526102405161016052610140516101605160043561018052610160516101a0526101a051610180516006580161102b565b61016052610140526000506101605160005260206000f35b635c87074e8114156105aa576000610140526105cb565b63c677a0658114156105c65760206064610140376000506105cb565b6107a6565b60043560a01c156105db57600080fd5b60243560a01c156105eb57600080fd5b60443560a01c156105fb57600080fd5b60005460018082101561060d57600080fd5b80820390509050610140518082101561062557600080fd5b8082039050905061016052610140516101605161018051606060046101a0376101605161020052610200516101e0516101c0516101a05160065801610e89565b6102605261018052610160526101405261026051610180526060610200600463258294106101a0526101bc610180515afa61069f57600080fd5b603f3d116106ac57600080fd5b601d610200610200510151106106c157600080fd5b6000506102208051602001806102608284600060045af16106e157600080fd5b5050610180516103005260406102c0526102c051610320526102608051602001806102c051610300018284600060045af161071b57600080fd5b50506102c05161030001518060206102c051610300010101818260206001820306601f820103905003368237505060206102c051610300015160206001820306601f82010390506102c05101016102c052336004357f57a9cdc2a05e05f66e76769bdbe88e21ec45d9ee0f97d4cb60395d4c75dcbcda6102c051610300a36101805160005260206000f35b6329b2e0c68114156107bd576000610140526107de565b63b366a35c8114156107d95760206024610140376000506107de565b6109ee565b60043560a01c156107ee57600080fd5b60085433146107fc57600080fd5b3360206101c06004635aa6e6756101605261017c6004355afa61081e57600080fd5b601f3d1161082b57600080fd5b6000506101c0511461083c57600080fd5b60005460018082101561084e57600080fd5b80820390509050610140518082101561086657600080fd5b80820390509050610160526060610240600463258294106101e0526101fc60016101605160e05260c052604060c020545afa6108a157600080fd5b603f3d116108ae57600080fd5b601d610240610240510151106108c357600080fd5b6000506102608051602001806101808284600060045af16108e357600080fd5b50506101a0516060610300600463258294106102a0526102bc6004355afa61090a57600080fd5b603f3d1161091757600080fd5b601d6103006103005101511061092c57600080fd5b600050610320602001511461094057600080fd5b6020610240600463fc0c546a6101e0526101fc6004355afa61096157600080fd5b601f3d1161096e57600080fd5b60005061024051610260526101405161016051610180516101a0516101c0516101e0516102005161022051610240516102605161026051610280526004356102a0526102a051610280516006580161102b565b610260526102405261022052610200526101e0526101c0526101a052610180526101605261014052600050005b632cad8f9f811415610a0557600161014052610a36565b635e05f6af811415610a315760243560011c15610a2157600080fd5b6020602461014037600050610a36565b610a6b565b60043560a01c15610a4657600080fd5b6008543314610a5457600080fd5b61014051600d60043560e05260c052604060c02055005b6360bd68f8811415610be45760043560a01c15610a8757600080fd5b6098602435600401610140376078602435600401351115610aa757600080fd5b600854331815610ac957600d3360e05260c052604060c02054610ac957600080fd5b61014080600c60043560e05260c052604060c02060c052602060c020602082510161012060006005818352015b82610120516020021115610b0957610b2b565b61012051602002850151610120518501555b8151600101808352811415610af6575b50505050505060043561024052604061020052610200516102605261014080516020018061020051610240018284600060045af1610b6857600080fd5b505061020051610240015180602061020051610240010101818260206001820306601f8201039050033682375050602061020051610240015160206001820306601f8201039050610200510101610200527f07bd58794c2ca0ae152f7719eb5f02c654476de972cadec0e8191ae8be42096d61020051610240a1005b6356e0a94b811415610bfc5760005460005260206000f35b63b6a9f40f811415610c2257600160043560e05260c052604060c0205460005260206000f35b63f9c7bba5811415610c585760043560a01c15610c3e57600080fd5b600260043560e05260c052604060c0205460005260206000f35b637bbfc69e811415610c9c5760043560a01c15610c7457600080fd5b600360043560e05260c052604060c02060243560e05260c052604060c0205460005260206000f35b63c87214c3811415610cb45760045460005260206000f35b634f64b2be811415610cda57600560043560e05260c052604060c0205460005260206000f35b638e499bcf811415610cf25760065460005260206000f35b63c3c5a547811415610d285760043560a01c15610d0e57600080fd5b600760043560e05260c052604060c0205460005260206000f35b635aa6e675811415610d405760085460005260206000f35b63f39c38a0811415610d585760095460005260206000f35b63e78cea92811415610d7057600a5460005260206000f35b639cb33005811415610d8857600b5460005260206000f35b6358b8f842811415610e4b5760043560a01c15610da457600080fd5b600c60043560e05260c052604060c0208060c052602060c020610180602082540161012060006005818352015b82610120516020021115610de457610e06565b61012051850154610120516020028501525b8151600101808352811415610dd1575b50505050505061018051806101a001818260206001820306601f82010390500336823750506020610160526040610180510160206001820306601f8201039050610160f35b63ee711ed5811415610e815760043560a01c15610e6757600080fd5b600d60043560e05260c052604060c0205460005260206000f35b505b60006000fd5b6101c0526101405261016052610180526101a05260016101a05160e05260c052604060c020546101e05260006101e05118610ec357600080fd5b7f602d3d8160093d39f3363d3d373d3d3d363d7300000000000000000000000000610220526101e05160601b610233527f5af43d82803e903d91602b57fd5bf300000000000000000000000000000000006102475260366102206000f0610200527f602d3d8160093d39f3363d3d373d3d3d363d73000000000000000000000000006102405260045460601b610253527f5af43d82803e903d91602b57fd5bf300000000000000000000000000000000006102675260366102406000f061022052610220513b610f9257600080fd5b60006000602463c4d66de861024052610200516102605261025c6000610220515af1610fbd57600080fd5b610200513b610fcb57600080fd5b6000600060c463cc2a9a5b6102405261014051610260526101605161028052600a546102a052610220516102c052610180516102e05260006103005261025c6000610200515af161101b57600080fd5b610200516000526000516101c051565b61018052610140526101605260026101405160e05260c052604060c020546101a05260006101a0511115611132576060610460600463258294106104005261041c610160515afa61107b57600080fd5b603f3d1161108857600080fd5b601d6104606104605101511061109d57600080fd5b6000506104806020015160606103a0600463258294106103405261035c60036101405160e05260c052604060c0206101a0516001808210156110de57600080fd5b8082039050905060e05260c052604060c020545afa6110fc57600080fd5b603f3d1161110957600080fd5b601d6103a06103a05101511061111e57600080fd5b6000506103c0602001511861113257600080fd5b6101605160036101405160e05260c052604060c0206101a05160e05260c052604060c020556101a051600181818301101561116c57600080fd5b8082019050905060026101405160e05260c052604060c0205560076101405160e05260c052604060c0205415156111e657600160076101405160e05260c052604060c0205561014051600560065460e05260c052604060c020556006805460018181830110156111db57600080fd5b808201905090508155505b6060610220600463258294106101c0526101dc610160515afa61120857600080fd5b603f3d1161121557600080fd5b601d6102206102205101511061122a57600080fd5b6000506102408051602001806102808284600060045af161124a57600080fd5b5050610160516103205260406102e0526102e051610340526102808051602001806102e051610320018284600060045af161128457600080fd5b50506102e05161032001518060206102e051610320010101818260206001820306601f820103905003368237505060206102e051610320015160206001820306601f82010390506102e05101016102e0526101a051610140517fce089905ba4a4d622553bcb5646fd23e895c256f0376eee04e99e61cec1dc7e86102e051610320a361018051565b61005261135e0361005260003961005261135e036000f3"
}