{
  "address": "0xAA4D3243B9891E3F3ea8E80aD79a6F559b6e6Ac9",
  "abi": [
    {
      "name": "Deposit",
      "inputs": [
        {
          "name": "amount",
          "type": "uint256",
          "indexed": false
        },
        {
          "name": "wid",
          "type": "int128",
          "indexed": false
        },
        {
          "name": "addr",
          "type": "uint256",
          "indexed": false
        }
      ],
      "anonymous": false,
      "type": "event"
    },
    {
      "name": "PendingWithdrawalUpdate",
      "inputs": [
        {
          "name": "recipient",
          "type": "address",
          "indexed": true
        },
        {
          "name": "total",
          "type": "uint256",
          "indexed": false
        },
        {
          "name": "bounty",
          "type": "uint256",
          "indexed": false
        }
      ],
      "anonymous": false,
      "type": "event"
    },
    {
      "name": "UpdateBridge",
      "inputs": [
        {
          "name": "bridge",
          "type": "address",
          "indexed": true
        }
      ],
      "anonymous": false,
      "type": "event"
    },
    {
      "name": "UpdateWrapper",
      "inputs": [
        {
          "name": "wrapper",
          "type": "address",
          "indexed": true
        }
      ],
      "anonymous": false,
      "type": "event"
    },
    {
      "name": "UpdateConfiguration",
      "inputs": [
        {
          "name": "configuration",
          "type": "(int128,uint256)",
          "indexed": false
        }
      ],
      "anonymous": false,
      "type": "event"
    },
    {
      "name": "UpdateRewards",
      "inputs": [
        {
          "name": "rewards",
          "type": "(int128,uint256)",
          "indexed": false
        }
      ],
      "anonymous": false,
      "type": "event"
    },
    {
      "name": "UpdateStrategyRewards",
      "inputs": [
        {
          "name": "strategy",
          "type": "address",
          "indexed": true
        },
        {
          "name": "rewards",
          "type": "(int128,uint256)",
          "indexed": false
        }
      ],
      "anonymous": false,
      "type": "event"
    },
    {
      "name": "UpdateDepositFee",
      "inputs": [
        {
          "name": "fee",
          "type": "(uint256,uint256)",
          "indexed": false
        }
      ],
      "anonymous": false,
      "type": "event"
    },
    {
      "name": "UpdateWithdrawFee",
      "inputs": [
        {
          "name": "fee",
          "type": "(uint256,uint256)",
          "indexed": false
        }
      ],
      "anonymous": false,
      "type": "event"
    },
    {
      "name": "StrategyAdded",
      "inputs": [
        {
          "name": "strategy",
          "type": "address",
          "indexed": true
        },
        {
          "name": "debtRatio",
          "type": "uint256",
          "indexed": false
        },
        {
          "name": "minDebtPerHarvest",
          "type": "uint256",
          "indexed": false
        },
        {
          "name": "maxDebtPerHarvest",
          "type": "uint256",
          "indexed": false
        },
        {
          "name": "performanceFee",
          "type": "uint256",
          "indexed": false
        }
      ],
      "anonymous": false,
      "type": "event"
    },
    {
      "name": "StrategyReported",
      "inputs": [
        {
          "name": "strategy",
          "type": "address",
          "indexed": true
        },
        {
          "name": "gain",
          "type": "uint256",
          "indexed": false
        },
        {
          "name": "loss",
          "type": "uint256",
          "indexed": false
        },
        {
          "name": "debtPaid",
          "type": "uint256",
          "indexed": false
        },
        {
          "name": "totalGain",
          "type": "uint256",
          "indexed": false
        },
        {
          "name": "totalLoss",
          "type": "uint256",
          "indexed": false
        },
        {
          "name": "totalDebt",
          "type": "uint256",
          "indexed": false
        },
        {
          "name": "debtAdded",
          "type": "uint256",
          "indexed": false
        },
        {
          "name": "debtRatio",
          "type": "uint256",
          "indexed": false
        }
      ],
      "anonymous": false,
      "type": "event"
    },
    {
      "name": "UpdateGovernance",
      "inputs": [
        {
          "name": "governance",
          "type": "address",
          "indexed": false
        }
      ],
      "anonymous": false,
      "type": "event"
    },
    {
      "name": "NewPendingGovernance",
      "inputs": [
        {
          "name": "governance",
          "type": "address",
          "indexed": false
        }
      ],
      "anonymous": false,
      "type": "event"
    },
    {
      "name": "UpdateManagement",
      "inputs": [
        {
          "name": "management",
          "type": "address",
          "indexed": false
        }
      ],
      "anonymous": false,
      "type": "event"
    },
    {
      "name": "UpdateDepositLimit",
      "inputs": [
        {
          "name": "depositLimit",
          "type": "uint256",
          "indexed": false
        }
      ],
      "anonymous": false,
      "type": "event"
    },
    {
      "name": "UpdatePerformanceFee",
      "inputs": [
        {
          "name": "performanceFee",
          "type": "uint256",
          "indexed": false
        }
      ],
      "anonymous": false,
      "type": "event"
    },
    {
      "name": "UpdateManagementFee",
      "inputs": [
        {
          "name": "managementFee",
          "type": "uint256",
          "indexed": false
        }
      ],
      "anonymous": false,
      "type": "event"
    },
    {
      "name": "UpdateGuardian",
      "inputs": [
        {
          "name": "guardian",
          "type": "address",
          "indexed": false
        }
      ],
      "anonymous": false,
      "type": "event"
    },
    {
      "name": "EmergencyShutdown",
      "inputs": [
        {
          "name": "active",
          "type": "bool",
          "indexed": false
        }
      ],
      "anonymous": false,
      "type": "event"
    },
    {
      "name": "UpdateWithdrawalQueue",
      "inputs": [
        {
          "name": "queue",
          "type": "address[20]",
          "indexed": false
        }
      ],
      "anonymous": false,
      "type": "event"
    },
    {
      "name": "StrategyUpdateDebtRatio",
      "inputs": [
        {
          "name": "strategy",
          "type": "address",
          "indexed": true
        },
        {
          "name": "debtRatio",
          "type": "uint256",
          "indexed": false
        }
      ],
      "anonymous": false,
      "type": "event"
    },
    {
      "name": "StrategyUpdateMinDebtPerHarvest",
      "inputs": [
        {
          "name": "strategy",
          "type": "address",
          "indexed": true
        },
        {
          "name": "minDebtPerHarvest",
          "type": "uint256",
          "indexed": false
        }
      ],
      "anonymous": false,
      "type": "event"
    },
    {
      "name": "StrategyUpdateMaxDebtPerHarvest",
      "inputs": [
        {
          "name": "strategy",
          "type": "address",
          "indexed": true
        },
        {
          "name": "maxDebtPerHarvest",
          "type": "uint256",
          "indexed": false
        }
      ],
      "anonymous": false,
      "type": "event"
    },
    {
      "name": "StrategyUpdatePerformanceFee",
      "inputs": [
        {
          "name": "strategy",
          "type": "address",
          "indexed": true
        },
        {
          "name": "performanceFee",
          "type": "uint256",
          "indexed": false
        }
      ],
      "anonymous": false,
      "type": "event"
    },
    {
      "name": "StrategyMigrated",
      "inputs": [
        {
          "name": "oldVersion",
          "type": "address",
          "indexed": true
        },
        {
          "name": "newVersion",
          "type": "address",
          "indexed": true
        }
      ],
      "anonymous": false,
      "type": "event"
    },
    {
      "name": "StrategyRevoked",
      "inputs": [
        {
          "name": "strategy",
          "type": "address",
          "indexed": true
        }
      ],
      "anonymous": false,
      "type": "event"
    },
    {
      "name": "StrategyRemovedFromQueue",
      "inputs": [
        {
          "name": "strategy",
          "type": "address",
          "indexed": true
        }
      ],
      "anonymous": false,
      "type": "event"
    },
    {
      "name": "StrategyAddedToQueue",
      "inputs": [
        {
          "name": "strategy",
          "type": "address",
          "indexed": true
        }
      ],
      "anonymous": false,
      "type": "event"
    },
    {
      "stateMutability": "nonpayable",
      "type": "function",
      "name": "initialize",
      "inputs": [
        {
          "name": "token",
          "type": "address"
        },
        {
          "name": "governance",
          "type": "address"
        },
        {
          "name": "bridge",
          "type": "address"
        },
        {
          "name": "wrapper",
          "type": "address"
        },
        {
          "name": "guardian",
          "type": "address"
        },
        {
          "name": "management",
          "type": "address"
        }
      ],
      "outputs": [],
      "gas": 367155
    },
    {
      "stateMutability": "pure",
      "type": "function",
      "name": "apiVersion",
      "inputs": [],
      "outputs": [
        {
          "name": "",
          "type": "string"
        }
      ],
      "gas": 5946
    },
    {
      "stateMutability": "nonpayable",
      "type": "function",
      "name": "setDepositFee",
      "inputs": [
        {
          "name": "fee",
          "type": "tuple",
          "components": [
            {
              "name": "step",
              "type": "uint256"
            },
            {
              "name": "size",
              "type": "uint256"
            }
          ]
        }
      ],
      "outputs": [],
      "gas": 76514
    },
    {
      "stateMutability": "nonpayable",
      "type": "function",
      "name": "setWithdrawFee",
      "inputs": [
        {
          "name": "fee",
          "type": "tuple",
          "components": [
            {
              "name": "step",
              "type": "uint256"
            },
            {
              "name": "size",
              "type": "uint256"
            }
          ]
        }
      ],
      "outputs": [],
      "gas": 76544
    },
    {
      "stateMutability": "nonpayable",
      "type": "function",
      "name": "setWrapper",
      "inputs": [
        {
          "name": "wrapper",
          "type": "address"
        }
      ],
      "outputs": [],
      "gas": 38805
    },
    {
      "stateMutability": "nonpayable",
      "type": "function",
      "name": "setConfiguration",
      "inputs": [
        {
          "name": "configuration",
          "type": "tuple",
          "components": [
            {
              "name": "wid",
              "type": "int128"
            },
            {
              "name": "addr",
              "type": "uint256"
            }
          ]
        }
      ],
      "outputs": [],
      "gas": 74089
    },
    {
      "stateMutability": "nonpayable",
      "type": "function",
      "name": "setGovernance",
      "inputs": [
        {
          "name": "governance",
          "type": "address"
        }
      ],
      "outputs": [],
      "gas": 39071
    },
    {
      "stateMutability": "nonpayable",
      "type": "function",
      "name": "acceptGovernance",
      "inputs": [],
      "outputs": [],
      "gas": 38997
    },
    {
      "stateMutability": "nonpayable",
      "type": "function",
      "name": "setManagement",
      "inputs": [
        {
          "name": "management",
          "type": "address"
        }
      ],
      "outputs": [],
      "gas": 39135
    },
    {
      "stateMutability": "nonpayable",
      "type": "function",
      "name": "setStrategyRewards",
      "inputs": [
        {
          "name": "strategy",
          "type": "address"
        },
        {
          "name": "rewards",
          "type": "tuple",
          "components": [
            {
              "name": "wid",
              "type": "int128"
            },
            {
              "name": "addr",
              "type": "uint256"
            }
          ]
        }
      ],
      "outputs": [],
      "gas": 82246
    },
    {
      "stateMutability": "nonpayable",
      "type": "function",
      "name": "setRewards",
      "inputs": [
        {
          "name": "rewards",
          "type": "tuple",
          "components": [
            {
              "name": "wid",
              "type": "int128"
            },
            {
              "name": "addr",
              "type": "uint256"
            }
          ]
        }
      ],
      "outputs": [],
      "gas": 74239
    },
    {
      "stateMutability": "nonpayable",
      "type": "function",
      "name": "setLockedProfitDegradation",
      "inputs": [
        {
          "name": "degradation",
          "type": "uint256"
        }
      ],
      "outputs": [],
      "gas": 37879
    },
    {
      "stateMutability": "nonpayable",
      "type": "function",
      "name": "setDepositLimit",
      "inputs": [
        {
          "name": "limit",
          "type": "uint256"
        }
      ],
      "outputs": [],
      "gas": 39155
    },
    {
      "stateMutability": "nonpayable",
      "type": "function",
      "name": "setPerformanceFee",
      "inputs": [
        {
          "name": "fee",
          "type": "uint256"
        }
      ],
      "outputs": [],
      "gas": 39289
    },
    {
      "stateMutability": "nonpayable",
      "type": "function",
      "name": "setManagementFee",
      "inputs": [
        {
          "name": "fee",
          "type": "uint256"
        }
      ],
      "outputs": [],
      "gas": 39319
    },
    {
      "stateMutability": "nonpayable",
      "type": "function",
      "name": "setGuardian",
      "inputs": [
        {
          "name": "guardian",
          "type": "address"
        }
      ],
      "outputs": [],
      "gas": 41863
    },
    {
      "stateMutability": "nonpayable",
      "type": "function",
      "name": "setEmergencyShutdown",
      "inputs": [
        {
          "name": "active",
          "type": "bool"
        }
      ],
      "outputs": [],
      "gas": 41934
    },
    {
      "stateMutability": "nonpayable",
      "type": "function",
      "name": "setWithdrawalQueue",
      "inputs": [
        {
          "name": "queue",
          "type": "address[20]"
        }
      ],
      "outputs": [],
      "gas": 1348979
    },
    {
      "stateMutability": "nonpayable",
      "type": "function",
      "name": "setPendingWithdrawalBounty",
      "inputs": [
        {
          "name": "bounty",
          "type": "uint256"
        }
      ],
      "outputs": [],
      "gas": 43842
    },
    {
      "stateMutability": "view",
      "type": "function",
      "name": "totalAssets",
      "inputs": [],
      "outputs": [
        {
          "name": "",
          "type": "uint256"
        }
      ],
      "gas": 8578
    },
    {
      "stateMutability": "nonpayable",
      "type": "function",
      "name": "deposit",
      "inputs": [
        {
          "name": "recipient",
          "type": "tuple",
          "components": [
            {
              "name": "wid",
              "type": "int128"
            },
            {
              "name": "addr",
              "type": "uint256"
            }
          ]
        },
        {
          "name": "_amount",
          "type": "uint256"
        },
        {
          "name": "pendingWithdrawalToFill",
          "type": "address"
        }
      ],
      "outputs": [],
      "gas": 151749
    },
    {
      "stateMutability": "nonpayable",
      "type": "function",
      "name": "saveWithdraw",
      "inputs": [
        {
          "name": "id",
          "type": "bytes32"
        },
        {
          "name": "recipient",
          "type": "address"
        },
        {
          "name": "_amount",
          "type": "uint256"
        },
        {
          "name": "bounty",
          "type": "uint256"
        }
      ],
      "outputs": [],
      "gas": 174024
    },
    {
      "stateMutability": "nonpayable",
      "type": "function",
      "name": "cancelPendingWithdrawal",
      "inputs": [
        {
          "name": "amount",
          "type": "uint256"
        },
        {
          "name": "bounty",
          "type": "uint256"
        },
        {
          "name": "recipient",
          "type": "tuple",
          "components": [
            {
              "name": "wid",
              "type": "int128"
            },
            {
              "name": "addr",
              "type": "uint256"
            }
          ]
        }
      ],
      "outputs": [],
      "gas": 124915
    },
    {
      "stateMutability": "nonpayable",
      "type": "function",
      "name": "withdraw",
      "inputs": [],
      "outputs": [
        {
          "name": "",
          "type": "uint256"
        }
      ]
    },
    {
      "stateMutability": "nonpayable",
      "type": "function",
      "name": "withdraw",
      "inputs": [
        {
          "name": "recipient",
          "type": "address"
        }
      ],
      "outputs": [
        {
          "name": "",
          "type": "uint256"
        }
      ]
    },
    {
      "stateMutability": "nonpayable",
      "type": "function",
      "name": "withdraw",
      "inputs": [
        {
          "name": "recipient",
          "type": "address"
        },
        {
          "name": "maxLoss",
          "type": "uint256"
        }
      ],
      "outputs": [
        {
          "name": "",
          "type": "uint256"
        }
      ]
    },
    {
      "stateMutability": "nonpayable",
      "type": "function",
      "name": "addStrategy",
      "inputs": [
        {
          "name": "strategy",
          "type": "address"
        },
        {
          "name": "debtRatio",
          "type": "uint256"
        },
        {
          "name": "minDebtPerHarvest",
          "type": "uint256"
        },
        {
          "name": "maxDebtPerHarvest",
          "type": "uint256"
        },
        {
          "name": "performanceFee",
          "type": "uint256"
        }
      ],
      "outputs": [],
      "gas": 1618387
    },
    {
      "stateMutability": "nonpayable",
      "type": "function",
      "name": "updateStrategyDebtRatio",
      "inputs": [
        {
          "name": "strategy",
          "type": "address"
        },
        {
          "name": "debtRatio",
          "type": "uint256"
        }
      ],
      "outputs": [],
      "gas": 121685
    },
    {
      "stateMutability": "nonpayable",
      "type": "function",
      "name": "updateStrategyMinDebtPerHarvest",
      "inputs": [
        {
          "name": "strategy",
          "type": "address"
        },
        {
          "name": "minDebtPerHarvest",
          "type": "uint256"
        }
      ],
      "outputs": [],
      "gas": 47551
    },
    {
      "stateMutability": "nonpayable",
      "type": "function",
      "name": "updateStrategyMaxDebtPerHarvest",
      "inputs": [
        {
          "name": "strategy",
          "type": "address"
        },
        {
          "name": "maxDebtPerHarvest",
          "type": "uint256"
        }
      ],
      "outputs": [],
      "gas": 47581
    },
    {
      "stateMutability": "nonpayable",
      "type": "function",
      "name": "updateStrategyPerformanceFee",
      "inputs": [
        {
          "name": "strategy",
          "type": "address"
        },
        {
          "name": "performanceFee",
          "type": "uint256"
        }
      ],
      "outputs": [],
      "gas": 42794
    },
    {
      "stateMutability": "nonpayable",
      "type": "function",
      "name": "migrateStrategy",
      "inputs": [
        {
          "name": "oldVersion",
          "type": "address"
        },
        {
          "name": "newVersion",
          "type": "address"
        }
      ],
      "outputs": [],
      "gas": 1302027
    },
    {
      "stateMutability": "nonpayable",
      "type": "function",
      "name": "revokeStrategy",
      "inputs": [],
      "outputs": []
    },
    {
      "stateMutability": "nonpayable",
      "type": "function",
      "name": "revokeStrategy",
      "inputs": [
        {
          "name": "strategy",
          "type": "address"
        }
      ],
      "outputs": []
    },
    {
      "stateMutability": "nonpayable",
      "type": "function",
      "name": "addStrategyToQueue",
      "inputs": [
        {
          "name": "strategy",
          "type": "address"
        }
      ],
      "outputs": [],
      "gas": 1255524
    },
    {
      "stateMutability": "nonpayable",
      "type": "function",
      "name": "removeStrategyFromQueue",
      "inputs": [
        {
          "name": "strategy",
          "type": "address"
        }
      ],
      "outputs": [],
      "gas": 23635413
    },
    {
      "stateMutability": "view",
      "type": "function",
      "name": "debtOutstanding",
      "inputs": [],
      "outputs": [
        {
          "name": "",
          "type": "uint256"
        }
      ]
    },
    {
      "stateMutability": "view",
      "type": "function",
      "name": "debtOutstanding",
      "inputs": [
        {
          "name": "strategy",
          "type": "address"
        }
      ],
      "outputs": [
        {
          "name": "",
          "type": "uint256"
        }
      ]
    },
    {
      "stateMutability": "view",
      "type": "function",
      "name": "creditAvailable",
      "inputs": [],
      "outputs": [
        {
          "name": "",
          "type": "uint256"
        }
      ]
    },
    {
      "stateMutability": "view",
      "type": "function",
      "name": "creditAvailable",
      "inputs": [
        {
          "name": "strategy",
          "type": "address"
        }
      ],
      "outputs": [
        {
          "name": "",
          "type": "uint256"
        }
      ]
    },
    {
      "stateMutability": "view",
      "type": "function",
      "name": "availableDepositLimit",
      "inputs": [],
      "outputs": [
        {
          "name": "",
          "type": "uint256"
        }
      ],
      "gas": 21201
    },
    {
      "stateMutability": "view",
      "type": "function",
      "name": "expectedReturn",
      "inputs": [],
      "outputs": [
        {
          "name": "",
          "type": "uint256"
        }
      ]
    },
    {
      "stateMutability": "view",
      "type": "function",
      "name": "expectedReturn",
      "inputs": [
        {
          "name": "strategy",
          "type": "address"
        }
      ],
      "outputs": [
        {
          "name": "",
          "type": "uint256"
        }
      ]
    },
    {
      "stateMutability": "nonpayable",
      "type": "function",
      "name": "report",
      "inputs": [
        {
          "name": "gain",
          "type": "uint256"
        },
        {
          "name": "loss",
          "type": "uint256"
        },
        {
          "name": "_debtPayment",
          "type": "uint256"
        }
      ],
      "outputs": [
        {
          "name": "",
          "type": "uint256"
        }
      ],
      "gas": 657293
    },
    {
      "stateMutability": "nonpayable",
      "type": "function",
      "name": "sweep",
      "inputs": [
        {
          "name": "token",
          "type": "address"
        }
      ],
      "outputs": []
    },
    {
      "stateMutability": "nonpayable",
      "type": "function",
      "name": "sweep",
      "inputs": [
        {
          "name": "token",
          "type": "address"
        },
        {
          "name": "amount",
          "type": "uint256"
        }
      ],
      "outputs": []
    },
    {
      "stateMutability": "nonpayable",
      "type": "function",
      "name": "emergencyWithdrawAndRevoke",
      "inputs": [
        {
          "name": "strategy",
          "type": "address"
        }
      ],
      "outputs": []
    },
    {
      "stateMutability": "nonpayable",
      "type": "function",
      "name": "emergencyWithdrawAndRevoke",
      "inputs": [
        {
          "name": "strategy",
          "type": "address"
        },
        {
          "name": "_amountNeeded",
          "type": "uint256"
        }
      ],
      "outputs": []
    },
    {
      "stateMutability": "view",
      "type": "function",
      "name": "token",
      "inputs": [],
      "outputs": [
        {
          "name": "",
          "type": "address"
        }
      ],
      "gas": 3588
    },
    {
      "stateMutability": "view",
      "type": "function",
      "name": "governance",
      "inputs": [],
      "outputs": [
        {
          "name": "",
          "type": "address"
        }
      ],
      "gas": 3618
    },
    {
      "stateMutability": "view",
      "type": "function",
      "name": "management",
      "inputs": [],
      "outputs": [
        {
          "name": "",
          "type": "address"
        }
      ],
      "gas": 3648
    },
    {
      "stateMutability": "view",
      "type": "function",
      "name": "guardian",
      "inputs": [],
      "outputs": [
        {
          "name": "",
          "type": "address"
        }
      ],
      "gas": 3678
    },
    {
      "stateMutability": "view",
      "type": "function",
      "name": "pendingWithdrawals",
      "inputs": [
        {
          "name": "arg0",
          "type": "address"
        }
      ],
      "outputs": [
        {
          "name": "total",
          "type": "uint256"
        },
        {
          "name": "bounty",
          "type": "uint256"
        }
      ],
      "gas": 6457
    },
    {
      "stateMutability": "view",
      "type": "function",
      "name": "pendingWithdrawalsTotal",
      "inputs": [],
      "outputs": [
        {
          "name": "",
          "type": "uint256"
        }
      ],
      "gas": 3738
    },
    {
      "stateMutability": "view",
      "type": "function",
      "name": "withdrawIds",
      "inputs": [
        {
          "name": "arg0",
          "type": "bytes32"
        }
      ],
      "outputs": [
        {
          "name": "",
          "type": "bool"
        }
      ],
      "gas": 3883
    },
    {
      "stateMutability": "view",
      "type": "function",
      "name": "wrapper",
      "inputs": [],
      "outputs": [
        {
          "name": "",
          "type": "address"
        }
      ],
      "gas": 3798
    },
    {
      "stateMutability": "view",
      "type": "function",
      "name": "bridge",
      "inputs": [],
      "outputs": [
        {
          "name": "",
          "type": "address"
        }
      ],
      "gas": 3828
    },
    {
      "stateMutability": "view",
      "type": "function",
      "name": "configuration",
      "inputs": [],
      "outputs": [
        {
          "name": "wid",
          "type": "int128"
        },
        {
          "name": "addr",
          "type": "uint256"
        }
      ],
      "gas": 6392
    },
    {
      "stateMutability": "view",
      "type": "function",
      "name": "rewards",
      "inputs": [],
      "outputs": [
        {
          "name": "wid",
          "type": "int128"
        },
        {
          "name": "addr",
          "type": "uint256"
        }
      ],
      "gas": 6422
    },
    {
      "stateMutability": "view",
      "type": "function",
      "name": "depositFee",
      "inputs": [],
      "outputs": [
        {
          "name": "step",
          "type": "uint256"
        },
        {
          "name": "size",
          "type": "uint256"
        }
      ],
      "gas": 6452
    },
    {
      "stateMutability": "view",
      "type": "function",
      "name": "withdrawFee",
      "inputs": [],
      "outputs": [
        {
          "name": "step",
          "type": "uint256"
        },
        {
          "name": "size",
          "type": "uint256"
        }
      ],
      "gas": 6482
    },
    {
      "stateMutability": "view",
      "type": "function",
      "name": "strategies",
      "inputs": [
        {
          "name": "arg0",
          "type": "address"
        }
      ],
      "outputs": [
        {
          "name": "performanceFee",
          "type": "uint256"
        },
        {
          "name": "activation",
          "type": "uint256"
        },
        {
          "name": "debtRatio",
          "type": "uint256"
        },
        {
          "name": "minDebtPerHarvest",
          "type": "uint256"
        },
        {
          "name": "maxDebtPerHarvest",
          "type": "uint256"
        },
        {
          "name": "lastReport",
          "type": "uint256"
        },
        {
          "name": "totalDebt",
          "type": "uint256"
        },
        {
          "name": "totalGain",
          "type": "uint256"
        },
        {
          "name": "totalLoss",
          "type": "uint256"
        },
        {
          "name": "rewardsManager",
          "type": "address"
        },
        {
          "name": "rewards",
          "type": "tuple",
          "components": [
            {
              "name": "wid",
              "type": "int128"
            },
            {
              "name": "addr",
              "type": "uint256"
            }
          ]
        }
      ],
      "gas": 29757
    },
    {
      "stateMutability": "view",
      "type": "function",
      "name": "withdrawalQueue",
      "inputs": [
        {
          "name": "arg0",
          "type": "uint256"
        }
      ],
      "outputs": [
        {
          "name": "",
          "type": "address"
        }
      ],
      "gas": 4117
    },
    {
      "stateMutability": "view",
      "type": "function",
      "name": "emergencyShutdown",
      "inputs": [],
      "outputs": [
        {
          "name": "",
          "type": "bool"
        }
      ],
      "gas": 4038
    },
    {
      "stateMutability": "view",
      "type": "function",
      "name": "depositLimit",
      "inputs": [],
      "outputs": [
        {
          "name": "",
          "type": "uint256"
        }
      ],
      "gas": 4068
    },
    {
      "stateMutability": "view",
      "type": "function",
      "name": "debtRatio",
      "inputs": [],
      "outputs": [
        {
          "name": "",
          "type": "uint256"
        }
      ],
      "gas": 4098
    },
    {
      "stateMutability": "view",
      "type": "function",
      "name": "totalDebt",
      "inputs": [],
      "outputs": [
        {
          "name": "",
          "type": "uint256"
        }
      ],
      "gas": 4128
    },
    {
      "stateMutability": "view",
      "type": "function",
      "name": "lastReport",
      "inputs": [],
      "outputs": [
        {
          "name": "",
          "type": "uint256"
        }
      ],
      "gas": 4158
    },
    {
      "stateMutability": "view",
      "type": "function",
      "name": "activation",
      "inputs": [],
      "outputs": [
        {
          "name": "",
          "type": "uint256"
        }
      ],
      "gas": 4188
    },
    {
      "stateMutability": "view",
      "type": "function",
      "name": "lockedProfit",
      "inputs": [],
      "outputs": [
        {
          "name": "",
          "type": "uint256"
        }
      ],
      "gas": 4218
    },
    {
      "stateMutability": "view",
      "type": "function",
      "name": "lockedProfitDegradation",
      "inputs": [],
      "outputs": [
        {
          "name": "",
          "type": "uint256"
        }
      ],
      "gas": 4248
    },
    {
      "stateMutability": "view",
      "type": "function",
      "name": "managementFee",
      "inputs": [],
      "outputs": [
        {
          "name": "",
          "type": "uint256"
        }
      ],
      "gas": 4278
    },
    {
      "stateMutability": "view",
      "type": "function",
      "name": "performanceFee",
      "inputs": [],
      "outputs": [
        {
          "name": "",
          "type": "uint256"
        }
      ],
      "gas": 4308
    }
  ],
  "transactionHash": "0x55c83940c3556eb211f63c1c05cb74ca2ccb24a167b0b01f2e86b8d236507b71",
  "args": [],
  "bytecode": "0x614cb856600436101561000d5761391d565b600035601c52600051341561002157600080fd5b63cc2a9a5b8114156102225760043560a01c1561003d57600080fd5b60243560a01c1561004d57600080fd5b60443560a01c1561005d57600080fd5b60643560a01c1561006d57600080fd5b60843560a01c1561007d57600080fd5b60a43560a01c1561008d57600080fd5b6015541561009a57600080fd5b600435600055602435600155602435610140527f8d55d160c0009eb3d739442df0a3ca089ed64378bfac017e7ddad463f9815b876020610140a160a43560025560a435610140527fff54978127edd34aec0f9061fb3b155fbe0ededdfa881ee3e0d541d3a1eef4386020610140a16044356009556044357ff7e059f82bd20d2e2af76029a2174fc736dbbdb71beefa4f382ae40dea52a96d60006000a26064356008556064357fa571949e4c31a5eb775f6a430d9c61f72f6a8061fd968826ba044a337ede72ad60006000a2608435600355608435610140527f837b9ad138a0a1839a9637afce5306a5c13e23eb63365686843a5319a243609c6020610140a1600060195560006101405261014051610160527f0810a1c261ca2c0cd86a0152c51c43ba9dc329639d2349f98140891b2ea798eb6020610160a1600060185560006101405261014051610160527f7a7883b0074f96e2c7fab65eb25abf624c488761a5db889e3bb84855dcc6daaf6020610160a142601455426015556529d635a8e000601755005b63258294108114156102b7576005610140527f302e342e33000000000000000000000000000000000000000000000000000000610160526101408051602001806101e08284600060045af161027657600080fd5b50506101e0518061020001818260206001820306601f820103905003368237505060206101c05260406101e0510160206001820306601f82010390506101c0f35b639e7eb4c381141561036757600254610160526001546101805260006101405261014061012060006002818352015b6101205160200261016001513314156103025760018352610312565b81516001018083528114156102e6575b5050506101405161032257600080fd5b600c60c052602060c0206004803582558060200135600183015550507fb6eefa02580d6f322ee5896ea821a69d903fed8a7995a63bf5b2227df5e880056020610140a1005b63cded1df781141561041757600254610160526001546101805260006101405261014061012060006002818352015b6101205160200261016001513314156103b257600183526103c2565b8151600101808352811415610396575b505050610140516103d257600080fd5b600d60c052602060c0206004803582558060200135600183015550507f7637929fdc0cdca7738cf78ac894bdd2689891fbcd1e2c879694d4cfb2f1e5056020610140a1005b63c2167d938114156104725760043560a01c1561043357600080fd5b600154331461044157600080fd5b6004357fa571949e4c31a5eb775f6a430d9c61f72f6a8061fd968826ba044a337ede72ad60006000a2600435600855005b638c40a3138114156104d157600154331461048c57600080fd5b7f8e1fd3f96cb4921f8f5a7ee33ad6ddba073fe3c3585a71306fa493fac421b9556020610140a1600a60c052602060c020600480358255806020013560018301555050005b63ab033ea981141561052f5760043560a01c156104ed57600080fd5b60015433146104fb57600080fd5b33610140527f90ad4c550d25bd23af61db38d1ff8671b89edaaa0bca0fc36bac5084ecc120bd6020610140a1600435600455005b63238efcbc81141561057b57600454331461054957600080fd5b3360015533610140527f8d55d160c0009eb3d739442df0a3ca089ed64378bfac017e7ddad463f9815b876020610140a1005b63d4a22bde8114156105db5760043560a01c1561059757600080fd5b60015433146105a557600080fd5b600435600255600435610140527fff54978127edd34aec0f9061fb3b155fbe0ededdfa881ee3e0d541d3a1eef4386020610140a1005b6382a5bb6b8114156106ff5760043560a01c156105f757600080fd5b60006001600e60043560e05260c052604060c02060c052602060c02001541161061f57600080fd5b60015461016052600254610180526009600e60043560e05260c052604060c02060c052602060c02001546101a05260006101405261014061012060006003818352015b61012051602002610160015133141561067e576001835261068e565b8151600101808352811415610662575b5050506101405161069e57600080fd5b600a600e60043560e05260c052604060c02060c052602060c0200160c052602060c0206024803582558060200135600183015550506004357f1e0afb75cfc88e97464007059868dcd4b5ec7ab02a18de2b00cf478c4ee5ad976020610140a2005b62eeed8181141561075d57600154331461071857600080fd5b600b60c052602060c0206004803582558060200135600183015550507f1721cee25564e2cfcfbb82736ed97214cb61c8c5b4981bb496b10a9a279752776020610140a1005b637a55036581141561079657600154331461077757600080fd5b670de0b6b3a7640000600435111561078e57600080fd5b600435601755005b63bdc8144b8114156107e65760015433146107b057600080fd5b600435601155600435610140527fae565aab888bca5e19e25a13db7b0c9144305bf55cb0f3f4d724f730e5acdd626020610140a1005b6370897b2381141561084757600154331461080057600080fd5b611388600435111561081157600080fd5b600435601955600435610140527f0810a1c261ca2c0cd86a0152c51c43ba9dc329639d2349f98140891b2ea798eb6020610140a1005b63fe56e2328114156108a857600154331461086157600080fd5b612710600435111561087257600080fd5b600435601855600435610140527f7a7883b0074f96e2c7fab65eb25abf624c488761a5db889e3bb84855dcc6daaf6020610140a1005b638a0dac4a8114156109595760043560a01c156108c457600080fd5b600354610160526001546101805260006101405261014061012060006002818352015b6101205160200261016001513314156109035760018352610913565b81516001018083528114156108e7575b5050506101405161092357600080fd5b600435600355600435610140527f837b9ad138a0a1839a9637afce5306a5c13e23eb63365686843a5319a243609c6020610140a1005b6314c64402811415610a255760043560011c1561097557600080fd5b600435156109e157600354610160526001546101805260006101405261014061012060006002818352015b6101205160200261016001513314156109bc57600183526109cc565b81516001018083528114156109a0575b505050610140516109dc57600080fd5b6109ef565b60015433146109ef57600080fd5b600435601055600435610140527fba40372a3a724dca3c57156128ef1e896724b65b37a17f190b1ad5de68f3a4f36020610140a1005b6394148415811415610d8f576000610120525b610120516004013560a01c15610a4d57600080fd5b6020610120510161012052610280610120511015610a6a57610a38565b600254610160526001546101805260006101405261014061012060006002818352015b610120516020026101600151331415610aa95760018352610ab9565b8151600101808352811415610a8d575b50505061014051610ac957600080fd5b610400366101403761054060006014818352015b60046105405160148110610af057600080fd5b60200201351515610b27576105405160148110610b0c57600080fd5b600f60c052602060c020015415610b2257600080fd5b610ccb565b60006105405160148110610b3a57600080fd5b600f60c052602060c020015418610b5057600080fd5b60006001600e60046105405160148110610b6957600080fd5b602002013560e05260c052604060c02060c052602060c020015411610b8d57600080fd5b601f60046105405160148110610ba257600080fd5b6020020135166105605261058060006020818352015b6105605161058051818183011015610bcf57600080fd5b808201905090506020808206905090506105a05260046105405160148110610bf657600080fd5b60200201356101406105a05160208110610c0f57600080fd5b602002015118610c1e57600080fd5b6101406105a05160208110610c3257600080fd5b60200201511515610c735760046105405160148110610c5057600080fd5b60200201356101406105a05160208110610c6957600080fd5b6020020152610c83565b8151600101808352811415610bb8575b505060046105405160148110610c9857600080fd5b60200201356105405160148110610cae57600080fd5b600f60c052602060c02001555b8151600101808352811415610add575b50506004356105405260243561056052604435610580526064356105a0526084356105c05260a4356105e05260c4356106005260e43561062052610104356106405261012435610660526101443561068052610164356106a052610184356106c0526101a4356106e0526101c435610700526101e43561072052610204356107405261022435610760526102443561078052610264356107a0527f695ac3ac73f08f2002284ffe563cefe798ee2878a5e04219522e2e99eb89d168610280610540a1005b63e1fad759811415610dcf57600435600160053360e05260c052604060c02060c052602060c020015533610140526101405160065801613923565b600050005b6301e1d114811415610df55760065801613ce6565b610140526101405160005260206000f35b63935a37eb8114156111fd57601a5415610e0e57600080fd5b6001601a5560643560a01c15610e2357600080fd5b60105415610e3057600080fd5b60115460065801613ce6565b6101405261014051604435818183011015610e5657600080fd5b8082019050905011151515610eaa576308c379a06101605260206101805260206101a0527f5661756c743a207265737065637420746865206465706f736974206c696d69746101c0526101a050606461017cfd5b6101405160443561016052610180600c8060c052602060c02054825260018160c052602060c0200154826020015250506101a051610180516101605160065801613ebf565b6102005261014052610200516101405260006101405111610f0f57600080fd5b61014051600054610160523361018052306101a052610140516101c0526101c0516101a051610180516101605160065801613b35565b610140526000506040366101603760006064351815611115576101a0600560643560e05260c052604060c0208060c052602060c02054825260018160c052602060c02001548260200152505060006101a051111515611008576308c379a06101e0526020610200526032610220527f5661756c743a207370656369666965642070656e64696e672077697468647261610240527f77616c20646f6573206e6f742065786973740000000000000000000000000000610260526102205060846101fcfd5b61016080516101a05181818301101561102057600080fd5b8082019050905081525061018080516101c05181818301101561104257600080fd5b808201905090508152506101405161016051610180516101a0516101c0516000546101e052606435610200526101a0516101c0518082101561108357600080fd5b808203905090506102205261022051610200516101e0516006580161399b565b6101c0526101a0526101805261016052610140526000506000600560643560e05260c052604060c02060c052602060c020556101405161016051610180516101a0516101c0516064356101e0526101e05160065801613923565b6101c0526101a0526101805261016052610140526000505b61016051610140511015151561118f576308c379a06101a05260206101c052602d6101e0527f5661756c743a20746f6f206c6f77206465706f73697420666f72207370656369610200527f666965642066696c6c696e677300000000000000000000000000000000000000610220526101e05060846101bcfd5b61014051610160516101805161014051610180518181830110156111b257600080fd5b808201905090506101a0526101c06004803582528060200135826020015250506101e0516101c0516101a05160065801613e6a565b6101805261016052610140526000506000601a55005b63f297dbac8114156113b55760243560a01c1561121957600080fd5b600854331461122757600080fd5b60043561014052610140516006580161416d565b6000506101405160443561016052610180600d8060c052602060c02054825260018160c052602060c0200154826020015250506101a051610180516101605160065801613ebf565b6102005261014052610200516101405260206101e060246370a0823161016052306101805261017c6000545afa6112b957600080fd5b601f3d116112c657600080fd5b6000506101e0516101405111151561133b576101405161016051610180516101a0516101c0516101e051600054610200526024356102205261014051610240526102405161022051610200516006580161399b565b6101e0526101c0526101a0526101805261016052610140526000506113b3565b600680546101405181818301101561135257600080fd5b80820190509050815550600560243560e05260c052604060c02060c052602060c02080546101405181818301101561138957600080fd5b808201905090508155506064356001600560243560e05260c052604060c02060c052602060c02001555b005b63a55e6ac18114156114ef5760053360e05260c052604060c02060c052602060c0205460043511151515611428576308c379a0610140526020610160526019610180527f5661756c743a20616d6f756e7420697320746f6f2068696768000000000000006101a05261018050606461015cfd5b60006004351161143757600080fd5b6004356101405261016060448035825280602001358260200152505061018051610160516101405160065801613e6a565b600050600680546004358082101561147f57600080fd5b8082039050905081555060053360e05260c052604060c02060c052602060c0208054600435808210156114b157600080fd5b80820390509050815550602435600160053360e05260c052604060c02060c052602060c020015533610140526101405160065801613923565b600050005b633ccfd60b81141561150b573361014052600161016052611576565b6351cff8d981141561153d5760016101605260043560a01c1561152d57600080fd5b6020600461014037600050611576565b63f3fef3a38114156115715760043560a01c1561155957600080fd5b60206004610140376020602461016037600050611576565b611a9c565b601a541561158357600080fd5b6001601a5560053360e05260c052604060c02060c052602060c0205461018052600061018051116115b357600080fd5b602061022060246370a082316101a052306101c0526101bc6000545afa6115d957600080fd5b601f3d116115e657600080fd5b600050610220516101805111156119de5760006102405261028060006014818352015b61028051600f60c052602060c02001546102605261026051151561162c576118b1565b602061034060246370a082316102c052306102e0526102dc6000545afa61165257600080fd5b601f3d1161165f57600080fd5b600050610340516102a0526102a0516101805111151561167e576118b1565b610180516102a0518082101561169357600080fd5b808203905090506102c0526102c0516006600e6102605160e05260c052604060c02060c052602060c0200154808211156116cd57806116cf565b815b905090506102c0526102c05115156116e6576118a1565b60206103806024632e1a7d4d610300526102c0516103205261031c6000610260515af161171257600080fd5b601f3d1161171f57600080fd5b600050610380516102e05260206103a060246370a0823161032052306103405261033c6000545afa61175057600080fd5b601f3d1161175d57600080fd5b6000506103a0516102a0518082101561177557600080fd5b808203905090506103005260006102e05111156118485761018080516102e051808210156117a257600080fd5b8082039050905081525061024080516102e0518181830110156117c457600080fd5b80820190509050815250610140610320525b610320515160206103205101610320526103206103205110156117f8576117d6565b61026051610340526102e05161036052610360516103405160065801613fc5565b610300610320525b610320515260206103205103610320526101406103205110151561184457611821565b6000505b6006600e6102605160e05260c052604060c02060c052602060c020018054610300518082101561187757600080fd5b8082039050905081555060138054610300518082101561189657600080fd5b808203905090508155505b8151600101808352811415611609575b50506101805160206102e060246370a0823161026052306102805261027c6000545afa6118dd57600080fd5b601f3d116118ea57600080fd5b6000506102e05110151515611988576308c379a0610300526020610320526043610340527f5661756c743a2063616e7420636c6f73652070656e64696e6720776974686472610360527f6177206576656e20776974682073747261746567696573206c69717569646174610380527f696f6e00000000000000000000000000000000000000000000000000000000006103a0526103405060a461031cfd5b6101605161018051610240518181830110156119a357600080fd5b8082019050905080820282158284830414176119be57600080fd5b80905090509050612710808204905090506102405111156119de57600080fd5b6101405161016051610180516000546101a052610140516101c052610180516101e0526101e0516101c0516101a0516006580161399b565b610180526101605261014052600050600060053360e05260c052604060c02060c052602060c02055600680546101805180821015611a5357600080fd5b80820390509050815550610140516101605161018051336101a0526101a05160065801613923565b610180526101605261014052600050610180516000526000601a5560206000f35b6314b4e26e811415611cff5760043560a01c15611ab857600080fd5b6013600f60c052602060c020015415611ad057600080fd5b60105415611add57600080fd5b6001543314611aeb57600080fd5b600060043518611afa57600080fd5b6001600e60043560e05260c052604060c02060c052602060c020015415611b2057600080fd5b60206101a0600463fbfa77cf6101405261015c6004355afa611b4157600080fd5b601f3d11611b4e57600080fd5b6000506101a0513014611b6057600080fd5b60206101a06004631f1fcd516101405261015c6004355afa611b8157600080fd5b601f3d11611b8e57600080fd5b6000506101a05160005414611ba257600080fd5b612710601254602435818183011015611bba57600080fd5b808201905090501115611bcc57600080fd5b6064356044351115611bdd57600080fd5b6113886084351115611bee57600080fd5b600e60043560e05260c052604060c02060c052602060c020608435815542600182015560243560028201556044356003820155606435600482015542600582015560006006820155600060078201556000600882015560006009820155600a810160c052602060c020600b8060c052602060c02054825560018160c052602060c020015460018301555050506024356101405260443561016052606435610180526084356101a0526004357f5a6abd2af9fe6c0554fa08649e2d86e4393ff19dc304d072d38d295c9291d4dc6080610140a260128054602435818183011015611cd657600080fd5b808201905090508155506004356013600f60c052602060c0200155600658016141ed565b600050005b637c6a4f24811415611e0b5760043560a01c15611d1b57600080fd5b6001543314611d2957600080fd5b60006001600e60043560e05260c052604060c02060c052602060c020015411611d5157600080fd5b601280546002600e60043560e05260c052604060c02060c052602060c020015480821015611d7e57600080fd5b808203905090508155506024356002600e60043560e05260c052604060c02060c052602060c020015560128054602435818183011015611dbd57600080fd5b808201905090508155506127106012541115611dd857600080fd5b602435610140526004357fbda9398315c83ccef012bcaa318a2ff7b680f36429d36597bd4bc25ac11ead596020610140a2005b63e722befe811415611f2a5760043560a01c15611e2757600080fd5b600254610160526001546101805260006101405261014061012060006002818352015b610120516020026101600151331415611e665760018352611e76565b8151600101808352811415611e4a575b50505061014051611e8657600080fd5b60006001600e60043560e05260c052604060c02060c052602060c020015411611eae57600080fd5b6024356004600e60043560e05260c052604060c02060c052602060c02001541015611ed857600080fd5b6024356003600e60043560e05260c052604060c02060c052602060c0200155602435610140526004357f0b728ad785976532c4aaadde09b1cba5f262a7090e83c62d2377bc405678b29c6020610140a2005b634757a1568114156120495760043560a01c15611f4657600080fd5b600254610160526001546101805260006101405261014061012060006002818352015b610120516020026101600151331415611f855760018352611f95565b8151600101808352811415611f69575b50505061014051611fa557600080fd5b60006001600e60043560e05260c052604060c02060c052602060c020015411611fcd57600080fd5b6024356003600e60043560e05260c052604060c02060c052602060c02001541115611ff757600080fd5b6024356004600e60043560e05260c052604060c02060c052602060c0200155602435610140526004357f1796a8e0760e2de5b72e7bf64fccb7666c48ceab94cb6cae7cb7eff4b6f641ab6020610140a2005b63d0194ed68114156120fb5760043560a01c1561206557600080fd5b600154331461207357600080fd5b611388602435111561208457600080fd5b60006001600e60043560e05260c052604060c02060c052602060c0200154116120ac57600080fd5b602435600e60043560e05260c052604060c02060c052602060c02055602435610140526004357fe57488a65fa53066d4c25bac90db47dda4e5de3025ac12bf76ff07211cf7f39e6020610140a2005b636cb56d198114156124975760043560a01c1561211757600080fd5b60243560a01c1561212757600080fd5b600154331461213557600080fd5b60006024351861214457600080fd5b60006001600e60043560e05260c052604060c02060c052602060c02001541161216c57600080fd5b6001600e60243560e05260c052604060c02060c052602060c02001541561219257600080fd5b610140600e60043560e05260c052604060c0208060c052602060c02054825260018160c052602060c0200154826020015260028160c052602060c0200154826040015260038160c052602060c0200154826060015260048160c052602060c0200154826080015260058160c052602060c02001548260a0015260068160c052602060c02001548260c0015260078160c052602060c02001548260e0015260088160c052602060c020015482610100015260098160c052602060c02001548261012001528161014001600a8260c052602060c020018060c052602060c02054825260018160c052602060c02001548260200152505050506101405161016051610180516101a0516101c0516101e05161020051610220516102405161026051610280516102a0516004356102c0526102c051600658016142d0565b6102a05261028052610260526102405261022052610200526101e0526101c0526101a052610180526101605261014052600050601280546101805181818301101561231657600080fd5b8082019050905081555060006006600e60043560e05260c052604060c02060c052602060c0200155600e60243560e05260c052604060c02060c052602060c0206101405181556101e05160018201556101805160028201556101a05160038201556101c05160048201556101e05160058201556102005160068201556000600782015560006008820155610260516009820155600a810160c052602060c02061028080518255806020015160018301555050506004353b6123d657600080fd5b60006000602463ce5494bb6102c0526024356102e0526102dc60006004355af16123ff57600080fd5b6024356004357f100b69bb6b504e1252e36b375233158edee64d071b399e2f81473a695fd1b02160006000a36102c060006014818352015b6004356102c0516014811061244b57600080fd5b600f60c052602060c02001541415612483576024356102c0516014811061247157600080fd5b600f60c052602060c020015560006000f35b8151600101808352811415612437575b5050005b63a0e4af9a8114156124ad5733610140526124de565b63bb994d488114156124d95760043560a01c156124c957600080fd5b60206004610140376000506124de565b612590565b61014051610180526001546101a0526003546101c05260006101605261016061012060006003818352015b6101205160200261018001513314156125255760018352612535565b8151600101808352811415612509575b5050506101605161254557600080fd5b6002600e6101405160e05260c052604060c02060c052602060c0200154151561256e5760006000f35b61014051610140516101605261016051600658016142d0565b61014052600050005b63f76e4caa81141561270c5760043560a01c156125ac57600080fd5b600254610160526001546101805260006101405261014061012060006002818352015b6101205160200261016001513314156125eb57600183526125fb565b81516001018083528114156125cf575b5050506101405161260b57600080fd5b60006001600e60043560e05260c052604060c02060c052602060c02001541161263357600080fd5b60006101405261018060006014818352015b61018051600f60c052602060c020015461016052610160511515612668576126aa565b600435610160511861267957600080fd5b6101408051600181818301101561268f57600080fd5b808201905090508152505b8151600101808352811415612645575b5050601461014051106126bc57600080fd5b6004356013600f60c052602060c020015561014051600658016141ed565b610140526000506004357fa8727d412c6fa1e2497d6d6f275e2d9fe4d9318d5b793632e60ad9d38ee8f1fa60006000a2005b63b22439f58114156128335760043560a01c1561272857600080fd5b600254610160526001546101805260006101405261014061012060006002818352015b6101205160200261016001513314156127675760018352612777565b815160010180835281141561274b575b5050506101405161278757600080fd5b61014060006014818352015b60043561014051601481106127a757600080fd5b600f60c052602060c0200154141561281b57600061014051601481106127cc57600080fd5b600f60c052602060c020015561014051600658016141ed565b610140526000506004357f8e1ec3c16d6a67ea8effe2ac7adef9c2de0bc0dc47c49cdf18f6a8b0048085be60006000a260006000f35b8151600101808352811415612793575b505060006000fd5b63bf3759b581141561284957336101405261287a565b63bdcf36bb8114156128755760043560a01c1561286557600080fd5b602060046101403760005061287a565b6128a8565b610140516101405161016052610160516006580161435f565b6101c052610140526101c05160005260206000f35b63112c1f9b8114156128be5733610140526128ef565b63d76480138114156128ea5760043560a01c156128da57600080fd5b60206004610140376000506128ef565b61291d565b6101405161014051610160526101605160065801614490565b6101c052610140526101c05160005260206000f35b63153c27c481141561298d5760065801613ce6565b61014052610140516011541115612980576011546101405160065801613ce6565b6101605261014052610160518082101561296c57600080fd5b8082039050905060005260206000f361298b565b600060005260206000f35b005b63d3406abd8114156129a35733610140526129d4565b6333586b678114156129cf5760043560a01c156129bf57600080fd5b60206004610140376000506129d4565b612a02565b6101405161014051610160526101605160065801614707565b6101c052610140526101c05160005260206000f35b63a1d9bafc811415612fbb5760006001600e3360e05260c052604060c02060c052602060c020015411612a3457600080fd5b600435604435818183011015612a4957600080fd5b8082019050905060206101c060246370a0823161014052336101605261015c6000545afa612a7657600080fd5b601f3d11612a8357600080fd5b6000506101c0511015612a9557600080fd5b60006024351115612ac157336101405260243561016052610160516101405160065801613fc5565b6000505b6101405133610160526004356101805261018051610160516006580161485a565b6101e052610140526101e051610140526007600e3360e05260c052604060c02060c052602060c020018054600435818183011015612b1f57600080fd5b80820190509050815550610140516101605133610180526101805160065801614490565b6101e05261016052610140526101e05161016052610140516101605161018051336101a0526101a0516006580161435f565b6102005261018052610160526101405261020051610180526044356101805180821115612ba25780612ba4565b815b905090506101a05260006101a0511115612c2e576006600e3360e05260c052604060c02060c052602060c0200180546101a05180821015612be457600080fd5b80820390509050815550601380546101a05180821015612c0357600080fd5b8082039050905081555061018080516101a05180821015612c2357600080fd5b808203905090508152505b6000610160511115612c94576006600e3360e05260c052604060c02060c052602060c02001805461016051818183011015612c6857600080fd5b808201905090508155506013805461016051818183011015612c8957600080fd5b808201905090508155505b6004356101a051818183011015612caa57600080fd5b808201905090506101c052610160516101c0511015612d34576101405161016051610180516101a0516101c0516000546101e0523361020052610160516101c05180821015612cf857600080fd5b808203905090506102205261022051610200516101e0516006580161399b565b6101c0526101a052610180526101605261014052600050612db8565b610160516101c0511115612db8576101405161016051610180516101a0516101c0516000546101e052336102005230610220526101c0516101605180821015612d7c57600080fd5b80820390509050610240526102405161022051610200516101e05160065801613b35565b6101c0526101a0526101805261016052610140526000505b6101405161016051610180516101a0516101c0516101e05160065801613d49565b610200526101e0526101c0526101a05261018052610160526101405261020051600435818183011015612e0b57600080fd5b808201905090506101405180821015612e2357600080fd5b808203905090506101e0526024356101e0511115612e5e576101e05160243580821015612e4f57600080fd5b80820390509050601655612e64565b60006016555b426005600e3360e05260c052604060c02060c052602060c02001554260145560406004610200376101a051610240526007600e3360e05260c052604060c02060c052602060c0200154610260526008600e3360e05260c052604060c02060c052602060c0200154610280526006600e3360e05260c052604060c02060c052602060c02001546102a052610160516102c0526002600e3360e05260c052604060c02060c052602060c02001546102e052337f67f96d2854a335a4cadb49f84fd3ca6f990744ddb3feceeb4b349d2d53d32ad3610100610200a26002600e3360e05260c052604060c02060c052602060c02001541515612f63576001612f67565b6010545b15612fac576020610260600463efbb5cb06102005261021c335afa612f8b57600080fd5b601f3d11612f9857600080fd5b6000506102605160005260206000f3612fb9565b6101805160005260206000f35b005b6301681a62811415612ff1577fffffffffffffffffffffffffffffffffffffffffffffffffffffffffffffffff61014052613012565b636ea056a981141561300d576020602461014037600050613012565b6130f2565b60043560a01c1561302257600080fd5b600154331461303057600080fd5b6000546004351861304057600080fd5b61014051610160527fffffffffffffffffffffffffffffffffffffffffffffffffffffffffffffffff6101605114156130b257602061020060246370a0823161018052306101a05261019c6004355afa61309957600080fd5b601f3d116130a657600080fd5b60005061020051610160525b6101405161016051600435610180526001546101a052610160516101c0526101c0516101a051610180516006580161399b565b6101605261014052600050005b63aed0d48f811415613128577fffffffffffffffffffffffffffffffffffffffffffffffffffffffffffffffff61014052613149565b63140dbc6e811415613144576020602461014037600050613149565b613416565b60043560a01c1561315957600080fd5b600354610180526001546101a05260006101605261016061012060006002818352015b61012051602002610180015133141561319857600183526131a8565b815160010180835281141561317c575b505050610160516131b857600080fd5b6000610160527fffffffffffffffffffffffffffffffffffffffffffffffffffffffffffffffff61014051141561320e576006600e60043560e05260c052604060c02060c052602060c020015461016052613217565b61014051610160525b6000610160511161322757600080fd5b60006001600e60043560e05260c052604060c02060c052602060c02001541161324f57600080fd5b602061022060246370a082316101a052306101c0526101bc6000545afa61327557600080fd5b601f3d1161328257600080fd5b600050610220516101805260206102406024632e1a7d4d6101c052610160516101e0526101dc60006004355af16132b857600080fd5b601f3d116132c557600080fd5b600050610240516101a052602061026060246370a082316101e05230610200526101fc6000545afa6132f657600080fd5b601f3d1161330357600080fd5b60005061026051610180518082101561331b57600080fd5b808203905090506101c05260006101a051111561337e576101405161016051610180516101a0516101c0516004356101e0526101a05161020052610200516101e05160065801613fc5565b6101c0526101a0526101805261016052610140526000505b6006600e60043560e05260c052604060c02060c052602060c0200180546101c051808210156133ac57600080fd5b80820390509050815550601380546101c051808210156133cb57600080fd5b808203905090508155506101405161016051610180516101a0516101c0516004356101e0526101e051600658016142d0565b6101c0526101a052610180526101605261014052600050005b63fc0c546a81141561342e5760005460005260206000f35b635aa6e6758114156134465760015460005260206000f35b6388a8d60281141561345e5760025460005260206000f35b63452a93208114156134765760035460005260206000f35b63f3f437038114156134e05760043560a01c1561349257600080fd5b600560043560e05260c052604060c0206101408080808460c052602060c0205481525050602081019050808060018560c052602060c02001548152505060409050905060c05260c051610140f35b63d41097f58114156134f85760065460005260206000f35b633aa87ae881141561351e57600760043560e05260c052604060c0205460005260206000f35b63ac210cc78114156135365760085460005260206000f35b63e78cea9281141561354e5760095460005260206000f35b636c70bee981141561359a57600a6101408080808460c052602060c0205481525050602081019050808060018560c052602060c02001548152505060409050905060c05260c051610140f35b639ec5a8948114156135e657600b6101408080808460c052602060c0205481525050602081019050808060018560c052602060c02001548152505060409050905060c05260c051610140f35b6367a5279381141561363257600c6101408080808460c052602060c0205481525050602081019050808060018560c052602060c02001548152505060409050905060c05260c051610140f35b63e941fa7881141561367e57600d6101408080808460c052602060c0205481525050602081019050808060018560c052602060c02001548152505060409050905060c05260c051610140f35b6339ebf8238114156137fa5760043560a01c1561369a57600080fd5b600e60043560e05260c052604060c0206101408080808460c052602060c0205481525050602081019050808060018560c052602060c020015481525050602081019050808060028560c052602060c020015481525050602081019050808060038560c052602060c020015481525050602081019050808060048560c052602060c020015481525050602081019050808060058560c052602060c020015481525050602081019050808060068560c052602060c020015481525050602081019050808060078560c052602060c020015481525050602081019050808060088560c052602060c020015481525050602081019050808060098560c052602060c02001548152505060208101905080808080600a8760c052602060c0200160c052602060c020548152505060208101905080806001600a8860c052602060c0200160c052602060c02001548152505050506101809050905060c05260c051610140f35b63c822adda81141561382b576004356014811061381657600080fd5b600f60c052602060c020015460005260206000f35b633403c2fc8114156138435760105460005260206000f35b63ecf7085881141561385b5760115460005260206000f35b63cea55f578114156138735760125460005260206000f35b63fc7b9c1881141561388b5760135460005260206000f35b63c3535b528114156138a35760145460005260206000f35b633629c8de8114156138bb5760155460005260206000f35b6344b813968114156138d35760165460005260206000f35b63422327168114156138eb5760175460005260206000f35b63a6f7f5d68114156139035760185460005260206000f35b638778878281141561391b5760195460005260206000f35b505b60006000fd5b610160526101405260056101405160e05260c052604060c02060c052602060c0205461018052600160056101405160e05260c052604060c02060c052602060c02001546101a052610140517fa3a0367d0acffbe9330712e22f64801d694d794543421ba852701ba18b87ab626040610180a261016051565b6101a05261014052610160526101805260006004610220527fa9059cbb000000000000000000000000000000000000000000000000000000006102405261022060048060208461028001018260208501600060045af15050805182019150506101605160208261028001015260208101905061018051602082610280010152602081019050806102805261028090508051602001806103208284600060045af1613a4457600080fd5b505060206103e0610320516103406000610140515af1613a6357600080fd5b60203d80821115613a745780613a76565b815b905090506103c0526103c08051602001806101c08284600060045af1613a9b57600080fd5b505060006101c0511115613b2f576101c0806020015160008251806020901315613ac457600080fd5b8091901215613ad257600080fd5b806020036101000a820490509050905015151515613b2f576308c379a0610220526020610240526010610260527f5472616e73666572206661696c656421000000000000000000000000000000006102805261026050606461023cfd5b6101a051565b6101c0526101405261016052610180526101a05260006004610240527f23b872dd00000000000000000000000000000000000000000000000000000000610260526102406004806020846102a001018260208501600060045af1505080518201915050610160516020826102a0010152602081019050610180516020826102a00101526020810190506101a0516020826102a0010152602081019050806102a0526102a090508051602001806103608284600060045af1613bf557600080fd5b50506020610440610360516103806000610140515af1613c1457600080fd5b60203d80821115613c255780613c27565b815b90509050610420526104208051602001806101e08284600060045af1613c4c57600080fd5b505060006101e0511115613ce0576101e0806020015160008251806020901315613c7557600080fd5b8091901215613c8357600080fd5b806020036101000a820490509050905015151515613ce0576308c379a0610240526020610260526010610280527f5472616e73666572206661696c656421000000000000000000000000000000006102a05261028050606461025cfd5b6101c051565b6101405260206101e060246370a0823161016052306101805261017c6000545afa613d1057600080fd5b601f3d11613d1d57600080fd5b6000506101e051601354818183011015613d3657600080fd5b8082019050905060005260005161014051565b610140524260145480821015613d5e57600080fd5b808203905090506017548082028215828483041417613d7c57600080fd5b8090509050905061016052670de0b6b3a7640000610160511015613dfc57601654610180526101805161016051610180518082028215828483041417613dc157600080fd5b80905090509050670de0b6b3a76400008082049050905080821015613de557600080fd5b808203905090506000526000516101405156613e0a565b600060005260005161014051565b005b610140526101405160065801613ce6565b610160526101405261016051610140516101605160065801613d49565b6101805261016052610140526101805180821015613e5757600080fd5b8082039050905060005260005161014051565b6101a052610140526101605261018052610140516101c052610160516101e05261018051610200527fd506e4d6f39a3b8e7974016c4d1e076ee799eafbd2c0653c83e44a33c26671e860606101c0a16101a051565b6101a052610140526101605261018052610180511515613ee0576001613eea565b6101605161014051105b15613eff57610140516000526000516101a051565b61014051610180518082028215828483041417613f1b57600080fd5b80905090509050612710808204905090506101c0526101405161016051610180516101a0516101c0516101c0516101e052610200600b8060c052602060c02054825260018160c052602060c02001548260200152505061022051610200516101e05160065801613e6a565b6101c0526101a052610180526101605261014052600050610140516101c05180821015613fb257600080fd5b808203905090506000526000516101a051565b6101805261014052610160526006600e6101405160e05260c052604060c02060c052602060c02001546101a052610160516101a051101561400557600080fd5b600060125418156140d45761016051601254808202821582848304141761402b57600080fd5b80905090509050601354808061404057600080fd5b8204905090506002600e6101405160e05260c052604060c02060c052602060c0200154808211156140715780614073565b815b905090506101c0526002600e6101405160e05260c052604060c02060c052602060c0200180546101c051808210156140aa57600080fd5b80820390509050815550601280546101c051808210156140c957600080fd5b808203905090508155505b6008600e6101405160e05260c052604060c02060c052602060c0200180546101605181818301101561410557600080fd5b808201905090508155506101a051610160518082101561412457600080fd5b808203905090506006600e6101405160e05260c052604060c02060c052602060c020015560138054610160518082101561415d57600080fd5b8082039050905081555061018051565b610160526101405260076101405160e05260c052604060c020541515156141d3576308c379a06101805260206101a052601c6101c0527f5661756c743a20776974686472617720616c7265616479207365656e000000006101e0526101c050606461019cfd5b600160076101405160e05260c052604060c0205561016051565b6101405260006101605261018060006014818352015b610180516014811061421457600080fd5b600f60c052602060c02001546101a0526101a0511515614253576101608051600181818301101561424457600080fd5b808201905090508152506142b8565b60006101605111156142b8576101a05161018051610160518082101561427857600080fd5b808203905090506014811061428c57600080fd5b600f60c052602060c0200155600061018051601481106142ab57600080fd5b600f60c052602060c02001555b8151600101808352811415614203575b505061014051565b6101605261014052601280546002600e6101405160e05260c052604060c02060c052602060c02001548082101561430657600080fd5b8082039050905081555060006002600e6101405160e05260c052604060c02060c052602060c0200155610140517f4201c688d84c01154d321afa0c72f1bffe9eef53005c9de9d035074e71e9b32a60006000a261016051565b61016052610140526012541515614399576006600e6101405160e05260c052604060c02060c052602060c020015460005260005161016051565b6002600e6101405160e05260c052604060c02060c052602060c020015461014051610160516101805160065801613ce6565b6101a0526101805261016052610140526101a05180820282158284830414176143f357600080fd5b8090509050905061271080820490509050610180526006600e6101405160e05260c052604060c02060c052602060c02001546101a05260105415614445576101a051600052600051610160515661448e565b610180516101a051111515614466576000600052600051610160515661448e565b6101a051610180518082101561447b57600080fd5b8082039050905060005260005161016051565b005b6101605261014052601054156144ae57600060005260005161016051565b61014051610160516101805160065801613ce6565b6101a0526101805261016052610140526101a05161018052610180516006541015156144f757600060005260005161016051565b60125461018051808202821582848304141761451257600080fd5b80905090509050612710808204905090506101a0526013546101c0526002600e6101405160e05260c052604060c02060c052602060c020015461018051808202821582848304141761456357600080fd5b80905090509050612710808204905090506101e0526006600e6101405160e05260c052604060c02060c052602060c0200154610200526003600e6101405160e05260c052604060c02060c052602060c0200154610220526004600e6101405160e05260c052604060c02060c052602060c020015461024052610200516101e0511115156145f15760016145fc565b6101c0516101a05111155b1561460f57600060005260005161016051565b6101e051610200518082101561462457600080fd5b8082039050905061026052610260516101a0516101c0518082101561464857600080fd5b808203905090508082111561465d578061465f565b815b905090506102605261026051602061030060246370a0823161028052306102a05261029c6000545afa61469157600080fd5b601f3d1161469e57600080fd5b60005061030051808211156146b357806146b5565b815b9050905061026052610220516102605110156146dd5760006000526000516101605156614705565b6102605161024051808211156146f357806146f5565b815b9050905060005260005161016051565b005b61016052610140526005600e6101405160e05260c052604060c02060c052602060c02001546101805242610180518082101561474257600080fd5b808203905090506101a052610180516001600e6101405160e05260c052604060c02060c052602060c02001548082101561477b57600080fd5b808203905090506101c05260006101a05111156147e15760006101c05111156147d95760206102c060046322f3e2d46102605261027c610140515afa6147c057600080fd5b601f3d116147cd57600080fd5b6000506102c0516147dc565b60005b6147e4565b60005b1561484a576007600e6101405160e05260c052604060c02060c052602060c02001546101a051808202821582848304141761481e57600080fd5b809050905090506101c051808061483457600080fd5b8204905090506000526000516101605156614858565b600060005260005161016051565b005b610180526101405261016052426001600e6101405160e05260c052604060c02060c052602060c0200154141561489857600060005260005161018051565b426005600e6101405160e05260c052604060c02060c052602060c0200154808210156148c357600080fd5b808203905090506101a05260006101a051186148de57600080fd5b6101605115156148f657600060005260005161018051565b6006600e6101405160e05260c052604060c02060c052602060c020015460206102406004638e6350e26101e0526101fc610140515afa61493557600080fd5b601f3d1161494257600080fd5b600050610240518082101561495657600080fd5b808203905090506101a051808202821582848304141761497557600080fd5b80905090509050601854808202821582848304141761499357600080fd5b80905090509050612710808204905090506301e18558808204905090506101c05261016051600e6101405160e05260c052604060c02060c052602060c0205480820282158284830414176149e657600080fd5b80905090509050612710808204905090506101e052610160516019548082028215828483041417614a1657600080fd5b809050905090506127108082049050905061020052610200516101e051818183011015614a4257600080fd5b808201905090506101c051818183011015614a5c57600080fd5b808201905090506102205261016051610220511115614b32576101e051610160518082028215828483041417614a9157600080fd5b80905090509050610220518080614aa757600080fd5b8204905090506101e05261020051610160518082028215828483041417614acd57600080fd5b80905090509050610220518080614ae357600080fd5b820490509050610200526101c051610160518082028215828483041417614b0957600080fd5b80905090509050610220518080614b1f57600080fd5b8204905090506101c05261016051610220525b60006101e0511115614bde576101405161016051610180516101a0516101c0516101e05161020051610220516101e05161024052610260600a600e6101405160e05260c052604060c02060c052602060c020018060c052602060c02054825260018160c052602060c02001548260200152505061028051610260516102405160065801613e6a565b61022052610200526101e0526101c0526101a0526101805261016052610140526000505b6000610200516101c051818183011015614bf757600080fd5b808201905090501115614ca4576101405161016051610180516101a0516101c0516101e0516102005161022051610200516101c051818183011015614c3b57600080fd5b8082019050905061024052610260600b8060c052602060c02054825260018160c052602060c02001548260200152505061028051610260516102405160065801613e6a565b61022052610200526101e0526101c0526101a0526101805261016052610140526000505b6102205160005260005161018051565b610004614cb803610004600039610004614cb8036000f3"
}