{
  "_format": "hh-sol-artifact-1",
  "contractName": "MultiVaultFacetTokens",
  "sourceName": "contracts/multivault/multivault/facets/MultiVaultFacetTokens.sol",
  "abi": [
    {
      "anonymous": false,
      "inputs": [
        {
          "indexed": false,
          "internalType": "address",
          "name": "token",
          "type": "address"
        }
      ],
      "name": "BlacklistTokenAdded",
      "type": "event"
    },
    {
      "anonymous": false,
      "inputs": [
        {
          "indexed": false,
          "internalType": "address",
          "name": "token",
          "type": "address"
        }
      ],
      "name": "BlacklistTokenRemoved",
      "type": "event"
    },
    {
      "anonymous": false,
      "inputs": [
        {
          "indexed": false,
          "internalType": "address",
          "name": "token",
          "type": "address"
        },
        {
          "indexed": false,
          "internalType": "uint256",
          "name": "activation",
          "type": "uint256"
        },
        {
          "indexed": false,
          "internalType": "bool",
          "name": "isNative",
          "type": "bool"
        },
        {
          "indexed": false,
          "internalType": "uint256",
          "name": "depositFee",
          "type": "uint256"
        },
        {
          "indexed": false,
          "internalType": "uint256",
          "name": "withdrawFee",
          "type": "uint256"
        }
      ],
      "name": "TokenActivated",
      "type": "event"
    },
    {
      "anonymous": false,
      "inputs": [
        {
          "indexed": false,
          "internalType": "address",
          "name": "token",
          "type": "address"
        },
        {
          "indexed": false,
          "internalType": "int8",
          "name": "native_wid",
          "type": "int8"
        },
        {
          "indexed": false,
          "internalType": "uint256",
          "name": "native_addr",
          "type": "uint256"
        },
        {
          "indexed": false,
          "internalType": "string",
          "name": "name_prefix",
          "type": "string"
        },
        {
          "indexed": false,
          "internalType": "string",
          "name": "symbol_prefix",
          "type": "string"
        },
        {
          "indexed": false,
          "internalType": "string",
          "name": "name",
          "type": "string"
        },
        {
          "indexed": false,
          "internalType": "string",
          "name": "symbol",
          "type": "string"
        },
        {
          "indexed": false,
          "internalType": "uint8",
          "name": "decimals",
          "type": "uint8"
        }
      ],
      "name": "TokenCreated",
      "type": "event"
    },
    {
      "inputs": [],
      "name": "getInitHash",
      "outputs": [
        {
          "internalType": "bytes32",
          "name": "",
          "type": "bytes32"
        }
      ],
      "stateMutability": "pure",
      "type": "function"
    },
    {
      "inputs": [
        {
          "components": [
            {
              "internalType": "int8",
              "name": "wid",
              "type": "int8"
            },
            {
              "internalType": "uint256",
              "name": "addr",
              "type": "uint256"
            }
          ],
          "internalType": "struct IEverscale.EverscaleAddress",
          "name": "native",
          "type": "tuple"
        }
      ],
      "name": "getNativeToken",
      "outputs": [
        {
          "internalType": "address",
          "name": "token",
          "type": "address"
        }
      ],
      "stateMutability": "view",
      "type": "function"
    },
    {
      "inputs": [
        {
          "internalType": "address",
          "name": "_token",
          "type": "address"
        }
      ],
      "name": "natives",
      "outputs": [
        {
          "components": [
            {
              "internalType": "int8",
              "name": "wid",
              "type": "int8"
            },
            {
              "internalType": "uint256",
              "name": "addr",
              "type": "uint256"
            }
          ],
          "internalType": "struct IEverscale.EverscaleAddress",
          "name": "",
          "type": "tuple"
        }
      ],
      "stateMutability": "view",
      "type": "function"
    },
    {
      "inputs": [
        {
          "internalType": "address",
          "name": "_token",
          "type": "address"
        }
      ],
      "name": "prefixes",
      "outputs": [
        {
          "components": [
            {
              "internalType": "uint256",
              "name": "activation",
              "type": "uint256"
            },
            {
              "internalType": "string",
              "name": "name",
              "type": "string"
            },
            {
              "internalType": "string",
              "name": "symbol",
              "type": "string"
            }
          ],
          "internalType": "struct IMultiVaultFacetTokens.TokenPrefix",
          "name": "",
          "type": "tuple"
        }
      ],
      "stateMutability": "view",
      "type": "function"
    },
    {
      "inputs": [
        {
          "internalType": "address",
          "name": "token",
          "type": "address"
        },
        {
          "internalType": "string",
          "name": "name_prefix",
          "type": "string"
        },
        {
          "internalType": "string",
          "name": "symbol_prefix",
          "type": "string"
        }
      ],
      "name": "setPrefix",
      "outputs": [],
      "stateMutability": "nonpayable",
      "type": "function"
    },
    {
      "inputs": [
        {
          "internalType": "address",
          "name": "token",
          "type": "address"
        },
        {
          "internalType": "bool",
          "name": "blacklisted",
          "type": "bool"
        }
      ],
      "name": "setTokenBlacklist",
      "outputs": [],
      "stateMutability": "nonpayable",
      "type": "function"
    },
    {
      "inputs": [
        {
          "internalType": "address",
          "name": "_token",
          "type": "address"
        }
      ],
      "name": "tokens",
      "outputs": [
        {
          "components": [
            {
              "internalType": "uint256",
              "name": "activation",
              "type": "uint256"
            },
            {
              "internalType": "bool",
              "name": "blacklisted",
              "type": "bool"
            },
            {
              "internalType": "uint256",
              "name": "depositFee",
              "type": "uint256"
            },
            {
              "internalType": "uint256",
              "name": "withdrawFee",
              "type": "uint256"
            },
            {
              "internalType": "bool",
              "name": "isNative",
              "type": "bool"
            },
            {
              "internalType": "address",
              "name": "custom",
              "type": "address"
            }
          ],
          "internalType": "struct IMultiVaultFacetTokens.Token",
          "name": "",
          "type": "tuple"
        }
      ],
      "stateMutability": "view",
      "type": "function"
    }
  ],
  "bytecode": "0x608060405234801561001057600080fd5b50611d70806100206000396000f3fe608060405234801561001057600080fd5b506004361061007c5760003560e01c80633c9de1b81161005b5780633c9de1b8146100df5780637681025a146100f4578063e486033914610114578063f682d3bb146101345761007c565b80622d732c1461008157806302bc2e79146100aa5780631ff0769a146100ca575b600080fd5b61009461008f3660046108aa565b610147565b6040516100a19190610aa2565b60405180910390f35b6100bd6100b83660046108aa565b61019f565b6040516100a19190610abc565b6100dd6100d83660046108cb565b61031b565b005b6100e761037d565b6040516100a19190610a99565b610107610102366004610976565b6103d3565b6040516100a19190610a85565b6101276101223660046108aa565b6103e4565b6040516100a19190610b08565b6100dd610142366004610905565b610468565b61014f6106f1565b6000610159610689565b6001600160a01b038416600090815260019182016020908152604080832081518083019092528054840b840b90930b81529190920154918101919091529150505b919050565b6101a7610708565b60006101b1610689565b9050806012016000846001600160a01b03166001600160a01b03168152602001908152602001600020604051806060016040529081600082015481526020016001820180546101ff90610b84565b80601f016020809104026020016040519081016040528092919081815260200182805461022b90610b84565b80156102785780601f1061024d57610100808354040283529160200191610278565b820191906000526020600020905b81548152906001019060200180831161025b57829003601f168201915b5050505050815260200160028201805461029190610b84565b80601f01602080910402602001604051908101604052809291908181526020018280546102bd90610b84565b801561030a5780601f106102df5761010080835404028352916020019161030a565b820191906000526020600020905b8154815290600101906020018083116102ed57829003601f168201915b505050505081525050915050919050565b6000610325610689565b600e8101549091506001600160a01b0316331461034157600080fd5b600061034b610689565b6001600160a01b0394909416600090815260209490945250506040909120600101805460ff1916911515919091179055565b6000806040518060200161039090610729565b6020820181038252601f19601f820116604052509050806040516020016103b791906109fd565b6040516020818303038152906040528051906020012091505090565b60006103de8261068e565b92915050565b6103ec610736565b60006103f6610689565b6001600160a01b0380851660009081526020928352604090819020815160c08101835281548152600182015460ff9081161515958201959095526002820154928101929092526003810154606083015260040154928316151560808201526101009092041660a0820152915050919050565b6000610472610689565b600e8101549091506001600160a01b031633148061049c575060118101546001600160a01b031633145b6104a557600080fd5b60006104af610689565b90506000816012016000876001600160a01b03166001600160a01b03168152602001908152602001600020604051806060016040529081600082015481526020016001820180546104ff90610b84565b80601f016020809104026020016040519081016040528092919081815260200182805461052b90610b84565b80156105785780601f1061054d57610100808354040283529160200191610578565b820191906000526020600020905b81548152906001019060200180831161055b57829003601f168201915b5050505050815260200160028201805461059190610b84565b80601f01602080910402602001604051908101604052809291908181526020018280546105bd90610b84565b801561060a5780601f106105df5761010080835404028352916020019161060a565b820191906000526020600020905b8154815290600101906020018083116105ed57829003601f168201915b505050919092525050815191925050610621574381525b602080820186815260408084018790526001600160a01b03891660009081526012860184522083518155905180518493610662926001850192910190610779565b506040820151805161067e916002840191602090910190610779565b505050505050505050565b600290565b600030826000015183602001516040516020016106ac929190610a19565b604051602081830303815290604052805190602001206040516020016106d3929190610a2f565b60408051601f19818403018152919052805160209091012092915050565b604080518082019091526000808252602082015290565b60405180606001604052806000815260200160608152602001606081525090565b61116580610bd683390190565b6040518060c0016040528060008152602001600015158152602001600081526020016000815260200160001515815260200160006001600160a01b031681525090565b82805461078590610b84565b90600052602060002090601f0160209004810192826107a757600085556107ed565b82601f106107c057805160ff19168380011785556107ed565b828001600101855582156107ed579182015b828111156107ed5782518255916020019190600101906107d2565b506107f99291506107fd565b5090565b5b808211156107f957600081556001016107fe565b80356001600160a01b038116811461019a57600080fd5b600082601f830112610839578081fd5b813567ffffffffffffffff8082111561085457610854610bbf565b604051601f8301601f19168101602001828111828210171561087857610878610bbf565b60405282815284830160200186101561088f578384fd5b82602086016020830137918201602001929092529392505050565b6000602082840312156108bb578081fd5b6108c482610812565b9392505050565b600080604083850312156108dd578081fd5b6108e683610812565b9150602083013580151581146108fa578182fd5b809150509250929050565b600080600060608486031215610919578081fd5b61092284610812565b9250602084013567ffffffffffffffff8082111561093e578283fd5b61094a87838801610829565b9350604086013591508082111561095f578283fd5b5061096c86828701610829565b9150509250925092565b600060408284031215610987578081fd5b6040516040810181811067ffffffffffffffff821117156109aa576109aa610bbf565b604052823580830b81146109bc578283fd5b81526020928301359281019290925250919050565b600081518084526109e9816020860160208601610b54565b601f01601f19169290920160200192915050565b60008251610a0f818460208701610b54565b9190910192915050565b60009290920b60f81b8252600182015260210190565b6001600160f81b0319815260609290921b6bffffffffffffffffffffffff1916600183015260158201527f192c19818bebb5c6c95f5dcb3c3257379fc46fb654780cb06f3211ee77e1a360603582015260550190565b6001600160a01b0391909116815260200190565b90815260200190565b815160000b81526020918201519181019190915260400190565b60006020825282516020830152602083015160606040840152610ae260808401826109d1565b90506040840151601f19848303016060850152610aff82826109d1565b95945050505050565b81518152602080830151151590820152604080830151908201526060808301519082015260808083015115159082015260a0918201516001600160a01b03169181019190915260c00190565b60005b83811015610b6f578181015183820152602001610b57565b83811115610b7e576000848401525b50505050565b600281046001821680610b9857607f821691505b60208210811415610bb957634e487b7160e01b600052602260045260246000fd5b50919050565b634e487b7160e01b600052604160045260246000fdfe608060405234801561001057600080fd5b50610019610028565b6100228161002c565b5061007c565b3390565b600080546001600160a01b038381166001600160a01b0319831681178455604051919092169283917f8be0079c531659141344cd1fd0a4f28419497f9722a3daafe3b4186f6b6457e09190a35050565b6110da8061008b6000396000f3fe608060405234801561001057600080fd5b506004361061010b5760003560e01c806370a08231116100a25780639dc29fac116100715780639dc29fac146101fe578063a457c2d714610211578063a9059cbb14610224578063dd62ed3e14610237578063f2fde38b1461024a5761010b565b806370a08231146101c6578063715018a6146101d95780638da5cb5b146101e157806395d89b41146101f65761010b565b806323b872dd116100de57806323b872dd14610178578063313ce5671461018b57806339509351146101a057806340c10f19146101b35761010b565b806306fdde0314610110578063095ea7b31461012e5780631624f6c61461014e57806318160ddd14610163575b600080fd5b61011861025d565b6040516101259190610c9f565b60405180910390f35b61014161013c366004610bdd565b6102ef565b6040516101259190610c94565b61016161015c366004610c06565b610311565b005b61016b610362565b6040516101259190610ff7565b610141610186366004610ba2565b610368565b610193610396565b6040516101259190611000565b6101416101ae366004610bdd565b61039f565b6101616101c1366004610bdd565b6103cb565b61016b6101d4366004610b4f565b610421565b610161610440565b6101e961048b565b6040516101259190610c80565b61011861049a565b61016161020c366004610bdd565b6104a9565b61014161021f366004610bdd565b6104f2565b610141610232366004610bdd565b61053a565b61016b610245366004610b70565b610552565b610161610258366004610b4f565b61057d565b60606005805461026c9061103d565b80601f01602080910402602001604051908101604052809291908181526020018280546102989061103d565b80156102e55780601f106102ba576101008083540402835291602001916102e5565b820191906000526020600020905b8154815290600101906020018083116102c857829003601f168201915b5050505050905090565b6000806102fa6105ee565b90506103078185856105f2565b5060019392505050565b6001541561031e57600080fd5b8251610331906005906020860190610a1e565b508151610345906006906020850190610a1e565b506007805460ff191660ff92909216919091179055505043600155565b60045490565b6000806103736105ee565b90506103808582856106a6565b61038b8585856106f0565b506001949350505050565b60075460ff1690565b6000806103aa6105ee565b90506103078185856103bc8589610552565b6103c6919061100e565b6105f2565b6103d36105ee565b6001600160a01b03166103e461048b565b6001600160a01b0316146104135760405162461bcd60e51b815260040161040a90610e7c565b60405180910390fd5b61041d8282610814565b5050565b6001600160a01b0381166000908152600260205260409020545b919050565b6104486105ee565b6001600160a01b031661045961048b565b6001600160a01b03161461047f5760405162461bcd60e51b815260040161040a90610e7c565b61048960006108dc565b565b6000546001600160a01b031690565b60606006805461026c9061103d565b6104b16105ee565b6001600160a01b03166104c261048b565b6001600160a01b0316146104e85760405162461bcd60e51b815260040161040a90610e7c565b61041d828261092c565b6000806104fd6105ee565b9050600061050b8286610552565b90508381101561052d5760405162461bcd60e51b815260040161040a90610f7b565b61038b82868684036105f2565b6000806105456105ee565b90506103078185856106f0565b6001600160a01b03918216600090815260036020908152604080832093909416825291909152205490565b6105856105ee565b6001600160a01b031661059661048b565b6001600160a01b0316146105bc5760405162461bcd60e51b815260040161040a90610e7c565b6001600160a01b0381166105e25760405162461bcd60e51b815260040161040a90610d77565b6105eb816108dc565b50565b3390565b6001600160a01b0383166106185760405162461bcd60e51b815260040161040a90610f37565b6001600160a01b03821661063e5760405162461bcd60e51b815260040161040a90610dbd565b6001600160a01b0380841660008181526003602090815260408083209487168084529490915290819020849055517f8c5be1e5ebec7d5bd14f71427d1e84f3dd0314c0f7b2291e5b200ac8c7c3b92590610699908590610ff7565b60405180910390a3505050565b60006106b28484610552565b905060001981146106ea57818110156106dd5760405162461bcd60e51b815260040161040a90610dff565b6106ea84848484036105f2565b50505050565b6001600160a01b0383166107165760405162461bcd60e51b815260040161040a90610ef2565b6001600160a01b03821661073c5760405162461bcd60e51b815260040161040a90610cf2565b610747838383610a19565b6001600160a01b038316600090815260026020526040902054818110156107805760405162461bcd60e51b815260040161040a90610e36565b6001600160a01b038085166000908152600260205260408082208585039055918516815290812080548492906107b790849061100e565b92505081905550826001600160a01b0316846001600160a01b03167fddf252ad1be2c89b69c2b068fc378daa952ba7f163c4a11628f55a4df523b3ef846040516108019190610ff7565b60405180910390a36106ea848484610a19565b6001600160a01b03821661083a5760405162461bcd60e51b815260040161040a90610fc0565b61084660008383610a19565b8060046000828254610858919061100e565b90915550506001600160a01b0382166000908152600260205260408120805483929061088590849061100e565b90915550506040516001600160a01b038316906000907fddf252ad1be2c89b69c2b068fc378daa952ba7f163c4a11628f55a4df523b3ef906108c8908590610ff7565b60405180910390a361041d60008383610a19565b600080546001600160a01b038381166001600160a01b0319831681178455604051919092169283917f8be0079c531659141344cd1fd0a4f28419497f9722a3daafe3b4186f6b6457e09190a35050565b6001600160a01b0382166109525760405162461bcd60e51b815260040161040a90610eb1565b61095e82600083610a19565b6001600160a01b038216600090815260026020526040902054818110156109975760405162461bcd60e51b815260040161040a90610d35565b6001600160a01b03831660009081526002602052604081208383039055600480548492906109c6908490611026565b90915550506040516000906001600160a01b038516907fddf252ad1be2c89b69c2b068fc378daa952ba7f163c4a11628f55a4df523b3ef90610a09908690610ff7565b60405180910390a3610a19836000845b505050565b828054610a2a9061103d565b90600052602060002090601f016020900481019282610a4c5760008555610a92565b82601f10610a6557805160ff1916838001178555610a92565b82800160010185558215610a92579182015b82811115610a92578251825591602001919060010190610a77565b50610a9e929150610aa2565b5090565b5b80821115610a9e5760008155600101610aa3565b80356001600160a01b038116811461043b57600080fd5b600082601f830112610ade578081fd5b813567ffffffffffffffff80821115610af957610af961108e565b604051601f8301601f191681016020018281118282101715610b1d57610b1d61108e565b604052828152848301602001861015610b34578384fd5b82602086016020830137918201602001929092529392505050565b600060208284031215610b60578081fd5b610b6982610ab7565b9392505050565b60008060408385031215610b82578081fd5b610b8b83610ab7565b9150610b9960208401610ab7565b90509250929050565b600080600060608486031215610bb6578081fd5b610bbf84610ab7565b9250610bcd60208501610ab7565b9150604084013590509250925092565b60008060408385031215610bef578182fd5b610bf883610ab7565b946020939093013593505050565b600080600060608486031215610c1a578283fd5b833567ffffffffffffffff80821115610c31578485fd5b610c3d87838801610ace565b94506020860135915080821115610c52578384fd5b50610c5f86828701610ace565b925050604084013560ff81168114610c75578182fd5b809150509250925092565b6001600160a01b0391909116815260200190565b901515815260200190565b6000602080835283518082850152825b81811015610ccb57858101830151858201604001528201610caf565b81811115610cdc5783604083870101525b50601f01601f1916929092016040019392505050565b60208082526023908201527f45524332303a207472616e7366657220746f20746865207a65726f206164647260408201526265737360e81b606082015260800190565b60208082526022908201527f45524332303a206275726e20616d6f756e7420657863656564732062616c616e604082015261636560f01b606082015260800190565b60208082526026908201527f4f776e61626c653a206e6577206f776e657220697320746865207a65726f206160408201526564647265737360d01b606082015260800190565b60208082526022908201527f45524332303a20617070726f766520746f20746865207a65726f206164647265604082015261737360f01b606082015260800190565b6020808252601d908201527f45524332303a20696e73756666696369656e7420616c6c6f77616e6365000000604082015260600190565b60208082526026908201527f45524332303a207472616e7366657220616d6f756e7420657863656564732062604082015265616c616e636560d01b606082015260800190565b6020808252818101527f4f776e61626c653a2063616c6c6572206973206e6f7420746865206f776e6572604082015260600190565b60208082526021908201527f45524332303a206275726e2066726f6d20746865207a65726f206164647265736040820152607360f81b606082015260800190565b60208082526025908201527f45524332303a207472616e736665722066726f6d20746865207a65726f206164604082015264647265737360d81b606082015260800190565b60208082526024908201527f45524332303a20617070726f76652066726f6d20746865207a65726f206164646040820152637265737360e01b606082015260800190565b60208082526025908201527f45524332303a2064656372656173656420616c6c6f77616e63652062656c6f77604082015264207a65726f60d81b606082015260800190565b6020808252601f908201527f45524332303a206d696e7420746f20746865207a65726f206164647265737300604082015260600190565b90815260200190565b60ff91909116815260200190565b6000821982111561102157611021611078565b500190565b60008282101561103857611038611078565b500390565b60028104600182168061105157607f821691505b6020821081141561107257634e487b7160e01b600052602260045260246000fd5b50919050565b634e487b7160e01b600052601160045260246000fd5b634e487b7160e01b600052604160045260246000fdfea2646970667358221220f18026eb95ae5bbcf4ea7ea2edc428bd95ed8a4f562ba16ae901cac10b082dc664736f6c63430008000033a2646970667358221220b2bb308dd08e46b15f2ba1d40e352fc707c7d3e9316cb02d1ad0a07b9bb79ccb64736f6c63430008000033",
  "linkReferences": {},
  "deployedLinkReferences": {}
}